{"contracts/TemperatureOracle.sol":{"TemperatureOracle":{"abi":[{"inputs":[{"internalType":"address","name":"_agriTraceCore","type":"address"}],"stateMutability":"nonpayable","type":"constructor"},{"anonymous":false,"inputs":[{"indexed":true,"internalType":"bytes32","name":"id","type":"bytes32"}],"name":"ChainlinkCancelled","type":"event"},{"anonymous":false,"inputs":[{"indexed":true,"internalType":"bytes32","name":"id","type":"bytes32"}],"name":"ChainlinkFulfilled","type":"event"},{"anonymous":false,"inputs":[{"indexed":true,"internalType":"bytes32","name":"id","type":"bytes32"}],"name":"ChainlinkRequested","type":"event"},{"anonymous":false,"inputs":[{"indexed":true,"internalType":"uint256","name":"productId","type":"uint256"},{"indexed":false,"internalType":"uint256","name":"temperature","type":"uint256"}],"name":"CriticalTemperatureDetected","type":"event"},{"anonymous":false,"inputs":[{"indexed":true,"internalType":"address","name":"from","type":"address"},{"indexed":true,"internalType":"address","name":"to","type":"address"}],"name":"OwnershipTransferRequested","type":"event"},{"anonymous":false,"inputs":[{"indexed":true,"internalType":"address","name":"from","type":"address"},{"indexed":true,"internalType":"address","name":"to","type":"address"}],"name":"OwnershipTransferred","type":"event"},{"anonymous":false,"inputs":[{"indexed":true,"internalType":"bytes32","name":"requestId","type":"bytes32"},{"indexed":false,"internalType":"uint256","name":"productId","type":"uint256"}],"name":"RequestTemperature","type":"event"},{"anonymous":false,"inputs":[{"indexed":true,"internalType":"bytes32","name":"requestId","type":"bytes32"},{"indexed":false,"internalType":"uint256","name":"temperature","type":"uint256"},{"indexed":false,"internalType":"uint256","name":"productId","type":"uint256"}],"name":"TemperatureReceived","type":"event"},{"inputs":[],"name":"acceptOwnership","outputs":[],"stateMutability":"nonpayable","type":"function"},{"inputs":[],"name":"agriTraceCore","outputs":[{"internalType":"contract AgriTraceCore","name":"","type":"address"}],"stateMutability":"view","type":"function"},{"inputs":[{"internalType":"bytes32","name":"_requestId","type":"bytes32"},{"internalType":"uint256","name":"_temperature","type":"uint256"}],"name":"fulfill","outputs":[],"stateMutability":"nonpayable","type":"function"},{"inputs":[{"internalType":"uint256","name":"productId","type":"uint256"}],"name":"getCurrentTemperature","outputs":[{"internalType":"uint256","name":"","type":"uint256"}],"stateMutability":"view","type":"function"},{"inputs":[{"internalType":"uint256","name":"productId","type":"uint256"}],"name":"getLatestTemperatureForProduct","outputs":[{"internalType":"uint256","name":"","type":"uint256"}],"stateMutability":"view","type":"function"},{"inputs":[{"internalType":"uint256","name":"","type":"uint256"}],"name":"latestTemperatureByProduct","outputs":[{"internalType":"uint256","name":"","type":"uint256"}],"stateMutability":"view","type":"function"},{"inputs":[],"name":"owner","outputs":[{"internalType":"address","name":"","type":"address"}],"stateMutability":"view","type":"function"},{"inputs":[{"internalType":"uint256","name":"productId","type":"uint256"}],"name":"requestTemperatureForProduct","outputs":[{"internalType":"bytes32","name":"requestId","type":"bytes32"}],"stateMutability":"nonpayable","type":"function"},{"inputs":[{"internalType":"bytes32","name":"","type":"bytes32"}],"name":"requestToProductId","outputs":[{"internalType":"uint256","name":"","type":"uint256"}],"stateMutability":"view","type":"function"},{"inputs":[{"internalType":"bytes32","name":"","type":"bytes32"}],"name":"requestToRequester","outputs":[{"internalType":"address","name":"","type":"address"}],"stateMutability":"view","type":"function"},{"inputs":[{"internalType":"address","name":"to","type":"address"}],"name":"transferOwnership","outputs":[],"stateMutability":"nonpayable","type":"function"},{"inputs":[],"name":"withdrawLink","outputs":[],"stateMutability":"nonpayable","type":"function"}],"evm":{"bytecode":{"linkReferences":{},"object":"60803461013e57601f6112f038819003918201601f19168301916001600160401b038311848410176101435780849260209460405283398101031261013e57516001600160a01b0381169081900361013e57600160045533156100f957600680546001600160a01b0319908116331790915560028054821673779877a7b0d9e8603169ddbd7836e478b4624789179055600380548216736090149792daaee9d1d568c9f9a6f6b46aa29efd1790557f636139383336366363373331343935376238633031326337326630356165656260085567016345785d8a0000600955600a8054909116919091179055604051611196908161015a8239f35b60405162461bcd60e51b815260206004820152601860248201527f43616e6e6f7420736574206f776e657220746f207a65726f00000000000000006044820152606490fd5b600080fd5b634e487b7160e01b600052604160045260246000fdfe6080604052600436101561001257600080fd5b60003560e01c80631085a271146100cd5780633f66286a146100c85780634357855e146100c357806356100913146100a55780635ded83d0146100a557806371cba0c7146100be57806379ba5097146100b95780638da5cb5b146100b45780638dc654a2146100af578063a4f50073146100aa578063b6ec7709146100a55763f2fde38b146100a057600080fd5b610577565b610215565b61046e565b610354565b61032b565b61026a565b610241565b610132565b6100fe565b346100f95760203660031901126100f957600435600052600b6020526020604060002054604051908152f35b600080fd5b346100f95760203660031901126100f957600435600052600c602052602060018060a01b0360406000205416604051908152f35b346100f95760403660031901126100f9576004356024356000828152600560205260409020546001600160a01b031633036101bf57816101926101826101bd946000526005602052604060002090565b80546001600160a01b0319169055565b807f7cc135e0cebb02c3480ae5d74d377283180a2601f8f644edf7987b009316c63a600080a26106a4565b005b60405162461bcd60e51b815260206004820152602860248201527f536f75726365206d75737420626520746865206f7261636c65206f6620746865604482015267081c995c5d595cdd60c21b6064820152608490fd5b346100f95760203660031901126100f957600435600052600d6020526020604060002054604051908152f35b346100f95760003660031901126100f957600a546040516001600160a01b039091168152602090f35b346100f95760003660031901126100f9576007546001600160a01b031633036102ed576006546001600160a01b0316600680546001600160a01b03191633179055600780546001600160a01b031916905533906001600160a01b03167f8be0079c531659141344cd1fd0a4f28419497f9722a3daafe3b4186f6b6457e0600080a3005b60405162461bcd60e51b815260206004820152601660248201527526bab9ba10313290383937b837b9b2b21037bbb732b960511b6044820152606490fd5b346100f95760003660031901126100f9576006546040516001600160a01b039091168152602090f35b346100f95760003660031901126100f95761036d610908565b600254610392906103869081906001600160a01b031681565b6001600160a01b031690565b6040516370a0823160e01b8152306004820152602081602481855afa90811561043c576000926020926103f1928591610441575b5060405163a9059cbb60e01b8152336004820152602481019190915293849283919082906044820190565b03925af1801561043c576101bd9160009161040d575b506107fd565b61042f915060203d602011610435575b6104278183610662565b8101906107e5565b38610407565b503d61041d565b610698565b6104619150843d8611610467575b6104598183610662565b810190610689565b386103c6565b503d61044f565b346100f95760203660031901126100f9576105736105606004357fe78d462e5b267f45854758f0687f24365bbc54861f62fa130714b75dcb2416ad6105006104b960085430906109cc565b6104d36104c461083e565b6104cc61085f565b9083610a16565b6104e66104de61089a565b6104cc6108bc565b6104f76104f16108e5565b82610a2f565b60095490610a59565b9282849361051885600052600b602052604060002090565b556105503361053186600052600c602052604060002090565b80546001600160a01b0319166001600160a01b03909216919091179055565b6040519081529081906020820190565b0390a26040519081529081906020820190565b0390f35b346100f95760203660031901126100f9576004356001600160a01b038116908190036100f9576105a5610908565b3381146105f157600780546001600160a01b031916821790556006546001600160a01b03167fed8889f560326eb138920d842192f0eb3dd22b4f139c87a2c57538e05bae1278600080a3005b60405162461bcd60e51b815260206004820152601760248201527f43616e6e6f74207472616e7366657220746f2073656c660000000000000000006044820152606490fd5b634e487b7160e01b600052601160045260246000fd5b634e487b7160e01b600052604160045260246000fd5b90601f8019910116810190811067ffffffffffffffff82111761068457604052565b61064c565b908160209103126100f9575190565b6040513d6000823e3d90fd5b6106d96106bb82600052600b602052604060002090565b54926106d183600052600c602052604060002090565b506064900490565b90816106ef84600052600d602052604060002090565b55600a5460049060209061070b906001600160a01b0316610386565b6040516318e28d2360e21b815292839182905afa90811561043c57610791946101829484937fb32d3a5a3a3a89d5b466a9493eb564cb9be8b49311653acb63dc7c645fa59aaa936000916107c6575b508110610793575b604080519182526020820192909252a26000818152600b6020526040812055600052600c602052604060002090565b565b60405181815282907f0241c53f9292112c296487599ac90a45b728aed613e321f89cfd796bc75cf99590602090a2610762565b6107df915060203d602011610467576104598183610662565b3861075a565b908160209103126100f9575180151581036100f95790565b1561080457565b60405162461bcd60e51b81526020600482015260126024820152712ab730b13632903a37903a3930b739b332b960711b6044820152606490fd5b6040519061084d604083610662565b600382526219d95d60ea1b6020830152565b6040519061086e604083610662565b601c82527f687474703a2f2f3132372e302e302e313a353030302f73656e736f72000000006020830152565b604051906108a9604083610662565b60048252630e0c2e8d60e31b6020830152565b604051906108cb604083610662565b600b82526a74656d706572617475726560a81b6020830152565b604051906108f4604083610662565b600582526474696d657360d81b6020830152565b6006546001600160a01b0316330361091c57565b60405162461bcd60e51b815260206004820152601660248201527527b7363c9031b0b63630b1363290313c9037bbb732b960511b6044820152606490fd5b604051906040820182811067ffffffffffffffff821117610684576040526000602083606081520152565b6040519060a0820182811067ffffffffffffffff82111761068457604052816000815260006020820152600060408201526000606082015260806109c761095a565b910152565b906109d5610985565b506109de610985565b916109e7610985565b506109f56080840151610c31565b5082526001600160a01b031660208201526321abc2af60e11b604082015290565b60800180516107919392610a2991610b05565b51610b05565b610a5691610a44608060649301918251610b05565b51610a50601882610ee3565b506110b1565b50565b6003546004546001810193916001600160a01b0316848211610b0057610afd94600455610af88451610aea608063ffffffff60e01b604089015116970151516040519788936320214ca360e11b60208601526000602486015260006044860152606485015230608485015260a48401528560c4840152600160e4840152610100610104840152610124830190610bd2565b03601f198101865285610662565b610df5565b90565b610636565b8151610a5692919067ffffffffffffffff1660178111610b3c57610b3690610b309060601760ff1690565b82610ee3565b50610c9f565b60ff8111610b5e57610b3690610b57601860605b1784610ee3565b50826110b1565b61ffff8111610b7e57610b3690610b7760196060610b50565b508261103f565b63ffffffff8111610ba057610b3690610b99601a6060610b50565b5082610fcb565b610b3690610bb0601b6060610b50565b5082610f4f565b9060208201809211610b0057565b91908201809211610b0057565b919082519283825260005b848110610bfe575050826000602080949584010152601f8019910116010190565b80602080928401015182828601015201610bdd565b601f19810191908211610b0057565b600019810191908211610b0057565b610c3961095a565b506101006020820152610120604051808352600081520160405290565b90610c5f61095a565b50601f811680610c85575b50806020830152604051808352600081520160200160405290565b60200360208111610b00578101809111610b005738610c6a565b90610ca861095a565b5081515190805190610cb861095a565b50610cc68151831115611122565b610cd08284610bc5565b6020850151809111610d4e575b5060209084518051908386820101958501918211610d46575b505001905b6020811015610d2057600019906020036101000a019081199051169082511617905290565b9091610d3b610d35610d419285518152610bb7565b93610bb7565b91610c13565b610cfb565b523880610cf6565b610d6d610d68610d7392610d628787610bc5565b9061113f565b611129565b8561114f565b38610cdd565b610afd939260609260018060a01b0316825260208201528160408201520190610bd2565b15610da457565b60405162461bcd60e51b815260206004820152602360248201527f756e61626c6520746f207472616e73666572416e6443616c6c20746f206f7261604482015262636c6560e81b6064820152608490fd5b6040516bffffffffffffffffffffffff193060601b1660208083019182526034808401959095529382529394610ea894909291610e33605482610662565b51902094610e4f82610531886000526005602052604060002090565b60006040518096819582948a7fb5e6e01e79f91267dc17b4e6314d5d4d03593d2ceee0fbb452b750bd70ea5af98680a2600254610e94906001600160a01b0316610386565b630200057560e51b85529660048501610d79565b03925af1801561043c57610afd91600091610ec4575b50610d9d565b610edd915060203d602011610435576104278183610662565b38610ebe565b90610eec61095a565b50815151610ef861095a565b50602083015180821015610f29575b5082519182519182916020828601015314610f2157505090565b600101905290565b610f35610f4891611129565b610f4185519186610c56565b5084610c9f565b5038610f07565b90610f5861095a565b5081515190610f6561095a565b508160080180600811610b005760208401518111610fb8575b50610f9168010000000000000000610c22565b8351916008848401019119825116179052600881519201918211610fb457505090565b5290565b610f35610fc491611129565b5038610f7e565b90610fd461095a565b5081515190610fe161095a565b508160040180600411610b00576020840151811161102c575b50611009640100000000610c22565b8351916004848401019119825116179052600481519201918211610fb457505090565b610f3561103891611129565b5038610ffa565b9061104861095a565b508151519061105561095a565b508160020180600211610b00576020840151811161109e575b5061107b62010000610c22565b8351916002848401019119825116179052600281519201918211610fb457505090565b610f356110aa91611129565b503861106e565b906110ba61095a565b50815151906110c761095a565b508160010180600111610b00576020840151811161110f575b506110ec610100610c22565b8351916001848401019119825116179052600181519201918211610fb457505090565b610f3561111b91611129565b50386110e0565b156100f957565b908160011b9180830460021490151715610b0057565b81811161114a575090565b905090565b90610a5691610b3681519282610c5656fea264697066735822122086ed17989a23ba1525b7a7b53ea0e72d2ebbb49ad6f50ab29e66c63792a1759564736f6c634300081c0033","opcodes":"PUSH1 0x80 CALLVALUE PUSH2 0x13E JUMPI PUSH1 0x1F PUSH2 0x12F0 CODESIZE DUP2 SWAP1 SUB SWAP2 DUP3 ADD PUSH1 0x1F NOT AND DUP4 ADD SWAP2 PUSH1 0x1 PUSH1 0x1 PUSH1 0x40 SHL SUB DUP4 GT DUP5 DUP5 LT OR PUSH2 0x143 JUMPI DUP1 DUP5 SWAP3 PUSH1 0x20 SWAP5 PUSH1 0x40 MSTORE DUP4 CODECOPY DUP2 ADD SUB SLT PUSH2 0x13E JUMPI MLOAD PUSH1 0x1 PUSH1 0x1 PUSH1 0xA0 SHL SUB DUP2 AND SWAP1 DUP2 SWAP1 SUB PUSH2 0x13E JUMPI PUSH1 0x1 PUSH1 0x4 SSTORE CALLER ISZERO PUSH2 0xF9 JUMPI PUSH1 0x6 DUP1 SLOAD PUSH1 0x1 PUSH1 0x1 PUSH1 0xA0 SHL SUB NOT SWAP1 DUP2 AND CALLER OR SWAP1 SWAP2 SSTORE PUSH1 0x2 DUP1 SLOAD DUP3 AND PUSH20 0x779877A7B0D9E8603169DDBD7836E478B4624789 OR SWAP1 SSTORE PUSH1 0x3 DUP1 SLOAD DUP3 AND PUSH20 0x6090149792DAAEE9D1D568C9F9A6F6B46AA29EFD OR SWAP1 SSTORE PUSH32 0x6361393833363663633733313439353762386330313263373266303561656562 PUSH1 0x8 SSTORE PUSH8 0x16345785D8A0000 PUSH1 0x9 SSTORE PUSH1 0xA DUP1 SLOAD SWAP1 SWAP2 AND SWAP2 SWAP1 SWAP2 OR SWAP1 SSTORE PUSH1 0x40 MLOAD PUSH2 0x1196 SWAP1 DUP2 PUSH2 0x15A DUP3 CODECOPY RETURN JUMPDEST PUSH1 0x40 MLOAD PUSH3 0x461BCD PUSH1 0xE5 SHL DUP2 MSTORE PUSH1 0x20 PUSH1 0x4 DUP3 ADD MSTORE PUSH1 0x18 PUSH1 0x24 DUP3 ADD MSTORE PUSH32 0x43616E6E6F7420736574206F776E657220746F207A65726F0000000000000000 PUSH1 0x44 DUP3 ADD MSTORE PUSH1 0x64 SWAP1 REVERT JUMPDEST PUSH1 0x0 DUP1 REVERT JUMPDEST PUSH4 0x4E487B71 PUSH1 0xE0 SHL PUSH1 0x0 MSTORE PUSH1 0x41 PUSH1 0x4 MSTORE PUSH1 0x24 PUSH1 0x0 REVERT INVALID PUSH1 0x80 PUSH1 0x40 MSTORE PUSH1 0x4 CALLDATASIZE LT ISZERO PUSH2 0x12 JUMPI PUSH1 0x0 DUP1 REVERT JUMPDEST PUSH1 0x0 CALLDATALOAD PUSH1 0xE0 SHR DUP1 PUSH4 0x1085A271 EQ PUSH2 0xCD JUMPI DUP1 PUSH4 0x3F66286A EQ PUSH2 0xC8 JUMPI DUP1 PUSH4 0x4357855E EQ PUSH2 0xC3 JUMPI DUP1 PUSH4 0x56100913 EQ PUSH2 0xA5 JUMPI DUP1 PUSH4 0x5DED83D0 EQ PUSH2 0xA5 JUMPI DUP1 PUSH4 0x71CBA0C7 EQ PUSH2 0xBE JUMPI DUP1 PUSH4 0x79BA5097 EQ PUSH2 0xB9 JUMPI DUP1 PUSH4 0x8DA5CB5B EQ PUSH2 0xB4 JUMPI DUP1 PUSH4 0x8DC654A2 EQ PUSH2 0xAF JUMPI DUP1 PUSH4 0xA4F50073 EQ PUSH2 0xAA JUMPI DUP1 PUSH4 0xB6EC7709 EQ PUSH2 0xA5 JUMPI PUSH4 0xF2FDE38B EQ PUSH2 0xA0 JUMPI PUSH1 0x0 DUP1 REVERT JUMPDEST PUSH2 0x577 JUMP JUMPDEST PUSH2 0x215 JUMP JUMPDEST PUSH2 0x46E JUMP JUMPDEST PUSH2 0x354 JUMP JUMPDEST PUSH2 0x32B JUMP JUMPDEST PUSH2 0x26A JUMP JUMPDEST PUSH2 0x241 JUMP JUMPDEST PUSH2 0x132 JUMP JUMPDEST PUSH2 0xFE JUMP JUMPDEST CALLVALUE PUSH2 0xF9 JUMPI PUSH1 0x20 CALLDATASIZE PUSH1 0x3 NOT ADD SLT PUSH2 0xF9 JUMPI PUSH1 0x4 CALLDATALOAD PUSH1 0x0 MSTORE PUSH1 0xB PUSH1 0x20 MSTORE PUSH1 0x20 PUSH1 0x40 PUSH1 0x0 KECCAK256 SLOAD PUSH1 0x40 MLOAD SWAP1 DUP2 MSTORE RETURN JUMPDEST PUSH1 0x0 DUP1 REVERT JUMPDEST CALLVALUE PUSH2 0xF9 JUMPI PUSH1 0x20 CALLDATASIZE PUSH1 0x3 NOT ADD SLT PUSH2 0xF9 JUMPI PUSH1 0x4 CALLDATALOAD PUSH1 0x0 MSTORE PUSH1 0xC PUSH1 0x20 MSTORE PUSH1 0x20 PUSH1 0x1 DUP1 PUSH1 0xA0 SHL SUB PUSH1 0x40 PUSH1 0x0 KECCAK256 SLOAD AND PUSH1 0x40 MLOAD SWAP1 DUP2 MSTORE RETURN JUMPDEST CALLVALUE PUSH2 0xF9 JUMPI PUSH1 0x40 CALLDATASIZE PUSH1 0x3 NOT ADD SLT PUSH2 0xF9 JUMPI PUSH1 0x4 CALLDATALOAD PUSH1 0x24 CALLDATALOAD PUSH1 0x0 DUP3 DUP2 MSTORE PUSH1 0x5 PUSH1 0x20 MSTORE PUSH1 0x40 SWAP1 KECCAK256 SLOAD PUSH1 0x1 PUSH1 0x1 PUSH1 0xA0 SHL SUB AND CALLER SUB PUSH2 0x1BF JUMPI DUP2 PUSH2 0x192 PUSH2 0x182 PUSH2 0x1BD SWAP5 PUSH1 0x0 MSTORE PUSH1 0x5 PUSH1 0x20 MSTORE PUSH1 0x40 PUSH1 0x0 KECCAK256 SWAP1 JUMP JUMPDEST DUP1 SLOAD PUSH1 0x1 PUSH1 0x1 PUSH1 0xA0 SHL SUB NOT AND SWAP1 SSTORE JUMP JUMPDEST DUP1 PUSH32 0x7CC135E0CEBB02C3480AE5D74D377283180A2601F8F644EDF7987B009316C63A PUSH1 0x0 DUP1 LOG2 PUSH2 0x6A4 JUMP JUMPDEST STOP JUMPDEST PUSH1 0x40 MLOAD PUSH3 0x461BCD PUSH1 0xE5 SHL DUP2 MSTORE PUSH1 0x20 PUSH1 0x4 DUP3 ADD MSTORE PUSH1 0x28 PUSH1 0x24 DUP3 ADD MSTORE PUSH32 0x536F75726365206D75737420626520746865206F7261636C65206F6620746865 PUSH1 0x44 DUP3 ADD MSTORE PUSH8 0x81C995C5D595CDD PUSH1 0xC2 SHL PUSH1 0x64 DUP3 ADD MSTORE PUSH1 0x84 SWAP1 REVERT JUMPDEST CALLVALUE PUSH2 0xF9 JUMPI PUSH1 0x20 CALLDATASIZE PUSH1 0x3 NOT ADD SLT PUSH2 0xF9 JUMPI PUSH1 0x4 CALLDATALOAD PUSH1 0x0 MSTORE PUSH1 0xD PUSH1 0x20 MSTORE PUSH1 0x20 PUSH1 0x40 PUSH1 0x0 KECCAK256 SLOAD PUSH1 0x40 MLOAD SWAP1 DUP2 MSTORE RETURN JUMPDEST CALLVALUE PUSH2 0xF9 JUMPI PUSH1 0x0 CALLDATASIZE PUSH1 0x3 NOT ADD SLT PUSH2 0xF9 JUMPI PUSH1 0xA SLOAD PUSH1 0x40 MLOAD PUSH1 0x1 PUSH1 0x1 PUSH1 0xA0 SHL SUB SWAP1 SWAP2 AND DUP2 MSTORE PUSH1 0x20 SWAP1 RETURN JUMPDEST CALLVALUE PUSH2 0xF9 JUMPI PUSH1 0x0 CALLDATASIZE PUSH1 0x3 NOT ADD SLT PUSH2 0xF9 JUMPI PUSH1 0x7 SLOAD PUSH1 0x1 PUSH1 0x1 PUSH1 0xA0 SHL SUB AND CALLER SUB PUSH2 0x2ED JUMPI PUSH1 0x6 SLOAD PUSH1 0x1 PUSH1 0x1 PUSH1 0xA0 SHL SUB AND PUSH1 0x6 DUP1 SLOAD PUSH1 0x1 PUSH1 0x1 PUSH1 0xA0 SHL SUB NOT AND CALLER OR SWAP1 SSTORE PUSH1 0x7 DUP1 SLOAD PUSH1 0x1 PUSH1 0x1 PUSH1 0xA0 SHL SUB NOT AND SWAP1 SSTORE CALLER SWAP1 PUSH1 0x1 PUSH1 0x1 PUSH1 0xA0 SHL SUB AND PUSH32 0x8BE0079C531659141344CD1FD0A4F28419497F9722A3DAAFE3B4186F6B6457E0 PUSH1 0x0 DUP1 LOG3 STOP JUMPDEST PUSH1 0x40 MLOAD PUSH3 0x461BCD PUSH1 0xE5 SHL DUP2 MSTORE PUSH1 0x20 PUSH1 0x4 DUP3 ADD MSTORE PUSH1 0x16 PUSH1 0x24 DUP3 ADD MSTORE PUSH22 0x26BAB9BA10313290383937B837B9B2B21037BBB732B9 PUSH1 0x51 SHL PUSH1 0x44 DUP3 ADD MSTORE PUSH1 0x64 SWAP1 REVERT JUMPDEST CALLVALUE PUSH2 0xF9 JUMPI PUSH1 0x0 CALLDATASIZE PUSH1 0x3 NOT ADD SLT PUSH2 0xF9 JUMPI PUSH1 0x6 SLOAD PUSH1 0x40 MLOAD PUSH1 0x1 PUSH1 0x1 PUSH1 0xA0 SHL SUB SWAP1 SWAP2 AND DUP2 MSTORE PUSH1 0x20 SWAP1 RETURN JUMPDEST CALLVALUE PUSH2 0xF9 JUMPI PUSH1 0x0 CALLDATASIZE PUSH1 0x3 NOT ADD SLT PUSH2 0xF9 JUMPI PUSH2 0x36D PUSH2 0x908 JUMP JUMPDEST PUSH1 0x2 SLOAD PUSH2 0x392 SWAP1 PUSH2 0x386 SWAP1 DUP2 SWAP1 PUSH1 0x1 PUSH1 0x1 PUSH1 0xA0 SHL SUB AND DUP2 JUMP JUMPDEST PUSH1 0x1 PUSH1 0x1 PUSH1 0xA0 SHL SUB AND SWAP1 JUMP JUMPDEST PUSH1 0x40 MLOAD PUSH4 0x70A08231 PUSH1 0xE0 SHL DUP2 MSTORE ADDRESS PUSH1 0x4 DUP3 ADD MSTORE PUSH1 0x20 DUP2 PUSH1 0x24 DUP2 DUP6 GAS STATICCALL SWAP1 DUP2 ISZERO PUSH2 0x43C JUMPI PUSH1 0x0 SWAP3 PUSH1 0x20 SWAP3 PUSH2 0x3F1 SWAP3 DUP6 SWAP2 PUSH2 0x441 JUMPI JUMPDEST POP PUSH1 0x40 MLOAD PUSH4 0xA9059CBB PUSH1 0xE0 SHL DUP2 MSTORE CALLER PUSH1 0x4 DUP3 ADD MSTORE PUSH1 0x24 DUP2 ADD SWAP2 SWAP1 SWAP2 MSTORE SWAP4 DUP5 SWAP3 DUP4 SWAP2 SWAP1 DUP3 SWAP1 PUSH1 0x44 DUP3 ADD SWAP1 JUMP JUMPDEST SUB SWAP3 GAS CALL DUP1 ISZERO PUSH2 0x43C JUMPI PUSH2 0x1BD SWAP2 PUSH1 0x0 SWAP2 PUSH2 0x40D JUMPI JUMPDEST POP PUSH2 0x7FD JUMP JUMPDEST PUSH2 0x42F SWAP2 POP PUSH1 0x20 RETURNDATASIZE PUSH1 0x20 GT PUSH2 0x435 JUMPI JUMPDEST PUSH2 0x427 DUP2 DUP4 PUSH2 0x662 JUMP JUMPDEST DUP2 ADD SWAP1 PUSH2 0x7E5 JUMP JUMPDEST CODESIZE PUSH2 0x407 JUMP JUMPDEST POP RETURNDATASIZE PUSH2 0x41D JUMP JUMPDEST PUSH2 0x698 JUMP JUMPDEST PUSH2 0x461 SWAP2 POP DUP5 RETURNDATASIZE DUP7 GT PUSH2 0x467 JUMPI JUMPDEST PUSH2 0x459 DUP2 DUP4 PUSH2 0x662 JUMP JUMPDEST DUP2 ADD SWAP1 PUSH2 0x689 JUMP JUMPDEST CODESIZE PUSH2 0x3C6 JUMP JUMPDEST POP RETURNDATASIZE PUSH2 0x44F JUMP JUMPDEST CALLVALUE PUSH2 0xF9 JUMPI PUSH1 0x20 CALLDATASIZE PUSH1 0x3 NOT ADD SLT PUSH2 0xF9 JUMPI PUSH2 0x573 PUSH2 0x560 PUSH1 0x4 CALLDATALOAD PUSH32 0xE78D462E5B267F45854758F0687F24365BBC54861F62FA130714B75DCB2416AD PUSH2 0x500 PUSH2 0x4B9 PUSH1 0x8 SLOAD ADDRESS SWAP1 PUSH2 0x9CC JUMP JUMPDEST PUSH2 0x4D3 PUSH2 0x4C4 PUSH2 0x83E JUMP JUMPDEST PUSH2 0x4CC PUSH2 0x85F JUMP JUMPDEST SWAP1 DUP4 PUSH2 0xA16 JUMP JUMPDEST PUSH2 0x4E6 PUSH2 0x4DE PUSH2 0x89A JUMP JUMPDEST PUSH2 0x4CC PUSH2 0x8BC JUMP JUMPDEST PUSH2 0x4F7 PUSH2 0x4F1 PUSH2 0x8E5 JUMP JUMPDEST DUP3 PUSH2 0xA2F JUMP JUMPDEST PUSH1 0x9 SLOAD SWAP1 PUSH2 0xA59 JUMP JUMPDEST SWAP3 DUP3 DUP5 SWAP4 PUSH2 0x518 DUP6 PUSH1 0x0 MSTORE PUSH1 0xB PUSH1 0x20 MSTORE PUSH1 0x40 PUSH1 0x0 KECCAK256 SWAP1 JUMP JUMPDEST SSTORE PUSH2 0x550 CALLER PUSH2 0x531 DUP7 PUSH1 0x0 MSTORE PUSH1 0xC PUSH1 0x20 MSTORE PUSH1 0x40 PUSH1 0x0 KECCAK256 SWAP1 JUMP JUMPDEST DUP1 SLOAD PUSH1 0x1 PUSH1 0x1 PUSH1 0xA0 SHL SUB NOT AND PUSH1 0x1 PUSH1 0x1 PUSH1 0xA0 SHL SUB SWAP1 SWAP3 AND SWAP2 SWAP1 SWAP2 OR SWAP1 SSTORE JUMP JUMPDEST PUSH1 0x40 MLOAD SWAP1 DUP2 MSTORE SWAP1 DUP2 SWAP1 PUSH1 0x20 DUP3 ADD SWAP1 JUMP JUMPDEST SUB SWAP1 LOG2 PUSH1 0x40 MLOAD SWAP1 DUP2 MSTORE SWAP1 DUP2 SWAP1 PUSH1 0x20 DUP3 ADD SWAP1 JUMP JUMPDEST SUB SWAP1 RETURN JUMPDEST CALLVALUE PUSH2 0xF9 JUMPI PUSH1 0x20 CALLDATASIZE PUSH1 0x3 NOT ADD SLT PUSH2 0xF9 JUMPI PUSH1 0x4 CALLDATALOAD PUSH1 0x1 PUSH1 0x1 PUSH1 0xA0 SHL SUB DUP2 AND SWAP1 DUP2 SWAP1 SUB PUSH2 0xF9 JUMPI PUSH2 0x5A5 PUSH2 0x908 JUMP JUMPDEST CALLER DUP2 EQ PUSH2 0x5F1 JUMPI PUSH1 0x7 DUP1 SLOAD PUSH1 0x1 PUSH1 0x1 PUSH1 0xA0 SHL SUB NOT AND DUP3 OR SWAP1 SSTORE PUSH1 0x6 SLOAD PUSH1 0x1 PUSH1 0x1 PUSH1 0xA0 SHL SUB AND PUSH32 0xED8889F560326EB138920D842192F0EB3DD22B4F139C87A2C57538E05BAE1278 PUSH1 0x0 DUP1 LOG3 STOP JUMPDEST PUSH1 0x40 MLOAD PUSH3 0x461BCD PUSH1 0xE5 SHL DUP2 MSTORE PUSH1 0x20 PUSH1 0x4 DUP3 ADD MSTORE PUSH1 0x17 PUSH1 0x24 DUP3 ADD MSTORE PUSH32 0x43616E6E6F74207472616E7366657220746F2073656C66000000000000000000 PUSH1 0x44 DUP3 ADD MSTORE PUSH1 0x64 SWAP1 REVERT JUMPDEST PUSH4 0x4E487B71 PUSH1 0xE0 SHL PUSH1 0x0 MSTORE PUSH1 0x11 PUSH1 0x4 MSTORE PUSH1 0x24 PUSH1 0x0 REVERT JUMPDEST PUSH4 0x4E487B71 PUSH1 0xE0 SHL PUSH1 0x0 MSTORE PUSH1 0x41 PUSH1 0x4 MSTORE PUSH1 0x24 PUSH1 0x0 REVERT JUMPDEST SWAP1 PUSH1 0x1F DUP1 NOT SWAP2 ADD AND DUP2 ADD SWAP1 DUP2 LT PUSH8 0xFFFFFFFFFFFFFFFF DUP3 GT OR PUSH2 0x684 JUMPI PUSH1 0x40 MSTORE JUMP JUMPDEST PUSH2 0x64C JUMP JUMPDEST SWAP1 DUP2 PUSH1 0x20 SWAP2 SUB SLT PUSH2 0xF9 JUMPI MLOAD SWAP1 JUMP JUMPDEST PUSH1 0x40 MLOAD RETURNDATASIZE PUSH1 0x0 DUP3 RETURNDATACOPY RETURNDATASIZE SWAP1 REVERT JUMPDEST PUSH2 0x6D9 PUSH2 0x6BB DUP3 PUSH1 0x0 MSTORE PUSH1 0xB PUSH1 0x20 MSTORE PUSH1 0x40 PUSH1 0x0 KECCAK256 SWAP1 JUMP JUMPDEST SLOAD SWAP3 PUSH2 0x6D1 DUP4 PUSH1 0x0 MSTORE PUSH1 0xC PUSH1 0x20 MSTORE PUSH1 0x40 PUSH1 0x0 KECCAK256 SWAP1 JUMP JUMPDEST POP PUSH1 0x64 SWAP1 DIV SWAP1 JUMP JUMPDEST SWAP1 DUP2 PUSH2 0x6EF DUP5 PUSH1 0x0 MSTORE PUSH1 0xD PUSH1 0x20 MSTORE PUSH1 0x40 PUSH1 0x0 KECCAK256 SWAP1 JUMP JUMPDEST SSTORE PUSH1 0xA SLOAD PUSH1 0x4 SWAP1 PUSH1 0x20 SWAP1 PUSH2 0x70B SWAP1 PUSH1 0x1 PUSH1 0x1 PUSH1 0xA0 SHL SUB AND PUSH2 0x386 JUMP JUMPDEST PUSH1 0x40 MLOAD PUSH4 0x18E28D23 PUSH1 0xE2 SHL DUP2 MSTORE SWAP3 DUP4 SWAP2 DUP3 SWAP1 GAS STATICCALL SWAP1 DUP2 ISZERO PUSH2 0x43C JUMPI PUSH2 0x791 SWAP5 PUSH2 0x182 SWAP5 DUP5 SWAP4 PUSH32 0xB32D3A5A3A3A89D5B466A9493EB564CB9BE8B49311653ACB63DC7C645FA59AAA SWAP4 PUSH1 0x0 SWAP2 PUSH2 0x7C6 JUMPI JUMPDEST POP DUP2 LT PUSH2 0x793 JUMPI JUMPDEST PUSH1 0x40 DUP1 MLOAD SWAP2 DUP3 MSTORE PUSH1 0x20 DUP3 ADD SWAP3 SWAP1 SWAP3 MSTORE LOG2 PUSH1 0x0 DUP2 DUP2 MSTORE PUSH1 0xB PUSH1 0x20 MSTORE PUSH1 0x40 DUP2 KECCAK256 SSTORE PUSH1 0x0 MSTORE PUSH1 0xC PUSH1 0x20 MSTORE PUSH1 0x40 PUSH1 0x0 KECCAK256 SWAP1 JUMP JUMPDEST JUMP JUMPDEST PUSH1 0x40 MLOAD DUP2 DUP2 MSTORE DUP3 SWAP1 PUSH32 0x241C53F9292112C296487599AC90A45B728AED613E321F89CFD796BC75CF995 SWAP1 PUSH1 0x20 SWAP1 LOG2 PUSH2 0x762 JUMP JUMPDEST PUSH2 0x7DF SWAP2 POP PUSH1 0x20 RETURNDATASIZE PUSH1 0x20 GT PUSH2 0x467 JUMPI PUSH2 0x459 DUP2 DUP4 PUSH2 0x662 JUMP JUMPDEST CODESIZE PUSH2 0x75A JUMP JUMPDEST SWAP1 DUP2 PUSH1 0x20 SWAP2 SUB SLT PUSH2 0xF9 JUMPI MLOAD DUP1 ISZERO ISZERO DUP2 SUB PUSH2 0xF9 JUMPI SWAP1 JUMP JUMPDEST ISZERO PUSH2 0x804 JUMPI JUMP JUMPDEST PUSH1 0x40 MLOAD PUSH3 0x461BCD PUSH1 0xE5 SHL DUP2 MSTORE PUSH1 0x20 PUSH1 0x4 DUP3 ADD MSTORE PUSH1 0x12 PUSH1 0x24 DUP3 ADD MSTORE PUSH18 0x2AB730B13632903A37903A3930B739B332B9 PUSH1 0x71 SHL PUSH1 0x44 DUP3 ADD MSTORE PUSH1 0x64 SWAP1 REVERT JUMPDEST PUSH1 0x40 MLOAD SWAP1 PUSH2 0x84D PUSH1 0x40 DUP4 PUSH2 0x662 JUMP JUMPDEST PUSH1 0x3 DUP3 MSTORE PUSH3 0x19D95D PUSH1 0xEA SHL PUSH1 0x20 DUP4 ADD MSTORE JUMP JUMPDEST PUSH1 0x40 MLOAD SWAP1 PUSH2 0x86E PUSH1 0x40 DUP4 PUSH2 0x662 JUMP JUMPDEST PUSH1 0x1C DUP3 MSTORE PUSH32 0x687474703A2F2F3132372E302E302E313A353030302F73656E736F7200000000 PUSH1 0x20 DUP4 ADD MSTORE JUMP JUMPDEST PUSH1 0x40 MLOAD SWAP1 PUSH2 0x8A9 PUSH1 0x40 DUP4 PUSH2 0x662 JUMP JUMPDEST PUSH1 0x4 DUP3 MSTORE PUSH4 0xE0C2E8D PUSH1 0xE3 SHL PUSH1 0x20 DUP4 ADD MSTORE JUMP JUMPDEST PUSH1 0x40 MLOAD SWAP1 PUSH2 0x8CB PUSH1 0x40 DUP4 PUSH2 0x662 JUMP JUMPDEST PUSH1 0xB DUP3 MSTORE PUSH11 0x74656D7065726174757265 PUSH1 0xA8 SHL PUSH1 0x20 DUP4 ADD MSTORE JUMP JUMPDEST PUSH1 0x40 MLOAD SWAP1 PUSH2 0x8F4 PUSH1 0x40 DUP4 PUSH2 0x662 JUMP JUMPDEST PUSH1 0x5 DUP3 MSTORE PUSH5 0x74696D6573 PUSH1 0xD8 SHL PUSH1 0x20 DUP4 ADD MSTORE JUMP JUMPDEST PUSH1 0x6 SLOAD PUSH1 0x1 PUSH1 0x1 PUSH1 0xA0 SHL SUB AND CALLER SUB PUSH2 0x91C JUMPI JUMP JUMPDEST PUSH1 0x40 MLOAD PUSH3 0x461BCD PUSH1 0xE5 SHL DUP2 MSTORE PUSH1 0x20 PUSH1 0x4 DUP3 ADD MSTORE PUSH1 0x16 PUSH1 0x24 DUP3 ADD MSTORE PUSH22 0x27B7363C9031B0B63630B1363290313C9037BBB732B9 PUSH1 0x51 SHL PUSH1 0x44 DUP3 ADD MSTORE PUSH1 0x64 SWAP1 REVERT JUMPDEST PUSH1 0x40 MLOAD SWAP1 PUSH1 0x40 DUP3 ADD DUP3 DUP2 LT PUSH8 0xFFFFFFFFFFFFFFFF DUP3 GT OR PUSH2 0x684 JUMPI PUSH1 0x40 MSTORE PUSH1 0x0 PUSH1 0x20 DUP4 PUSH1 0x60 DUP2 MSTORE ADD MSTORE JUMP JUMPDEST PUSH1 0x40 MLOAD SWAP1 PUSH1 0xA0 DUP3 ADD DUP3 DUP2 LT PUSH8 0xFFFFFFFFFFFFFFFF DUP3 GT OR PUSH2 0x684 JUMPI PUSH1 0x40 MSTORE DUP2 PUSH1 0x0 DUP2 MSTORE PUSH1 0x0 PUSH1 0x20 DUP3 ADD MSTORE PUSH1 0x0 PUSH1 0x40 DUP3 ADD MSTORE PUSH1 0x0 PUSH1 0x60 DUP3 ADD MSTORE PUSH1 0x80 PUSH2 0x9C7 PUSH2 0x95A JUMP JUMPDEST SWAP2 ADD MSTORE JUMP JUMPDEST SWAP1 PUSH2 0x9D5 PUSH2 0x985 JUMP JUMPDEST POP PUSH2 0x9DE PUSH2 0x985 JUMP JUMPDEST SWAP2 PUSH2 0x9E7 PUSH2 0x985 JUMP JUMPDEST POP PUSH2 0x9F5 PUSH1 0x80 DUP5 ADD MLOAD PUSH2 0xC31 JUMP JUMPDEST POP DUP3 MSTORE PUSH1 0x1 PUSH1 0x1 PUSH1 0xA0 SHL SUB AND PUSH1 0x20 DUP3 ADD MSTORE PUSH4 0x21ABC2AF PUSH1 0xE1 SHL PUSH1 0x40 DUP3 ADD MSTORE SWAP1 JUMP JUMPDEST PUSH1 0x80 ADD DUP1 MLOAD PUSH2 0x791 SWAP4 SWAP3 PUSH2 0xA29 SWAP2 PUSH2 0xB05 JUMP JUMPDEST MLOAD PUSH2 0xB05 JUMP JUMPDEST PUSH2 0xA56 SWAP2 PUSH2 0xA44 PUSH1 0x80 PUSH1 0x64 SWAP4 ADD SWAP2 DUP3 MLOAD PUSH2 0xB05 JUMP JUMPDEST MLOAD PUSH2 0xA50 PUSH1 0x18 DUP3 PUSH2 0xEE3 JUMP JUMPDEST POP PUSH2 0x10B1 JUMP JUMPDEST POP JUMP JUMPDEST PUSH1 0x3 SLOAD PUSH1 0x4 SLOAD PUSH1 0x1 DUP2 ADD SWAP4 SWAP2 PUSH1 0x1 PUSH1 0x1 PUSH1 0xA0 SHL SUB AND DUP5 DUP3 GT PUSH2 0xB00 JUMPI PUSH2 0xAFD SWAP5 PUSH1 0x4 SSTORE PUSH2 0xAF8 DUP5 MLOAD PUSH2 0xAEA PUSH1 0x80 PUSH4 0xFFFFFFFF PUSH1 0xE0 SHL PUSH1 0x40 DUP10 ADD MLOAD AND SWAP8 ADD MLOAD MLOAD PUSH1 0x40 MLOAD SWAP8 DUP9 SWAP4 PUSH4 0x20214CA3 PUSH1 0xE1 SHL PUSH1 0x20 DUP7 ADD MSTORE PUSH1 0x0 PUSH1 0x24 DUP7 ADD MSTORE PUSH1 0x0 PUSH1 0x44 DUP7 ADD MSTORE PUSH1 0x64 DUP6 ADD MSTORE ADDRESS PUSH1 0x84 DUP6 ADD MSTORE PUSH1 0xA4 DUP5 ADD MSTORE DUP6 PUSH1 0xC4 DUP5 ADD MSTORE PUSH1 0x1 PUSH1 0xE4 DUP5 ADD MSTORE PUSH2 0x100 PUSH2 0x104 DUP5 ADD MSTORE PUSH2 0x124 DUP4 ADD SWAP1 PUSH2 0xBD2 JUMP JUMPDEST SUB PUSH1 0x1F NOT DUP2 ADD DUP7 MSTORE DUP6 PUSH2 0x662 JUMP JUMPDEST PUSH2 0xDF5 JUMP JUMPDEST SWAP1 JUMP JUMPDEST PUSH2 0x636 JUMP JUMPDEST DUP2 MLOAD PUSH2 0xA56 SWAP3 SWAP2 SWAP1 PUSH8 0xFFFFFFFFFFFFFFFF AND PUSH1 0x17 DUP2 GT PUSH2 0xB3C JUMPI PUSH2 0xB36 SWAP1 PUSH2 0xB30 SWAP1 PUSH1 0x60 OR PUSH1 0xFF AND SWAP1 JUMP JUMPDEST DUP3 PUSH2 0xEE3 JUMP JUMPDEST POP PUSH2 0xC9F JUMP JUMPDEST PUSH1 0xFF DUP2 GT PUSH2 0xB5E JUMPI PUSH2 0xB36 SWAP1 PUSH2 0xB57 PUSH1 0x18 PUSH1 0x60 JUMPDEST OR DUP5 PUSH2 0xEE3 JUMP JUMPDEST POP DUP3 PUSH2 0x10B1 JUMP JUMPDEST PUSH2 0xFFFF DUP2 GT PUSH2 0xB7E JUMPI PUSH2 0xB36 SWAP1 PUSH2 0xB77 PUSH1 0x19 PUSH1 0x60 PUSH2 0xB50 JUMP JUMPDEST POP DUP3 PUSH2 0x103F JUMP JUMPDEST PUSH4 0xFFFFFFFF DUP2 GT PUSH2 0xBA0 JUMPI PUSH2 0xB36 SWAP1 PUSH2 0xB99 PUSH1 0x1A PUSH1 0x60 PUSH2 0xB50 JUMP JUMPDEST POP DUP3 PUSH2 0xFCB JUMP JUMPDEST PUSH2 0xB36 SWAP1 PUSH2 0xBB0 PUSH1 0x1B PUSH1 0x60 PUSH2 0xB50 JUMP JUMPDEST POP DUP3 PUSH2 0xF4F JUMP JUMPDEST SWAP1 PUSH1 0x20 DUP3 ADD DUP1 SWAP3 GT PUSH2 0xB00 JUMPI JUMP JUMPDEST SWAP2 SWAP1 DUP3 ADD DUP1 SWAP3 GT PUSH2 0xB00 JUMPI JUMP JUMPDEST SWAP2 SWAP1 DUP3 MLOAD SWAP3 DUP4 DUP3 MSTORE PUSH1 0x0 JUMPDEST DUP5 DUP2 LT PUSH2 0xBFE JUMPI POP POP DUP3 PUSH1 0x0 PUSH1 0x20 DUP1 SWAP5 SWAP6 DUP5 ADD ADD MSTORE PUSH1 0x1F DUP1 NOT SWAP2 ADD AND ADD ADD SWAP1 JUMP JUMPDEST DUP1 PUSH1 0x20 DUP1 SWAP3 DUP5 ADD ADD MLOAD DUP3 DUP3 DUP7 ADD ADD MSTORE ADD PUSH2 0xBDD JUMP JUMPDEST PUSH1 0x1F NOT DUP2 ADD SWAP2 SWAP1 DUP3 GT PUSH2 0xB00 JUMPI JUMP JUMPDEST PUSH1 0x0 NOT DUP2 ADD SWAP2 SWAP1 DUP3 GT PUSH2 0xB00 JUMPI JUMP JUMPDEST PUSH2 0xC39 PUSH2 0x95A JUMP JUMPDEST POP PUSH2 0x100 PUSH1 0x20 DUP3 ADD MSTORE PUSH2 0x120 PUSH1 0x40 MLOAD DUP1 DUP4 MSTORE PUSH1 0x0 DUP2 MSTORE ADD PUSH1 0x40 MSTORE SWAP1 JUMP JUMPDEST SWAP1 PUSH2 0xC5F PUSH2 0x95A JUMP JUMPDEST POP PUSH1 0x1F DUP2 AND DUP1 PUSH2 0xC85 JUMPI JUMPDEST POP DUP1 PUSH1 0x20 DUP4 ADD MSTORE PUSH1 0x40 MLOAD DUP1 DUP4 MSTORE PUSH1 0x0 DUP2 MSTORE ADD PUSH1 0x20 ADD PUSH1 0x40 MSTORE SWAP1 JUMP JUMPDEST PUSH1 0x20 SUB PUSH1 0x20 DUP2 GT PUSH2 0xB00 JUMPI DUP2 ADD DUP1 SWAP2 GT PUSH2 0xB00 JUMPI CODESIZE PUSH2 0xC6A JUMP JUMPDEST SWAP1 PUSH2 0xCA8 PUSH2 0x95A JUMP JUMPDEST POP DUP2 MLOAD MLOAD SWAP1 DUP1 MLOAD SWAP1 PUSH2 0xCB8 PUSH2 0x95A JUMP JUMPDEST POP PUSH2 0xCC6 DUP2 MLOAD DUP4 GT ISZERO PUSH2 0x1122 JUMP JUMPDEST PUSH2 0xCD0 DUP3 DUP5 PUSH2 0xBC5 JUMP JUMPDEST PUSH1 0x20 DUP6 ADD MLOAD DUP1 SWAP2 GT PUSH2 0xD4E JUMPI JUMPDEST POP PUSH1 0x20 SWAP1 DUP5 MLOAD DUP1 MLOAD SWAP1 DUP4 DUP7 DUP3 ADD ADD SWAP6 DUP6 ADD SWAP2 DUP3 GT PUSH2 0xD46 JUMPI JUMPDEST POP POP ADD SWAP1 JUMPDEST PUSH1 0x20 DUP2 LT ISZERO PUSH2 0xD20 JUMPI PUSH1 0x0 NOT SWAP1 PUSH1 0x20 SUB PUSH2 0x100 EXP ADD SWAP1 DUP2 NOT SWAP1 MLOAD AND SWAP1 DUP3 MLOAD AND OR SWAP1 MSTORE SWAP1 JUMP JUMPDEST SWAP1 SWAP2 PUSH2 0xD3B PUSH2 0xD35 PUSH2 0xD41 SWAP3 DUP6 MLOAD DUP2 MSTORE PUSH2 0xBB7 JUMP JUMPDEST SWAP4 PUSH2 0xBB7 JUMP JUMPDEST SWAP2 PUSH2 0xC13 JUMP JUMPDEST PUSH2 0xCFB JUMP JUMPDEST MSTORE CODESIZE DUP1 PUSH2 0xCF6 JUMP JUMPDEST PUSH2 0xD6D PUSH2 0xD68 PUSH2 0xD73 SWAP3 PUSH2 0xD62 DUP8 DUP8 PUSH2 0xBC5 JUMP JUMPDEST SWAP1 PUSH2 0x113F JUMP JUMPDEST PUSH2 0x1129 JUMP JUMPDEST DUP6 PUSH2 0x114F JUMP JUMPDEST CODESIZE PUSH2 0xCDD JUMP JUMPDEST PUSH2 0xAFD SWAP4 SWAP3 PUSH1 0x60 SWAP3 PUSH1 0x1 DUP1 PUSH1 0xA0 SHL SUB AND DUP3 MSTORE PUSH1 0x20 DUP3 ADD MSTORE DUP2 PUSH1 0x40 DUP3 ADD MSTORE ADD SWAP1 PUSH2 0xBD2 JUMP JUMPDEST ISZERO PUSH2 0xDA4 JUMPI JUMP JUMPDEST PUSH1 0x40 MLOAD PUSH3 0x461BCD PUSH1 0xE5 SHL DUP2 MSTORE PUSH1 0x20 PUSH1 0x4 DUP3 ADD MSTORE PUSH1 0x23 PUSH1 0x24 DUP3 ADD MSTORE PUSH32 0x756E61626C6520746F207472616E73666572416E6443616C6C20746F206F7261 PUSH1 0x44 DUP3 ADD MSTORE PUSH3 0x636C65 PUSH1 0xE8 SHL PUSH1 0x64 DUP3 ADD MSTORE PUSH1 0x84 SWAP1 REVERT JUMPDEST PUSH1 0x40 MLOAD PUSH12 0xFFFFFFFFFFFFFFFFFFFFFFFF NOT ADDRESS PUSH1 0x60 SHL AND PUSH1 0x20 DUP1 DUP4 ADD SWAP2 DUP3 MSTORE PUSH1 0x34 DUP1 DUP5 ADD SWAP6 SWAP1 SWAP6 MSTORE SWAP4 DUP3 MSTORE SWAP4 SWAP5 PUSH2 0xEA8 SWAP5 SWAP1 SWAP3 SWAP2 PUSH2 0xE33 PUSH1 0x54 DUP3 PUSH2 0x662 JUMP JUMPDEST MLOAD SWAP1 KECCAK256 SWAP5 PUSH2 0xE4F DUP3 PUSH2 0x531 DUP9 PUSH1 0x0 MSTORE PUSH1 0x5 PUSH1 0x20 MSTORE PUSH1 0x40 PUSH1 0x0 KECCAK256 SWAP1 JUMP JUMPDEST PUSH1 0x0 PUSH1 0x40 MLOAD DUP1 SWAP7 DUP2 SWAP6 DUP3 SWAP5 DUP11 PUSH32 0xB5E6E01E79F91267DC17B4E6314D5D4D03593D2CEEE0FBB452B750BD70EA5AF9 DUP7 DUP1 LOG2 PUSH1 0x2 SLOAD PUSH2 0xE94 SWAP1 PUSH1 0x1 PUSH1 0x1 PUSH1 0xA0 SHL SUB AND PUSH2 0x386 JUMP JUMPDEST PUSH4 0x2000575 PUSH1 0xE5 SHL DUP6 MSTORE SWAP7 PUSH1 0x4 DUP6 ADD PUSH2 0xD79 JUMP JUMPDEST SUB SWAP3 GAS CALL DUP1 ISZERO PUSH2 0x43C JUMPI PUSH2 0xAFD SWAP2 PUSH1 0x0 SWAP2 PUSH2 0xEC4 JUMPI JUMPDEST POP PUSH2 0xD9D JUMP JUMPDEST PUSH2 0xEDD SWAP2 POP PUSH1 0x20 RETURNDATASIZE PUSH1 0x20 GT PUSH2 0x435 JUMPI PUSH2 0x427 DUP2 DUP4 PUSH2 0x662 JUMP JUMPDEST CODESIZE PUSH2 0xEBE JUMP JUMPDEST SWAP1 PUSH2 0xEEC PUSH2 0x95A JUMP JUMPDEST POP DUP2 MLOAD MLOAD PUSH2 0xEF8 PUSH2 0x95A JUMP JUMPDEST POP PUSH1 0x20 DUP4 ADD MLOAD DUP1 DUP3 LT ISZERO PUSH2 0xF29 JUMPI JUMPDEST POP DUP3 MLOAD SWAP2 DUP3 MLOAD SWAP2 DUP3 SWAP2 PUSH1 0x20 DUP3 DUP7 ADD ADD MSTORE8 EQ PUSH2 0xF21 JUMPI POP POP SWAP1 JUMP JUMPDEST PUSH1 0x1 ADD SWAP1 MSTORE SWAP1 JUMP JUMPDEST PUSH2 0xF35 PUSH2 0xF48 SWAP2 PUSH2 0x1129 JUMP JUMPDEST PUSH2 0xF41 DUP6 MLOAD SWAP2 DUP7 PUSH2 0xC56 JUMP JUMPDEST POP DUP5 PUSH2 0xC9F JUMP JUMPDEST POP CODESIZE PUSH2 0xF07 JUMP JUMPDEST SWAP1 PUSH2 0xF58 PUSH2 0x95A JUMP JUMPDEST POP DUP2 MLOAD MLOAD SWAP1 PUSH2 0xF65 PUSH2 0x95A JUMP JUMPDEST POP DUP2 PUSH1 0x8 ADD DUP1 PUSH1 0x8 GT PUSH2 0xB00 JUMPI PUSH1 0x20 DUP5 ADD MLOAD DUP2 GT PUSH2 0xFB8 JUMPI JUMPDEST POP PUSH2 0xF91 PUSH9 0x10000000000000000 PUSH2 0xC22 JUMP JUMPDEST DUP4 MLOAD SWAP2 PUSH1 0x8 DUP5 DUP5 ADD ADD SWAP2 NOT DUP3 MLOAD AND OR SWAP1 MSTORE PUSH1 0x8 DUP2 MLOAD SWAP3 ADD SWAP2 DUP3 GT PUSH2 0xFB4 JUMPI POP POP SWAP1 JUMP JUMPDEST MSTORE SWAP1 JUMP JUMPDEST PUSH2 0xF35 PUSH2 0xFC4 SWAP2 PUSH2 0x1129 JUMP JUMPDEST POP CODESIZE PUSH2 0xF7E JUMP JUMPDEST SWAP1 PUSH2 0xFD4 PUSH2 0x95A JUMP JUMPDEST POP DUP2 MLOAD MLOAD SWAP1 PUSH2 0xFE1 PUSH2 0x95A JUMP JUMPDEST POP DUP2 PUSH1 0x4 ADD DUP1 PUSH1 0x4 GT PUSH2 0xB00 JUMPI PUSH1 0x20 DUP5 ADD MLOAD DUP2 GT PUSH2 0x102C JUMPI JUMPDEST POP PUSH2 0x1009 PUSH5 0x100000000 PUSH2 0xC22 JUMP JUMPDEST DUP4 MLOAD SWAP2 PUSH1 0x4 DUP5 DUP5 ADD ADD SWAP2 NOT DUP3 MLOAD AND OR SWAP1 MSTORE PUSH1 0x4 DUP2 MLOAD SWAP3 ADD SWAP2 DUP3 GT PUSH2 0xFB4 JUMPI POP POP SWAP1 JUMP JUMPDEST PUSH2 0xF35 PUSH2 0x1038 SWAP2 PUSH2 0x1129 JUMP JUMPDEST POP CODESIZE PUSH2 0xFFA JUMP JUMPDEST SWAP1 PUSH2 0x1048 PUSH2 0x95A JUMP JUMPDEST POP DUP2 MLOAD MLOAD SWAP1 PUSH2 0x1055 PUSH2 0x95A JUMP JUMPDEST POP DUP2 PUSH1 0x2 ADD DUP1 PUSH1 0x2 GT PUSH2 0xB00 JUMPI PUSH1 0x20 DUP5 ADD MLOAD DUP2 GT PUSH2 0x109E JUMPI JUMPDEST POP PUSH2 0x107B PUSH3 0x10000 PUSH2 0xC22 JUMP JUMPDEST DUP4 MLOAD SWAP2 PUSH1 0x2 DUP5 DUP5 ADD ADD SWAP2 NOT DUP3 MLOAD AND OR SWAP1 MSTORE PUSH1 0x2 DUP2 MLOAD SWAP3 ADD SWAP2 DUP3 GT PUSH2 0xFB4 JUMPI POP POP SWAP1 JUMP JUMPDEST PUSH2 0xF35 PUSH2 0x10AA SWAP2 PUSH2 0x1129 JUMP JUMPDEST POP CODESIZE PUSH2 0x106E JUMP JUMPDEST SWAP1 PUSH2 0x10BA PUSH2 0x95A JUMP JUMPDEST POP DUP2 MLOAD MLOAD SWAP1 PUSH2 0x10C7 PUSH2 0x95A JUMP JUMPDEST POP DUP2 PUSH1 0x1 ADD DUP1 PUSH1 0x1 GT PUSH2 0xB00 JUMPI PUSH1 0x20 DUP5 ADD MLOAD DUP2 GT PUSH2 0x110F JUMPI JUMPDEST POP PUSH2 0x10EC PUSH2 0x100 PUSH2 0xC22 JUMP JUMPDEST DUP4 MLOAD SWAP2 PUSH1 0x1 DUP5 DUP5 ADD ADD SWAP2 NOT DUP3 MLOAD AND OR SWAP1 MSTORE PUSH1 0x1 DUP2 MLOAD SWAP3 ADD SWAP2 DUP3 GT PUSH2 0xFB4 JUMPI POP POP SWAP1 JUMP JUMPDEST PUSH2 0xF35 PUSH2 0x111B SWAP2 PUSH2 0x1129 JUMP JUMPDEST POP CODESIZE PUSH2 0x10E0 JUMP JUMPDEST ISZERO PUSH2 0xF9 JUMPI JUMP JUMPDEST SWAP1 DUP2 PUSH1 0x1 SHL SWAP2 DUP1 DUP4 DIV PUSH1 0x2 EQ SWAP1 ISZERO OR ISZERO PUSH2 0xB00 JUMPI JUMP JUMPDEST DUP2 DUP2 GT PUSH2 0x114A JUMPI POP SWAP1 JUMP JUMPDEST SWAP1 POP SWAP1 JUMP JUMPDEST SWAP1 PUSH2 0xA56 SWAP2 PUSH2 0xB36 DUP2 MLOAD SWAP3 DUP3 PUSH2 0xC56 JUMP INVALID LOG2 PUSH5 0x6970667358 0x22 SLT KECCAK256 DUP7 0xED OR SWAP9 SWAP11 0x23 0xBA ISZERO 0x25 0xB7 0xA7 0xB5 RETURNDATACOPY LOG0 0xE7 0x2D 0x2E 0xBB 0xB4 SWAP11 0xD6 CREATE2 EXP 0xB2 SWAP15 PUSH7 0xC63792A1759564 PUSH20 0x6F6C634300081C00330000000000000000000000 "},"methodIdentifiers":{"acceptOwnership()":"79ba5097","agriTraceCore()":"71cba0c7","fulfill(bytes32,uint256)":"4357855e","getCurrentTemperature(uint256)":"56100913","getLatestTemperatureForProduct(uint256)":"5ded83d0","latestTemperatureByProduct(uint256)":"b6ec7709","owner()":"8da5cb5b","requestTemperatureForProduct(uint256)":"a4f50073","requestToProductId(bytes32)":"1085a271","requestToRequester(bytes32)":"3f66286a","transferOwnership(address)":"f2fde38b","withdrawLink()":"8dc654a2"}}}}}