{"contracts/AgriTraceCore.sol":{"AgriTraceCore":{"abi":[{"inputs":[],"stateMutability":"nonpayable","type":"constructor"},{"anonymous":false,"inputs":[{"indexed":false,"internalType":"uint256","name":"batchId","type":"uint256"},{"indexed":false,"internalType":"address","name":"distributor","type":"address"}],"name":"BatchCreated","type":"event"},{"anonymous":false,"inputs":[{"indexed":false,"internalType":"uint256","name":"batchId","type":"uint256"},{"indexed":false,"internalType":"address","name":"retailer","type":"address"}],"name":"BatchPurchased","type":"event"},{"anonymous":false,"inputs":[{"indexed":true,"internalType":"uint256","name":"id","type":"uint256"},{"indexed":false,"internalType":"string","name":"ipfsHash","type":"string"},{"indexed":false,"internalType":"enum AgriTraceLib.Stage","name":"stage","type":"uint8"}],"name":"DataStored","type":"event"},{"anonymous":false,"inputs":[{"indexed":true,"internalType":"uint256","name":"productId","type":"uint256"},{"indexed":true,"internalType":"address","name":"consumer","type":"address"},{"indexed":false,"internalType":"uint256","name":"quantity","type":"uint256"}],"name":"ProductBuyed","type":"event"},{"anonymous":false,"inputs":[{"indexed":true,"internalType":"uint256","name":"id","type":"uint256"},{"indexed":true,"internalType":"address","name":"farmer","type":"address"}],"name":"ProductCreated","type":"event"},{"anonymous":false,"inputs":[{"indexed":true,"internalType":"uint256","name":"id","type":"uint256"},{"indexed":true,"internalType":"address","name":"buyer","type":"address"},{"indexed":true,"internalType":"address","name":"seller","type":"address"}],"name":"ProductPurchased","type":"event"},{"anonymous":false,"inputs":[{"indexed":true,"internalType":"uint256","name":"productId","type":"uint256"},{"indexed":false,"internalType":"string","name":"reason","type":"string"}],"name":"ProductRejected","type":"event"},{"anonymous":false,"inputs":[{"indexed":true,"internalType":"uint256","name":"productId","type":"uint256"},{"indexed":false,"internalType":"enum AgriTraceLib.ProductState","name":"newState","type":"uint8"}],"name":"ProductStateChanged","type":"event"},{"inputs":[],"name":"MIN_TEMP","outputs":[{"internalType":"uint256","name":"","type":"uint256"}],"stateMutability":"view","type":"function"},{"inputs":[],"name":"admin","outputs":[{"internalType":"address","name":"","type":"address"}],"stateMutability":"view","type":"function"},{"inputs":[{"internalType":"address","name":"user","type":"address"},{"internalType":"enum AgriTraceLib.Role","name":"role","type":"uint8"}],"name":"assignRole","outputs":[],"stateMutability":"nonpayable","type":"function"},{"inputs":[{"internalType":"uint256","name":"","type":"uint256"}],"name":"batches","outputs":[{"internalType":"uint256","name":"batchId","type":"uint256"},{"internalType":"address","name":"distributor","type":"address"},{"internalType":"address","name":"retailer","type":"address"},{"internalType":"uint256","name":"createdAt","type":"uint256"},{"internalType":"bool","name":"isDistributedToRetailer","type":"bool"}],"stateMutability":"view","type":"function"},{"inputs":[{"internalType":"uint256[]","name":"productIds","type":"uint256[]"}],"name":"createBatch","outputs":[{"internalType":"uint256","name":"","type":"uint256"}],"stateMutability":"nonpayable","type":"function"},{"inputs":[{"internalType":"string","name":"productType","type":"string"},{"internalType":"uint256","name":"expiresAt","type":"uint256"},{"internalType":"string","name":"origin","type":"string"},{"internalType":"uint256","name":"priceFarm","type":"uint256"},{"internalType":"uint256","name":"quantity","type":"uint256"}],"name":"createProduct","outputs":[{"internalType":"uint256","name":"","type":"uint256"}],"stateMutability":"nonpayable","type":"function"},{"inputs":[{"internalType":"address","name":"","type":"address"},{"internalType":"uint256","name":"","type":"uint256"}],"name":"distributorBatches","outputs":[{"internalType":"uint256","name":"","type":"uint256"}],"stateMutability":"view","type":"function"},{"inputs":[{"internalType":"uint256","name":"","type":"uint256"}],"name":"distributorQuality","outputs":[{"internalType":"uint256","name":"score","type":"uint256"},{"internalType":"enum AgriTraceLib.Grade","name":"grade","type":"uint8"},{"internalType":"string","name":"damageLevel","type":"string"},{"internalType":"uint256","name":"temperature","type":"uint256"},{"internalType":"uint256","name":"timestamp","type":"uint256"},{"internalType":"address","name":"assessor","type":"address"}],"stateMutability":"view","type":"function"},{"inputs":[{"internalType":"address","name":"","type":"address"},{"internalType":"uint256","name":"","type":"uint256"}],"name":"distributorTxIds","outputs":[{"internalType":"uint256","name":"","type":"uint256"}],"stateMutability":"view","type":"function"},{"inputs":[],"name":"emergency","outputs":[{"internalType":"contract EmergencyManager","name":"","type":"address"}],"stateMutability":"view","type":"function"},{"inputs":[{"internalType":"address","name":"","type":"address"},{"internalType":"uint256","name":"","type":"uint256"}],"name":"farmerSoldProducts","outputs":[{"internalType":"uint256","name":"","type":"uint256"}],"stateMutability":"view","type":"function"},{"inputs":[],"name":"getAvailableBatchesForRetailer","outputs":[{"internalType":"uint256[]","name":"","type":"uint256[]"}],"stateMutability":"view","type":"function"},{"inputs":[],"name":"getAvailableProductsForDistributor","outputs":[{"internalType":"uint256[]","name":"","type":"uint256[]"}],"stateMutability":"view","type":"function"},{"inputs":[{"internalType":"uint256","name":"batchId","type":"uint256"}],"name":"getBatchDetails","outputs":[{"components":[{"internalType":"uint256","name":"batchId","type":"uint256"},{"internalType":"address","name":"distributor","type":"address"},{"internalType":"address","name":"retailer","type":"address"},{"internalType":"uint256[]","name":"productIds","type":"uint256[]"},{"internalType":"uint256","name":"createdAt","type":"uint256"},{"internalType":"bool","name":"isDistributedToRetailer","type":"bool"}],"internalType":"struct AgriTraceLib.Batch","name":"","type":"tuple"}],"stateMutability":"view","type":"function"},{"inputs":[{"internalType":"uint256","name":"productId","type":"uint256"}],"name":"getDistributorQuality","outputs":[{"components":[{"internalType":"uint256","name":"score","type":"uint256"},{"internalType":"enum AgriTraceLib.Grade","name":"grade","type":"uint8"},{"internalType":"string","name":"damageLevel","type":"string"},{"internalType":"uint256","name":"temperature","type":"uint256"},{"internalType":"uint256","name":"timestamp","type":"uint256"},{"internalType":"address","name":"assessor","type":"address"}],"internalType":"struct AgriTraceLib.Quality","name":"","type":"tuple"}],"stateMutability":"view","type":"function"},{"inputs":[{"internalType":"uint256","name":"productId","type":"uint256"}],"name":"getFullTrace","outputs":[{"internalType":"uint256","name":"id","type":"uint256"},{"internalType":"enum AgriTraceLib.Grade","name":"overallGrade","type":"uint8"},{"internalType":"string","name":"farmDataHash","type":"string"},{"internalType":"string","name":"distributionDataHash","type":"string"},{"internalType":"string","name":"retailDataHash","type":"string"},{"internalType":"uint256","name":"buyedQuantity","type":"uint256"}],"stateMutability":"view","type":"function"},{"inputs":[{"internalType":"uint256","name":"productId","type":"uint256"}],"name":"getProduct","outputs":[{"components":[{"internalType":"uint256","name":"id","type":"uint256"},{"internalType":"enum AgriTraceLib.Stage","name":"currentStage","type":"uint8"},{"internalType":"enum AgriTraceLib.ProductState","name":"currentState","type":"uint8"},{"internalType":"enum AgriTraceLib.Grade","name":"overallGrade","type":"uint8"},{"internalType":"bool","name":"isActive","type":"bool"},{"components":[{"internalType":"string","name":"productType","type":"string"},{"internalType":"address","name":"farmer","type":"address"},{"internalType":"uint256","name":"createdAt","type":"uint256"},{"internalType":"uint256","name":"expiresAt","type":"uint256"},{"internalType":"string","name":"origin","type":"string"},{"internalType":"uint256","name":"priceFarm","type":"uint256"},{"internalType":"uint256","name":"quantity","type":"uint256"}],"internalType":"struct AgriTraceLib.FarmData","name":"farmData","type":"tuple"},{"components":[{"internalType":"address","name":"distributor","type":"address"},{"internalType":"uint256","name":"priceDist","type":"uint256"},{"internalType":"uint256","name":"receivedAt","type":"uint256"},{"internalType":"uint256","name":"verifiedAt","type":"uint256"}],"internalType":"struct AgriTraceLib.DistributionData","name":"distributionData","type":"tuple"},{"components":[{"internalType":"address","name":"retailer","type":"address"},{"internalType":"uint256","name":"priceRetail","type":"uint256"},{"internalType":"uint256","name":"receivedAt","type":"uint256"},{"internalType":"uint256","name":"verifiedAt","type":"uint256"},{"internalType":"address","name":"consumer","type":"address"},{"internalType":"uint256","name":"buyedQuantity","type":"uint256"}],"internalType":"struct AgriTraceLib.RetailData","name":"retailData","type":"tuple"},{"internalType":"string","name":"farmDataHash","type":"string"},{"internalType":"string","name":"distributionDataHash","type":"string"},{"internalType":"string","name":"retailDataHash","type":"string"},{"internalType":"uint256","name":"farmerToDistributorTxId","type":"uint256"},{"internalType":"uint256","name":"distributorToRetailerTxId","type":"uint256"}],"internalType":"struct AgriTraceLib.Product","name":"","type":"tuple"}],"stateMutability":"view","type":"function"},{"inputs":[{"internalType":"address","name":"distributor","type":"address"}],"name":"getProductsByDistributor","outputs":[{"internalType":"uint256[]","name":"","type":"uint256[]"}],"stateMutability":"view","type":"function"},{"inputs":[{"internalType":"address","name":"farmer","type":"address"}],"name":"getProductsByFarmer","outputs":[{"internalType":"uint256[]","name":"","type":"uint256[]"}],"stateMutability":"view","type":"function"},{"inputs":[{"internalType":"address","name":"retailer","type":"address"}],"name":"getProductsByRetailer","outputs":[{"internalType":"uint256[]","name":"","type":"uint256[]"}],"stateMutability":"view","type":"function"},{"inputs":[{"internalType":"enum AgriTraceLib.Role","name":"role","type":"uint8"},{"internalType":"address","name":"user","type":"address"}],"name":"getReputation","outputs":[{"internalType":"uint256","name":"","type":"uint256"}],"stateMutability":"view","type":"function"},{"inputs":[{"internalType":"uint256","name":"productId","type":"uint256"}],"name":"getRetailerQuality","outputs":[{"components":[{"internalType":"uint256","name":"score","type":"uint256"},{"internalType":"enum AgriTraceLib.Grade","name":"grade","type":"uint8"},{"internalType":"string","name":"damageLevel","type":"string"},{"internalType":"uint256","name":"temperature","type":"uint256"},{"internalType":"uint256","name":"timestamp","type":"uint256"},{"internalType":"address","name":"assessor","type":"address"}],"internalType":"struct AgriTraceLib.Quality","name":"","type":"tuple"}],"stateMutability":"view","type":"function"},{"inputs":[{"internalType":"address","name":"user","type":"address"}],"name":"getRole","outputs":[{"internalType":"enum AgriTraceLib.Role","name":"","type":"uint8"}],"stateMutability":"view","type":"function"},{"inputs":[],"name":"getTotalProducts","outputs":[{"internalType":"uint256","name":"","type":"uint256"}],"stateMutability":"view","type":"function"},{"inputs":[{"internalType":"uint256","name":"txId","type":"uint256"}],"name":"getTransaction","outputs":[{"components":[{"internalType":"uint256","name":"txId","type":"uint256"},{"internalType":"address","name":"from","type":"address"},{"internalType":"address","name":"to","type":"address"},{"internalType":"uint256","name":"productId","type":"uint256"},{"internalType":"uint256","name":"batchId","type":"uint256"},{"internalType":"uint256","name":"price","type":"uint256"},{"internalType":"uint256","name":"timestamp","type":"uint256"}],"internalType":"struct AgriTraceLib.Transaction","name":"","type":"tuple"}],"stateMutability":"view","type":"function"},{"inputs":[{"internalType":"address","name":"user","type":"address"}],"name":"getUserDetails","outputs":[{"internalType":"enum AgriTraceLib.Role","name":"role","type":"uint8"},{"internalType":"uint256","name":"farmerReputation","type":"uint256"},{"internalType":"uint256","name":"distributorReputation","type":"uint256"},{"internalType":"uint256","name":"retailerReputation","type":"uint256"},{"internalType":"string","name":"detailsHash","type":"string"}],"stateMutability":"view","type":"function"},{"inputs":[{"internalType":"uint256","name":"productId","type":"uint256"}],"name":"listProductForConsumer","outputs":[],"stateMutability":"nonpayable","type":"function"},{"inputs":[{"internalType":"uint256","name":"productId","type":"uint256"},{"internalType":"address","name":"consumer","type":"address"},{"internalType":"uint256","name":"buyQuantity","type":"uint256"}],"name":"markProductAsBuyed","outputs":[],"stateMutability":"nonpayable","type":"function"},{"inputs":[],"name":"nextBatchId","outputs":[{"internalType":"uint256","name":"","type":"uint256"}],"stateMutability":"view","type":"function"},{"inputs":[],"name":"nextProductId","outputs":[{"internalType":"uint256","name":"","type":"uint256"}],"stateMutability":"view","type":"function"},{"inputs":[],"name":"nextTxId","outputs":[{"internalType":"uint256","name":"","type":"uint256"}],"stateMutability":"view","type":"function"},{"inputs":[{"internalType":"uint256","name":"","type":"uint256"}],"name":"products","outputs":[{"internalType":"uint256","name":"id","type":"uint256"},{"internalType":"enum AgriTraceLib.Stage","name":"currentStage","type":"uint8"},{"internalType":"enum AgriTraceLib.ProductState","name":"currentState","type":"uint8"},{"internalType":"enum AgriTraceLib.Grade","name":"overallGrade","type":"uint8"},{"internalType":"bool","name":"isActive","type":"bool"},{"components":[{"internalType":"string","name":"productType","type":"string"},{"internalType":"address","name":"farmer","type":"address"},{"internalType":"uint256","name":"createdAt","type":"uint256"},{"internalType":"uint256","name":"expiresAt","type":"uint256"},{"internalType":"string","name":"origin","type":"string"},{"internalType":"uint256","name":"priceFarm","type":"uint256"},{"internalType":"uint256","name":"quantity","type":"uint256"}],"internalType":"struct AgriTraceLib.FarmData","name":"farmData","type":"tuple"},{"components":[{"internalType":"address","name":"distributor","type":"address"},{"internalType":"uint256","name":"priceDist","type":"uint256"},{"internalType":"uint256","name":"receivedAt","type":"uint256"},{"internalType":"uint256","name":"verifiedAt","type":"uint256"}],"internalType":"struct AgriTraceLib.DistributionData","name":"distributionData","type":"tuple"},{"components":[{"internalType":"address","name":"retailer","type":"address"},{"internalType":"uint256","name":"priceRetail","type":"uint256"},{"internalType":"uint256","name":"receivedAt","type":"uint256"},{"internalType":"uint256","name":"verifiedAt","type":"uint256"},{"internalType":"address","name":"consumer","type":"address"},{"internalType":"uint256","name":"buyedQuantity","type":"uint256"}],"internalType":"struct AgriTraceLib.RetailData","name":"retailData","type":"tuple"},{"internalType":"string","name":"farmDataHash","type":"string"},{"internalType":"string","name":"distributionDataHash","type":"string"},{"internalType":"string","name":"retailDataHash","type":"string"},{"internalType":"uint256","name":"farmerToDistributorTxId","type":"uint256"},{"internalType":"uint256","name":"distributorToRetailerTxId","type":"uint256"}],"stateMutability":"view","type":"function"},{"inputs":[{"internalType":"uint256","name":"batchId","type":"uint256"},{"internalType":"uint256[]","name":"prices","type":"uint256[]"}],"name":"purchaseBatchFromDistributor","outputs":[],"stateMutability":"nonpayable","type":"function"},{"inputs":[{"internalType":"uint256","name":"productId","type":"uint256"},{"internalType":"uint256","name":"priceDist","type":"uint256"}],"name":"purchaseFromFarmer","outputs":[],"stateMutability":"nonpayable","type":"function"},{"inputs":[{"internalType":"enum AgriTraceLib.Role","name":"role","type":"uint8"},{"internalType":"string","name":"detailsHash","type":"string"}],"name":"registerUser","outputs":[],"stateMutability":"nonpayable","type":"function"},{"inputs":[{"internalType":"enum AgriTraceLib.Role","name":"","type":"uint8"},{"internalType":"address","name":"","type":"address"}],"name":"reputationScores","outputs":[{"internalType":"uint256","name":"","type":"uint256"}],"stateMutability":"view","type":"function"},{"inputs":[{"internalType":"address","name":"","type":"address"},{"internalType":"uint256","name":"","type":"uint256"}],"name":"retailerBatches","outputs":[{"internalType":"uint256","name":"","type":"uint256"}],"stateMutability":"view","type":"function"},{"inputs":[{"internalType":"uint256","name":"","type":"uint256"}],"name":"retailerQuality","outputs":[{"internalType":"uint256","name":"score","type":"uint256"},{"internalType":"enum AgriTraceLib.Grade","name":"grade","type":"uint8"},{"internalType":"string","name":"damageLevel","type":"string"},{"internalType":"uint256","name":"temperature","type":"uint256"},{"internalType":"uint256","name":"timestamp","type":"uint256"},{"internalType":"address","name":"assessor","type":"address"}],"stateMutability":"view","type":"function"},{"inputs":[{"internalType":"address","name":"","type":"address"},{"internalType":"uint256","name":"","type":"uint256"}],"name":"retailerTxIds","outputs":[{"internalType":"uint256","name":"","type":"uint256"}],"stateMutability":"view","type":"function"},{"inputs":[{"internalType":"address","name":"","type":"address"}],"name":"roles","outputs":[{"internalType":"enum AgriTraceLib.Role","name":"","type":"uint8"}],"stateMutability":"view","type":"function"},{"inputs":[{"internalType":"uint256","name":"productId","type":"uint256"},{"internalType":"uint256","name":"score","type":"uint256"},{"internalType":"string","name":"damageLevel","type":"string"},{"internalType":"uint256","name":"temperature","type":"uint256"},{"internalType":"string","name":"ipfsHash","type":"string"}],"name":"storeDistributorQuality","outputs":[],"stateMutability":"nonpayable","type":"function"},{"inputs":[{"internalType":"uint256","name":"productId","type":"uint256"},{"internalType":"string","name":"ipfsHash","type":"string"}],"name":"storeFarmDataHash","outputs":[],"stateMutability":"nonpayable","type":"function"},{"inputs":[{"internalType":"uint256","name":"productId","type":"uint256"},{"internalType":"uint256","name":"score","type":"uint256"},{"internalType":"string","name":"damageLevel","type":"string"},{"internalType":"uint256","name":"temperature","type":"uint256"},{"internalType":"string","name":"ipfsHash","type":"string"}],"name":"storeRetailerQuality","outputs":[],"stateMutability":"nonpayable","type":"function"},{"inputs":[{"internalType":"uint256","name":"","type":"uint256"}],"name":"transactions","outputs":[{"internalType":"uint256","name":"txId","type":"uint256"},{"internalType":"address","name":"from","type":"address"},{"internalType":"address","name":"to","type":"address"},{"internalType":"uint256","name":"productId","type":"uint256"},{"internalType":"uint256","name":"batchId","type":"uint256"},{"internalType":"uint256","name":"price","type":"uint256"},{"internalType":"uint256","name":"timestamp","type":"uint256"}],"stateMutability":"view","type":"function"},{"inputs":[{"internalType":"address","name":"","type":"address"}],"name":"userDataHash","outputs":[{"internalType":"string","name":"","type":"string"}],"stateMutability":"view","type":"function"}],"evm":{"bytecode":{"linkReferences":{},"object":"6080806040523461013557600280546001600160a01b031916331790556103c0818101906001600160401b0382118383101761011f576020918391614c2083393381520301906000f0801561011357600080546001600160a01b0319166001600160a01b0392909216919091178155338152600160209081526040808320805460ff191660041790557ffd54ff1ed53f34a900b24c5ba64f85761163b5d82d98a47b9bd80e45466993c582528083206032908190557f10a81eed9d63d16face5e76357905348e6253d3394086026bb2bf2145d7cc24983528184208190557f26b4a10d0f0b04925c23bd4480ee147c916e5e87a7d68206a533dad160ac81e2909252918290205551614ae5908161013b8239f35b6040513d6000823e3d90fd5b634e487b7160e01b600052604160045260246000fd5b600080fdfe6080604052600436101561001257600080fd5b60003560e01c80631290831d14613f485780631b9cf32914613f1157806322e377ff14613f115780632423bb0b14613ec757806333ea3dc814613dc757806344276733146119975780634961668514613d7d5780634a0f5da61461387f5780634ccc0c0d146138355780634de91a6314613817578063570aea8a146138175780635bdb6f71146137cd578063630a195b146135bb5780636357e48b1461356d578063638a348c1461355157806365ebd136146132d657806366b9f622146130bd5780636ba37e1014612d145780636c0245d014612cbb5780637882e08214612a105780637acc0b20146128a45780637d07dc82146128695780637d0ba4ef146122f25780637d0c49a81461216e5780638462a7f8146121505780638aff87b2146121325780638c301fbb146120f85780638f3e175514611a3c578063989ee4ea146119db57806399374642146119975780639ace38c21461191a5780639d47dcc01461179d578063b32c4d8d14611732578063b9db15b41461143d578063c6376a5a146110e9578063c86dc0a614611054578063caa6fea41461102b578063cc3d967b14610f32578063d29bcc5c14610ccc578063d3838ab114610b00578063d6669147146109cc578063dd003ace146104ad578063ec90a7b014610377578063f6fa3b92146102395763f851a4401461020b57600080fd5b34610234576000366003190112610234576002546040516001600160a01b039091168152602090f35b600080fd5b3461023457602036600319011261023457610252614101565b6004546001600160a01b0390911690600060015b8281111561030e57506102789061468e565b9160009060015b83811115610299576040518061029587826140c7565b0390f35b6000818152600360205260409020600901546001600160a01b03168214806102f0575b6102cf575b6102ca90614668565b61027f565b916102e881846102e26102ca94896146c0565b52614668565b9290506102c1565b5080600052600360205260ff60016040600020015460181c166102bc565b6000818152600360205260409020600901546001600160a01b0316841480610359575b610344575b61033f90614668565b610266565b9061035161033f91614668565b919050610336565b5080600052600360205260ff60016040600020015460181c16610331565b3461023457602036600319011261023457610390614101565b6004546001600160a01b0390911690600060015b8281111561044357506103b69061468e565b9160009060015b838111156103d3576040518061029587826140c7565b600081815260036020819052604090912001546001600160a01b0316821480610425575b61040a575b61040590614668565b6103bd565b9161041d81846102e261040594896146c0565b9290506103fc565b5080600052600360205260ff60016040600020015460181c166103f7565b600081815260036020819052604090912001546001600160a01b031684148061048f575b61047a575b61047590614668565b6103a4565b9061048761047591614668565b91905061046c565b5080600052600360205260ff60016040600020015460181c16610467565b346102345760a0366003190112610234576004356001600160401b038111610234576104dd903690600401614377565b6024356044356001600160401b038111610234576104ff903690600401614377565b600054604051635c975abb60e01b81529295608435959294939092916001600160a01b0316602082600481845afa9081156109a35761054c6020926024946000916109af575b50156146ec565b60405163dbac26e960e01b815233600482015292839182905afa80156109a35761057f91600091610974575b5015614728565b33600052600160205260ff60406000205416600581101561095e5760010361092c5784151580610923575b156108ed576105ba600454614668565b60048181556000828152600360205260408082209384556001938401805460ff19169055825482528082208401805461ff0019169055825482528082208401805462ff00001916905582548252808220909301805463ff000000191663010000001790559054815220600201916001600160401b03821161083457819061064184546141ca565b601f81116108bb575b50600090601f83116001146108555760009261084a575b50508160011b916000199060031b1c19161790555b60048054600090815260036020819052604080832090910180546001600160a01b0319163317905582548252808220429084015582548252808220600501939093559054815220600601906001600160401b038111610834576106d982546141ca565b601f81116107f7575b506000601f82116001146107945781929394600092610789575b50508160011b916000199060031b1c19161790555b60045460005260036020526064356007604060002001556004546000526003602052600860406000200155602060045480600080516020614a908339815191528360405133847fe8bb4e90e950f7b76a8c4e472b3b5e01d41c478f9eeaea36b4ba991f51133f91600080a360008152a2604051908152f35b0135905084806106fc565b601f198216948382526020822091805b8781106107df5750836001959697106107c5575b505050811b019055610711565b0135600019600384901b60f8161c191690558480806107b8565b909260206001819286860135815501940191016107a4565b61082490836000526020600020601f840160051c8101916020851061082a575b601f0160051c0190614803565b846106e2565b9091508190610817565b634e487b7160e01b600052604160045260246000fd5b013590508780610661565b84825260208220925090601f198416815b8181106108a35750908460019594939210610889575b505050811b019055610676565b0135600019600384901b60f8161c1916905587808061087c565b91936020600181928787013581550195019201610866565b6108e790856000526020600020601f850160051c8101916020861061082a57601f0160051c0190614803565b8861064a565b60405162461bcd60e51b815260206004820152600e60248201526d496e76616c696420706172616d7360901b6044820152606490fd5b504283116105aa565b60405162461bcd60e51b815260206004820152600a6024820152692737ba103330b936b2b960b11b6044820152606490fd5b634e487b7160e01b600052602160045260246000fd5b610996915060203d60201161099c575b61098e8183614271565b8101906146d4565b88610578565b503d610984565b6040513d6000823e3d90fd5b6109c69150843d861161099c5761098e8183614271565b8b610545565b34610234576020366003190112610234576109e5614101565b6004546001600160a01b0390911690600060015b82811115610a975750610a0b9061468e565b9160009060015b83811115610a28576040518061029587826140c7565b6000818152600360205260409020600d01546001600160a01b0316821480610a79575b610a5e575b610a5990614668565b610a12565b91610a7181846102e2610a5994896146c0565b929050610a50565b5080600052600360205260ff60016040600020015460181c16610a4b565b6000818152600360205260409020600d01546001600160a01b0316841480610ae2575b610acd575b610ac890614668565b6109f9565b90610ada610ac891614668565b919050610abf565b5080600052600360205260ff60016040600020015460181c16610aba565b346102345760203660031901126102345760043580151580610cc0575b15610c875760005260036020526040600020604051610b3b8161423a565b8154815260018201549060ff8216600381101561095e57602082015260ff8260081c16600681101561095e57604082015260ff6060820192610b82828260101c168561493c565b60181c1615156080820152610b99600284016143a4565b60a0820152610baa6009840161440b565b60c0820152610bbb600d8401614446565b9260e08201938452610bcf60138201614292565b936101008301948552610be460148301614292565b9261012081019384526017610bfb60158501614292565b9361014083019485526016810154610160840152015461018082015251935194600486101561095e57610c7d92610c6160a0610c6f9351965192519451015195610c50604051998a998a5260208a01906144b2565b60c0604089015260c0880190614336565b908682036060880152614336565b908482036080860152614336565b9060a08301520390f35b60405162461bcd60e51b8152602060048201526011602482015270141c9bd91d58dd081b9bdd08199bdd5b99607a1b6044820152606490fd5b50600454811115610b1d565b34610234576040366003190112610234576004356005811015610234576024356001600160401b03811161023457610d08903690600401614377565b91909133600052600160205260ff60406000205416600581101561095e57610ef85760009160048114610eb3578115610e7657610d59903384526001602052610d5481604086206147ac565b614146565b33808452602091825260408085206032905590845260119091528220906001600160401b038111610e6257610d8e82546141ca565b601f8111610e32575b5082601f8211600114610dd157839482939492610dc6575b50508160011b916000199060031b1c191617905580f35b013590508480610daf565b601f198216948385526020852091855b878110610e1a575083600195969710610e00575b505050811b01905580f35b0135600019600384901b60f8161c19169055848080610df5565b90926020600181928686013581550194019101610de1565b610e5c9083855260208520601f840160051c8101916020851061082a57601f0160051c0190614803565b84610d97565b634e487b7160e01b83526041600452602483fd5b60405162461bcd60e51b815260206004820152601560248201527411195d185a5b1cc81a185cda081c995c5d5a5c9959605a1b6044820152606490fd5b60405162461bcd60e51b815260206004820152601d60248201527f43616e6e6f742073656c662d72656769737465722061732061646d696e0000006044820152606490fd5b60405162461bcd60e51b8152602060048201526012602482015271105b1c9958591e481c9959da5cdd195c995960721b6044820152606490fd5b346102345760203660031901126102345761100b6001600160a01b03610f56614101565b166000908152600160209081526040808320547ffd54ff1ed53f34a900b24c5ba64f85761163b5d82d98a47b9bd80e45466993c58352818420547f10a81eed9d63d16face5e76357905348e6253d3394086026bb2bf2145d7cc2498452828520547f26b4a10d0f0b04925c23bd4480ee147c916e5e87a7d68206a533dad160ac81e285528386205460119095529290942060ff909116936102959390929091610ffe90614292565b926040519687809761418d565b60208601526040850152606084015260a0608084015260a0830190614336565b34610234576000366003190112610234576000546040516001600160a01b039091168152602090f35b346102345760203660031901126102345761106d61490a565b50600435600052601060205261029560406000206040519061108e8261421f565b805482526110a660ff6001830154166020840161493c565b6110b260028201614292565b60408301526003810154606083015260048101546080830152600560018060a01b039101541660a08201526040519182918261460a565b34610234576020366003190112610234576004356001600160401b0381116102345761111990369060040161419a565b600054604051635c975abb60e01b8152906001600160a01b0316602082600481845afa9081156109a35761115a6020926024946000916114205750156146ec565b60405163dbac26e960e01b815233600482015292839182905afa80156109a35761118c91600091611401575015614728565b33600052600160205260ff60406000205416600581101561095e5760026111b3911461481a565b80156113ce5760005b8181106112fc57506111cf600854614668565b6008818155600082815260056020526040808220938455600190930180546001600160a01b031916331790559054815220600301916001600160401b03821161083457600160401b82116108345782548284558083106112de575b509160005260206000209160005b8281106112ca576008546000526005602052426004604060002001556008546000526005602052600560406000200160ff198154169055336000526006602052611289604060002060085490614767565b600854604080518281523360208083019190915292917f03b090a5f073126ba1311454936e50b13b4eb5a69549338b4886ff9a0c1bfaed91a1604051908152f35b600190602083359301928186015501611238565b6112f690846000528360206000209182019101614803565b8361122a565b61130781838561479c565b3560005260036020523360018060a01b0360096040600020015416036113965761133281838561479c565b35600052600360205260ff60016040600020015460081c16600681101561095e57600203611362576001016111bc565b60405162461bcd60e51b815260206004820152600c60248201526b139bdd081d995c9a599a595960a21b6044820152606490fd5b60405162461bcd60e51b815260206004820152601060248201526f139bdd081e5bdd5c881c1c9bd91d58dd60821b6044820152606490fd5b60405162461bcd60e51b815260206004820152600b60248201526a08adae0e8f240c4c2e8c6d60ab1b6044820152606490fd5b61141a915060203d60201161099c5761098e8183614271565b84610578565b6114379150843d861161099c5761098e8183614271565b87610545565b3461023457602036600319011261023457600061018060405161145f8161423a565b82815282602082015282604082015282606082015282608082015260405161148681614204565b60608152836020820152836040820152836060820152606060808201528360a08201528360c082015260a08201526040516114c081614256565b83815283602082015283604082015283606082015260c08201526040516114e68161421f565b8381528360208201528360408201528360608201528360808201528360a082015260e0820152606061010082015260606101208201526060610140820152826101608201520152600435600052600360205260406000206040516115498161423a565b81548152600182015460208201929060ff8116600381101561095e57845260ff8160081c16906040840191600681101561095e57825260608401908060101c60ff16611595908361493c565b608085019060181c60ff1615158152600284016115b1906143a4565b60a086019081526115c46009860161440b565b60c08701908152906115d8600d8701614446565b60e088019081526115eb60138801614292565b61010089019081529161160060148901614292565b6101208a019081529461161560158a01614292565b966101408b0197885260168a0154996101608c019a8b5260170154986101808c01998a526040519c8d809d602082525190602001525160408d0161165891614498565b5160608c01611666916144a5565b5160808b01611674916144b2565b51151560a08a01525160c089016102a090526102c08901611694916144bf565b925180516001600160a01b031660e08a015260208101516101008a015260408101516101208a0152606001516101408901525161016088016116d591614524565b51868203601f19016102208801526116ed9190614336565b9051858203601f19016102408701526117069190614336565b9051848203601f190161026086015261171f9190614336565b9151610280840152516102a08301520390f35b3461023457602036600319011261023457600435600052600560205260a06040600020805490600180841b0360018201541690600180851b0360028201541660ff60056004840154930154169260405194855260208501526040840152606083015215156080820152f35b3461023457602036600319011261023457600060a06040516117be8161421f565b828152826020820152826040820152606080820152826080820152015260043560005260056020526040600020604051906117f88261421f565b8054825260018060a01b03600182015416906020830191825260018060a01b0360028201541660408401908152600382016040518082602082945493848152019060005260206000209260005b81811061190157505061185a92500382614271565b6060850190815260ff6005600485015494608088019586520154169160a086019215158352604051946020865260e086019651602087015260018060a01b03905116604086015260018060a01b039051166060850152519160c0608085015282518095526020610100850193016000955b8087106118e95750508394505160a084015251151560c08301520390f35b909360208060019287518152019501960195906118cb565b8454835260019485019486945060209093019201611845565b3461023457602036600319011261023457600435600052600a60205260e0604060002080549060018060a01b036001820154169060018060a01b0360028201541660038201546004830154916006600585015494015494604051968752602087015260408601526060850152608084015260a083015260c0820152f35b34610234576020366003190112610234576001600160a01b036119b8614101565b166000526001602052602060ff604060002054166119d9604051809261418d565bf35b3461023457602036600319011261023457600435600052600f6020526040600020805461029560ff60018401541692611a1660028201614292565b906003810154600482015491600560018060a01b03910154169260405196879687614569565b3461023457611a4a366145ad565b600054604051635c975abb60e01b8152929591949192906001600160a01b0316602082600481845afa9081156109a357611a916020926024946000916120db5750156146ec565b60405163dbac26e960e01b815233600482015292839182905afa80156109a357611ac3916000916120bc575015614728565b6000878152600360205260409020600d0154611ae9906001600160a01b031633146148ce565b86600052600360205260ff60016040600020015416600381101561095e5760020361208057611b1b6064871115614859565b611b2486614948565b600088815260106020526040902096875595611b44908790600101614895565b8660005260106020526002604060002001916001600160401b038211610834578190611b7084546141ca565b601f811161204e575b50600090601f8311600114611fe857600092611fdd575b50508160011b916000199060031b1c19161790555b600085815260106020818152604080842060038181018790554260048301819055600590920180546001600160a01b0319163317905590925290922090810191909155601501906001600160401b03831161083457611c0482546141ca565b601f8111611fab575b5060009183601f8111600114611f4357600593600091611f38575b508460011b906000198660031b1c19161790555b856000526003602052611c568560016040600020016148ad565b108015611f25575b15611f0257600084815260036020908152604091829020600101805463ff00ff0019166103001790558151818152600e918101919091526d145d585b1a5d1e4819985a5b195960921b9181019190915284907f4429de7967bfe786ec4ac3f822cf4b26a0ed6a63a7dbbba03684bbf771e93ce390606090a25b8060405192604084528160408501526060840137600082820160600152601f01601f19168101816060817f540105ff02eed8665666e5b20a0955668c4452dd216f3f7846996f9057b8e093936002602089970152030190a281600052600360205281600080516020614a90833981519152602060ff60016040600020015460081c16611d6660405180926144a5565ba260008281526003602081905260408220908101546009909101546004841015946001600160a01b0392831693909290911685611eee578415938415611eac5790611db3611db892614a0d565b614a4e565b506000908152600360205260409020600d01546001600160a01b03169261095e5715611e4c5750611de96003614146565b60018060a01b0382166000526020526040600020549060648210611e0a575b005b60028201809211611e3657611e1f6003614146565b9060018060a01b0316600052602052604060002055005b634e487b7160e01b600052601160045260246000fd5b600281149060008215611e9f575b5050611e6257005b611e6c6003614146565b60018060a01b0382166000526020526040600020549081611e8957005b6001198201918211611e3657611e1f6003614146565b6003925050148280611e5a565b9095508195600286148015611ee0575b611ec8575b5050611db8565b611ed4611ed992614978565b6149ce565b8580611ec1565b509550819560038614611ebc565b634e487b7160e01b82526021600452602482fd5b836000526003602052600160406000200161020061ff0019825416179055611cd7565b50600483101561095e5760038314611c5e565b905085013588611c28565b50808352602083208385601f1981165b808710611f8d576005965010611f73575b5050600184811b019055611c3c565b860135600019600387901b60f8161c191690558780611f64565b88830135845560209687019660019094019390920191879150611f53565b611fd790836000526020600020601f860160051c8101916020871061082a57601f0160051c0190614803565b86611c0d565b013590508880611b90565b84825260208220925090601f198416815b818110612036575090846001959493921061201c575b505050811b019055611ba5565b0135600019600384901b60f8161c1916905588808061200f565b91936020600181928787013581550195019201611ff9565b61207a90856000526020600020601f850160051c8101916020861061082a57601f0160051c0190614803565b89611b79565b60405162461bcd60e51b81526020600482015260146024820152734d7573742062652052455441494c20737461676560601b6044820152606490fd5b6120d5915060203d60201161099c5761098e8183614271565b89610578565b6120f29150843d861161099c5761098e8183614271565b8c610545565b346102345760203660031901126102345761211161490a565b50600435600052600f60205261029560406000206040519061108e8261421f565b34610234576000366003190112610234576020600954604051908152f35b34610234576000366003190112610234576020600854604051908152f35b3461023457602036600319011261023457600054604051635c975abb60e01b815260048035926001600160a01b031690602090839081845afa9081156109a3576121c56020926024946000916122d55750156146ec565b60405163dbac26e960e01b815233600482015292839182905afa80156109a3576121f7916000916122b6575015614728565b6000818152600360205260409020600d015461221d906001600160a01b031633146148ce565b80600052600360205260ff60016040600020015460081c16600681101561095e5760020361227e57806000526003602052600160406000200161040061ff0019825416179055600080516020614a90833981519152602060405160048152a2005b60405162461bcd60e51b815260206004820152601060248201526f135d5cdd081899481d995c9a599a595960821b6044820152606490fd5b6122cf915060203d60201161099c5761098e8183614271565b83610578565b6122ec9150843d861161099c5761098e8183614271565b86610545565b3461023457612300366145ad565b600054604051635c975abb60e01b8152969796929591949192906001600160a01b0316602082600481845afa9081156109a35761234a6020926024946000916120db5750156146ec565b60405163dbac26e960e01b815233600482015292839182905afa80156109a35761237c916000916120bc575015614728565b6000868152600360205260409020600901546123a2906001600160a01b0316331461481a565b85600052600360205260ff60016040600020015416600381101561095e57600103612824576123d46064881115614859565b6123dd87614948565b6000878152600f60205260409020978855966123fd908890600101614895565b85600052600f6020526002604060002001916001600160401b03821161083457819061242984546141ca565b601f81116127f2575b50600090601f831160011461278c57600092612781575b50508160011b916000199060031b1c19161790555b6000848152600f6020908152604080832060038181018690554260048301819055600590920180546001600160a01b03191633179055909252909120600c810191909155601401906001600160401b038311610834576124be82546141ca565b601f811161274f575b5060009183601f81116001146126e7576005936000916126dc575b508460011b906000198660031b1c19161790555b8460005260036020526125108660016040600020016148ad565b1080156126c9575b156126a657600083815260036020908152604091829020600101805463ff00ff0019166103001790558151818152600e918101919091526d145d585b1a5d1e4819985a5b195960921b9181019190915283907f4429de7967bfe786ec4ac3f822cf4b26a0ed6a63a7dbbba03684bbf771e93ce390606090a25b8060405192604084528160408501526060840137600082820160600152601f01601f19168101816060817f540105ff02eed8665666e5b20a0955668c4452dd216f3f7846996f9057b8e093936001602088970152030190a280600052600360205280600080516020614a90833981519152602060ff60016040600020015460081c1661262060405180926144a5565ba2600090815260036020819052604082209081015460099091015491926001600160a01b039182169290911690600481101561269257806126685750611db3611e0892614a0d565b60028114908115612687575b5061267b57005b611ed4611e0892614978565b600391501484612674565b634e487b7160e01b84526021600452602484fd5b826000526003602052600160406000200161020061ff0019825416179055612591565b50600484101561095e5760038414612518565b9050850135886124e2565b50808352602083208385601f1981165b808710612731576005965010612717575b5050600184811b0190556124f6565b860135600019600387901b60f8161c191690558780612708565b888301358455602096870196600190940193909201918791506126f7565b61277b90836000526020600020601f860160051c8101916020871061082a57601f0160051c0190614803565b866124c7565b013590508880612449565b84825260208220925090601f198416815b8181106127da57509084600195949392106127c0575b505050811b01905561245e565b0135600019600384901b60f8161c191690558880806127b3565b9193602060018192878701358155019501920161279d565b61281e90856000526020600020601f850160051c8101916020861061082a57601f0160051c0190614803565b89612432565b60405162461bcd60e51b815260206004820152601a60248201527f4d75737420626520444953545249425554494f4e2073746167650000000000006044820152606490fd5b346102345760203660031901126102345760043560005260106020526040600020805461029560ff60018401541692611a1660028201614292565b3461023457602036600319011261023457600435600052600360205260406000208054600182015491600281016128da906143a4565b6128e66009830161440b565b6128f2600d8401614446565b906128ff60138501614292565b61290b60148601614292565b9161291860158701614292565b936016870154966017015495604051998a998a5260208a0160ff82169061293e91614498565b61295260408b0160ff600884901c166144a5565b61296660608b0160ff601084901c166144b2565b60181c60ff16151560808a015260a089016102a090526102a0890161298a916144bf565b82516001600160a01b031660c08a0152602083015160e08a015260408301516101008a015260609092015161012089015261014088016129c991614524565b8681036102008801526129db91614336565b8581036102208701526129ed91614336565b8481036102408601526129ff91614336565b916102608401526102808301520390f35b34610234576040366003190112610234576004356024356001600160401b03811161023457612a43903690600401614377565b600054604051635c975abb60e01b8152906001600160a01b0316602082600481845afa9081156109a357612a84602092602494600091612c9e5750156146ec565b60405163dbac26e960e01b815233600482015292839182905afa80156109a357612ab691600091612c7f575015614728565b8260005260036020523360018060a01b036003604060002001541603612c4c57826000526003602052612af660ff60016040600020015460181c166147c4565b82600052600360205260136040600020016001600160401b03821161083457612b1f81546141ca565b601f8111612c1a575b50816000601f8211600114612bb757600091612bac575b508260011b906000198460031b1c19161790555b8060405192604084528160408501526060840137600082820160600152601f01601f19168101906060817f540105ff02eed8665666e5b20a0955668c4452dd216f3f7846996f9057b8e0939360006020830152030190a2005b905083013585612b3f565b82815260208120915083601f198116825b818110612bff575010612be5575b5050600182811b019055612b53565b840135600019600385901b60f8161c191690558480612bd6565b87840135855560019094019360209384019387935001612bc8565b612c4690826000526020600020601f850160051c8101916020861061082a57601f0160051c0190614803565b84612b28565b60405162461bcd60e51b815260206004820152600b60248201526a27b7363c903330b936b2b960a91b6044820152606490fd5b612c98915060203d60201161099c5761098e8183614271565b85610578565b612cb59150843d861161099c5761098e8183614271565b88610545565b3461023457604036600319011261023457612cd4614101565b6001600160a01b03166000908152600e602052604090208054602435919082101561023457602091612d059161415f565b90549060031b1c604051908152f35b346102345760403660031901126102345760043560243560018060a01b036000541660405190635c975abb60e01b8252602082600481845afa9081156109a357612d6b6020926024946000916114205750156146ec565b60405163dbac26e960e01b815233600482015292839182905afa80156109a357612d9d91600091611401575015614728565b33600052600160205260ff60406000205416600581101561095e576002036130785781600052600360205260ff60016040600020015416600381101561095e5761303e5781600052600360205260ff60016040600020015460081c16600681101561095e57612ff957816000526003602052612e2660ff60016040600020015460181c166147c4565b8015612fc45760008281526003602081815260409092209081015460018201805461ffff191661010117905560098083018054336001600160a01b0319909116179055600a830185905542600b909301929092559054600080516020614a90833981519152936001600160a01b039092169190612ea290614668565b80600955856000526003845260166040600020015560095480600052600a845280604060002055600052600a8352600160406000200160018060a01b0383166bffffffffffffffffffffffff60a01b825416179055600954600052600a8352600260406000200160018060a01b0333166bffffffffffffffffffffffff60a01b825416179055600954600052600a835284600360406000200155600954600052600a8352600560406000200155600954600052600a82524260066040600020015533600052600b8252612f7c604060002060095490614767565b80600052600e8252612f92846040600020614767565b6040519033857f405b8e92032184041314dcddf305e0d97d13b103d3fa162eb2b1c760760bdc0a600080a460018152a2005b60405162461bcd60e51b815260206004820152600d60248201526c496e76616c696420707269636560981b6044820152606490fd5b60405162461bcd60e51b815260206004820152601a60248201527f4e6f7420617661696c61626c6520666f722070757263686173650000000000006044820152606490fd5b60405162461bcd60e51b81526020600482015260126024820152714d757374206265204641524d20737461676560701b6044820152606490fd5b60405162461bcd60e51b815260206004820152601860248201527f4f6e6c79206469737472696275746f722063616e2062757900000000000000006044820152606490fd5b3461023457600036600319011261023457600854600060015b828111156131f257506130e89061468e565b60009160015b81811115613104576040518061029585826140c7565b80600052600560205260ff6005604060002001541615806131d8575b613133575b61312e90614668565b6130ee565b91909260019360005b8460005260056020526003604060002001548110156131ce5784600052600560205261316f81600360406000200161415f565b90549060031b1c600052600360205260ff60016040600020015460081c16600681101561095e576002036131a55760010161313c565b50919290935060005b1561312557926131c681856102e261312e94876146c0565b939050613125565b50919290936131ae565b508060005260056020526003604060002001541515613120565b80600052600560205260ff6005604060002001541615806132bc575b613221575b61321c90614668565b6130d6565b9060019260005b8360005260056020526003604060002001548110156132b25783600052600560205261325b81600360406000200161415f565b90549060031b1c600052600360205260ff60016040600020015460081c16600681101561095e5760020361329157600101613228565b5092509060005b1561321357906132aa61321c91614668565b919050613213565b5092919091613298565b50806000526005602052600360406000200154151561320e565b34610234576060366003190112610234576024356001600160a01b038116906004359082900361023457600054604051635c975abb60e01b8152604435916001600160a01b0316602082600481845afa9081156109a357613344602092602494600091612c9e5750156146ec565b60405163dbac26e960e01b815233600482015292839182905afa80156109a35761337691600091612c7f575015614728565b81600052600360205260ff60016040600020015460081c16600681101561095e5760040361351b5780156134e357600082815260036020526040902060088101546012909101548103908111611e365781116134a8578160005260036020526012604060002001805491808301809311611e365791905560008281526003602090815260409091206011810180546001600160a01b0319168617905560128101546008909101547fc4e776593902e41e517077b7801b16abf4ad2b754d62899b59d9dc684674777493911015613486575b836000526003825283600080516020614a908339815191528360ff60016040600020015460081c1661347c60405180926144a5565ba2604051908152a3005b8360005260038252600160406000200161050061ff0019825416179055613447565b60405162461bcd60e51b81526020600482015260136024820152724e6f7420656e6f756768207175616e7469747960681b6044820152606490fd5b60405162461bcd60e51b815260206004820152601060248201526f496e76616c6964207175616e7469747960801b6044820152606490fd5b60405162461bcd60e51b815260206004820152600e60248201526d135d5cdd081899481b1a5cdd195960921b6044820152606490fd5b3461023457600036600319011261023457602060405160058152f35b34610234576020366003190112610234576001600160a01b0361358e614101565b1660005260116020526102956135a76040600020614292565b604051918291602083526020830190614336565b34610234576040366003190112610234576135d4614101565b60243560058110156102345733600052600160205260ff60406000205416600581101561095e5760040361379b576001600160a01b038216600090815260016020526040902061362491906147ac565b6001600160a01b03811660009081527ffd54ff1ed53f34a900b24c5ba64f85761163b5d82d98a47b9bd80e45466993c560205260409020541561375b575b6001600160a01b03811660009081527f10a81eed9d63d16face5e76357905348e6253d3394086026bb2bf2145d7cc24960205260409020541561371b575b6001600160a01b03811660009081527f26b4a10d0f0b04925c23bd4480ee147c916e5e87a7d68206a533dad160ac81e26020526040902054156136df57005b6001600160a01b031660009081527f26b4a10d0f0b04925c23bd4480ee147c916e5e87a7d68206a533dad160ac81e26020526040902060329055005b6001600160a01b03811660009081527f10a81eed9d63d16face5e76357905348e6253d3394086026bb2bf2145d7cc24960205260409020603290556136a0565b6001600160a01b03811660009081527ffd54ff1ed53f34a900b24c5ba64f85761163b5d82d98a47b9bd80e45466993c56020526040902060329055613662565b60405162461bcd60e51b815260206004820152600a60248201526927b7363c9030b236b4b760b11b6044820152606490fd5b34610234576040366003190112610234576137e6614101565b6001600160a01b03166000908152600b602052604090208054602435919082101561023457602091612d059161415f565b34610234576000366003190112610234576020600454604051908152f35b346102345760403660031901126102345761384e614101565b6001600160a01b031660009081526007602052604090208054602435919082101561023457602091612d059161415f565b34610234576040366003190112610234576004356024356001600160401b038111610234576138b290369060040161419a565b600054604051635c975abb60e01b8152919391906001600160a01b0316602082600481845afa9081156109a3576138f6602092602494600091612c9e5750156146ec565b60405163dbac26e960e01b815233600482015292839182905afa80156109a35761392891600091612c7f575015614728565b33600052600160205260ff60406000205416600581101561095e57600303613d405780600052600560205260ff60056040600020015416613d07578060005260056020528260036040600020015403613cd1576000818152600560205260408120600101546001600160a01b031692905b826000526005602052600360406000200154811015613a9c578260005260056020526139cc81600360406000200161415f565b90549060031b1c80600052600360205260ff60016040600020015460081c16600681101561095e57600203613a60576000908152600360205260409020600901546001600160a01b0316849003613a2557600101613999565b60405162461bcd60e51b815260206004820152601360248201527224b73b30b634b2103234b9ba3934b13aba37b960691b6044820152606490fd5b60405162461bcd60e51b8152602060048201526014602482015273141c9bd91d58dd081b9bdd081d995c9a599a595960621b6044820152606490fd5b5060008281526005602081815260408084206002810180546001600160a01b031916339081179091559301805460ff1916600117905591835260079052902092939192909190613aed908490614767565b604080518481523360208201527fd435a59c16541ca81adf6cdfe8991cc9c87d2475a457ef2876460222a63d82579190a133936001600160a01b038116929060005b856000526005602052600360406000200154811015611e0857600190866000526005602052613b6581600360406000200161415f565b9054600391821b1c60008181526020929092526040909120838101805461ffff1916610102179055600d0180546001600160a01b0319168a179055613bab82878761479c565b60008281526003602052604090209035600e82015542600f90910155600954613bd390614668565b60098181556000838152600360208181526040808420601701869055858452600a90915280832094855593870180546001600160a01b03199081168d179091558354835284832060020180549091168e17905582548252838220018490559054815220600401889055613c4782878761479c565b35600954600052600a602052600560406000200155600954600052600a6020524260066040600020015533600052600c602052613c8b604060002060095490614767565b600080516020614a9083398151915260206040518633857f405b8e92032184041314dcddf305e0d97d13b103d3fa162eb2b1c760760bdc0a600080a4858152a201613b2f565b60405162461bcd60e51b815260206004820152600e60248201526d0a0e4d2c6ca40dad2e6dac2e8c6d60931b6044820152606490fd5b60405162461bcd60e51b8152602060048201526011602482015270105b1c9958591e481c1d5c98da185cd959607a1b6044820152606490fd5b60405162461bcd60e51b81526020600482015260156024820152744f6e6c792072657461696c65722063616e2062757960581b6044820152606490fd5b3461023457604036600319011261023457613d96614101565b6001600160a01b031660009081526006602052604090208054602435919082101561023457602091612d059161415f565b3461023457602036600319011261023457600060c0604051613de881614204565b8281528260208201528260408201528260608201528260808201528260a08201520152600435600052600a60205260e06040600020604051613e2981614204565b81549182825260018060a01b036001820154166020830190815260018060a01b0360028301541660408401908152600383015490606085019182526004840154926080860193845260c0600660058701549660a089019788520154960195865260405196875260018060a01b03905116602087015260018060a01b0390511660408601525160608501525160808401525160a08301525160c0820152f35b3461023457604036600319011261023457613ee0614101565b6001600160a01b03166000908152600c602052604090208054602435919082101561023457602091612d059161415f565b3461023457613f29613f2236614117565b9190614146565b9060018060a01b03166000526020526020604060002054604051908152f35b3461023457600036600319011261023457600454600060015b8281111561402e5750613f739061468e565b60009160015b81811115613f8f576040518061029585826140c7565b80600052600360205260ff60016040600020015416600381101561095e571580614006575b80613fe8575b613fcd575b613fc890614668565b613f79565b92613fe081856102e2613fc894876146c0565b939050613fbf565b5080600052600360205260ff60016040600020015460181c16613fba565b5080600052600360205260ff60016040600020015460081c16600681101561095e5715613fb4565b80600052600360205260ff60016040600020015416600381101561095e57158061409f575b80614081575b61406c575b61406790614668565b613f61565b9061407961406791614668565b91905061405e565b5080600052600360205260ff60016040600020015460181c16614059565b5080600052600360205260ff60016040600020015460081c16600681101561095e5715614053565b602060408183019282815284518094520192019060005b8181106140eb5750505090565b82518452602093840193909201916001016140de565b600435906001600160a01b038216820361023457565b604090600319011261023457600435600581101561023457906024356001600160a01b03811681036102345790565b600581101561095e57600052600d602052604060002090565b80548210156141775760005260206000200190600090565b634e487b7160e01b600052603260045260246000fd5b90600582101561095e5752565b9181601f84011215610234578235916001600160401b038311610234576020808501948460051b01011161023457565b90600182811c921680156141fa575b60208310146141e457565b634e487b7160e01b600052602260045260246000fd5b91607f16916141d9565b60e081019081106001600160401b0382111761083457604052565b60c081019081106001600160401b0382111761083457604052565b6101a081019081106001600160401b0382111761083457604052565b608081019081106001600160401b0382111761083457604052565b90601f801991011681019081106001600160401b0382111761083457604052565b90604051918260008254926142a6846141ca565b808452936001811690811561431457506001146142cd575b506142cb92500383614271565b565b90506000929192526020600020906000915b8183106142f85750509060206142cb92820101386142be565b60209193508060019154838589010152019101909184926142df565b9050602092506142cb94915060ff191682840152151560051b820101386142be565b919082519283825260005b848110614362575050826000602080949584010152601f8019910116010190565b80602080928401015182828601015201614341565b9181601f84011215610234578235916001600160401b038311610234576020838186019501011161023457565b906040516143b181614204565b60c0600682946143c081614292565b845260018101546001600160a01b0316602085015260028101546040850152600381015460608501526143f560048201614292565b6080850152600581015460a08501520154910152565b9060405161441881614256565b82546001600160a01b0316815260018301546020820152600283015460408201526003909201546060830152565b906040516144538161421f565b82546001600160a01b039081168252600184015460208301526002840154604083015260038401546060830152600484015416608082015260059092015460a0830152565b90600382101561095e5752565b90600682101561095e5752565b90600482101561095e5752565b9060c0806145116144d9855160e0865260e0860190614336565b60018060a01b036020870151166020860152604086015160408601526060860151606086015260808601518582036080870152614336565b9360a081015160a0850152015191015290565b80516001600160a01b0390811683526020808301519084015260408083015190840152606080830151908401526080808301519091169083015260a090810151910152565b94919261458560a09598979461459693885260208801906144b2565b60c0604087015260c0860190614336565b9560608501526080840152600180831b0316910152565b9060a06003198301126102345760043591602435916044356001600160401b03811161023457826145e091600401614377565b9290929160643591608435906001600160401b0382116102345761460691600401614377565b9091565b6020815281516020820152614627602083015160408301906144b2565b60c0614641604084015182606085015260e0840190614336565b9260608101516080840152608081015160a084015260a0600180821b039101511691015290565b6000198114611e365760010190565b6001600160401b0381116108345760051b60200190565b9061469882614677565b6146a56040519182614271565b82815280926146b6601f1991614677565b0190602036910137565b80518210156141775760209160051b010190565b90816020910312610234575180151581036102345790565b156146f357565b60405162461bcd60e51b815260206004820152600d60248201526c14de5cdd195b481c185d5cd959609a1b6044820152606490fd5b1561472f57565b60405162461bcd60e51b815260206004820152601060248201526f155cd95c88189b1858dadb1a5cdd195960821b6044820152606490fd5b8054600160401b811015610834576147849160018201815561415f565b819291549060031b91821b91600019901b1916179055565b91908110156141775760051b0190565b90600581101561095e5760ff80198354169116179055565b156147cb57565b60405162461bcd60e51b815260206004820152601060248201526f125b9858dd1a5d99481c1c9bd91d58dd60821b6044820152606490fd5b81811061480e575050565b60008155600101614803565b1561482157565b60405162461bcd60e51b815260206004820152601060248201526f27b7363c903234b9ba3934b13aba37b960811b6044820152606490fd5b1561486057565b60405162461bcd60e51b815260206004820152600d60248201526c496e76616c69642073636f726560981b6044820152606490fd5b90600481101561095e5760ff80198354169116179055565b90600481101561095e5762ff000082549160101b169062ff00001916179055565b156148d557565b60405162461bcd60e51b815260206004820152600d60248201526c27b7363c903932ba30b4b632b960991b6044820152606490fd5b604051906149178261421f565b600060a083828152826020820152606060408201528260608201528260808201520152565b600482101561095e5752565b605581101561497257604681101561496c576037111561496757600390565b600290565b50600190565b50600090565b6149826001614146565b60018060a01b03821660005260205260406000205490816149a1575050565b6001198201918211611e36576149b76001614146565b9060018060a01b0316600052602052604060002055565b6149d86002614146565b60018060a01b03821660005260205260406000205490816149f7575050565b6001198201918211611e36576149b76002614146565b614a176001614146565b60018060a01b0382166000526020526040600020549060648210614a39575050565b60028201809211611e36576149b76001614146565b614a586002614146565b60018060a01b0382166000526020526040600020549060648210614a7a575050565b60028201809211611e36576149b7600261414656fedf7efc9f6f5bce44cbf5db3d8362387f6d02e0566c37fb4ed10cd3d05b35ecada2646970667358221220964d951f64b5a736a7796b6b6c1f3926f0c538e44762bf02e24fa54cbf12396764736f6c634300081c0033608034607057601f6103c038819003918201601f19168301916001600160401b03831184841017607557808492602094604052833981010312607057516001600160a01b03811690819003607057600080546001600160a81b031916919091179055604051610334908161008c8239f35b600080fd5b634e487b7160e01b600052604160045260246000fdfe6080604052600436101561001257600080fd5b60003560e01c80633f4ba83a1461026b5780635c975abb1461016b57806375e3661e146101f35780638456cb5914610191578063b187bd261461016b578063dbac26e91461007f578063f851a44014610142578063f9f92be4146100c75763fe575a871461007f57600080fd5b346100c25760203660031901126100c2576004356001600160a01b038116908190036100c2576000526001602052602060ff604060002054166040519015158152f35b600080fd5b346100c25760203660031901126100c2576004356001600160a01b038116908190036100c25761010260018060a01b036000541633146102c5565b8060005260016020526040600020600160ff198254161790557fffa4e6181777692565cf28528fc88fd1516ea86b56da075235fa575af6a4b855600080a2005b346100c25760003660031901126100c2576000546040516001600160a01b039091168152602090f35b346100c25760003660031901126100c257602060ff60005460a01c166040519015158152f35b346100c25760003660031901126100c2576000546101b9336001600160a01b038316146102c5565b60ff60a01b1916600160a01b17600090815533907f62e78cea01bee320cd4e420270b5ea74000d11b0c9f74754ebdbfc544b05a2589080a2005b346100c25760203660031901126100c2576004356001600160a01b038116908190036100c25761022e60018060a01b036000541633146102c5565b806000526001602052604060002060ff1981541690557f7534c63860313c46c473e4e98328f37017e9674e2162faf1a3ad7a96236c3b7b600080a2005b346100c25760003660031901126100c257600054610293336001600160a01b038316146102c5565b60ff60a01b1916600055337f5db9ee0a495bf2e6ff9c91a7834c1ba4fdd244a5e8aa4e537bd38aeae4b073aa600080a2005b156102cc57565b60405162461bcd60e51b815260206004820152600a60248201526927b7363c9030b236b4b760b11b6044820152606490fdfea264697066735822122038eec1169eb1465c9dcf3e0b6992c745452555d78c4809f8e0e0ffc0c3a6f51764736f6c634300081c0033","opcodes":"PUSH1 0x80 DUP1 PUSH1 0x40 MSTORE CALLVALUE PUSH2 0x135 JUMPI PUSH1 0x2 DUP1 SLOAD PUSH1 0x1 PUSH1 0x1 PUSH1 0xA0 SHL SUB NOT AND CALLER OR SWAP1 SSTORE PUSH2 0x3C0 DUP2 DUP2 ADD SWAP1 PUSH1 0x1 PUSH1 0x1 PUSH1 0x40 SHL SUB DUP3 GT DUP4 DUP4 LT OR PUSH2 0x11F JUMPI PUSH1 0x20 SWAP2 DUP4 SWAP2 PUSH2 0x4C20 DUP4 CODECOPY CALLER DUP2 MSTORE SUB ADD SWAP1 PUSH1 0x0 CREATE DUP1 ISZERO PUSH2 0x113 JUMPI PUSH1 0x0 DUP1 SLOAD PUSH1 0x1 PUSH1 0x1 PUSH1 0xA0 SHL SUB NOT AND PUSH1 0x1 PUSH1 0x1 PUSH1 0xA0 SHL SUB SWAP3 SWAP1 SWAP3 AND SWAP2 SWAP1 SWAP2 OR DUP2 SSTORE CALLER DUP2 MSTORE PUSH1 0x1 PUSH1 0x20 SWAP1 DUP2 MSTORE PUSH1 0x40 DUP1 DUP4 KECCAK256 DUP1 SLOAD PUSH1 0xFF NOT AND PUSH1 0x4 OR SWAP1 SSTORE PUSH32 0xFD54FF1ED53F34A900B24C5BA64F85761163B5D82D98A47B9BD80E45466993C5 DUP3 MSTORE DUP1 DUP4 KECCAK256 PUSH1 0x32 SWAP1 DUP2 SWAP1 SSTORE PUSH32 0x10A81EED9D63D16FACE5E76357905348E6253D3394086026BB2BF2145D7CC249 DUP4 MSTORE DUP2 DUP5 KECCAK256 DUP2 SWAP1 SSTORE PUSH32 0x26B4A10D0F0B04925C23BD4480EE147C916E5E87A7D68206A533DAD160AC81E2 SWAP1 SWAP3 MSTORE SWAP2 DUP3 SWAP1 KECCAK256 SSTORE MLOAD PUSH2 0x4AE5 SWAP1 DUP2 PUSH2 0x13B DUP3 CODECOPY RETURN JUMPDEST PUSH1 0x40 MLOAD RETURNDATASIZE PUSH1 0x0 DUP3 RETURNDATACOPY RETURNDATASIZE SWAP1 REVERT JUMPDEST PUSH4 0x4E487B71 PUSH1 0xE0 SHL PUSH1 0x0 MSTORE PUSH1 0x41 PUSH1 0x4 MSTORE PUSH1 0x24 PUSH1 0x0 REVERT JUMPDEST PUSH1 0x0 DUP1 REVERT INVALID PUSH1 0x80 PUSH1 0x40 MSTORE PUSH1 0x4 CALLDATASIZE LT ISZERO PUSH2 0x12 JUMPI PUSH1 0x0 DUP1 REVERT JUMPDEST PUSH1 0x0 CALLDATALOAD PUSH1 0xE0 SHR DUP1 PUSH4 0x1290831D EQ PUSH2 0x3F48 JUMPI DUP1 PUSH4 0x1B9CF329 EQ PUSH2 0x3F11 JUMPI DUP1 PUSH4 0x22E377FF EQ PUSH2 0x3F11 JUMPI DUP1 PUSH4 0x2423BB0B EQ PUSH2 0x3EC7 JUMPI DUP1 PUSH4 0x33EA3DC8 EQ PUSH2 0x3DC7 JUMPI DUP1 PUSH4 0x44276733 EQ PUSH2 0x1997 JUMPI DUP1 PUSH4 0x49616685 EQ PUSH2 0x3D7D JUMPI DUP1 PUSH4 0x4A0F5DA6 EQ PUSH2 0x387F JUMPI DUP1 PUSH4 0x4CCC0C0D EQ PUSH2 0x3835 JUMPI DUP1 PUSH4 0x4DE91A63 EQ PUSH2 0x3817 JUMPI DUP1 PUSH4 0x570AEA8A EQ PUSH2 0x3817 JUMPI DUP1 PUSH4 0x5BDB6F71 EQ PUSH2 0x37CD JUMPI DUP1 PUSH4 0x630A195B EQ PUSH2 0x35BB JUMPI DUP1 PUSH4 0x6357E48B EQ PUSH2 0x356D JUMPI DUP1 PUSH4 0x638A348C EQ PUSH2 0x3551 JUMPI DUP1 PUSH4 0x65EBD136 EQ PUSH2 0x32D6 JUMPI DUP1 PUSH4 0x66B9F622 EQ PUSH2 0x30BD JUMPI DUP1 PUSH4 0x6BA37E10 EQ PUSH2 0x2D14 JUMPI DUP1 PUSH4 0x6C0245D0 EQ PUSH2 0x2CBB JUMPI DUP1 PUSH4 0x7882E082 EQ PUSH2 0x2A10 JUMPI DUP1 PUSH4 0x7ACC0B20 EQ PUSH2 0x28A4 JUMPI DUP1 PUSH4 0x7D07DC82 EQ PUSH2 0x2869 JUMPI DUP1 PUSH4 0x7D0BA4EF EQ PUSH2 0x22F2 JUMPI DUP1 PUSH4 0x7D0C49A8 EQ PUSH2 0x216E JUMPI DUP1 PUSH4 0x8462A7F8 EQ PUSH2 0x2150 JUMPI DUP1 PUSH4 0x8AFF87B2 EQ PUSH2 0x2132 JUMPI DUP1 PUSH4 0x8C301FBB EQ PUSH2 0x20F8 JUMPI DUP1 PUSH4 0x8F3E1755 EQ PUSH2 0x1A3C JUMPI DUP1 PUSH4 0x989EE4EA EQ PUSH2 0x19DB JUMPI DUP1 PUSH4 0x99374642 EQ PUSH2 0x1997 JUMPI DUP1 PUSH4 0x9ACE38C2 EQ PUSH2 0x191A JUMPI DUP1 PUSH4 0x9D47DCC0 EQ PUSH2 0x179D JUMPI DUP1 PUSH4 0xB32C4D8D EQ PUSH2 0x1732 JUMPI DUP1 PUSH4 0xB9DB15B4 EQ PUSH2 0x143D JUMPI DUP1 PUSH4 0xC6376A5A EQ PUSH2 0x10E9 JUMPI DUP1 PUSH4 0xC86DC0A6 EQ PUSH2 0x1054 JUMPI DUP1 PUSH4 0xCAA6FEA4 EQ PUSH2 0x102B JUMPI DUP1 PUSH4 0xCC3D967B EQ PUSH2 0xF32 JUMPI DUP1 PUSH4 0xD29BCC5C EQ PUSH2 0xCCC JUMPI DUP1 PUSH4 0xD3838AB1 EQ PUSH2 0xB00 JUMPI DUP1 PUSH4 0xD6669147 EQ PUSH2 0x9CC JUMPI DUP1 PUSH4 0xDD003ACE EQ PUSH2 0x4AD JUMPI DUP1 PUSH4 0xEC90A7B0 EQ PUSH2 0x377 JUMPI DUP1 PUSH4 0xF6FA3B92 EQ PUSH2 0x239 JUMPI PUSH4 0xF851A440 EQ PUSH2 0x20B JUMPI PUSH1 0x0 DUP1 REVERT JUMPDEST CALLVALUE PUSH2 0x234 JUMPI PUSH1 0x0 CALLDATASIZE PUSH1 0x3 NOT ADD SLT PUSH2 0x234 JUMPI PUSH1 0x2 SLOAD PUSH1 0x40 MLOAD PUSH1 0x1 PUSH1 0x1 PUSH1 0xA0 SHL SUB SWAP1 SWAP2 AND DUP2 MSTORE PUSH1 0x20 SWAP1 RETURN JUMPDEST PUSH1 0x0 DUP1 REVERT JUMPDEST CALLVALUE PUSH2 0x234 JUMPI PUSH1 0x20 CALLDATASIZE PUSH1 0x3 NOT ADD SLT PUSH2 0x234 JUMPI PUSH2 0x252 PUSH2 0x4101 JUMP JUMPDEST PUSH1 0x4 SLOAD PUSH1 0x1 PUSH1 0x1 PUSH1 0xA0 SHL SUB SWAP1 SWAP2 AND SWAP1 PUSH1 0x0 PUSH1 0x1 JUMPDEST DUP3 DUP2 GT ISZERO PUSH2 0x30E JUMPI POP PUSH2 0x278 SWAP1 PUSH2 0x468E JUMP JUMPDEST SWAP2 PUSH1 0x0 SWAP1 PUSH1 0x1 JUMPDEST DUP4 DUP2 GT ISZERO PUSH2 0x299 JUMPI PUSH1 0x40 MLOAD DUP1 PUSH2 0x295 DUP8 DUP3 PUSH2 0x40C7 JUMP JUMPDEST SUB SWAP1 RETURN JUMPDEST PUSH1 0x0 DUP2 DUP2 MSTORE PUSH1 0x3 PUSH1 0x20 MSTORE PUSH1 0x40 SWAP1 KECCAK256 PUSH1 0x9 ADD SLOAD PUSH1 0x1 PUSH1 0x1 PUSH1 0xA0 SHL SUB AND DUP3 EQ DUP1 PUSH2 0x2F0 JUMPI JUMPDEST PUSH2 0x2CF JUMPI JUMPDEST PUSH2 0x2CA SWAP1 PUSH2 0x4668 JUMP JUMPDEST PUSH2 0x27F JUMP JUMPDEST SWAP2 PUSH2 0x2E8 DUP2 DUP5 PUSH2 0x2E2 PUSH2 0x2CA SWAP5 DUP10 PUSH2 0x46C0 JUMP JUMPDEST MSTORE PUSH2 0x4668 JUMP JUMPDEST SWAP3 SWAP1 POP PUSH2 0x2C1 JUMP JUMPDEST POP DUP1 PUSH1 0x0 MSTORE PUSH1 0x3 PUSH1 0x20 MSTORE PUSH1 0xFF PUSH1 0x1 PUSH1 0x40 PUSH1 0x0 KECCAK256 ADD SLOAD PUSH1 0x18 SHR AND PUSH2 0x2BC JUMP JUMPDEST PUSH1 0x0 DUP2 DUP2 MSTORE PUSH1 0x3 PUSH1 0x20 MSTORE PUSH1 0x40 SWAP1 KECCAK256 PUSH1 0x9 ADD SLOAD PUSH1 0x1 PUSH1 0x1 PUSH1 0xA0 SHL SUB AND DUP5 EQ DUP1 PUSH2 0x359 JUMPI JUMPDEST PUSH2 0x344 JUMPI JUMPDEST PUSH2 0x33F SWAP1 PUSH2 0x4668 JUMP JUMPDEST PUSH2 0x266 JUMP JUMPDEST SWAP1 PUSH2 0x351 PUSH2 0x33F SWAP2 PUSH2 0x4668 JUMP JUMPDEST SWAP2 SWAP1 POP PUSH2 0x336 JUMP JUMPDEST POP DUP1 PUSH1 0x0 MSTORE PUSH1 0x3 PUSH1 0x20 MSTORE PUSH1 0xFF PUSH1 0x1 PUSH1 0x40 PUSH1 0x0 KECCAK256 ADD SLOAD PUSH1 0x18 SHR AND PUSH2 0x331 JUMP JUMPDEST CALLVALUE PUSH2 0x234 JUMPI PUSH1 0x20 CALLDATASIZE PUSH1 0x3 NOT ADD SLT PUSH2 0x234 JUMPI PUSH2 0x390 PUSH2 0x4101 JUMP JUMPDEST PUSH1 0x4 SLOAD PUSH1 0x1 PUSH1 0x1 PUSH1 0xA0 SHL SUB SWAP1 SWAP2 AND SWAP1 PUSH1 0x0 PUSH1 0x1 JUMPDEST DUP3 DUP2 GT ISZERO PUSH2 0x443 JUMPI POP PUSH2 0x3B6 SWAP1 PUSH2 0x468E JUMP JUMPDEST SWAP2 PUSH1 0x0 SWAP1 PUSH1 0x1 JUMPDEST DUP4 DUP2 GT ISZERO PUSH2 0x3D3 JUMPI PUSH1 0x40 MLOAD DUP1 PUSH2 0x295 DUP8 DUP3 PUSH2 0x40C7 JUMP JUMPDEST PUSH1 0x0 DUP2 DUP2 MSTORE PUSH1 0x3 PUSH1 0x20 DUP2 SWAP1 MSTORE PUSH1 0x40 SWAP1 SWAP2 KECCAK256 ADD SLOAD PUSH1 0x1 PUSH1 0x1 PUSH1 0xA0 SHL SUB AND DUP3 EQ DUP1 PUSH2 0x425 JUMPI JUMPDEST PUSH2 0x40A JUMPI JUMPDEST PUSH2 0x405 SWAP1 PUSH2 0x4668 JUMP JUMPDEST PUSH2 0x3BD JUMP JUMPDEST SWAP2 PUSH2 0x41D DUP2 DUP5 PUSH2 0x2E2 PUSH2 0x405 SWAP5 DUP10 PUSH2 0x46C0 JUMP JUMPDEST SWAP3 SWAP1 POP PUSH2 0x3FC JUMP JUMPDEST POP DUP1 PUSH1 0x0 MSTORE PUSH1 0x3 PUSH1 0x20 MSTORE PUSH1 0xFF PUSH1 0x1 PUSH1 0x40 PUSH1 0x0 KECCAK256 ADD SLOAD PUSH1 0x18 SHR AND PUSH2 0x3F7 JUMP JUMPDEST PUSH1 0x0 DUP2 DUP2 MSTORE PUSH1 0x3 PUSH1 0x20 DUP2 SWAP1 MSTORE PUSH1 0x40 SWAP1 SWAP2 KECCAK256 ADD SLOAD PUSH1 0x1 PUSH1 0x1 PUSH1 0xA0 SHL SUB AND DUP5 EQ DUP1 PUSH2 0x48F JUMPI JUMPDEST PUSH2 0x47A JUMPI JUMPDEST PUSH2 0x475 SWAP1 PUSH2 0x4668 JUMP JUMPDEST PUSH2 0x3A4 JUMP JUMPDEST SWAP1 PUSH2 0x487 PUSH2 0x475 SWAP2 PUSH2 0x4668 JUMP JUMPDEST SWAP2 SWAP1 POP PUSH2 0x46C JUMP JUMPDEST POP DUP1 PUSH1 0x0 MSTORE PUSH1 0x3 PUSH1 0x20 MSTORE PUSH1 0xFF PUSH1 0x1 PUSH1 0x40 PUSH1 0x0 KECCAK256 ADD SLOAD PUSH1 0x18 SHR AND PUSH2 0x467 JUMP JUMPDEST CALLVALUE PUSH2 0x234 JUMPI PUSH1 0xA0 CALLDATASIZE PUSH1 0x3 NOT ADD SLT PUSH2 0x234 JUMPI PUSH1 0x4 CALLDATALOAD PUSH1 0x1 PUSH1 0x1 PUSH1 0x40 SHL SUB DUP2 GT PUSH2 0x234 JUMPI PUSH2 0x4DD SWAP1 CALLDATASIZE SWAP1 PUSH1 0x4 ADD PUSH2 0x4377 JUMP JUMPDEST PUSH1 0x24 CALLDATALOAD PUSH1 0x44 CALLDATALOAD PUSH1 0x1 PUSH1 0x1 PUSH1 0x40 SHL SUB DUP2 GT PUSH2 0x234 JUMPI PUSH2 0x4FF SWAP1 CALLDATASIZE SWAP1 PUSH1 0x4 ADD PUSH2 0x4377 JUMP JUMPDEST PUSH1 0x0 SLOAD PUSH1 0x40 MLOAD PUSH4 0x5C975ABB PUSH1 0xE0 SHL DUP2 MSTORE SWAP3 SWAP6 PUSH1 0x84 CALLDATALOAD SWAP6 SWAP3 SWAP5 SWAP4 SWAP1 SWAP3 SWAP2 PUSH1 0x1 PUSH1 0x1 PUSH1 0xA0 SHL SUB AND PUSH1 0x20 DUP3 PUSH1 0x4 DUP2 DUP5 GAS STATICCALL SWAP1 DUP2 ISZERO PUSH2 0x9A3 JUMPI PUSH2 0x54C PUSH1 0x20 SWAP3 PUSH1 0x24 SWAP5 PUSH1 0x0 SWAP2 PUSH2 0x9AF JUMPI JUMPDEST POP ISZERO PUSH2 0x46EC JUMP JUMPDEST PUSH1 0x40 MLOAD PUSH4 0xDBAC26E9 PUSH1 0xE0 SHL DUP2 MSTORE CALLER PUSH1 0x4 DUP3 ADD MSTORE SWAP3 DUP4 SWAP2 DUP3 SWAP1 GAS STATICCALL DUP1 ISZERO PUSH2 0x9A3 JUMPI PUSH2 0x57F SWAP2 PUSH1 0x0 SWAP2 PUSH2 0x974 JUMPI JUMPDEST POP ISZERO PUSH2 0x4728 JUMP JUMPDEST CALLER PUSH1 0x0 MSTORE PUSH1 0x1 PUSH1 0x20 MSTORE PUSH1 0xFF PUSH1 0x40 PUSH1 0x0 KECCAK256 SLOAD AND PUSH1 0x5 DUP2 LT ISZERO PUSH2 0x95E JUMPI PUSH1 0x1 SUB PUSH2 0x92C JUMPI DUP5 ISZERO ISZERO DUP1 PUSH2 0x923 JUMPI JUMPDEST ISZERO PUSH2 0x8ED JUMPI PUSH2 0x5BA PUSH1 0x4 SLOAD PUSH2 0x4668 JUMP JUMPDEST PUSH1 0x4 DUP2 DUP2 SSTORE PUSH1 0x0 DUP3 DUP2 MSTORE PUSH1 0x3 PUSH1 0x20 MSTORE PUSH1 0x40 DUP1 DUP3 KECCAK256 SWAP4 DUP5 SSTORE PUSH1 0x1 SWAP4 DUP5 ADD DUP1 SLOAD PUSH1 0xFF NOT AND SWAP1 SSTORE DUP3 SLOAD DUP3 MSTORE DUP1 DUP3 KECCAK256 DUP5 ADD DUP1 SLOAD PUSH2 0xFF00 NOT AND SWAP1 SSTORE DUP3 SLOAD DUP3 MSTORE DUP1 DUP3 KECCAK256 DUP5 ADD DUP1 SLOAD PUSH3 0xFF0000 NOT AND SWAP1 SSTORE DUP3 SLOAD DUP3 MSTORE DUP1 DUP3 KECCAK256 SWAP1 SWAP4 ADD DUP1 SLOAD PUSH4 0xFF000000 NOT AND PUSH4 0x1000000 OR SWAP1 SSTORE SWAP1 SLOAD DUP2 MSTORE KECCAK256 PUSH1 0x2 ADD SWAP2 PUSH1 0x1 PUSH1 0x1 PUSH1 0x40 SHL SUB DUP3 GT PUSH2 0x834 JUMPI DUP2 SWAP1 PUSH2 0x641 DUP5 SLOAD PUSH2 0x41CA JUMP JUMPDEST PUSH1 0x1F DUP2 GT PUSH2 0x8BB JUMPI JUMPDEST POP PUSH1 0x0 SWAP1 PUSH1 0x1F DUP4 GT PUSH1 0x1 EQ PUSH2 0x855 JUMPI PUSH1 0x0 SWAP3 PUSH2 0x84A JUMPI JUMPDEST POP POP DUP2 PUSH1 0x1 SHL SWAP2 PUSH1 0x0 NOT SWAP1 PUSH1 0x3 SHL SHR NOT AND OR SWAP1 SSTORE JUMPDEST PUSH1 0x4 DUP1 SLOAD PUSH1 0x0 SWAP1 DUP2 MSTORE PUSH1 0x3 PUSH1 0x20 DUP2 SWAP1 MSTORE PUSH1 0x40 DUP1 DUP4 KECCAK256 SWAP1 SWAP2 ADD DUP1 SLOAD PUSH1 0x1 PUSH1 0x1 PUSH1 0xA0 SHL SUB NOT AND CALLER OR SWAP1 SSTORE DUP3 SLOAD DUP3 MSTORE DUP1 DUP3 KECCAK256 TIMESTAMP SWAP1 DUP5 ADD SSTORE DUP3 SLOAD DUP3 MSTORE DUP1 DUP3 KECCAK256 PUSH1 0x5 ADD SWAP4 SWAP1 SWAP4 SSTORE SWAP1 SLOAD DUP2 MSTORE KECCAK256 PUSH1 0x6 ADD SWAP1 PUSH1 0x1 PUSH1 0x1 PUSH1 0x40 SHL SUB DUP2 GT PUSH2 0x834 JUMPI PUSH2 0x6D9 DUP3 SLOAD PUSH2 0x41CA JUMP JUMPDEST PUSH1 0x1F DUP2 GT PUSH2 0x7F7 JUMPI JUMPDEST POP PUSH1 0x0 PUSH1 0x1F DUP3 GT PUSH1 0x1 EQ PUSH2 0x794 JUMPI DUP2 SWAP3 SWAP4 SWAP5 PUSH1 0x0 SWAP3 PUSH2 0x789 JUMPI JUMPDEST POP POP DUP2 PUSH1 0x1 SHL SWAP2 PUSH1 0x0 NOT SWAP1 PUSH1 0x3 SHL SHR NOT AND OR SWAP1 SSTORE JUMPDEST PUSH1 0x4 SLOAD PUSH1 0x0 MSTORE PUSH1 0x3 PUSH1 0x20 MSTORE PUSH1 0x64 CALLDATALOAD PUSH1 0x7 PUSH1 0x40 PUSH1 0x0 KECCAK256 ADD SSTORE PUSH1 0x4 SLOAD PUSH1 0x0 MSTORE PUSH1 0x3 PUSH1 0x20 MSTORE PUSH1 0x8 PUSH1 0x40 PUSH1 0x0 KECCAK256 ADD SSTORE PUSH1 0x20 PUSH1 0x4 SLOAD DUP1 PUSH1 0x0 DUP1 MLOAD PUSH1 0x20 PUSH2 0x4A90 DUP4 CODECOPY DUP2 MLOAD SWAP2 MSTORE DUP4 PUSH1 0x40 MLOAD CALLER DUP5 PUSH32 0xE8BB4E90E950F7B76A8C4E472B3B5E01D41C478F9EEAEA36B4BA991F51133F91 PUSH1 0x0 DUP1 LOG3 PUSH1 0x0 DUP2 MSTORE LOG2 PUSH1 0x40 MLOAD SWAP1 DUP2 MSTORE RETURN JUMPDEST ADD CALLDATALOAD SWAP1 POP DUP5 DUP1 PUSH2 0x6FC JUMP JUMPDEST PUSH1 0x1F NOT DUP3 AND SWAP5 DUP4 DUP3 MSTORE PUSH1 0x20 DUP3 KECCAK256 SWAP2 DUP1 JUMPDEST DUP8 DUP2 LT PUSH2 0x7DF JUMPI POP DUP4 PUSH1 0x1 SWAP6 SWAP7 SWAP8 LT PUSH2 0x7C5 JUMPI JUMPDEST POP POP POP DUP2 SHL ADD SWAP1 SSTORE PUSH2 0x711 JUMP JUMPDEST ADD CALLDATALOAD PUSH1 0x0 NOT PUSH1 0x3 DUP5 SWAP1 SHL PUSH1 0xF8 AND SHR NOT AND SWAP1 SSTORE DUP5 DUP1 DUP1 PUSH2 0x7B8 JUMP JUMPDEST SWAP1 SWAP3 PUSH1 0x20 PUSH1 0x1 DUP2 SWAP3 DUP7 DUP7 ADD CALLDATALOAD DUP2 SSTORE ADD SWAP5 ADD SWAP2 ADD PUSH2 0x7A4 JUMP JUMPDEST PUSH2 0x824 SWAP1 DUP4 PUSH1 0x0 MSTORE PUSH1 0x20 PUSH1 0x0 KECCAK256 PUSH1 0x1F DUP5 ADD PUSH1 0x5 SHR DUP2 ADD SWAP2 PUSH1 0x20 DUP6 LT PUSH2 0x82A JUMPI JUMPDEST PUSH1 0x1F ADD PUSH1 0x5 SHR ADD SWAP1 PUSH2 0x4803 JUMP JUMPDEST DUP5 PUSH2 0x6E2 JUMP JUMPDEST SWAP1 SWAP2 POP DUP2 SWAP1 PUSH2 0x817 JUMP JUMPDEST PUSH4 0x4E487B71 PUSH1 0xE0 SHL PUSH1 0x0 MSTORE PUSH1 0x41 PUSH1 0x4 MSTORE PUSH1 0x24 PUSH1 0x0 REVERT JUMPDEST ADD CALLDATALOAD SWAP1 POP DUP8 DUP1 PUSH2 0x661 JUMP JUMPDEST DUP5 DUP3 MSTORE PUSH1 0x20 DUP3 KECCAK256 SWAP3 POP SWAP1 PUSH1 0x1F NOT DUP5 AND DUP2 JUMPDEST DUP2 DUP2 LT PUSH2 0x8A3 JUMPI POP SWAP1 DUP5 PUSH1 0x1 SWAP6 SWAP5 SWAP4 SWAP3 LT PUSH2 0x889 JUMPI JUMPDEST POP POP POP DUP2 SHL ADD SWAP1 SSTORE PUSH2 0x676 JUMP JUMPDEST ADD CALLDATALOAD PUSH1 0x0 NOT PUSH1 0x3 DUP5 SWAP1 SHL PUSH1 0xF8 AND SHR NOT AND SWAP1 SSTORE DUP8 DUP1 DUP1 PUSH2 0x87C JUMP JUMPDEST SWAP2 SWAP4 PUSH1 0x20 PUSH1 0x1 DUP2 SWAP3 DUP8 DUP8 ADD CALLDATALOAD DUP2 SSTORE ADD SWAP6 ADD SWAP3 ADD PUSH2 0x866 JUMP JUMPDEST PUSH2 0x8E7 SWAP1 DUP6 PUSH1 0x0 MSTORE PUSH1 0x20 PUSH1 0x0 KECCAK256 PUSH1 0x1F DUP6 ADD PUSH1 0x5 SHR DUP2 ADD SWAP2 PUSH1 0x20 DUP7 LT PUSH2 0x82A JUMPI PUSH1 0x1F ADD PUSH1 0x5 SHR ADD SWAP1 PUSH2 0x4803 JUMP JUMPDEST DUP9 PUSH2 0x64A JUMP JUMPDEST PUSH1 0x40 MLOAD PUSH3 0x461BCD PUSH1 0xE5 SHL DUP2 MSTORE PUSH1 0x20 PUSH1 0x4 DUP3 ADD MSTORE PUSH1 0xE PUSH1 0x24 DUP3 ADD MSTORE PUSH14 0x496E76616C696420706172616D73 PUSH1 0x90 SHL PUSH1 0x44 DUP3 ADD MSTORE PUSH1 0x64 SWAP1 REVERT JUMPDEST POP TIMESTAMP DUP4 GT PUSH2 0x5AA JUMP JUMPDEST PUSH1 0x40 MLOAD PUSH3 0x461BCD PUSH1 0xE5 SHL DUP2 MSTORE PUSH1 0x20 PUSH1 0x4 DUP3 ADD MSTORE PUSH1 0xA PUSH1 0x24 DUP3 ADD MSTORE PUSH10 0x2737BA103330B936B2B9 PUSH1 0xB1 SHL PUSH1 0x44 DUP3 ADD MSTORE PUSH1 0x64 SWAP1 REVERT JUMPDEST PUSH4 0x4E487B71 PUSH1 0xE0 SHL PUSH1 0x0 MSTORE PUSH1 0x21 PUSH1 0x4 MSTORE PUSH1 0x24 PUSH1 0x0 REVERT JUMPDEST PUSH2 0x996 SWAP2 POP PUSH1 0x20 RETURNDATASIZE PUSH1 0x20 GT PUSH2 0x99C JUMPI JUMPDEST PUSH2 0x98E DUP2 DUP4 PUSH2 0x4271 JUMP JUMPDEST DUP2 ADD SWAP1 PUSH2 0x46D4 JUMP JUMPDEST DUP9 PUSH2 0x578 JUMP JUMPDEST POP RETURNDATASIZE PUSH2 0x984 JUMP JUMPDEST PUSH1 0x40 MLOAD RETURNDATASIZE PUSH1 0x0 DUP3 RETURNDATACOPY RETURNDATASIZE SWAP1 REVERT JUMPDEST PUSH2 0x9C6 SWAP2 POP DUP5 RETURNDATASIZE DUP7 GT PUSH2 0x99C JUMPI PUSH2 0x98E DUP2 DUP4 PUSH2 0x4271 JUMP JUMPDEST DUP12 PUSH2 0x545 JUMP JUMPDEST CALLVALUE PUSH2 0x234 JUMPI PUSH1 0x20 CALLDATASIZE PUSH1 0x3 NOT ADD SLT PUSH2 0x234 JUMPI PUSH2 0x9E5 PUSH2 0x4101 JUMP JUMPDEST PUSH1 0x4 SLOAD PUSH1 0x1 PUSH1 0x1 PUSH1 0xA0 SHL SUB SWAP1 SWAP2 AND SWAP1 PUSH1 0x0 PUSH1 0x1 JUMPDEST DUP3 DUP2 GT ISZERO PUSH2 0xA97 JUMPI POP PUSH2 0xA0B SWAP1 PUSH2 0x468E JUMP JUMPDEST SWAP2 PUSH1 0x0 SWAP1 PUSH1 0x1 JUMPDEST DUP4 DUP2 GT ISZERO PUSH2 0xA28 JUMPI PUSH1 0x40 MLOAD DUP1 PUSH2 0x295 DUP8 DUP3 PUSH2 0x40C7 JUMP JUMPDEST PUSH1 0x0 DUP2 DUP2 MSTORE PUSH1 0x3 PUSH1 0x20 MSTORE PUSH1 0x40 SWAP1 KECCAK256 PUSH1 0xD ADD SLOAD PUSH1 0x1 PUSH1 0x1 PUSH1 0xA0 SHL SUB AND DUP3 EQ DUP1 PUSH2 0xA79 JUMPI JUMPDEST PUSH2 0xA5E JUMPI JUMPDEST PUSH2 0xA59 SWAP1 PUSH2 0x4668 JUMP JUMPDEST PUSH2 0xA12 JUMP JUMPDEST SWAP2 PUSH2 0xA71 DUP2 DUP5 PUSH2 0x2E2 PUSH2 0xA59 SWAP5 DUP10 PUSH2 0x46C0 JUMP JUMPDEST SWAP3 SWAP1 POP PUSH2 0xA50 JUMP JUMPDEST POP DUP1 PUSH1 0x0 MSTORE PUSH1 0x3 PUSH1 0x20 MSTORE PUSH1 0xFF PUSH1 0x1 PUSH1 0x40 PUSH1 0x0 KECCAK256 ADD SLOAD PUSH1 0x18 SHR AND PUSH2 0xA4B JUMP JUMPDEST PUSH1 0x0 DUP2 DUP2 MSTORE PUSH1 0x3 PUSH1 0x20 MSTORE PUSH1 0x40 SWAP1 KECCAK256 PUSH1 0xD ADD SLOAD PUSH1 0x1 PUSH1 0x1 PUSH1 0xA0 SHL SUB AND DUP5 EQ DUP1 PUSH2 0xAE2 JUMPI JUMPDEST PUSH2 0xACD JUMPI JUMPDEST PUSH2 0xAC8 SWAP1 PUSH2 0x4668 JUMP JUMPDEST PUSH2 0x9F9 JUMP JUMPDEST SWAP1 PUSH2 0xADA PUSH2 0xAC8 SWAP2 PUSH2 0x4668 JUMP JUMPDEST SWAP2 SWAP1 POP PUSH2 0xABF JUMP JUMPDEST POP DUP1 PUSH1 0x0 MSTORE PUSH1 0x3 PUSH1 0x20 MSTORE PUSH1 0xFF PUSH1 0x1 PUSH1 0x40 PUSH1 0x0 KECCAK256 ADD SLOAD PUSH1 0x18 SHR AND PUSH2 0xABA JUMP JUMPDEST CALLVALUE PUSH2 0x234 JUMPI PUSH1 0x20 CALLDATASIZE PUSH1 0x3 NOT ADD SLT PUSH2 0x234 JUMPI PUSH1 0x4 CALLDATALOAD DUP1 ISZERO ISZERO DUP1 PUSH2 0xCC0 JUMPI JUMPDEST ISZERO PUSH2 0xC87 JUMPI PUSH1 0x0 MSTORE PUSH1 0x3 PUSH1 0x20 MSTORE PUSH1 0x40 PUSH1 0x0 KECCAK256 PUSH1 0x40 MLOAD PUSH2 0xB3B DUP2 PUSH2 0x423A JUMP JUMPDEST DUP2 SLOAD DUP2 MSTORE PUSH1 0x1 DUP3 ADD SLOAD SWAP1 PUSH1 0xFF DUP3 AND PUSH1 0x3 DUP2 LT ISZERO PUSH2 0x95E JUMPI PUSH1 0x20 DUP3 ADD MSTORE PUSH1 0xFF DUP3 PUSH1 0x8 SHR AND PUSH1 0x6 DUP2 LT ISZERO PUSH2 0x95E JUMPI PUSH1 0x40 DUP3 ADD MSTORE PUSH1 0xFF PUSH1 0x60 DUP3 ADD SWAP3 PUSH2 0xB82 DUP3 DUP3 PUSH1 0x10 SHR AND DUP6 PUSH2 0x493C JUMP JUMPDEST PUSH1 0x18 SHR AND ISZERO ISZERO PUSH1 0x80 DUP3 ADD MSTORE PUSH2 0xB99 PUSH1 0x2 DUP5 ADD PUSH2 0x43A4 JUMP JUMPDEST PUSH1 0xA0 DUP3 ADD MSTORE PUSH2 0xBAA PUSH1 0x9 DUP5 ADD PUSH2 0x440B JUMP JUMPDEST PUSH1 0xC0 DUP3 ADD MSTORE PUSH2 0xBBB PUSH1 0xD DUP5 ADD PUSH2 0x4446 JUMP JUMPDEST SWAP3 PUSH1 0xE0 DUP3 ADD SWAP4 DUP5 MSTORE PUSH2 0xBCF PUSH1 0x13 DUP3 ADD PUSH2 0x4292 JUMP JUMPDEST SWAP4 PUSH2 0x100 DUP4 ADD SWAP5 DUP6 MSTORE PUSH2 0xBE4 PUSH1 0x14 DUP4 ADD PUSH2 0x4292 JUMP JUMPDEST SWAP3 PUSH2 0x120 DUP2 ADD SWAP4 DUP5 MSTORE PUSH1 0x17 PUSH2 0xBFB PUSH1 0x15 DUP6 ADD PUSH2 0x4292 JUMP JUMPDEST SWAP4 PUSH2 0x140 DUP4 ADD SWAP5 DUP6 MSTORE PUSH1 0x16 DUP2 ADD SLOAD PUSH2 0x160 DUP5 ADD MSTORE ADD SLOAD PUSH2 0x180 DUP3 ADD MSTORE MLOAD SWAP4 MLOAD SWAP5 PUSH1 0x4 DUP7 LT ISZERO PUSH2 0x95E JUMPI PUSH2 0xC7D SWAP3 PUSH2 0xC61 PUSH1 0xA0 PUSH2 0xC6F SWAP4 MLOAD SWAP7 MLOAD SWAP3 MLOAD SWAP5 MLOAD ADD MLOAD SWAP6 PUSH2 0xC50 PUSH1 0x40 MLOAD SWAP10 DUP11 SWAP10 DUP11 MSTORE PUSH1 0x20 DUP11 ADD SWAP1 PUSH2 0x44B2 JUMP JUMPDEST PUSH1 0xC0 PUSH1 0x40 DUP10 ADD MSTORE PUSH1 0xC0 DUP9 ADD SWAP1 PUSH2 0x4336 JUMP JUMPDEST SWAP1 DUP7 DUP3 SUB PUSH1 0x60 DUP9 ADD MSTORE PUSH2 0x4336 JUMP JUMPDEST SWAP1 DUP5 DUP3 SUB PUSH1 0x80 DUP7 ADD MSTORE PUSH2 0x4336 JUMP JUMPDEST SWAP1 PUSH1 0xA0 DUP4 ADD MSTORE SUB SWAP1 RETURN JUMPDEST PUSH1 0x40 MLOAD PUSH3 0x461BCD PUSH1 0xE5 SHL DUP2 MSTORE PUSH1 0x20 PUSH1 0x4 DUP3 ADD MSTORE PUSH1 0x11 PUSH1 0x24 DUP3 ADD MSTORE PUSH17 0x141C9BD91D58DD081B9BDD08199BDD5B99 PUSH1 0x7A SHL PUSH1 0x44 DUP3 ADD MSTORE PUSH1 0x64 SWAP1 REVERT JUMPDEST POP PUSH1 0x4 SLOAD DUP2 GT ISZERO PUSH2 0xB1D JUMP JUMPDEST CALLVALUE PUSH2 0x234 JUMPI PUSH1 0x40 CALLDATASIZE PUSH1 0x3 NOT ADD SLT PUSH2 0x234 JUMPI PUSH1 0x4 CALLDATALOAD PUSH1 0x5 DUP2 LT ISZERO PUSH2 0x234 JUMPI PUSH1 0x24 CALLDATALOAD PUSH1 0x1 PUSH1 0x1 PUSH1 0x40 SHL SUB DUP2 GT PUSH2 0x234 JUMPI PUSH2 0xD08 SWAP1 CALLDATASIZE SWAP1 PUSH1 0x4 ADD PUSH2 0x4377 JUMP JUMPDEST SWAP2 SWAP1 SWAP2 CALLER PUSH1 0x0 MSTORE PUSH1 0x1 PUSH1 0x20 MSTORE PUSH1 0xFF PUSH1 0x40 PUSH1 0x0 KECCAK256 SLOAD AND PUSH1 0x5 DUP2 LT ISZERO PUSH2 0x95E JUMPI PUSH2 0xEF8 JUMPI PUSH1 0x0 SWAP2 PUSH1 0x4 DUP2 EQ PUSH2 0xEB3 JUMPI DUP2 ISZERO PUSH2 0xE76 JUMPI PUSH2 0xD59 SWAP1 CALLER DUP5 MSTORE PUSH1 0x1 PUSH1 0x20 MSTORE PUSH2 0xD54 DUP2 PUSH1 0x40 DUP7 KECCAK256 PUSH2 0x47AC JUMP JUMPDEST PUSH2 0x4146 JUMP JUMPDEST CALLER DUP1 DUP5 MSTORE PUSH1 0x20 SWAP2 DUP3 MSTORE PUSH1 0x40 DUP1 DUP6 KECCAK256 PUSH1 0x32 SWAP1 SSTORE SWAP1 DUP5 MSTORE PUSH1 0x11 SWAP1 SWAP2 MSTORE DUP3 KECCAK256 SWAP1 PUSH1 0x1 PUSH1 0x1 PUSH1 0x40 SHL SUB DUP2 GT PUSH2 0xE62 JUMPI PUSH2 0xD8E DUP3 SLOAD PUSH2 0x41CA JUMP JUMPDEST PUSH1 0x1F DUP2 GT PUSH2 0xE32 JUMPI JUMPDEST POP DUP3 PUSH1 0x1F DUP3 GT PUSH1 0x1 EQ PUSH2 0xDD1 JUMPI DUP4 SWAP5 DUP3 SWAP4 SWAP5 SWAP3 PUSH2 0xDC6 JUMPI JUMPDEST POP POP DUP2 PUSH1 0x1 SHL SWAP2 PUSH1 0x0 NOT SWAP1 PUSH1 0x3 SHL SHR NOT AND OR SWAP1 SSTORE DUP1 RETURN JUMPDEST ADD CALLDATALOAD SWAP1 POP DUP5 DUP1 PUSH2 0xDAF JUMP JUMPDEST PUSH1 0x1F NOT DUP3 AND SWAP5 DUP4 DUP6 MSTORE PUSH1 0x20 DUP6 KECCAK256 SWAP2 DUP6 JUMPDEST DUP8 DUP2 LT PUSH2 0xE1A JUMPI POP DUP4 PUSH1 0x1 SWAP6 SWAP7 SWAP8 LT PUSH2 0xE00 JUMPI JUMPDEST POP POP POP DUP2 SHL ADD SWAP1 SSTORE DUP1 RETURN JUMPDEST ADD CALLDATALOAD PUSH1 0x0 NOT PUSH1 0x3 DUP5 SWAP1 SHL PUSH1 0xF8 AND SHR NOT AND SWAP1 SSTORE DUP5 DUP1 DUP1 PUSH2 0xDF5 JUMP JUMPDEST SWAP1 SWAP3 PUSH1 0x20 PUSH1 0x1 DUP2 SWAP3 DUP7 DUP7 ADD CALLDATALOAD DUP2 SSTORE ADD SWAP5 ADD SWAP2 ADD PUSH2 0xDE1 JUMP JUMPDEST PUSH2 0xE5C SWAP1 DUP4 DUP6 MSTORE PUSH1 0x20 DUP6 KECCAK256 PUSH1 0x1F DUP5 ADD PUSH1 0x5 SHR DUP2 ADD SWAP2 PUSH1 0x20 DUP6 LT PUSH2 0x82A JUMPI PUSH1 0x1F ADD PUSH1 0x5 SHR ADD SWAP1 PUSH2 0x4803 JUMP JUMPDEST DUP5 PUSH2 0xD97 JUMP JUMPDEST PUSH4 0x4E487B71 PUSH1 0xE0 SHL DUP4 MSTORE PUSH1 0x41 PUSH1 0x4 MSTORE PUSH1 0x24 DUP4 REVERT JUMPDEST PUSH1 0x40 MLOAD PUSH3 0x461BCD PUSH1 0xE5 SHL DUP2 MSTORE PUSH1 0x20 PUSH1 0x4 DUP3 ADD MSTORE PUSH1 0x15 PUSH1 0x24 DUP3 ADD MSTORE PUSH21 0x11195D185A5B1CC81A185CDA081C995C5D5A5C9959 PUSH1 0x5A SHL PUSH1 0x44 DUP3 ADD MSTORE PUSH1 0x64 SWAP1 REVERT JUMPDEST PUSH1 0x40 MLOAD PUSH3 0x461BCD PUSH1 0xE5 SHL DUP2 MSTORE PUSH1 0x20 PUSH1 0x4 DUP3 ADD MSTORE PUSH1 0x1D PUSH1 0x24 DUP3 ADD MSTORE PUSH32 0x43616E6E6F742073656C662D72656769737465722061732061646D696E000000 PUSH1 0x44 DUP3 ADD MSTORE PUSH1 0x64 SWAP1 REVERT JUMPDEST PUSH1 0x40 MLOAD PUSH3 0x461BCD PUSH1 0xE5 SHL DUP2 MSTORE PUSH1 0x20 PUSH1 0x4 DUP3 ADD MSTORE PUSH1 0x12 PUSH1 0x24 DUP3 ADD MSTORE PUSH18 0x105B1C9958591E481C9959DA5CDD195C9959 PUSH1 0x72 SHL PUSH1 0x44 DUP3 ADD MSTORE PUSH1 0x64 SWAP1 REVERT JUMPDEST CALLVALUE PUSH2 0x234 JUMPI PUSH1 0x20 CALLDATASIZE PUSH1 0x3 NOT ADD SLT PUSH2 0x234 JUMPI PUSH2 0x100B PUSH1 0x1 PUSH1 0x1 PUSH1 0xA0 SHL SUB PUSH2 0xF56 PUSH2 0x4101 JUMP JUMPDEST AND PUSH1 0x0 SWAP1 DUP2 MSTORE PUSH1 0x1 PUSH1 0x20 SWAP1 DUP2 MSTORE PUSH1 0x40 DUP1 DUP4 KECCAK256 SLOAD PUSH32 0xFD54FF1ED53F34A900B24C5BA64F85761163B5D82D98A47B9BD80E45466993C5 DUP4 MSTORE DUP2 DUP5 KECCAK256 SLOAD PUSH32 0x10A81EED9D63D16FACE5E76357905348E6253D3394086026BB2BF2145D7CC249 DUP5 MSTORE DUP3 DUP6 KECCAK256 SLOAD PUSH32 0x26B4A10D0F0B04925C23BD4480EE147C916E5E87A7D68206A533DAD160AC81E2 DUP6 MSTORE DUP4 DUP7 KECCAK256 SLOAD PUSH1 0x11 SWAP1 SWAP6 MSTORE SWAP3 SWAP1 SWAP5 KECCAK256 PUSH1 0xFF SWAP1 SWAP2 AND SWAP4 PUSH2 0x295 SWAP4 SWAP1 SWAP3 SWAP1 SWAP2 PUSH2 0xFFE SWAP1 PUSH2 0x4292 JUMP JUMPDEST SWAP3 PUSH1 0x40 MLOAD SWAP7 DUP8 DUP1 SWAP8 PUSH2 0x418D JUMP JUMPDEST PUSH1 0x20 DUP7 ADD MSTORE PUSH1 0x40 DUP6 ADD MSTORE PUSH1 0x60 DUP5 ADD MSTORE PUSH1 0xA0 PUSH1 0x80 DUP5 ADD MSTORE PUSH1 0xA0 DUP4 ADD SWAP1 PUSH2 0x4336 JUMP JUMPDEST CALLVALUE PUSH2 0x234 JUMPI PUSH1 0x0 CALLDATASIZE PUSH1 0x3 NOT ADD SLT PUSH2 0x234 JUMPI PUSH1 0x0 SLOAD PUSH1 0x40 MLOAD PUSH1 0x1 PUSH1 0x1 PUSH1 0xA0 SHL SUB SWAP1 SWAP2 AND DUP2 MSTORE PUSH1 0x20 SWAP1 RETURN JUMPDEST CALLVALUE PUSH2 0x234 JUMPI PUSH1 0x20 CALLDATASIZE PUSH1 0x3 NOT ADD SLT PUSH2 0x234 JUMPI PUSH2 0x106D PUSH2 0x490A JUMP JUMPDEST POP PUSH1 0x4 CALLDATALOAD PUSH1 0x0 MSTORE PUSH1 0x10 PUSH1 0x20 MSTORE PUSH2 0x295 PUSH1 0x40 PUSH1 0x0 KECCAK256 PUSH1 0x40 MLOAD SWAP1 PUSH2 0x108E DUP3 PUSH2 0x421F JUMP JUMPDEST DUP1 SLOAD DUP3 MSTORE PUSH2 0x10A6 PUSH1 0xFF PUSH1 0x1 DUP4 ADD SLOAD AND PUSH1 0x20 DUP5 ADD PUSH2 0x493C JUMP JUMPDEST PUSH2 0x10B2 PUSH1 0x2 DUP3 ADD PUSH2 0x4292 JUMP JUMPDEST PUSH1 0x40 DUP4 ADD MSTORE PUSH1 0x3 DUP2 ADD SLOAD PUSH1 0x60 DUP4 ADD MSTORE PUSH1 0x4 DUP2 ADD SLOAD PUSH1 0x80 DUP4 ADD MSTORE PUSH1 0x5 PUSH1 0x1 DUP1 PUSH1 0xA0 SHL SUB SWAP2 ADD SLOAD AND PUSH1 0xA0 DUP3 ADD MSTORE PUSH1 0x40 MLOAD SWAP2 DUP3 SWAP2 DUP3 PUSH2 0x460A JUMP JUMPDEST CALLVALUE PUSH2 0x234 JUMPI PUSH1 0x20 CALLDATASIZE PUSH1 0x3 NOT ADD SLT PUSH2 0x234 JUMPI PUSH1 0x4 CALLDATALOAD PUSH1 0x1 PUSH1 0x1 PUSH1 0x40 SHL SUB DUP2 GT PUSH2 0x234 JUMPI PUSH2 0x1119 SWAP1 CALLDATASIZE SWAP1 PUSH1 0x4 ADD PUSH2 0x419A JUMP JUMPDEST PUSH1 0x0 SLOAD PUSH1 0x40 MLOAD PUSH4 0x5C975ABB PUSH1 0xE0 SHL DUP2 MSTORE SWAP1 PUSH1 0x1 PUSH1 0x1 PUSH1 0xA0 SHL SUB AND PUSH1 0x20 DUP3 PUSH1 0x4 DUP2 DUP5 GAS STATICCALL SWAP1 DUP2 ISZERO PUSH2 0x9A3 JUMPI PUSH2 0x115A PUSH1 0x20 SWAP3 PUSH1 0x24 SWAP5 PUSH1 0x0 SWAP2 PUSH2 0x1420 JUMPI POP ISZERO PUSH2 0x46EC JUMP JUMPDEST PUSH1 0x40 MLOAD PUSH4 0xDBAC26E9 PUSH1 0xE0 SHL DUP2 MSTORE CALLER PUSH1 0x4 DUP3 ADD MSTORE SWAP3 DUP4 SWAP2 DUP3 SWAP1 GAS STATICCALL DUP1 ISZERO PUSH2 0x9A3 JUMPI PUSH2 0x118C SWAP2 PUSH1 0x0 SWAP2 PUSH2 0x1401 JUMPI POP ISZERO PUSH2 0x4728 JUMP JUMPDEST CALLER PUSH1 0x0 MSTORE PUSH1 0x1 PUSH1 0x20 MSTORE PUSH1 0xFF PUSH1 0x40 PUSH1 0x0 KECCAK256 SLOAD AND PUSH1 0x5 DUP2 LT ISZERO PUSH2 0x95E JUMPI PUSH1 0x2 PUSH2 0x11B3 SWAP2 EQ PUSH2 0x481A JUMP JUMPDEST DUP1 ISZERO PUSH2 0x13CE JUMPI PUSH1 0x0 JUMPDEST DUP2 DUP2 LT PUSH2 0x12FC JUMPI POP PUSH2 0x11CF PUSH1 0x8 SLOAD PUSH2 0x4668 JUMP JUMPDEST PUSH1 0x8 DUP2 DUP2 SSTORE PUSH1 0x0 DUP3 DUP2 MSTORE PUSH1 0x5 PUSH1 0x20 MSTORE PUSH1 0x40 DUP1 DUP3 KECCAK256 SWAP4 DUP5 SSTORE PUSH1 0x1 SWAP1 SWAP4 ADD DUP1 SLOAD PUSH1 0x1 PUSH1 0x1 PUSH1 0xA0 SHL SUB NOT AND CALLER OR SWAP1 SSTORE SWAP1 SLOAD DUP2 MSTORE KECCAK256 PUSH1 0x3 ADD SWAP2 PUSH1 0x1 PUSH1 0x1 PUSH1 0x40 SHL SUB DUP3 GT PUSH2 0x834 JUMPI PUSH1 0x1 PUSH1 0x40 SHL DUP3 GT PUSH2 0x834 JUMPI DUP3 SLOAD DUP3 DUP5 SSTORE DUP1 DUP4 LT PUSH2 0x12DE JUMPI JUMPDEST POP SWAP2 PUSH1 0x0 MSTORE PUSH1 0x20 PUSH1 0x0 KECCAK256 SWAP2 PUSH1 0x0 JUMPDEST DUP3 DUP2 LT PUSH2 0x12CA JUMPI PUSH1 0x8 SLOAD PUSH1 0x0 MSTORE PUSH1 0x5 PUSH1 0x20 MSTORE TIMESTAMP PUSH1 0x4 PUSH1 0x40 PUSH1 0x0 KECCAK256 ADD SSTORE PUSH1 0x8 SLOAD PUSH1 0x0 MSTORE PUSH1 0x5 PUSH1 0x20 MSTORE PUSH1 0x5 PUSH1 0x40 PUSH1 0x0 KECCAK256 ADD PUSH1 0xFF NOT DUP2 SLOAD AND SWAP1 SSTORE CALLER PUSH1 0x0 MSTORE PUSH1 0x6 PUSH1 0x20 MSTORE PUSH2 0x1289 PUSH1 0x40 PUSH1 0x0 KECCAK256 PUSH1 0x8 SLOAD SWAP1 PUSH2 0x4767 JUMP JUMPDEST PUSH1 0x8 SLOAD PUSH1 0x40 DUP1 MLOAD DUP3 DUP2 MSTORE CALLER PUSH1 0x20 DUP1 DUP4 ADD SWAP2 SWAP1 SWAP2 MSTORE SWAP3 SWAP2 PUSH32 0x3B090A5F073126BA1311454936E50B13B4EB5A69549338B4886FF9A0C1BFAED SWAP2 LOG1 PUSH1 0x40 MLOAD SWAP1 DUP2 MSTORE RETURN JUMPDEST PUSH1 0x1 SWAP1 PUSH1 0x20 DUP4 CALLDATALOAD SWAP4 ADD SWAP3 DUP2 DUP7 ADD SSTORE ADD PUSH2 0x1238 JUMP JUMPDEST PUSH2 0x12F6 SWAP1 DUP5 PUSH1 0x0 MSTORE DUP4 PUSH1 0x20 PUSH1 0x0 KECCAK256 SWAP2 DUP3 ADD SWAP2 ADD PUSH2 0x4803 JUMP JUMPDEST DUP4 PUSH2 0x122A JUMP JUMPDEST PUSH2 0x1307 DUP2 DUP4 DUP6 PUSH2 0x479C JUMP JUMPDEST CALLDATALOAD PUSH1 0x0 MSTORE PUSH1 0x3 PUSH1 0x20 MSTORE CALLER PUSH1 0x1 DUP1 PUSH1 0xA0 SHL SUB PUSH1 0x9 PUSH1 0x40 PUSH1 0x0 KECCAK256 ADD SLOAD AND SUB PUSH2 0x1396 JUMPI PUSH2 0x1332 DUP2 DUP4 DUP6 PUSH2 0x479C JUMP JUMPDEST CALLDATALOAD PUSH1 0x0 MSTORE PUSH1 0x3 PUSH1 0x20 MSTORE PUSH1 0xFF PUSH1 0x1 PUSH1 0x40 PUSH1 0x0 KECCAK256 ADD SLOAD PUSH1 0x8 SHR AND PUSH1 0x6 DUP2 LT ISZERO PUSH2 0x95E JUMPI PUSH1 0x2 SUB PUSH2 0x1362 JUMPI PUSH1 0x1 ADD PUSH2 0x11BC JUMP JUMPDEST PUSH1 0x40 MLOAD PUSH3 0x461BCD PUSH1 0xE5 SHL DUP2 MSTORE PUSH1 0x20 PUSH1 0x4 DUP3 ADD MSTORE PUSH1 0xC PUSH1 0x24 DUP3 ADD MSTORE PUSH12 0x139BDD081D995C9A599A5959 PUSH1 0xA2 SHL PUSH1 0x44 DUP3 ADD MSTORE PUSH1 0x64 SWAP1 REVERT JUMPDEST PUSH1 0x40 MLOAD PUSH3 0x461BCD PUSH1 0xE5 SHL DUP2 MSTORE PUSH1 0x20 PUSH1 0x4 DUP3 ADD MSTORE PUSH1 0x10 PUSH1 0x24 DUP3 ADD MSTORE PUSH16 0x139BDD081E5BDD5C881C1C9BD91D58DD PUSH1 0x82 SHL PUSH1 0x44 DUP3 ADD MSTORE PUSH1 0x64 SWAP1 REVERT JUMPDEST PUSH1 0x40 MLOAD PUSH3 0x461BCD PUSH1 0xE5 SHL DUP2 MSTORE PUSH1 0x20 PUSH1 0x4 DUP3 ADD MSTORE PUSH1 0xB PUSH1 0x24 DUP3 ADD MSTORE PUSH11 0x8ADAE0E8F240C4C2E8C6D PUSH1 0xAB SHL PUSH1 0x44 DUP3 ADD MSTORE PUSH1 0x64 SWAP1 REVERT JUMPDEST PUSH2 0x141A SWAP2 POP PUSH1 0x20 RETURNDATASIZE PUSH1 0x20 GT PUSH2 0x99C JUMPI PUSH2 0x98E DUP2 DUP4 PUSH2 0x4271 JUMP JUMPDEST DUP5 PUSH2 0x578 JUMP JUMPDEST PUSH2 0x1437 SWAP2 POP DUP5 RETURNDATASIZE DUP7 GT PUSH2 0x99C JUMPI PUSH2 0x98E DUP2 DUP4 PUSH2 0x4271 JUMP JUMPDEST DUP8 PUSH2 0x545 JUMP JUMPDEST CALLVALUE PUSH2 0x234 JUMPI PUSH1 0x20 CALLDATASIZE PUSH1 0x3 NOT ADD SLT PUSH2 0x234 JUMPI PUSH1 0x0 PUSH2 0x180 PUSH1 0x40 MLOAD PUSH2 0x145F DUP2 PUSH2 0x423A JUMP JUMPDEST DUP3 DUP2 MSTORE DUP3 PUSH1 0x20 DUP3 ADD MSTORE DUP3 PUSH1 0x40 DUP3 ADD MSTORE DUP3 PUSH1 0x60 DUP3 ADD MSTORE DUP3 PUSH1 0x80 DUP3 ADD MSTORE PUSH1 0x40 MLOAD PUSH2 0x1486 DUP2 PUSH2 0x4204 JUMP JUMPDEST PUSH1 0x60 DUP2 MSTORE DUP4 PUSH1 0x20 DUP3 ADD MSTORE DUP4 PUSH1 0x40 DUP3 ADD MSTORE DUP4 PUSH1 0x60 DUP3 ADD MSTORE PUSH1 0x60 PUSH1 0x80 DUP3 ADD MSTORE DUP4 PUSH1 0xA0 DUP3 ADD MSTORE DUP4 PUSH1 0xC0 DUP3 ADD MSTORE PUSH1 0xA0 DUP3 ADD MSTORE PUSH1 0x40 MLOAD PUSH2 0x14C0 DUP2 PUSH2 0x4256 JUMP JUMPDEST DUP4 DUP2 MSTORE DUP4 PUSH1 0x20 DUP3 ADD MSTORE DUP4 PUSH1 0x40 DUP3 ADD MSTORE DUP4 PUSH1 0x60 DUP3 ADD MSTORE PUSH1 0xC0 DUP3 ADD MSTORE PUSH1 0x40 MLOAD PUSH2 0x14E6 DUP2 PUSH2 0x421F JUMP JUMPDEST DUP4 DUP2 MSTORE DUP4 PUSH1 0x20 DUP3 ADD MSTORE DUP4 PUSH1 0x40 DUP3 ADD MSTORE DUP4 PUSH1 0x60 DUP3 ADD MSTORE DUP4 PUSH1 0x80 DUP3 ADD MSTORE DUP4 PUSH1 0xA0 DUP3 ADD MSTORE PUSH1 0xE0 DUP3 ADD MSTORE PUSH1 0x60 PUSH2 0x100 DUP3 ADD MSTORE PUSH1 0x60 PUSH2 0x120 DUP3 ADD MSTORE PUSH1 0x60 PUSH2 0x140 DUP3 ADD MSTORE DUP3 PUSH2 0x160 DUP3 ADD MSTORE ADD MSTORE PUSH1 0x4 CALLDATALOAD PUSH1 0x0 MSTORE PUSH1 0x3 PUSH1 0x20 MSTORE PUSH1 0x40 PUSH1 0x0 KECCAK256 PUSH1 0x40 MLOAD PUSH2 0x1549 DUP2 PUSH2 0x423A JUMP JUMPDEST DUP2 SLOAD DUP2 MSTORE PUSH1 0x1 DUP3 ADD SLOAD PUSH1 0x20 DUP3 ADD SWAP3 SWAP1 PUSH1 0xFF DUP2 AND PUSH1 0x3 DUP2 LT ISZERO PUSH2 0x95E JUMPI DUP5 MSTORE PUSH1 0xFF DUP2 PUSH1 0x8 SHR AND SWAP1 PUSH1 0x40 DUP5 ADD SWAP2 PUSH1 0x6 DUP2 LT ISZERO PUSH2 0x95E JUMPI DUP3 MSTORE PUSH1 0x60 DUP5 ADD SWAP1 DUP1 PUSH1 0x10 SHR PUSH1 0xFF AND PUSH2 0x1595 SWAP1 DUP4 PUSH2 0x493C JUMP JUMPDEST PUSH1 0x80 DUP6 ADD SWAP1 PUSH1 0x18 SHR PUSH1 0xFF AND ISZERO ISZERO DUP2 MSTORE PUSH1 0x2 DUP5 ADD PUSH2 0x15B1 SWAP1 PUSH2 0x43A4 JUMP JUMPDEST PUSH1 0xA0 DUP7 ADD SWAP1 DUP2 MSTORE PUSH2 0x15C4 PUSH1 0x9 DUP7 ADD PUSH2 0x440B JUMP JUMPDEST PUSH1 0xC0 DUP8 ADD SWAP1 DUP2 MSTORE SWAP1 PUSH2 0x15D8 PUSH1 0xD DUP8 ADD PUSH2 0x4446 JUMP JUMPDEST PUSH1 0xE0 DUP9 ADD SWAP1 DUP2 MSTORE PUSH2 0x15EB PUSH1 0x13 DUP9 ADD PUSH2 0x4292 JUMP JUMPDEST PUSH2 0x100 DUP10 ADD SWAP1 DUP2 MSTORE SWAP2 PUSH2 0x1600 PUSH1 0x14 DUP10 ADD PUSH2 0x4292 JUMP JUMPDEST PUSH2 0x120 DUP11 ADD SWAP1 DUP2 MSTORE SWAP5 PUSH2 0x1615 PUSH1 0x15 DUP11 ADD PUSH2 0x4292 JUMP JUMPDEST SWAP7 PUSH2 0x140 DUP12 ADD SWAP8 DUP9 MSTORE PUSH1 0x16 DUP11 ADD SLOAD SWAP10 PUSH2 0x160 DUP13 ADD SWAP11 DUP12 MSTORE PUSH1 0x17 ADD SLOAD SWAP9 PUSH2 0x180 DUP13 ADD SWAP10 DUP11 MSTORE PUSH1 0x40 MLOAD SWAP13 DUP14 DUP1 SWAP14 PUSH1 0x20 DUP3 MSTORE MLOAD SWAP1 PUSH1 0x20 ADD MSTORE MLOAD PUSH1 0x40 DUP14 ADD PUSH2 0x1658 SWAP2 PUSH2 0x4498 JUMP JUMPDEST MLOAD PUSH1 0x60 DUP13 ADD PUSH2 0x1666 SWAP2 PUSH2 0x44A5 JUMP JUMPDEST MLOAD PUSH1 0x80 DUP12 ADD PUSH2 0x1674 SWAP2 PUSH2 0x44B2 JUMP JUMPDEST MLOAD ISZERO ISZERO PUSH1 0xA0 DUP11 ADD MSTORE MLOAD PUSH1 0xC0 DUP10 ADD PUSH2 0x2A0 SWAP1 MSTORE PUSH2 0x2C0 DUP10 ADD PUSH2 0x1694 SWAP2 PUSH2 0x44BF JUMP JUMPDEST SWAP3 MLOAD DUP1 MLOAD PUSH1 0x1 PUSH1 0x1 PUSH1 0xA0 SHL SUB AND PUSH1 0xE0 DUP11 ADD MSTORE PUSH1 0x20 DUP2 ADD MLOAD PUSH2 0x100 DUP11 ADD MSTORE PUSH1 0x40 DUP2 ADD MLOAD PUSH2 0x120 DUP11 ADD MSTORE PUSH1 0x60 ADD MLOAD PUSH2 0x140 DUP10 ADD MSTORE MLOAD PUSH2 0x160 DUP9 ADD PUSH2 0x16D5 SWAP2 PUSH2 0x4524 JUMP JUMPDEST MLOAD DUP7 DUP3 SUB PUSH1 0x1F NOT ADD PUSH2 0x220 DUP9 ADD MSTORE PUSH2 0x16ED SWAP2 SWAP1 PUSH2 0x4336 JUMP JUMPDEST SWAP1 MLOAD DUP6 DUP3 SUB PUSH1 0x1F NOT ADD PUSH2 0x240 DUP8 ADD MSTORE PUSH2 0x1706 SWAP2 SWAP1 PUSH2 0x4336 JUMP JUMPDEST SWAP1 MLOAD DUP5 DUP3 SUB PUSH1 0x1F NOT ADD PUSH2 0x260 DUP7 ADD MSTORE PUSH2 0x171F SWAP2 SWAP1 PUSH2 0x4336 JUMP JUMPDEST SWAP2 MLOAD PUSH2 0x280 DUP5 ADD MSTORE MLOAD PUSH2 0x2A0 DUP4 ADD MSTORE SUB SWAP1 RETURN JUMPDEST CALLVALUE PUSH2 0x234 JUMPI PUSH1 0x20 CALLDATASIZE PUSH1 0x3 NOT ADD SLT PUSH2 0x234 JUMPI PUSH1 0x4 CALLDATALOAD PUSH1 0x0 MSTORE PUSH1 0x5 PUSH1 0x20 MSTORE PUSH1 0xA0 PUSH1 0x40 PUSH1 0x0 KECCAK256 DUP1 SLOAD SWAP1 PUSH1 0x1 DUP1 DUP5 SHL SUB PUSH1 0x1 DUP3 ADD SLOAD AND SWAP1 PUSH1 0x1 DUP1 DUP6 SHL SUB PUSH1 0x2 DUP3 ADD SLOAD AND PUSH1 0xFF PUSH1 0x5 PUSH1 0x4 DUP5 ADD SLOAD SWAP4 ADD SLOAD AND SWAP3 PUSH1 0x40 MLOAD SWAP5 DUP6 MSTORE PUSH1 0x20 DUP6 ADD MSTORE PUSH1 0x40 DUP5 ADD MSTORE PUSH1 0x60 DUP4 ADD MSTORE ISZERO ISZERO PUSH1 0x80 DUP3 ADD MSTORE RETURN JUMPDEST CALLVALUE PUSH2 0x234 JUMPI PUSH1 0x20 CALLDATASIZE PUSH1 0x3 NOT ADD SLT PUSH2 0x234 JUMPI PUSH1 0x0 PUSH1 0xA0 PUSH1 0x40 MLOAD PUSH2 0x17BE DUP2 PUSH2 0x421F JUMP JUMPDEST DUP3 DUP2 MSTORE DUP3 PUSH1 0x20 DUP3 ADD MSTORE DUP3 PUSH1 0x40 DUP3 ADD MSTORE PUSH1 0x60 DUP1 DUP3 ADD MSTORE DUP3 PUSH1 0x80 DUP3 ADD MSTORE ADD MSTORE PUSH1 0x4 CALLDATALOAD PUSH1 0x0 MSTORE PUSH1 0x5 PUSH1 0x20 MSTORE PUSH1 0x40 PUSH1 0x0 KECCAK256 PUSH1 0x40 MLOAD SWAP1 PUSH2 0x17F8 DUP3 PUSH2 0x421F JUMP JUMPDEST DUP1 SLOAD DUP3 MSTORE PUSH1 0x1 DUP1 PUSH1 0xA0 SHL SUB PUSH1 0x1 DUP3 ADD SLOAD AND SWAP1 PUSH1 0x20 DUP4 ADD SWAP2 DUP3 MSTORE PUSH1 0x1 DUP1 PUSH1 0xA0 SHL SUB PUSH1 0x2 DUP3 ADD SLOAD AND PUSH1 0x40 DUP5 ADD SWAP1 DUP2 MSTORE PUSH1 0x3 DUP3 ADD PUSH1 0x40 MLOAD DUP1 DUP3 PUSH1 0x20 DUP3 SWAP5 SLOAD SWAP4 DUP5 DUP2 MSTORE ADD SWAP1 PUSH1 0x0 MSTORE PUSH1 0x20 PUSH1 0x0 KECCAK256 SWAP3 PUSH1 0x0 JUMPDEST DUP2 DUP2 LT PUSH2 0x1901 JUMPI POP POP PUSH2 0x185A SWAP3 POP SUB DUP3 PUSH2 0x4271 JUMP JUMPDEST PUSH1 0x60 DUP6 ADD SWAP1 DUP2 MSTORE PUSH1 0xFF PUSH1 0x5 PUSH1 0x4 DUP6 ADD SLOAD SWAP5 PUSH1 0x80 DUP9 ADD SWAP6 DUP7 MSTORE ADD SLOAD AND SWAP2 PUSH1 0xA0 DUP7 ADD SWAP3 ISZERO ISZERO DUP4 MSTORE PUSH1 0x40 MLOAD SWAP5 PUSH1 0x20 DUP7 MSTORE PUSH1 0xE0 DUP7 ADD SWAP7 MLOAD PUSH1 0x20 DUP8 ADD MSTORE PUSH1 0x1 DUP1 PUSH1 0xA0 SHL SUB SWAP1 MLOAD AND PUSH1 0x40 DUP7 ADD MSTORE PUSH1 0x1 DUP1 PUSH1 0xA0 SHL SUB SWAP1 MLOAD AND PUSH1 0x60 DUP6 ADD MSTORE MLOAD SWAP2 PUSH1 0xC0 PUSH1 0x80 DUP6 ADD MSTORE DUP3 MLOAD DUP1 SWAP6 MSTORE PUSH1 0x20 PUSH2 0x100 DUP6 ADD SWAP4 ADD PUSH1 0x0 SWAP6 JUMPDEST DUP1 DUP8 LT PUSH2 0x18E9 JUMPI POP POP DUP4 SWAP5 POP MLOAD PUSH1 0xA0 DUP5 ADD MSTORE MLOAD ISZERO ISZERO PUSH1 0xC0 DUP4 ADD MSTORE SUB SWAP1 RETURN JUMPDEST SWAP1 SWAP4 PUSH1 0x20 DUP1 PUSH1 0x1 SWAP3 DUP8 MLOAD DUP2 MSTORE ADD SWAP6 ADD SWAP7 ADD SWAP6 SWAP1 PUSH2 0x18CB JUMP JUMPDEST DUP5 SLOAD DUP4 MSTORE PUSH1 0x1 SWAP5 DUP6 ADD SWAP5 DUP7 SWAP5 POP PUSH1 0x20 SWAP1 SWAP4 ADD SWAP3 ADD PUSH2 0x1845 JUMP JUMPDEST CALLVALUE PUSH2 0x234 JUMPI PUSH1 0x20 CALLDATASIZE PUSH1 0x3 NOT ADD SLT PUSH2 0x234 JUMPI PUSH1 0x4 CALLDATALOAD PUSH1 0x0 MSTORE PUSH1 0xA PUSH1 0x20 MSTORE PUSH1 0xE0 PUSH1 0x40 PUSH1 0x0 KECCAK256 DUP1 SLOAD SWAP1 PUSH1 0x1 DUP1 PUSH1 0xA0 SHL SUB PUSH1 0x1 DUP3 ADD SLOAD AND SWAP1 PUSH1 0x1 DUP1 PUSH1 0xA0 SHL SUB PUSH1 0x2 DUP3 ADD SLOAD AND PUSH1 0x3 DUP3 ADD SLOAD PUSH1 0x4 DUP4 ADD SLOAD SWAP2 PUSH1 0x6 PUSH1 0x5 DUP6 ADD SLOAD SWAP5 ADD SLOAD SWAP5 PUSH1 0x40 MLOAD SWAP7 DUP8 MSTORE PUSH1 0x20 DUP8 ADD MSTORE PUSH1 0x40 DUP7 ADD MSTORE PUSH1 0x60 DUP6 ADD MSTORE PUSH1 0x80 DUP5 ADD MSTORE PUSH1 0xA0 DUP4 ADD MSTORE PUSH1 0xC0 DUP3 ADD MSTORE RETURN JUMPDEST CALLVALUE PUSH2 0x234 JUMPI PUSH1 0x20 CALLDATASIZE PUSH1 0x3 NOT ADD SLT PUSH2 0x234 JUMPI PUSH1 0x1 PUSH1 0x1 PUSH1 0xA0 SHL SUB PUSH2 0x19B8 PUSH2 0x4101 JUMP JUMPDEST AND PUSH1 0x0 MSTORE PUSH1 0x1 PUSH1 0x20 MSTORE PUSH1 0x20 PUSH1 0xFF PUSH1 0x40 PUSH1 0x0 KECCAK256 SLOAD AND PUSH2 0x19D9 PUSH1 0x40 MLOAD DUP1 SWAP3 PUSH2 0x418D JUMP JUMPDEST RETURN JUMPDEST CALLVALUE PUSH2 0x234 JUMPI PUSH1 0x20 CALLDATASIZE PUSH1 0x3 NOT ADD SLT PUSH2 0x234 JUMPI PUSH1 0x4 CALLDATALOAD PUSH1 0x0 MSTORE PUSH1 0xF PUSH1 0x20 MSTORE PUSH1 0x40 PUSH1 0x0 KECCAK256 DUP1 SLOAD PUSH2 0x295 PUSH1 0xFF PUSH1 0x1 DUP5 ADD SLOAD AND SWAP3 PUSH2 0x1A16 PUSH1 0x2 DUP3 ADD PUSH2 0x4292 JUMP JUMPDEST SWAP1 PUSH1 0x3 DUP2 ADD SLOAD PUSH1 0x4 DUP3 ADD SLOAD SWAP2 PUSH1 0x5 PUSH1 0x1 DUP1 PUSH1 0xA0 SHL SUB SWAP2 ADD SLOAD AND SWAP3 PUSH1 0x40 MLOAD SWAP7 DUP8 SWAP7 DUP8 PUSH2 0x4569 JUMP JUMPDEST CALLVALUE PUSH2 0x234 JUMPI PUSH2 0x1A4A CALLDATASIZE PUSH2 0x45AD JUMP JUMPDEST PUSH1 0x0 SLOAD PUSH1 0x40 MLOAD PUSH4 0x5C975ABB PUSH1 0xE0 SHL DUP2 MSTORE SWAP3 SWAP6 SWAP2 SWAP5 SWAP2 SWAP3 SWAP1 PUSH1 0x1 PUSH1 0x1 PUSH1 0xA0 SHL SUB AND PUSH1 0x20 DUP3 PUSH1 0x4 DUP2 DUP5 GAS STATICCALL SWAP1 DUP2 ISZERO PUSH2 0x9A3 JUMPI PUSH2 0x1A91 PUSH1 0x20 SWAP3 PUSH1 0x24 SWAP5 PUSH1 0x0 SWAP2 PUSH2 0x20DB JUMPI POP ISZERO PUSH2 0x46EC JUMP JUMPDEST PUSH1 0x40 MLOAD PUSH4 0xDBAC26E9 PUSH1 0xE0 SHL DUP2 MSTORE CALLER PUSH1 0x4 DUP3 ADD MSTORE SWAP3 DUP4 SWAP2 DUP3 SWAP1 GAS STATICCALL DUP1 ISZERO PUSH2 0x9A3 JUMPI PUSH2 0x1AC3 SWAP2 PUSH1 0x0 SWAP2 PUSH2 0x20BC JUMPI POP ISZERO PUSH2 0x4728 JUMP JUMPDEST PUSH1 0x0 DUP8 DUP2 MSTORE PUSH1 0x3 PUSH1 0x20 MSTORE PUSH1 0x40 SWAP1 KECCAK256 PUSH1 0xD ADD SLOAD PUSH2 0x1AE9 SWAP1 PUSH1 0x1 PUSH1 0x1 PUSH1 0xA0 SHL SUB AND CALLER EQ PUSH2 0x48CE JUMP JUMPDEST DUP7 PUSH1 0x0 MSTORE PUSH1 0x3 PUSH1 0x20 MSTORE PUSH1 0xFF PUSH1 0x1 PUSH1 0x40 PUSH1 0x0 KECCAK256 ADD SLOAD AND PUSH1 0x3 DUP2 LT ISZERO PUSH2 0x95E JUMPI PUSH1 0x2 SUB PUSH2 0x2080 JUMPI PUSH2 0x1B1B PUSH1 0x64 DUP8 GT ISZERO PUSH2 0x4859 JUMP JUMPDEST PUSH2 0x1B24 DUP7 PUSH2 0x4948 JUMP JUMPDEST PUSH1 0x0 DUP9 DUP2 MSTORE PUSH1 0x10 PUSH1 0x20 MSTORE PUSH1 0x40 SWAP1 KECCAK256 SWAP7 DUP8 SSTORE SWAP6 PUSH2 0x1B44 SWAP1 DUP8 SWAP1 PUSH1 0x1 ADD PUSH2 0x4895 JUMP JUMPDEST DUP7 PUSH1 0x0 MSTORE PUSH1 0x10 PUSH1 0x20 MSTORE PUSH1 0x2 PUSH1 0x40 PUSH1 0x0 KECCAK256 ADD SWAP2 PUSH1 0x1 PUSH1 0x1 PUSH1 0x40 SHL SUB DUP3 GT PUSH2 0x834 JUMPI DUP2 SWAP1 PUSH2 0x1B70 DUP5 SLOAD PUSH2 0x41CA JUMP JUMPDEST PUSH1 0x1F DUP2 GT PUSH2 0x204E JUMPI JUMPDEST POP PUSH1 0x0 SWAP1 PUSH1 0x1F DUP4 GT PUSH1 0x1 EQ PUSH2 0x1FE8 JUMPI PUSH1 0x0 SWAP3 PUSH2 0x1FDD JUMPI JUMPDEST POP POP DUP2 PUSH1 0x1 SHL SWAP2 PUSH1 0x0 NOT SWAP1 PUSH1 0x3 SHL SHR NOT AND OR SWAP1 SSTORE JUMPDEST PUSH1 0x0 DUP6 DUP2 MSTORE PUSH1 0x10 PUSH1 0x20 DUP2 DUP2 MSTORE PUSH1 0x40 DUP1 DUP5 KECCAK256 PUSH1 0x3 DUP2 DUP2 ADD DUP8 SWAP1 SSTORE TIMESTAMP PUSH1 0x4 DUP4 ADD DUP2 SWAP1 SSTORE PUSH1 0x5 SWAP1 SWAP3 ADD DUP1 SLOAD PUSH1 0x1 PUSH1 0x1 PUSH1 0xA0 SHL SUB NOT AND CALLER OR SWAP1 SSTORE SWAP1 SWAP3 MSTORE SWAP1 SWAP3 KECCAK256 SWAP1 DUP2 ADD SWAP2 SWAP1 SWAP2 SSTORE PUSH1 0x15 ADD SWAP1 PUSH1 0x1 PUSH1 0x1 PUSH1 0x40 SHL SUB DUP4 GT PUSH2 0x834 JUMPI PUSH2 0x1C04 DUP3 SLOAD PUSH2 0x41CA JUMP JUMPDEST PUSH1 0x1F DUP2 GT PUSH2 0x1FAB JUMPI JUMPDEST POP PUSH1 0x0 SWAP2 DUP4 PUSH1 0x1F DUP2 GT PUSH1 0x1 EQ PUSH2 0x1F43 JUMPI PUSH1 0x5 SWAP4 PUSH1 0x0 SWAP2 PUSH2 0x1F38 JUMPI JUMPDEST POP DUP5 PUSH1 0x1 SHL SWAP1 PUSH1 0x0 NOT DUP7 PUSH1 0x3 SHL SHR NOT AND OR SWAP1 SSTORE JUMPDEST DUP6 PUSH1 0x0 MSTORE PUSH1 0x3 PUSH1 0x20 MSTORE PUSH2 0x1C56 DUP6 PUSH1 0x1 PUSH1 0x40 PUSH1 0x0 KECCAK256 ADD PUSH2 0x48AD JUMP JUMPDEST LT DUP1 ISZERO PUSH2 0x1F25 JUMPI JUMPDEST ISZERO PUSH2 0x1F02 JUMPI PUSH1 0x0 DUP5 DUP2 MSTORE PUSH1 0x3 PUSH1 0x20 SWAP1 DUP2 MSTORE PUSH1 0x40 SWAP2 DUP3 SWAP1 KECCAK256 PUSH1 0x1 ADD DUP1 SLOAD PUSH4 0xFF00FF00 NOT AND PUSH2 0x300 OR SWAP1 SSTORE DUP2 MLOAD DUP2 DUP2 MSTORE PUSH1 0xE SWAP2 DUP2 ADD SWAP2 SWAP1 SWAP2 MSTORE PUSH14 0x145D585B1A5D1E4819985A5B1959 PUSH1 0x92 SHL SWAP2 DUP2 ADD SWAP2 SWAP1 SWAP2 MSTORE DUP5 SWAP1 PUSH32 0x4429DE7967BFE786EC4AC3F822CF4B26A0ED6A63A7DBBBA03684BBF771E93CE3 SWAP1 PUSH1 0x60 SWAP1 LOG2 JUMPDEST DUP1 PUSH1 0x40 MLOAD SWAP3 PUSH1 0x40 DUP5 MSTORE DUP2 PUSH1 0x40 DUP6 ADD MSTORE PUSH1 0x60 DUP5 ADD CALLDATACOPY PUSH1 0x0 DUP3 DUP3 ADD PUSH1 0x60 ADD MSTORE PUSH1 0x1F ADD PUSH1 0x1F NOT AND DUP2 ADD DUP2 PUSH1 0x60 DUP2 PUSH32 0x540105FF02EED8665666E5B20A0955668C4452DD216F3F7846996F9057B8E093 SWAP4 PUSH1 0x2 PUSH1 0x20 DUP10 SWAP8 ADD MSTORE SUB ADD SWAP1 LOG2 DUP2 PUSH1 0x0 MSTORE PUSH1 0x3 PUSH1 0x20 MSTORE DUP2 PUSH1 0x0 DUP1 MLOAD PUSH1 0x20 PUSH2 0x4A90 DUP4 CODECOPY DUP2 MLOAD SWAP2 MSTORE PUSH1 0x20 PUSH1 0xFF PUSH1 0x1 PUSH1 0x40 PUSH1 0x0 KECCAK256 ADD SLOAD PUSH1 0x8 SHR AND PUSH2 0x1D66 PUSH1 0x40 MLOAD DUP1 SWAP3 PUSH2 0x44A5 JUMP JUMPDEST LOG2 PUSH1 0x0 DUP3 DUP2 MSTORE PUSH1 0x3 PUSH1 0x20 DUP2 SWAP1 MSTORE PUSH1 0x40 DUP3 KECCAK256 SWAP1 DUP2 ADD SLOAD PUSH1 0x9 SWAP1 SWAP2 ADD SLOAD PUSH1 0x4 DUP5 LT ISZERO SWAP5 PUSH1 0x1 PUSH1 0x1 PUSH1 0xA0 SHL SUB SWAP3 DUP4 AND SWAP4 SWAP1 SWAP3 SWAP1 SWAP2 AND DUP6 PUSH2 0x1EEE JUMPI DUP5 ISZERO SWAP4 DUP5 ISZERO PUSH2 0x1EAC JUMPI SWAP1 PUSH2 0x1DB3 PUSH2 0x1DB8 SWAP3 PUSH2 0x4A0D JUMP JUMPDEST PUSH2 0x4A4E JUMP JUMPDEST POP PUSH1 0x0 SWAP1 DUP2 MSTORE PUSH1 0x3 PUSH1 0x20 MSTORE PUSH1 0x40 SWAP1 KECCAK256 PUSH1 0xD ADD SLOAD PUSH1 0x1 PUSH1 0x1 PUSH1 0xA0 SHL SUB AND SWAP3 PUSH2 0x95E JUMPI ISZERO PUSH2 0x1E4C JUMPI POP PUSH2 0x1DE9 PUSH1 0x3 PUSH2 0x4146 JUMP JUMPDEST PUSH1 0x1 DUP1 PUSH1 0xA0 SHL SUB DUP3 AND PUSH1 0x0 MSTORE PUSH1 0x20 MSTORE PUSH1 0x40 PUSH1 0x0 KECCAK256 SLOAD SWAP1 PUSH1 0x64 DUP3 LT PUSH2 0x1E0A JUMPI JUMPDEST STOP JUMPDEST PUSH1 0x2 DUP3 ADD DUP1 SWAP3 GT PUSH2 0x1E36 JUMPI PUSH2 0x1E1F PUSH1 0x3 PUSH2 0x4146 JUMP JUMPDEST SWAP1 PUSH1 0x1 DUP1 PUSH1 0xA0 SHL SUB AND PUSH1 0x0 MSTORE PUSH1 0x20 MSTORE PUSH1 0x40 PUSH1 0x0 KECCAK256 SSTORE STOP JUMPDEST PUSH4 0x4E487B71 PUSH1 0xE0 SHL PUSH1 0x0 MSTORE PUSH1 0x11 PUSH1 0x4 MSTORE PUSH1 0x24 PUSH1 0x0 REVERT JUMPDEST PUSH1 0x2 DUP2 EQ SWAP1 PUSH1 0x0 DUP3 ISZERO PUSH2 0x1E9F JUMPI JUMPDEST POP POP PUSH2 0x1E62 JUMPI STOP JUMPDEST PUSH2 0x1E6C PUSH1 0x3 PUSH2 0x4146 JUMP JUMPDEST PUSH1 0x1 DUP1 PUSH1 0xA0 SHL SUB DUP3 AND PUSH1 0x0 MSTORE PUSH1 0x20 MSTORE PUSH1 0x40 PUSH1 0x0 KECCAK256 SLOAD SWAP1 DUP2 PUSH2 0x1E89 JUMPI STOP JUMPDEST PUSH1 0x1 NOT DUP3 ADD SWAP2 DUP3 GT PUSH2 0x1E36 JUMPI PUSH2 0x1E1F PUSH1 0x3 PUSH2 0x4146 JUMP JUMPDEST PUSH1 0x3 SWAP3 POP POP EQ DUP3 DUP1 PUSH2 0x1E5A JUMP JUMPDEST SWAP1 SWAP6 POP DUP2 SWAP6 PUSH1 0x2 DUP7 EQ DUP1 ISZERO PUSH2 0x1EE0 JUMPI JUMPDEST PUSH2 0x1EC8 JUMPI JUMPDEST POP POP PUSH2 0x1DB8 JUMP JUMPDEST PUSH2 0x1ED4 PUSH2 0x1ED9 SWAP3 PUSH2 0x4978 JUMP JUMPDEST PUSH2 0x49CE JUMP JUMPDEST DUP6 DUP1 PUSH2 0x1EC1 JUMP JUMPDEST POP SWAP6 POP DUP2 SWAP6 PUSH1 0x3 DUP7 EQ PUSH2 0x1EBC JUMP JUMPDEST PUSH4 0x4E487B71 PUSH1 0xE0 SHL DUP3 MSTORE PUSH1 0x21 PUSH1 0x4 MSTORE PUSH1 0x24 DUP3 REVERT JUMPDEST DUP4 PUSH1 0x0 MSTORE PUSH1 0x3 PUSH1 0x20 MSTORE PUSH1 0x1 PUSH1 0x40 PUSH1 0x0 KECCAK256 ADD PUSH2 0x200 PUSH2 0xFF00 NOT DUP3 SLOAD AND OR SWAP1 SSTORE PUSH2 0x1CD7 JUMP JUMPDEST POP PUSH1 0x4 DUP4 LT ISZERO PUSH2 0x95E JUMPI PUSH1 0x3 DUP4 EQ PUSH2 0x1C5E JUMP JUMPDEST SWAP1 POP DUP6 ADD CALLDATALOAD DUP9 PUSH2 0x1C28 JUMP JUMPDEST POP DUP1 DUP4 MSTORE PUSH1 0x20 DUP4 KECCAK256 DUP4 DUP6 PUSH1 0x1F NOT DUP2 AND JUMPDEST DUP1 DUP8 LT PUSH2 0x1F8D JUMPI PUSH1 0x5 SWAP7 POP LT PUSH2 0x1F73 JUMPI JUMPDEST POP POP PUSH1 0x1 DUP5 DUP2 SHL ADD SWAP1 SSTORE PUSH2 0x1C3C JUMP JUMPDEST DUP7 ADD CALLDATALOAD PUSH1 0x0 NOT PUSH1 0x3 DUP8 SWAP1 SHL PUSH1 0xF8 AND SHR NOT AND SWAP1 SSTORE DUP8 DUP1 PUSH2 0x1F64 JUMP JUMPDEST DUP9 DUP4 ADD CALLDATALOAD DUP5 SSTORE PUSH1 0x20 SWAP7 DUP8 ADD SWAP7 PUSH1 0x1 SWAP1 SWAP5 ADD SWAP4 SWAP1 SWAP3 ADD SWAP2 DUP8 SWAP2 POP PUSH2 0x1F53 JUMP JUMPDEST PUSH2 0x1FD7 SWAP1 DUP4 PUSH1 0x0 MSTORE PUSH1 0x20 PUSH1 0x0 KECCAK256 PUSH1 0x1F DUP7 ADD PUSH1 0x5 SHR DUP2 ADD SWAP2 PUSH1 0x20 DUP8 LT PUSH2 0x82A JUMPI PUSH1 0x1F ADD PUSH1 0x5 SHR ADD SWAP1 PUSH2 0x4803 JUMP JUMPDEST DUP7 PUSH2 0x1C0D JUMP JUMPDEST ADD CALLDATALOAD SWAP1 POP DUP9 DUP1 PUSH2 0x1B90 JUMP JUMPDEST DUP5 DUP3 MSTORE PUSH1 0x20 DUP3 KECCAK256 SWAP3 POP SWAP1 PUSH1 0x1F NOT DUP5 AND DUP2 JUMPDEST DUP2 DUP2 LT PUSH2 0x2036 JUMPI POP SWAP1 DUP5 PUSH1 0x1 SWAP6 SWAP5 SWAP4 SWAP3 LT PUSH2 0x201C JUMPI JUMPDEST POP POP POP DUP2 SHL ADD SWAP1 SSTORE PUSH2 0x1BA5 JUMP JUMPDEST ADD CALLDATALOAD PUSH1 0x0 NOT PUSH1 0x3 DUP5 SWAP1 SHL PUSH1 0xF8 AND SHR NOT AND SWAP1 SSTORE DUP9 DUP1 DUP1 PUSH2 0x200F JUMP JUMPDEST SWAP2 SWAP4 PUSH1 0x20 PUSH1 0x1 DUP2 SWAP3 DUP8 DUP8 ADD CALLDATALOAD DUP2 SSTORE ADD SWAP6 ADD SWAP3 ADD PUSH2 0x1FF9 JUMP JUMPDEST PUSH2 0x207A SWAP1 DUP6 PUSH1 0x0 MSTORE PUSH1 0x20 PUSH1 0x0 KECCAK256 PUSH1 0x1F DUP6 ADD PUSH1 0x5 SHR DUP2 ADD SWAP2 PUSH1 0x20 DUP7 LT PUSH2 0x82A JUMPI PUSH1 0x1F ADD PUSH1 0x5 SHR ADD SWAP1 PUSH2 0x4803 JUMP JUMPDEST DUP10 PUSH2 0x1B79 JUMP JUMPDEST PUSH1 0x40 MLOAD PUSH3 0x461BCD PUSH1 0xE5 SHL DUP2 MSTORE PUSH1 0x20 PUSH1 0x4 DUP3 ADD MSTORE PUSH1 0x14 PUSH1 0x24 DUP3 ADD MSTORE PUSH20 0x4D7573742062652052455441494C207374616765 PUSH1 0x60 SHL PUSH1 0x44 DUP3 ADD MSTORE PUSH1 0x64 SWAP1 REVERT JUMPDEST PUSH2 0x20D5 SWAP2 POP PUSH1 0x20 RETURNDATASIZE PUSH1 0x20 GT PUSH2 0x99C JUMPI PUSH2 0x98E DUP2 DUP4 PUSH2 0x4271 JUMP JUMPDEST DUP10 PUSH2 0x578 JUMP JUMPDEST PUSH2 0x20F2 SWAP2 POP DUP5 RETURNDATASIZE DUP7 GT PUSH2 0x99C JUMPI PUSH2 0x98E DUP2 DUP4 PUSH2 0x4271 JUMP JUMPDEST DUP13 PUSH2 0x545 JUMP JUMPDEST CALLVALUE PUSH2 0x234 JUMPI PUSH1 0x20 CALLDATASIZE PUSH1 0x3 NOT ADD SLT PUSH2 0x234 JUMPI PUSH2 0x2111 PUSH2 0x490A JUMP JUMPDEST POP PUSH1 0x4 CALLDATALOAD PUSH1 0x0 MSTORE PUSH1 0xF PUSH1 0x20 MSTORE PUSH2 0x295 PUSH1 0x40 PUSH1 0x0 KECCAK256 PUSH1 0x40 MLOAD SWAP1 PUSH2 0x108E DUP3 PUSH2 0x421F JUMP JUMPDEST CALLVALUE PUSH2 0x234 JUMPI PUSH1 0x0 CALLDATASIZE PUSH1 0x3 NOT ADD SLT PUSH2 0x234 JUMPI PUSH1 0x20 PUSH1 0x9 SLOAD PUSH1 0x40 MLOAD SWAP1 DUP2 MSTORE RETURN JUMPDEST CALLVALUE PUSH2 0x234 JUMPI PUSH1 0x0 CALLDATASIZE PUSH1 0x3 NOT ADD SLT PUSH2 0x234 JUMPI PUSH1 0x20 PUSH1 0x8 SLOAD PUSH1 0x40 MLOAD SWAP1 DUP2 MSTORE RETURN JUMPDEST CALLVALUE PUSH2 0x234 JUMPI PUSH1 0x20 CALLDATASIZE PUSH1 0x3 NOT ADD SLT PUSH2 0x234 JUMPI PUSH1 0x0 SLOAD PUSH1 0x40 MLOAD PUSH4 0x5C975ABB PUSH1 0xE0 SHL DUP2 MSTORE PUSH1 0x4 DUP1 CALLDATALOAD SWAP3 PUSH1 0x1 PUSH1 0x1 PUSH1 0xA0 SHL SUB AND SWAP1 PUSH1 0x20 SWAP1 DUP4 SWAP1 DUP2 DUP5 GAS STATICCALL SWAP1 DUP2 ISZERO PUSH2 0x9A3 JUMPI PUSH2 0x21C5 PUSH1 0x20 SWAP3 PUSH1 0x24 SWAP5 PUSH1 0x0 SWAP2 PUSH2 0x22D5 JUMPI POP ISZERO PUSH2 0x46EC JUMP JUMPDEST PUSH1 0x40 MLOAD PUSH4 0xDBAC26E9 PUSH1 0xE0 SHL DUP2 MSTORE CALLER PUSH1 0x4 DUP3 ADD MSTORE SWAP3 DUP4 SWAP2 DUP3 SWAP1 GAS STATICCALL DUP1 ISZERO PUSH2 0x9A3 JUMPI PUSH2 0x21F7 SWAP2 PUSH1 0x0 SWAP2 PUSH2 0x22B6 JUMPI POP ISZERO PUSH2 0x4728 JUMP JUMPDEST PUSH1 0x0 DUP2 DUP2 MSTORE PUSH1 0x3 PUSH1 0x20 MSTORE PUSH1 0x40 SWAP1 KECCAK256 PUSH1 0xD ADD SLOAD PUSH2 0x221D SWAP1 PUSH1 0x1 PUSH1 0x1 PUSH1 0xA0 SHL SUB AND CALLER EQ PUSH2 0x48CE JUMP JUMPDEST DUP1 PUSH1 0x0 MSTORE PUSH1 0x3 PUSH1 0x20 MSTORE PUSH1 0xFF PUSH1 0x1 PUSH1 0x40 PUSH1 0x0 KECCAK256 ADD SLOAD PUSH1 0x8 SHR AND PUSH1 0x6 DUP2 LT ISZERO PUSH2 0x95E JUMPI PUSH1 0x2 SUB PUSH2 0x227E JUMPI DUP1 PUSH1 0x0 MSTORE PUSH1 0x3 PUSH1 0x20 MSTORE PUSH1 0x1 PUSH1 0x40 PUSH1 0x0 KECCAK256 ADD PUSH2 0x400 PUSH2 0xFF00 NOT DUP3 SLOAD AND OR SWAP1 SSTORE PUSH1 0x0 DUP1 MLOAD PUSH1 0x20 PUSH2 0x4A90 DUP4 CODECOPY DUP2 MLOAD SWAP2 MSTORE PUSH1 0x20 PUSH1 0x40 MLOAD PUSH1 0x4 DUP2 MSTORE LOG2 STOP JUMPDEST PUSH1 0x40 MLOAD PUSH3 0x461BCD PUSH1 0xE5 SHL DUP2 MSTORE PUSH1 0x20 PUSH1 0x4 DUP3 ADD MSTORE PUSH1 0x10 PUSH1 0x24 DUP3 ADD MSTORE PUSH16 0x135D5CDD081899481D995C9A599A5959 PUSH1 0x82 SHL PUSH1 0x44 DUP3 ADD MSTORE PUSH1 0x64 SWAP1 REVERT JUMPDEST PUSH2 0x22CF SWAP2 POP PUSH1 0x20 RETURNDATASIZE PUSH1 0x20 GT PUSH2 0x99C JUMPI PUSH2 0x98E DUP2 DUP4 PUSH2 0x4271 JUMP JUMPDEST DUP4 PUSH2 0x578 JUMP JUMPDEST PUSH2 0x22EC SWAP2 POP DUP5 RETURNDATASIZE DUP7 GT PUSH2 0x99C JUMPI PUSH2 0x98E DUP2 DUP4 PUSH2 0x4271 JUMP JUMPDEST DUP7 PUSH2 0x545 JUMP JUMPDEST CALLVALUE PUSH2 0x234 JUMPI PUSH2 0x2300 CALLDATASIZE PUSH2 0x45AD JUMP JUMPDEST PUSH1 0x0 SLOAD PUSH1 0x40 MLOAD PUSH4 0x5C975ABB PUSH1 0xE0 SHL DUP2 MSTORE SWAP7 SWAP8 SWAP7 SWAP3 SWAP6 SWAP2 SWAP5 SWAP2 SWAP3 SWAP1 PUSH1 0x1 PUSH1 0x1 PUSH1 0xA0 SHL SUB AND PUSH1 0x20 DUP3 PUSH1 0x4 DUP2 DUP5 GAS STATICCALL SWAP1 DUP2 ISZERO PUSH2 0x9A3 JUMPI PUSH2 0x234A PUSH1 0x20 SWAP3 PUSH1 0x24 SWAP5 PUSH1 0x0 SWAP2 PUSH2 0x20DB JUMPI POP ISZERO PUSH2 0x46EC JUMP JUMPDEST PUSH1 0x40 MLOAD PUSH4 0xDBAC26E9 PUSH1 0xE0 SHL DUP2 MSTORE CALLER PUSH1 0x4 DUP3 ADD MSTORE SWAP3 DUP4 SWAP2 DUP3 SWAP1 GAS STATICCALL DUP1 ISZERO PUSH2 0x9A3 JUMPI PUSH2 0x237C SWAP2 PUSH1 0x0 SWAP2 PUSH2 0x20BC JUMPI POP ISZERO PUSH2 0x4728 JUMP JUMPDEST PUSH1 0x0 DUP7 DUP2 MSTORE PUSH1 0x3 PUSH1 0x20 MSTORE PUSH1 0x40 SWAP1 KECCAK256 PUSH1 0x9 ADD SLOAD PUSH2 0x23A2 SWAP1 PUSH1 0x1 PUSH1 0x1 PUSH1 0xA0 SHL SUB AND CALLER EQ PUSH2 0x481A JUMP JUMPDEST DUP6 PUSH1 0x0 MSTORE PUSH1 0x3 PUSH1 0x20 MSTORE PUSH1 0xFF PUSH1 0x1 PUSH1 0x40 PUSH1 0x0 KECCAK256 ADD SLOAD AND PUSH1 0x3 DUP2 LT ISZERO PUSH2 0x95E JUMPI PUSH1 0x1 SUB PUSH2 0x2824 JUMPI PUSH2 0x23D4 PUSH1 0x64 DUP9 GT ISZERO PUSH2 0x4859 JUMP JUMPDEST PUSH2 0x23DD DUP8 PUSH2 0x4948 JUMP JUMPDEST PUSH1 0x0 DUP8 DUP2 MSTORE PUSH1 0xF PUSH1 0x20 MSTORE PUSH1 0x40 SWAP1 KECCAK256 SWAP8 DUP9 SSTORE SWAP7 PUSH2 0x23FD SWAP1 DUP9 SWAP1 PUSH1 0x1 ADD PUSH2 0x4895 JUMP JUMPDEST DUP6 PUSH1 0x0 MSTORE PUSH1 0xF PUSH1 0x20 MSTORE PUSH1 0x2 PUSH1 0x40 PUSH1 0x0 KECCAK256 ADD SWAP2 PUSH1 0x1 PUSH1 0x1 PUSH1 0x40 SHL SUB DUP3 GT PUSH2 0x834 JUMPI DUP2 SWAP1 PUSH2 0x2429 DUP5 SLOAD PUSH2 0x41CA JUMP JUMPDEST PUSH1 0x1F DUP2 GT PUSH2 0x27F2 JUMPI JUMPDEST POP PUSH1 0x0 SWAP1 PUSH1 0x1F DUP4 GT PUSH1 0x1 EQ PUSH2 0x278C JUMPI PUSH1 0x0 SWAP3 PUSH2 0x2781 JUMPI JUMPDEST POP POP DUP2 PUSH1 0x1 SHL SWAP2 PUSH1 0x0 NOT SWAP1 PUSH1 0x3 SHL SHR NOT AND OR SWAP1 SSTORE JUMPDEST PUSH1 0x0 DUP5 DUP2 MSTORE PUSH1 0xF PUSH1 0x20 SWAP1 DUP2 MSTORE PUSH1 0x40 DUP1 DUP4 KECCAK256 PUSH1 0x3 DUP2 DUP2 ADD DUP7 SWAP1 SSTORE TIMESTAMP PUSH1 0x4 DUP4 ADD DUP2 SWAP1 SSTORE PUSH1 0x5 SWAP1 SWAP3 ADD DUP1 SLOAD PUSH1 0x1 PUSH1 0x1 PUSH1 0xA0 SHL SUB NOT AND CALLER OR SWAP1 SSTORE SWAP1 SWAP3 MSTORE SWAP1 SWAP2 KECCAK256 PUSH1 0xC DUP2 ADD SWAP2 SWAP1 SWAP2 SSTORE PUSH1 0x14 ADD SWAP1 PUSH1 0x1 PUSH1 0x1 PUSH1 0x40 SHL SUB DUP4 GT PUSH2 0x834 JUMPI PUSH2 0x24BE DUP3 SLOAD PUSH2 0x41CA JUMP JUMPDEST PUSH1 0x1F DUP2 GT PUSH2 0x274F JUMPI JUMPDEST POP PUSH1 0x0 SWAP2 DUP4 PUSH1 0x1F DUP2 GT PUSH1 0x1 EQ PUSH2 0x26E7 JUMPI PUSH1 0x5 SWAP4 PUSH1 0x0 SWAP2 PUSH2 0x26DC JUMPI JUMPDEST POP DUP5 PUSH1 0x1 SHL SWAP1 PUSH1 0x0 NOT DUP7 PUSH1 0x3 SHL SHR NOT AND OR SWAP1 SSTORE JUMPDEST DUP5 PUSH1 0x0 MSTORE PUSH1 0x3 PUSH1 0x20 MSTORE PUSH2 0x2510 DUP7 PUSH1 0x1 PUSH1 0x40 PUSH1 0x0 KECCAK256 ADD PUSH2 0x48AD JUMP JUMPDEST LT DUP1 ISZERO PUSH2 0x26C9 JUMPI JUMPDEST ISZERO PUSH2 0x26A6 JUMPI PUSH1 0x0 DUP4 DUP2 MSTORE PUSH1 0x3 PUSH1 0x20 SWAP1 DUP2 MSTORE PUSH1 0x40 SWAP2 DUP3 SWAP1 KECCAK256 PUSH1 0x1 ADD DUP1 SLOAD PUSH4 0xFF00FF00 NOT AND PUSH2 0x300 OR SWAP1 SSTORE DUP2 MLOAD DUP2 DUP2 MSTORE PUSH1 0xE SWAP2 DUP2 ADD SWAP2 SWAP1 SWAP2 MSTORE PUSH14 0x145D585B1A5D1E4819985A5B1959 PUSH1 0x92 SHL SWAP2 DUP2 ADD SWAP2 SWAP1 SWAP2 MSTORE DUP4 SWAP1 PUSH32 0x4429DE7967BFE786EC4AC3F822CF4B26A0ED6A63A7DBBBA03684BBF771E93CE3 SWAP1 PUSH1 0x60 SWAP1 LOG2 JUMPDEST DUP1 PUSH1 0x40 MLOAD SWAP3 PUSH1 0x40 DUP5 MSTORE DUP2 PUSH1 0x40 DUP6 ADD MSTORE PUSH1 0x60 DUP5 ADD CALLDATACOPY PUSH1 0x0 DUP3 DUP3 ADD PUSH1 0x60 ADD MSTORE PUSH1 0x1F ADD PUSH1 0x1F NOT AND DUP2 ADD DUP2 PUSH1 0x60 DUP2 PUSH32 0x540105FF02EED8665666E5B20A0955668C4452DD216F3F7846996F9057B8E093 SWAP4 PUSH1 0x1 PUSH1 0x20 DUP9 SWAP8 ADD MSTORE SUB ADD SWAP1 LOG2 DUP1 PUSH1 0x0 MSTORE PUSH1 0x3 PUSH1 0x20 MSTORE DUP1 PUSH1 0x0 DUP1 MLOAD PUSH1 0x20 PUSH2 0x4A90 DUP4 CODECOPY DUP2 MLOAD SWAP2 MSTORE PUSH1 0x20 PUSH1 0xFF PUSH1 0x1 PUSH1 0x40 PUSH1 0x0 KECCAK256 ADD SLOAD PUSH1 0x8 SHR AND PUSH2 0x2620 PUSH1 0x40 MLOAD DUP1 SWAP3 PUSH2 0x44A5 JUMP JUMPDEST LOG2 PUSH1 0x0 SWAP1 DUP2 MSTORE PUSH1 0x3 PUSH1 0x20 DUP2 SWAP1 MSTORE PUSH1 0x40 DUP3 KECCAK256 SWAP1 DUP2 ADD SLOAD PUSH1 0x9 SWAP1 SWAP2 ADD SLOAD SWAP2 SWAP3 PUSH1 0x1 PUSH1 0x1 PUSH1 0xA0 SHL SUB SWAP2 DUP3 AND SWAP3 SWAP1 SWAP2 AND SWAP1 PUSH1 0x4 DUP2 LT ISZERO PUSH2 0x2692 JUMPI DUP1 PUSH2 0x2668 JUMPI POP PUSH2 0x1DB3 PUSH2 0x1E08 SWAP3 PUSH2 0x4A0D JUMP JUMPDEST PUSH1 0x2 DUP2 EQ SWAP1 DUP2 ISZERO PUSH2 0x2687 JUMPI JUMPDEST POP PUSH2 0x267B JUMPI STOP JUMPDEST PUSH2 0x1ED4 PUSH2 0x1E08 SWAP3 PUSH2 0x4978 JUMP JUMPDEST PUSH1 0x3 SWAP2 POP EQ DUP5 PUSH2 0x2674 JUMP JUMPDEST PUSH4 0x4E487B71 PUSH1 0xE0 SHL DUP5 MSTORE PUSH1 0x21 PUSH1 0x4 MSTORE PUSH1 0x24 DUP5 REVERT JUMPDEST DUP3 PUSH1 0x0 MSTORE PUSH1 0x3 PUSH1 0x20 MSTORE PUSH1 0x1 PUSH1 0x40 PUSH1 0x0 KECCAK256 ADD PUSH2 0x200 PUSH2 0xFF00 NOT DUP3 SLOAD AND OR SWAP1 SSTORE PUSH2 0x2591 JUMP JUMPDEST POP PUSH1 0x4 DUP5 LT ISZERO PUSH2 0x95E JUMPI PUSH1 0x3 DUP5 EQ PUSH2 0x2518 JUMP JUMPDEST SWAP1 POP DUP6 ADD CALLDATALOAD DUP9 PUSH2 0x24E2 JUMP JUMPDEST POP DUP1 DUP4 MSTORE PUSH1 0x20 DUP4 KECCAK256 DUP4 DUP6 PUSH1 0x1F NOT DUP2 AND JUMPDEST DUP1 DUP8 LT PUSH2 0x2731 JUMPI PUSH1 0x5 SWAP7 POP LT PUSH2 0x2717 JUMPI JUMPDEST POP POP PUSH1 0x1 DUP5 DUP2 SHL ADD SWAP1 SSTORE PUSH2 0x24F6 JUMP JUMPDEST DUP7 ADD CALLDATALOAD PUSH1 0x0 NOT PUSH1 0x3 DUP8 SWAP1 SHL PUSH1 0xF8 AND SHR NOT AND SWAP1 SSTORE DUP8 DUP1 PUSH2 0x2708 JUMP JUMPDEST DUP9 DUP4 ADD CALLDATALOAD DUP5 SSTORE PUSH1 0x20 SWAP7 DUP8 ADD SWAP7 PUSH1 0x1 SWAP1 SWAP5 ADD SWAP4 SWAP1 SWAP3 ADD SWAP2 DUP8 SWAP2 POP PUSH2 0x26F7 JUMP JUMPDEST PUSH2 0x277B SWAP1 DUP4 PUSH1 0x0 MSTORE PUSH1 0x20 PUSH1 0x0 KECCAK256 PUSH1 0x1F DUP7 ADD PUSH1 0x5 SHR DUP2 ADD SWAP2 PUSH1 0x20 DUP8 LT PUSH2 0x82A JUMPI PUSH1 0x1F ADD PUSH1 0x5 SHR ADD SWAP1 PUSH2 0x4803 JUMP JUMPDEST DUP7 PUSH2 0x24C7 JUMP JUMPDEST ADD CALLDATALOAD SWAP1 POP DUP9 DUP1 PUSH2 0x2449 JUMP JUMPDEST DUP5 DUP3 MSTORE PUSH1 0x20 DUP3 KECCAK256 SWAP3 POP SWAP1 PUSH1 0x1F NOT DUP5 AND DUP2 JUMPDEST DUP2 DUP2 LT PUSH2 0x27DA JUMPI POP SWAP1 DUP5 PUSH1 0x1 SWAP6 SWAP5 SWAP4 SWAP3 LT PUSH2 0x27C0 JUMPI JUMPDEST POP POP POP DUP2 SHL ADD SWAP1 SSTORE PUSH2 0x245E JUMP JUMPDEST ADD CALLDATALOAD PUSH1 0x0 NOT PUSH1 0x3 DUP5 SWAP1 SHL PUSH1 0xF8 AND SHR NOT AND SWAP1 SSTORE DUP9 DUP1 DUP1 PUSH2 0x27B3 JUMP JUMPDEST SWAP2 SWAP4 PUSH1 0x20 PUSH1 0x1 DUP2 SWAP3 DUP8 DUP8 ADD CALLDATALOAD DUP2 SSTORE ADD SWAP6 ADD SWAP3 ADD PUSH2 0x279D JUMP JUMPDEST PUSH2 0x281E SWAP1 DUP6 PUSH1 0x0 MSTORE PUSH1 0x20 PUSH1 0x0 KECCAK256 PUSH1 0x1F DUP6 ADD PUSH1 0x5 SHR DUP2 ADD SWAP2 PUSH1 0x20 DUP7 LT PUSH2 0x82A JUMPI PUSH1 0x1F ADD PUSH1 0x5 SHR ADD SWAP1 PUSH2 0x4803 JUMP JUMPDEST DUP10 PUSH2 0x2432 JUMP JUMPDEST PUSH1 0x40 MLOAD PUSH3 0x461BCD PUSH1 0xE5 SHL DUP2 MSTORE PUSH1 0x20 PUSH1 0x4 DUP3 ADD MSTORE PUSH1 0x1A PUSH1 0x24 DUP3 ADD MSTORE PUSH32 0x4D75737420626520444953545249425554494F4E207374616765000000000000 PUSH1 0x44 DUP3 ADD MSTORE PUSH1 0x64 SWAP1 REVERT JUMPDEST CALLVALUE PUSH2 0x234 JUMPI PUSH1 0x20 CALLDATASIZE PUSH1 0x3 NOT ADD SLT PUSH2 0x234 JUMPI PUSH1 0x4 CALLDATALOAD PUSH1 0x0 MSTORE PUSH1 0x10 PUSH1 0x20 MSTORE PUSH1 0x40 PUSH1 0x0 KECCAK256 DUP1 SLOAD PUSH2 0x295 PUSH1 0xFF PUSH1 0x1 DUP5 ADD SLOAD AND SWAP3 PUSH2 0x1A16 PUSH1 0x2 DUP3 ADD PUSH2 0x4292 JUMP JUMPDEST CALLVALUE PUSH2 0x234 JUMPI PUSH1 0x20 CALLDATASIZE PUSH1 0x3 NOT ADD SLT PUSH2 0x234 JUMPI PUSH1 0x4 CALLDATALOAD PUSH1 0x0 MSTORE PUSH1 0x3 PUSH1 0x20 MSTORE PUSH1 0x40 PUSH1 0x0 KECCAK256 DUP1 SLOAD PUSH1 0x1 DUP3 ADD SLOAD SWAP2 PUSH1 0x2 DUP2 ADD PUSH2 0x28DA SWAP1 PUSH2 0x43A4 JUMP JUMPDEST PUSH2 0x28E6 PUSH1 0x9 DUP4 ADD PUSH2 0x440B JUMP JUMPDEST PUSH2 0x28F2 PUSH1 0xD DUP5 ADD PUSH2 0x4446 JUMP JUMPDEST SWAP1 PUSH2 0x28FF PUSH1 0x13 DUP6 ADD PUSH2 0x4292 JUMP JUMPDEST PUSH2 0x290B PUSH1 0x14 DUP7 ADD PUSH2 0x4292 JUMP JUMPDEST SWAP2 PUSH2 0x2918 PUSH1 0x15 DUP8 ADD PUSH2 0x4292 JUMP JUMPDEST SWAP4 PUSH1 0x16 DUP8 ADD SLOAD SWAP7 PUSH1 0x17 ADD SLOAD SWAP6 PUSH1 0x40 MLOAD SWAP10 DUP11 SWAP10 DUP11 MSTORE PUSH1 0x20 DUP11 ADD PUSH1 0xFF DUP3 AND SWAP1 PUSH2 0x293E SWAP2 PUSH2 0x4498 JUMP JUMPDEST PUSH2 0x2952 PUSH1 0x40 DUP12 ADD PUSH1 0xFF PUSH1 0x8 DUP5 SWAP1 SHR AND PUSH2 0x44A5 JUMP JUMPDEST PUSH2 0x2966 PUSH1 0x60 DUP12 ADD PUSH1 0xFF PUSH1 0x10 DUP5 SWAP1 SHR AND PUSH2 0x44B2 JUMP JUMPDEST PUSH1 0x18 SHR PUSH1 0xFF AND ISZERO ISZERO PUSH1 0x80 DUP11 ADD MSTORE PUSH1 0xA0 DUP10 ADD PUSH2 0x2A0 SWAP1 MSTORE PUSH2 0x2A0 DUP10 ADD PUSH2 0x298A SWAP2 PUSH2 0x44BF JUMP JUMPDEST DUP3 MLOAD PUSH1 0x1 PUSH1 0x1 PUSH1 0xA0 SHL SUB AND PUSH1 0xC0 DUP11 ADD MSTORE PUSH1 0x20 DUP4 ADD MLOAD PUSH1 0xE0 DUP11 ADD MSTORE PUSH1 0x40 DUP4 ADD MLOAD PUSH2 0x100 DUP11 ADD MSTORE PUSH1 0x60 SWAP1 SWAP3 ADD MLOAD PUSH2 0x120 DUP10 ADD MSTORE PUSH2 0x140 DUP9 ADD PUSH2 0x29C9 SWAP2 PUSH2 0x4524 JUMP JUMPDEST DUP7 DUP2 SUB PUSH2 0x200 DUP9 ADD MSTORE PUSH2 0x29DB SWAP2 PUSH2 0x4336 JUMP JUMPDEST DUP6 DUP2 SUB PUSH2 0x220 DUP8 ADD MSTORE PUSH2 0x29ED SWAP2 PUSH2 0x4336 JUMP JUMPDEST DUP5 DUP2 SUB PUSH2 0x240 DUP7 ADD MSTORE PUSH2 0x29FF SWAP2 PUSH2 0x4336 JUMP JUMPDEST SWAP2 PUSH2 0x260 DUP5 ADD MSTORE PUSH2 0x280 DUP4 ADD MSTORE SUB SWAP1 RETURN JUMPDEST CALLVALUE PUSH2 0x234 JUMPI PUSH1 0x40 CALLDATASIZE PUSH1 0x3 NOT ADD SLT PUSH2 0x234 JUMPI PUSH1 0x4 CALLDATALOAD PUSH1 0x24 CALLDATALOAD PUSH1 0x1 PUSH1 0x1 PUSH1 0x40 SHL SUB DUP2 GT PUSH2 0x234 JUMPI PUSH2 0x2A43 SWAP1 CALLDATASIZE SWAP1 PUSH1 0x4 ADD PUSH2 0x4377 JUMP JUMPDEST PUSH1 0x0 SLOAD PUSH1 0x40 MLOAD PUSH4 0x5C975ABB PUSH1 0xE0 SHL DUP2 MSTORE SWAP1 PUSH1 0x1 PUSH1 0x1 PUSH1 0xA0 SHL SUB AND PUSH1 0x20 DUP3 PUSH1 0x4 DUP2 DUP5 GAS STATICCALL SWAP1 DUP2 ISZERO PUSH2 0x9A3 JUMPI PUSH2 0x2A84 PUSH1 0x20 SWAP3 PUSH1 0x24 SWAP5 PUSH1 0x0 SWAP2 PUSH2 0x2C9E JUMPI POP ISZERO PUSH2 0x46EC JUMP JUMPDEST PUSH1 0x40 MLOAD PUSH4 0xDBAC26E9 PUSH1 0xE0 SHL DUP2 MSTORE CALLER PUSH1 0x4 DUP3 ADD MSTORE SWAP3 DUP4 SWAP2 DUP3 SWAP1 GAS STATICCALL DUP1 ISZERO PUSH2 0x9A3 JUMPI PUSH2 0x2AB6 SWAP2 PUSH1 0x0 SWAP2 PUSH2 0x2C7F JUMPI POP ISZERO PUSH2 0x4728 JUMP JUMPDEST DUP3 PUSH1 0x0 MSTORE PUSH1 0x3 PUSH1 0x20 MSTORE CALLER PUSH1 0x1 DUP1 PUSH1 0xA0 SHL SUB PUSH1 0x3 PUSH1 0x40 PUSH1 0x0 KECCAK256 ADD SLOAD AND SUB PUSH2 0x2C4C JUMPI DUP3 PUSH1 0x0 MSTORE PUSH1 0x3 PUSH1 0x20 MSTORE PUSH2 0x2AF6 PUSH1 0xFF PUSH1 0x1 PUSH1 0x40 PUSH1 0x0 KECCAK256 ADD SLOAD PUSH1 0x18 SHR AND PUSH2 0x47C4 JUMP JUMPDEST DUP3 PUSH1 0x0 MSTORE PUSH1 0x3 PUSH1 0x20 MSTORE PUSH1 0x13 PUSH1 0x40 PUSH1 0x0 KECCAK256 ADD PUSH1 0x1 PUSH1 0x1 PUSH1 0x40 SHL SUB DUP3 GT PUSH2 0x834 JUMPI PUSH2 0x2B1F DUP2 SLOAD PUSH2 0x41CA JUMP JUMPDEST PUSH1 0x1F DUP2 GT PUSH2 0x2C1A JUMPI JUMPDEST POP DUP2 PUSH1 0x0 PUSH1 0x1F DUP3 GT PUSH1 0x1 EQ PUSH2 0x2BB7 JUMPI PUSH1 0x0 SWAP2 PUSH2 0x2BAC JUMPI JUMPDEST POP DUP3 PUSH1 0x1 SHL SWAP1 PUSH1 0x0 NOT DUP5 PUSH1 0x3 SHL SHR NOT AND OR SWAP1 SSTORE JUMPDEST DUP1 PUSH1 0x40 MLOAD SWAP3 PUSH1 0x40 DUP5 MSTORE DUP2 PUSH1 0x40 DUP6 ADD MSTORE PUSH1 0x60 DUP5 ADD CALLDATACOPY PUSH1 0x0 DUP3 DUP3 ADD PUSH1 0x60 ADD MSTORE PUSH1 0x1F ADD PUSH1 0x1F NOT AND DUP2 ADD SWAP1 PUSH1 0x60 DUP2 PUSH32 0x540105FF02EED8665666E5B20A0955668C4452DD216F3F7846996F9057B8E093 SWAP4 PUSH1 0x0 PUSH1 0x20 DUP4 ADD MSTORE SUB ADD SWAP1 LOG2 STOP JUMPDEST SWAP1 POP DUP4 ADD CALLDATALOAD DUP6 PUSH2 0x2B3F JUMP JUMPDEST DUP3 DUP2 MSTORE PUSH1 0x20 DUP2 KECCAK256 SWAP2 POP DUP4 PUSH1 0x1F NOT DUP2 AND DUP3 JUMPDEST DUP2 DUP2 LT PUSH2 0x2BFF JUMPI POP LT PUSH2 0x2BE5 JUMPI JUMPDEST POP POP PUSH1 0x1 DUP3 DUP2 SHL ADD SWAP1 SSTORE PUSH2 0x2B53 JUMP JUMPDEST DUP5 ADD CALLDATALOAD PUSH1 0x0 NOT PUSH1 0x3 DUP6 SWAP1 SHL PUSH1 0xF8 AND SHR NOT AND SWAP1 SSTORE DUP5 DUP1 PUSH2 0x2BD6 JUMP JUMPDEST DUP8 DUP5 ADD CALLDATALOAD DUP6 SSTORE PUSH1 0x1 SWAP1 SWAP5 ADD SWAP4 PUSH1 0x20 SWAP4 DUP5 ADD SWAP4 DUP8 SWAP4 POP ADD PUSH2 0x2BC8 JUMP JUMPDEST PUSH2 0x2C46 SWAP1 DUP3 PUSH1 0x0 MSTORE PUSH1 0x20 PUSH1 0x0 KECCAK256 PUSH1 0x1F DUP6 ADD PUSH1 0x5 SHR DUP2 ADD SWAP2 PUSH1 0x20 DUP7 LT PUSH2 0x82A JUMPI PUSH1 0x1F ADD PUSH1 0x5 SHR ADD SWAP1 PUSH2 0x4803 JUMP JUMPDEST DUP5 PUSH2 0x2B28 JUMP JUMPDEST PUSH1 0x40 MLOAD PUSH3 0x461BCD PUSH1 0xE5 SHL DUP2 MSTORE PUSH1 0x20 PUSH1 0x4 DUP3 ADD MSTORE PUSH1 0xB PUSH1 0x24 DUP3 ADD MSTORE PUSH11 0x27B7363C903330B936B2B9 PUSH1 0xA9 SHL PUSH1 0x44 DUP3 ADD MSTORE PUSH1 0x64 SWAP1 REVERT JUMPDEST PUSH2 0x2C98 SWAP2 POP PUSH1 0x20 RETURNDATASIZE PUSH1 0x20 GT PUSH2 0x99C JUMPI PUSH2 0x98E DUP2 DUP4 PUSH2 0x4271 JUMP JUMPDEST DUP6 PUSH2 0x578 JUMP JUMPDEST PUSH2 0x2CB5 SWAP2 POP DUP5 RETURNDATASIZE DUP7 GT PUSH2 0x99C JUMPI PUSH2 0x98E DUP2 DUP4 PUSH2 0x4271 JUMP JUMPDEST DUP9 PUSH2 0x545 JUMP JUMPDEST CALLVALUE PUSH2 0x234 JUMPI PUSH1 0x40 CALLDATASIZE PUSH1 0x3 NOT ADD SLT PUSH2 0x234 JUMPI PUSH2 0x2CD4 PUSH2 0x4101 JUMP JUMPDEST PUSH1 0x1 PUSH1 0x1 PUSH1 0xA0 SHL SUB AND PUSH1 0x0 SWAP1 DUP2 MSTORE PUSH1 0xE PUSH1 0x20 MSTORE PUSH1 0x40 SWAP1 KECCAK256 DUP1 SLOAD PUSH1 0x24 CALLDATALOAD SWAP2 SWAP1 DUP3 LT ISZERO PUSH2 0x234 JUMPI PUSH1 0x20 SWAP2 PUSH2 0x2D05 SWAP2 PUSH2 0x415F JUMP JUMPDEST SWAP1 SLOAD SWAP1 PUSH1 0x3 SHL SHR PUSH1 0x40 MLOAD SWAP1 DUP2 MSTORE RETURN JUMPDEST CALLVALUE PUSH2 0x234 JUMPI PUSH1 0x40 CALLDATASIZE PUSH1 0x3 NOT ADD SLT PUSH2 0x234 JUMPI PUSH1 0x4 CALLDATALOAD PUSH1 0x24 CALLDATALOAD PUSH1 0x1 DUP1 PUSH1 0xA0 SHL SUB PUSH1 0x0 SLOAD AND PUSH1 0x40 MLOAD SWAP1 PUSH4 0x5C975ABB PUSH1 0xE0 SHL DUP3 MSTORE PUSH1 0x20 DUP3 PUSH1 0x4 DUP2 DUP5 GAS STATICCALL SWAP1 DUP2 ISZERO PUSH2 0x9A3 JUMPI PUSH2 0x2D6B PUSH1 0x20 SWAP3 PUSH1 0x24 SWAP5 PUSH1 0x0 SWAP2 PUSH2 0x1420 JUMPI POP ISZERO PUSH2 0x46EC JUMP JUMPDEST PUSH1 0x40 MLOAD PUSH4 0xDBAC26E9 PUSH1 0xE0 SHL DUP2 MSTORE CALLER PUSH1 0x4 DUP3 ADD MSTORE SWAP3 DUP4 SWAP2 DUP3 SWAP1 GAS STATICCALL DUP1 ISZERO PUSH2 0x9A3 JUMPI PUSH2 0x2D9D SWAP2 PUSH1 0x0 SWAP2 PUSH2 0x1401 JUMPI POP ISZERO PUSH2 0x4728 JUMP JUMPDEST CALLER PUSH1 0x0 MSTORE PUSH1 0x1 PUSH1 0x20 MSTORE PUSH1 0xFF PUSH1 0x40 PUSH1 0x0 KECCAK256 SLOAD AND PUSH1 0x5 DUP2 LT ISZERO PUSH2 0x95E JUMPI PUSH1 0x2 SUB PUSH2 0x3078 JUMPI DUP2 PUSH1 0x0 MSTORE PUSH1 0x3 PUSH1 0x20 MSTORE PUSH1 0xFF PUSH1 0x1 PUSH1 0x40 PUSH1 0x0 KECCAK256 ADD SLOAD AND PUSH1 0x3 DUP2 LT ISZERO PUSH2 0x95E JUMPI PUSH2 0x303E JUMPI DUP2 PUSH1 0x0 MSTORE PUSH1 0x3 PUSH1 0x20 MSTORE PUSH1 0xFF PUSH1 0x1 PUSH1 0x40 PUSH1 0x0 KECCAK256 ADD SLOAD PUSH1 0x8 SHR AND PUSH1 0x6 DUP2 LT ISZERO PUSH2 0x95E JUMPI PUSH2 0x2FF9 JUMPI DUP2 PUSH1 0x0 MSTORE PUSH1 0x3 PUSH1 0x20 MSTORE PUSH2 0x2E26 PUSH1 0xFF PUSH1 0x1 PUSH1 0x40 PUSH1 0x0 KECCAK256 ADD SLOAD PUSH1 0x18 SHR AND PUSH2 0x47C4 JUMP JUMPDEST DUP1 ISZERO PUSH2 0x2FC4 JUMPI PUSH1 0x0 DUP3 DUP2 MSTORE PUSH1 0x3 PUSH1 0x20 DUP2 DUP2 MSTORE PUSH1 0x40 SWAP1 SWAP3 KECCAK256 SWAP1 DUP2 ADD SLOAD PUSH1 0x1 DUP3 ADD DUP1 SLOAD PUSH2 0xFFFF NOT AND PUSH2 0x101 OR SWAP1 SSTORE PUSH1 0x9 DUP1 DUP4 ADD DUP1 SLOAD CALLER PUSH1 0x1 PUSH1 0x1 PUSH1 0xA0 SHL SUB NOT SWAP1 SWAP2 AND OR SWAP1 SSTORE PUSH1 0xA DUP4 ADD DUP6 SWAP1 SSTORE TIMESTAMP PUSH1 0xB SWAP1 SWAP4 ADD SWAP3 SWAP1 SWAP3 SSTORE SWAP1 SLOAD PUSH1 0x0 DUP1 MLOAD PUSH1 0x20 PUSH2 0x4A90 DUP4 CODECOPY DUP2 MLOAD SWAP2 MSTORE SWAP4 PUSH1 0x1 PUSH1 0x1 PUSH1 0xA0 SHL SUB SWAP1 SWAP3 AND SWAP2 SWAP1 PUSH2 0x2EA2 SWAP1 PUSH2 0x4668 JUMP JUMPDEST DUP1 PUSH1 0x9 SSTORE DUP6 PUSH1 0x0 MSTORE PUSH1 0x3 DUP5 MSTORE PUSH1 0x16 PUSH1 0x40 PUSH1 0x0 KECCAK256 ADD SSTORE PUSH1 0x9 SLOAD DUP1 PUSH1 0x0 MSTORE PUSH1 0xA DUP5 MSTORE DUP1 PUSH1 0x40 PUSH1 0x0 KECCAK256 SSTORE PUSH1 0x0 MSTORE PUSH1 0xA DUP4 MSTORE PUSH1 0x1 PUSH1 0x40 PUSH1 0x0 KECCAK256 ADD PUSH1 0x1 DUP1 PUSH1 0xA0 SHL SUB DUP4 AND PUSH12 0xFFFFFFFFFFFFFFFFFFFFFFFF PUSH1 0xA0 SHL DUP3 SLOAD AND OR SWAP1 SSTORE PUSH1 0x9 SLOAD PUSH1 0x0 MSTORE PUSH1 0xA DUP4 MSTORE PUSH1 0x2 PUSH1 0x40 PUSH1 0x0 KECCAK256 ADD PUSH1 0x1 DUP1 PUSH1 0xA0 SHL SUB CALLER AND PUSH12 0xFFFFFFFFFFFFFFFFFFFFFFFF PUSH1 0xA0 SHL DUP3 SLOAD AND OR SWAP1 SSTORE PUSH1 0x9 SLOAD PUSH1 0x0 MSTORE PUSH1 0xA DUP4 MSTORE DUP5 PUSH1 0x3 PUSH1 0x40 PUSH1 0x0 KECCAK256 ADD SSTORE PUSH1 0x9 SLOAD PUSH1 0x0 MSTORE PUSH1 0xA DUP4 MSTORE PUSH1 0x5 PUSH1 0x40 PUSH1 0x0 KECCAK256 ADD SSTORE PUSH1 0x9 SLOAD PUSH1 0x0 MSTORE PUSH1 0xA DUP3 MSTORE TIMESTAMP PUSH1 0x6 PUSH1 0x40 PUSH1 0x0 KECCAK256 ADD SSTORE CALLER PUSH1 0x0 MSTORE PUSH1 0xB DUP3 MSTORE PUSH2 0x2F7C PUSH1 0x40 PUSH1 0x0 KECCAK256 PUSH1 0x9 SLOAD SWAP1 PUSH2 0x4767 JUMP JUMPDEST DUP1 PUSH1 0x0 MSTORE PUSH1 0xE DUP3 MSTORE PUSH2 0x2F92 DUP5 PUSH1 0x40 PUSH1 0x0 KECCAK256 PUSH2 0x4767 JUMP JUMPDEST PUSH1 0x40 MLOAD SWAP1 CALLER DUP6 PUSH32 0x405B8E92032184041314DCDDF305E0D97D13B103D3FA162EB2B1C760760BDC0A PUSH1 0x0 DUP1 LOG4 PUSH1 0x1 DUP2 MSTORE LOG2 STOP JUMPDEST PUSH1 0x40 MLOAD PUSH3 0x461BCD PUSH1 0xE5 SHL DUP2 MSTORE PUSH1 0x20 PUSH1 0x4 DUP3 ADD MSTORE PUSH1 0xD PUSH1 0x24 DUP3 ADD MSTORE PUSH13 0x496E76616C6964207072696365 PUSH1 0x98 SHL PUSH1 0x44 DUP3 ADD MSTORE PUSH1 0x64 SWAP1 REVERT JUMPDEST PUSH1 0x40 MLOAD PUSH3 0x461BCD PUSH1 0xE5 SHL DUP2 MSTORE PUSH1 0x20 PUSH1 0x4 DUP3 ADD MSTORE PUSH1 0x1A PUSH1 0x24 DUP3 ADD MSTORE PUSH32 0x4E6F7420617661696C61626C6520666F72207075726368617365000000000000 PUSH1 0x44 DUP3 ADD MSTORE PUSH1 0x64 SWAP1 REVERT JUMPDEST PUSH1 0x40 MLOAD PUSH3 0x461BCD PUSH1 0xE5 SHL DUP2 MSTORE PUSH1 0x20 PUSH1 0x4 DUP3 ADD MSTORE PUSH1 0x12 PUSH1 0x24 DUP3 ADD MSTORE PUSH18 0x4D757374206265204641524D207374616765 PUSH1 0x70 SHL PUSH1 0x44 DUP3 ADD MSTORE PUSH1 0x64 SWAP1 REVERT JUMPDEST PUSH1 0x40 MLOAD PUSH3 0x461BCD PUSH1 0xE5 SHL DUP2 MSTORE PUSH1 0x20 PUSH1 0x4 DUP3 ADD MSTORE PUSH1 0x18 PUSH1 0x24 DUP3 ADD MSTORE PUSH32 0x4F6E6C79206469737472696275746F722063616E206275790000000000000000 PUSH1 0x44 DUP3 ADD MSTORE PUSH1 0x64 SWAP1 REVERT JUMPDEST CALLVALUE PUSH2 0x234 JUMPI PUSH1 0x0 CALLDATASIZE PUSH1 0x3 NOT ADD SLT PUSH2 0x234 JUMPI PUSH1 0x8 SLOAD PUSH1 0x0 PUSH1 0x1 JUMPDEST DUP3 DUP2 GT ISZERO PUSH2 0x31F2 JUMPI POP PUSH2 0x30E8 SWAP1 PUSH2 0x468E JUMP JUMPDEST PUSH1 0x0 SWAP2 PUSH1 0x1 JUMPDEST DUP2 DUP2 GT ISZERO PUSH2 0x3104 JUMPI PUSH1 0x40 MLOAD DUP1 PUSH2 0x295 DUP6 DUP3 PUSH2 0x40C7 JUMP JUMPDEST DUP1 PUSH1 0x0 MSTORE PUSH1 0x5 PUSH1 0x20 MSTORE PUSH1 0xFF PUSH1 0x5 PUSH1 0x40 PUSH1 0x0 KECCAK256 ADD SLOAD AND ISZERO DUP1 PUSH2 0x31D8 JUMPI JUMPDEST PUSH2 0x3133 JUMPI JUMPDEST PUSH2 0x312E SWAP1 PUSH2 0x4668 JUMP JUMPDEST PUSH2 0x30EE JUMP JUMPDEST SWAP2 SWAP1 SWAP3 PUSH1 0x1 SWAP4 PUSH1 0x0 JUMPDEST DUP5 PUSH1 0x0 MSTORE PUSH1 0x5 PUSH1 0x20 MSTORE PUSH1 0x3 PUSH1 0x40 PUSH1 0x0 KECCAK256 ADD SLOAD DUP2 LT ISZERO PUSH2 0x31CE JUMPI DUP5 PUSH1 0x0 MSTORE PUSH1 0x5 PUSH1 0x20 MSTORE PUSH2 0x316F DUP2 PUSH1 0x3 PUSH1 0x40 PUSH1 0x0 KECCAK256 ADD PUSH2 0x415F JUMP JUMPDEST SWAP1 SLOAD SWAP1 PUSH1 0x3 SHL SHR PUSH1 0x0 MSTORE PUSH1 0x3 PUSH1 0x20 MSTORE PUSH1 0xFF PUSH1 0x1 PUSH1 0x40 PUSH1 0x0 KECCAK256 ADD SLOAD PUSH1 0x8 SHR AND PUSH1 0x6 DUP2 LT ISZERO PUSH2 0x95E JUMPI PUSH1 0x2 SUB PUSH2 0x31A5 JUMPI PUSH1 0x1 ADD PUSH2 0x313C JUMP JUMPDEST POP SWAP2 SWAP3 SWAP1 SWAP4 POP PUSH1 0x0 JUMPDEST ISZERO PUSH2 0x3125 JUMPI SWAP3 PUSH2 0x31C6 DUP2 DUP6 PUSH2 0x2E2 PUSH2 0x312E SWAP5 DUP8 PUSH2 0x46C0 JUMP JUMPDEST SWAP4 SWAP1 POP PUSH2 0x3125 JUMP JUMPDEST POP SWAP2 SWAP3 SWAP1 SWAP4 PUSH2 0x31AE JUMP JUMPDEST POP DUP1 PUSH1 0x0 MSTORE PUSH1 0x5 PUSH1 0x20 MSTORE PUSH1 0x3 PUSH1 0x40 PUSH1 0x0 KECCAK256 ADD SLOAD ISZERO ISZERO PUSH2 0x3120 JUMP JUMPDEST DUP1 PUSH1 0x0 MSTORE PUSH1 0x5 PUSH1 0x20 MSTORE PUSH1 0xFF PUSH1 0x5 PUSH1 0x40 PUSH1 0x0 KECCAK256 ADD SLOAD AND ISZERO DUP1 PUSH2 0x32BC JUMPI JUMPDEST PUSH2 0x3221 JUMPI JUMPDEST PUSH2 0x321C SWAP1 PUSH2 0x4668 JUMP JUMPDEST PUSH2 0x30D6 JUMP JUMPDEST SWAP1 PUSH1 0x1 SWAP3 PUSH1 0x0 JUMPDEST DUP4 PUSH1 0x0 MSTORE PUSH1 0x5 PUSH1 0x20 MSTORE PUSH1 0x3 PUSH1 0x40 PUSH1 0x0 KECCAK256 ADD SLOAD DUP2 LT ISZERO PUSH2 0x32B2 JUMPI DUP4 PUSH1 0x0 MSTORE PUSH1 0x5 PUSH1 0x20 MSTORE PUSH2 0x325B DUP2 PUSH1 0x3 PUSH1 0x40 PUSH1 0x0 KECCAK256 ADD PUSH2 0x415F JUMP JUMPDEST SWAP1 SLOAD SWAP1 PUSH1 0x3 SHL SHR PUSH1 0x0 MSTORE PUSH1 0x3 PUSH1 0x20 MSTORE PUSH1 0xFF PUSH1 0x1 PUSH1 0x40 PUSH1 0x0 KECCAK256 ADD SLOAD PUSH1 0x8 SHR AND PUSH1 0x6 DUP2 LT ISZERO PUSH2 0x95E JUMPI PUSH1 0x2 SUB PUSH2 0x3291 JUMPI PUSH1 0x1 ADD PUSH2 0x3228 JUMP JUMPDEST POP SWAP3 POP SWAP1 PUSH1 0x0 JUMPDEST ISZERO PUSH2 0x3213 JUMPI SWAP1 PUSH2 0x32AA PUSH2 0x321C SWAP2 PUSH2 0x4668 JUMP JUMPDEST SWAP2 SWAP1 POP PUSH2 0x3213 JUMP JUMPDEST POP SWAP3 SWAP2 SWAP1 SWAP2 PUSH2 0x3298 JUMP JUMPDEST POP DUP1 PUSH1 0x0 MSTORE PUSH1 0x5 PUSH1 0x20 MSTORE PUSH1 0x3 PUSH1 0x40 PUSH1 0x0 KECCAK256 ADD SLOAD ISZERO ISZERO PUSH2 0x320E JUMP JUMPDEST CALLVALUE PUSH2 0x234 JUMPI PUSH1 0x60 CALLDATASIZE PUSH1 0x3 NOT ADD SLT PUSH2 0x234 JUMPI PUSH1 0x24 CALLDATALOAD PUSH1 0x1 PUSH1 0x1 PUSH1 0xA0 SHL SUB DUP2 AND SWAP1 PUSH1 0x4 CALLDATALOAD SWAP1 DUP3 SWAP1 SUB PUSH2 0x234 JUMPI PUSH1 0x0 SLOAD PUSH1 0x40 MLOAD PUSH4 0x5C975ABB PUSH1 0xE0 SHL DUP2 MSTORE PUSH1 0x44 CALLDATALOAD SWAP2 PUSH1 0x1 PUSH1 0x1 PUSH1 0xA0 SHL SUB AND PUSH1 0x20 DUP3 PUSH1 0x4 DUP2 DUP5 GAS STATICCALL SWAP1 DUP2 ISZERO PUSH2 0x9A3 JUMPI PUSH2 0x3344 PUSH1 0x20 SWAP3 PUSH1 0x24 SWAP5 PUSH1 0x0 SWAP2 PUSH2 0x2C9E JUMPI POP ISZERO PUSH2 0x46EC JUMP JUMPDEST PUSH1 0x40 MLOAD PUSH4 0xDBAC26E9 PUSH1 0xE0 SHL DUP2 MSTORE CALLER PUSH1 0x4 DUP3 ADD MSTORE SWAP3 DUP4 SWAP2 DUP3 SWAP1 GAS STATICCALL DUP1 ISZERO PUSH2 0x9A3 JUMPI PUSH2 0x3376 SWAP2 PUSH1 0x0 SWAP2 PUSH2 0x2C7F JUMPI POP ISZERO PUSH2 0x4728 JUMP JUMPDEST DUP2 PUSH1 0x0 MSTORE PUSH1 0x3 PUSH1 0x20 MSTORE PUSH1 0xFF PUSH1 0x1 PUSH1 0x40 PUSH1 0x0 KECCAK256 ADD SLOAD PUSH1 0x8 SHR AND PUSH1 0x6 DUP2 LT ISZERO PUSH2 0x95E JUMPI PUSH1 0x4 SUB PUSH2 0x351B JUMPI DUP1 ISZERO PUSH2 0x34E3 JUMPI PUSH1 0x0 DUP3 DUP2 MSTORE PUSH1 0x3 PUSH1 0x20 MSTORE PUSH1 0x40 SWAP1 KECCAK256 PUSH1 0x8 DUP2 ADD SLOAD PUSH1 0x12 SWAP1 SWAP2 ADD SLOAD DUP2 SUB SWAP1 DUP2 GT PUSH2 0x1E36 JUMPI DUP2 GT PUSH2 0x34A8 JUMPI DUP2 PUSH1 0x0 MSTORE PUSH1 0x3 PUSH1 0x20 MSTORE PUSH1 0x12 PUSH1 0x40 PUSH1 0x0 KECCAK256 ADD DUP1 SLOAD SWAP2 DUP1 DUP4 ADD DUP1 SWAP4 GT PUSH2 0x1E36 JUMPI SWAP2 SWAP1 SSTORE PUSH1 0x0 DUP3 DUP2 MSTORE PUSH1 0x3 PUSH1 0x20 SWAP1 DUP2 MSTORE PUSH1 0x40 SWAP1 SWAP2 KECCAK256 PUSH1 0x11 DUP2 ADD DUP1 SLOAD PUSH1 0x1 PUSH1 0x1 PUSH1 0xA0 SHL SUB NOT AND DUP7 OR SWAP1 SSTORE PUSH1 0x12 DUP2 ADD SLOAD PUSH1 0x8 SWAP1 SWAP2 ADD SLOAD PUSH32 0xC4E776593902E41E517077B7801B16ABF4AD2B754D62899B59D9DC6846747774 SWAP4 SWAP2 LT ISZERO PUSH2 0x3486 JUMPI JUMPDEST DUP4 PUSH1 0x0 MSTORE PUSH1 0x3 DUP3 MSTORE DUP4 PUSH1 0x0 DUP1 MLOAD PUSH1 0x20 PUSH2 0x4A90 DUP4 CODECOPY DUP2 MLOAD SWAP2 MSTORE DUP4 PUSH1 0xFF PUSH1 0x1 PUSH1 0x40 PUSH1 0x0 KECCAK256 ADD SLOAD PUSH1 0x8 SHR AND PUSH2 0x347C PUSH1 0x40 MLOAD DUP1 SWAP3 PUSH2 0x44A5 JUMP JUMPDEST LOG2 PUSH1 0x40 MLOAD SWAP1 DUP2 MSTORE LOG3 STOP JUMPDEST DUP4 PUSH1 0x0 MSTORE PUSH1 0x3 DUP3 MSTORE PUSH1 0x1 PUSH1 0x40 PUSH1 0x0 KECCAK256 ADD PUSH2 0x500 PUSH2 0xFF00 NOT DUP3 SLOAD AND OR SWAP1 SSTORE PUSH2 0x3447 JUMP JUMPDEST PUSH1 0x40 MLOAD PUSH3 0x461BCD PUSH1 0xE5 SHL DUP2 MSTORE PUSH1 0x20 PUSH1 0x4 DUP3 ADD MSTORE PUSH1 0x13 PUSH1 0x24 DUP3 ADD MSTORE PUSH19 0x4E6F7420656E6F756768207175616E74697479 PUSH1 0x68 SHL PUSH1 0x44 DUP3 ADD MSTORE PUSH1 0x64 SWAP1 REVERT JUMPDEST PUSH1 0x40 MLOAD PUSH3 0x461BCD PUSH1 0xE5 SHL DUP2 MSTORE PUSH1 0x20 PUSH1 0x4 DUP3 ADD MSTORE PUSH1 0x10 PUSH1 0x24 DUP3 ADD MSTORE PUSH16 0x496E76616C6964207175616E74697479 PUSH1 0x80 SHL PUSH1 0x44 DUP3 ADD MSTORE PUSH1 0x64 SWAP1 REVERT JUMPDEST PUSH1 0x40 MLOAD PUSH3 0x461BCD PUSH1 0xE5 SHL DUP2 MSTORE PUSH1 0x20 PUSH1 0x4 DUP3 ADD MSTORE PUSH1 0xE PUSH1 0x24 DUP3 ADD MSTORE PUSH14 0x135D5CDD081899481B1A5CDD1959 PUSH1 0x92 SHL PUSH1 0x44 DUP3 ADD MSTORE PUSH1 0x64 SWAP1 REVERT JUMPDEST CALLVALUE PUSH2 0x234 JUMPI PUSH1 0x0 CALLDATASIZE PUSH1 0x3 NOT ADD SLT PUSH2 0x234 JUMPI PUSH1 0x20 PUSH1 0x40 MLOAD PUSH1 0x5 DUP2 MSTORE RETURN JUMPDEST CALLVALUE PUSH2 0x234 JUMPI PUSH1 0x20 CALLDATASIZE PUSH1 0x3 NOT ADD SLT PUSH2 0x234 JUMPI PUSH1 0x1 PUSH1 0x1 PUSH1 0xA0 SHL SUB PUSH2 0x358E PUSH2 0x4101 JUMP JUMPDEST AND PUSH1 0x0 MSTORE PUSH1 0x11 PUSH1 0x20 MSTORE PUSH2 0x295 PUSH2 0x35A7 PUSH1 0x40 PUSH1 0x0 KECCAK256 PUSH2 0x4292 JUMP JUMPDEST PUSH1 0x40 MLOAD SWAP2 DUP3 SWAP2 PUSH1 0x20 DUP4 MSTORE PUSH1 0x20 DUP4 ADD SWAP1 PUSH2 0x4336 JUMP JUMPDEST CALLVALUE PUSH2 0x234 JUMPI PUSH1 0x40 CALLDATASIZE PUSH1 0x3 NOT ADD SLT PUSH2 0x234 JUMPI PUSH2 0x35D4 PUSH2 0x4101 JUMP JUMPDEST PUSH1 0x24 CALLDATALOAD PUSH1 0x5 DUP2 LT ISZERO PUSH2 0x234 JUMPI CALLER PUSH1 0x0 MSTORE PUSH1 0x1 PUSH1 0x20 MSTORE PUSH1 0xFF PUSH1 0x40 PUSH1 0x0 KECCAK256 SLOAD AND PUSH1 0x5 DUP2 LT ISZERO PUSH2 0x95E JUMPI PUSH1 0x4 SUB PUSH2 0x379B JUMPI PUSH1 0x1 PUSH1 0x1 PUSH1 0xA0 SHL SUB DUP3 AND PUSH1 0x0 SWAP1 DUP2 MSTORE PUSH1 0x1 PUSH1 0x20 MSTORE PUSH1 0x40 SWAP1 KECCAK256 PUSH2 0x3624 SWAP2 SWAP1 PUSH2 0x47AC JUMP JUMPDEST PUSH1 0x1 PUSH1 0x1 PUSH1 0xA0 SHL SUB DUP2 AND PUSH1 0x0 SWAP1 DUP2 MSTORE PUSH32 0xFD54FF1ED53F34A900B24C5BA64F85761163B5D82D98A47B9BD80E45466993C5 PUSH1 0x20 MSTORE PUSH1 0x40 SWAP1 KECCAK256 SLOAD ISZERO PUSH2 0x375B JUMPI JUMPDEST PUSH1 0x1 PUSH1 0x1 PUSH1 0xA0 SHL SUB DUP2 AND PUSH1 0x0 SWAP1 DUP2 MSTORE PUSH32 0x10A81EED9D63D16FACE5E76357905348E6253D3394086026BB2BF2145D7CC249 PUSH1 0x20 MSTORE PUSH1 0x40 SWAP1 KECCAK256 SLOAD ISZERO PUSH2 0x371B JUMPI JUMPDEST PUSH1 0x1 PUSH1 0x1 PUSH1 0xA0 SHL SUB DUP2 AND PUSH1 0x0 SWAP1 DUP2 MSTORE PUSH32 0x26B4A10D0F0B04925C23BD4480EE147C916E5E87A7D68206A533DAD160AC81E2 PUSH1 0x20 MSTORE PUSH1 0x40 SWAP1 KECCAK256 SLOAD ISZERO PUSH2 0x36DF JUMPI STOP JUMPDEST PUSH1 0x1 PUSH1 0x1 PUSH1 0xA0 SHL SUB AND PUSH1 0x0 SWAP1 DUP2 MSTORE PUSH32 0x26B4A10D0F0B04925C23BD4480EE147C916E5E87A7D68206A533DAD160AC81E2 PUSH1 0x20 MSTORE PUSH1 0x40 SWAP1 KECCAK256 PUSH1 0x32 SWAP1 SSTORE STOP JUMPDEST PUSH1 0x1 PUSH1 0x1 PUSH1 0xA0 SHL SUB DUP2 AND PUSH1 0x0 SWAP1 DUP2 MSTORE PUSH32 0x10A81EED9D63D16FACE5E76357905348E6253D3394086026BB2BF2145D7CC249 PUSH1 0x20 MSTORE PUSH1 0x40 SWAP1 KECCAK256 PUSH1 0x32 SWAP1 SSTORE PUSH2 0x36A0 JUMP JUMPDEST PUSH1 0x1 PUSH1 0x1 PUSH1 0xA0 SHL SUB DUP2 AND PUSH1 0x0 SWAP1 DUP2 MSTORE PUSH32 0xFD54FF1ED53F34A900B24C5BA64F85761163B5D82D98A47B9BD80E45466993C5 PUSH1 0x20 MSTORE PUSH1 0x40 SWAP1 KECCAK256 PUSH1 0x32 SWAP1 SSTORE PUSH2 0x3662 JUMP JUMPDEST PUSH1 0x40 MLOAD PUSH3 0x461BCD PUSH1 0xE5 SHL DUP2 MSTORE PUSH1 0x20 PUSH1 0x4 DUP3 ADD MSTORE PUSH1 0xA PUSH1 0x24 DUP3 ADD MSTORE PUSH10 0x27B7363C9030B236B4B7 PUSH1 0xB1 SHL PUSH1 0x44 DUP3 ADD MSTORE PUSH1 0x64 SWAP1 REVERT JUMPDEST CALLVALUE PUSH2 0x234 JUMPI PUSH1 0x40 CALLDATASIZE PUSH1 0x3 NOT ADD SLT PUSH2 0x234 JUMPI PUSH2 0x37E6 PUSH2 0x4101 JUMP JUMPDEST PUSH1 0x1 PUSH1 0x1 PUSH1 0xA0 SHL SUB AND PUSH1 0x0 SWAP1 DUP2 MSTORE PUSH1 0xB PUSH1 0x20 MSTORE PUSH1 0x40 SWAP1 KECCAK256 DUP1 SLOAD PUSH1 0x24 CALLDATALOAD SWAP2 SWAP1 DUP3 LT ISZERO PUSH2 0x234 JUMPI PUSH1 0x20 SWAP2 PUSH2 0x2D05 SWAP2 PUSH2 0x415F JUMP JUMPDEST CALLVALUE PUSH2 0x234 JUMPI PUSH1 0x0 CALLDATASIZE PUSH1 0x3 NOT ADD SLT PUSH2 0x234 JUMPI PUSH1 0x20 PUSH1 0x4 SLOAD PUSH1 0x40 MLOAD SWAP1 DUP2 MSTORE RETURN JUMPDEST CALLVALUE PUSH2 0x234 JUMPI PUSH1 0x40 CALLDATASIZE PUSH1 0x3 NOT ADD SLT PUSH2 0x234 JUMPI PUSH2 0x384E PUSH2 0x4101 JUMP JUMPDEST PUSH1 0x1 PUSH1 0x1 PUSH1 0xA0 SHL SUB AND PUSH1 0x0 SWAP1 DUP2 MSTORE PUSH1 0x7 PUSH1 0x20 MSTORE PUSH1 0x40 SWAP1 KECCAK256 DUP1 SLOAD PUSH1 0x24 CALLDATALOAD SWAP2 SWAP1 DUP3 LT ISZERO PUSH2 0x234 JUMPI PUSH1 0x20 SWAP2 PUSH2 0x2D05 SWAP2 PUSH2 0x415F JUMP JUMPDEST CALLVALUE PUSH2 0x234 JUMPI PUSH1 0x40 CALLDATASIZE PUSH1 0x3 NOT ADD SLT PUSH2 0x234 JUMPI PUSH1 0x4 CALLDATALOAD PUSH1 0x24 CALLDATALOAD PUSH1 0x1 PUSH1 0x1 PUSH1 0x40 SHL SUB DUP2 GT PUSH2 0x234 JUMPI PUSH2 0x38B2 SWAP1 CALLDATASIZE SWAP1 PUSH1 0x4 ADD PUSH2 0x419A JUMP JUMPDEST PUSH1 0x0 SLOAD PUSH1 0x40 MLOAD PUSH4 0x5C975ABB PUSH1 0xE0 SHL DUP2 MSTORE SWAP2 SWAP4 SWAP2 SWAP1 PUSH1 0x1 PUSH1 0x1 PUSH1 0xA0 SHL SUB AND PUSH1 0x20 DUP3 PUSH1 0x4 DUP2 DUP5 GAS STATICCALL SWAP1 DUP2 ISZERO PUSH2 0x9A3 JUMPI PUSH2 0x38F6 PUSH1 0x20 SWAP3 PUSH1 0x24 SWAP5 PUSH1 0x0 SWAP2 PUSH2 0x2C9E JUMPI POP ISZERO PUSH2 0x46EC JUMP JUMPDEST PUSH1 0x40 MLOAD PUSH4 0xDBAC26E9 PUSH1 0xE0 SHL DUP2 MSTORE CALLER PUSH1 0x4 DUP3 ADD MSTORE SWAP3 DUP4 SWAP2 DUP3 SWAP1 GAS STATICCALL DUP1 ISZERO PUSH2 0x9A3 JUMPI PUSH2 0x3928 SWAP2 PUSH1 0x0 SWAP2 PUSH2 0x2C7F JUMPI POP ISZERO PUSH2 0x4728 JUMP JUMPDEST CALLER PUSH1 0x0 MSTORE PUSH1 0x1 PUSH1 0x20 MSTORE PUSH1 0xFF PUSH1 0x40 PUSH1 0x0 KECCAK256 SLOAD AND PUSH1 0x5 DUP2 LT ISZERO PUSH2 0x95E JUMPI PUSH1 0x3 SUB PUSH2 0x3D40 JUMPI DUP1 PUSH1 0x0 MSTORE PUSH1 0x5 PUSH1 0x20 MSTORE PUSH1 0xFF PUSH1 0x5 PUSH1 0x40 PUSH1 0x0 KECCAK256 ADD SLOAD AND PUSH2 0x3D07 JUMPI DUP1 PUSH1 0x0 MSTORE PUSH1 0x5 PUSH1 0x20 MSTORE DUP3 PUSH1 0x3 PUSH1 0x40 PUSH1 0x0 KECCAK256 ADD SLOAD SUB PUSH2 0x3CD1 JUMPI PUSH1 0x0 DUP2 DUP2 MSTORE PUSH1 0x5 PUSH1 0x20 MSTORE PUSH1 0x40 DUP2 KECCAK256 PUSH1 0x1 ADD SLOAD PUSH1 0x1 PUSH1 0x1 PUSH1 0xA0 SHL SUB AND SWAP3 SWAP1 JUMPDEST DUP3 PUSH1 0x0 MSTORE PUSH1 0x5 PUSH1 0x20 MSTORE PUSH1 0x3 PUSH1 0x40 PUSH1 0x0 KECCAK256 ADD SLOAD DUP2 LT ISZERO PUSH2 0x3A9C JUMPI DUP3 PUSH1 0x0 MSTORE PUSH1 0x5 PUSH1 0x20 MSTORE PUSH2 0x39CC DUP2 PUSH1 0x3 PUSH1 0x40 PUSH1 0x0 KECCAK256 ADD PUSH2 0x415F JUMP JUMPDEST SWAP1 SLOAD SWAP1 PUSH1 0x3 SHL SHR DUP1 PUSH1 0x0 MSTORE PUSH1 0x3 PUSH1 0x20 MSTORE PUSH1 0xFF PUSH1 0x1 PUSH1 0x40 PUSH1 0x0 KECCAK256 ADD SLOAD PUSH1 0x8 SHR AND PUSH1 0x6 DUP2 LT ISZERO PUSH2 0x95E JUMPI PUSH1 0x2 SUB PUSH2 0x3A60 JUMPI PUSH1 0x0 SWAP1 DUP2 MSTORE PUSH1 0x3 PUSH1 0x20 MSTORE PUSH1 0x40 SWAP1 KECCAK256 PUSH1 0x9 ADD SLOAD PUSH1 0x1 PUSH1 0x1 PUSH1 0xA0 SHL SUB AND DUP5 SWAP1 SUB PUSH2 0x3A25 JUMPI PUSH1 0x1 ADD PUSH2 0x3999 JUMP JUMPDEST PUSH1 0x40 MLOAD PUSH3 0x461BCD PUSH1 0xE5 SHL DUP2 MSTORE PUSH1 0x20 PUSH1 0x4 DUP3 ADD MSTORE PUSH1 0x13 PUSH1 0x24 DUP3 ADD MSTORE PUSH19 0x24B73B30B634B2103234B9BA3934B13ABA37B9 PUSH1 0x69 SHL PUSH1 0x44 DUP3 ADD MSTORE PUSH1 0x64 SWAP1 REVERT JUMPDEST PUSH1 0x40 MLOAD PUSH3 0x461BCD PUSH1 0xE5 SHL DUP2 MSTORE PUSH1 0x20 PUSH1 0x4 DUP3 ADD MSTORE PUSH1 0x14 PUSH1 0x24 DUP3 ADD MSTORE PUSH20 0x141C9BD91D58DD081B9BDD081D995C9A599A5959 PUSH1 0x62 SHL PUSH1 0x44 DUP3 ADD MSTORE PUSH1 0x64 SWAP1 REVERT JUMPDEST POP PUSH1 0x0 DUP3 DUP2 MSTORE PUSH1 0x5 PUSH1 0x20 DUP2 DUP2 MSTORE PUSH1 0x40 DUP1 DUP5 KECCAK256 PUSH1 0x2 DUP2 ADD DUP1 SLOAD PUSH1 0x1 PUSH1 0x1 PUSH1 0xA0 SHL SUB NOT AND CALLER SWAP1 DUP2 OR SWAP1 SWAP2 SSTORE SWAP4 ADD DUP1 SLOAD PUSH1 0xFF NOT AND PUSH1 0x1 OR SWAP1 SSTORE SWAP2 DUP4 MSTORE PUSH1 0x7 SWAP1 MSTORE SWAP1 KECCAK256 SWAP3 SWAP4 SWAP2 SWAP3 SWAP1 SWAP2 SWAP1 PUSH2 0x3AED SWAP1 DUP5 SWAP1 PUSH2 0x4767 JUMP JUMPDEST PUSH1 0x40 DUP1 MLOAD DUP5 DUP2 MSTORE CALLER PUSH1 0x20 DUP3 ADD MSTORE PUSH32 0xD435A59C16541CA81ADF6CDFE8991CC9C87D2475A457EF2876460222A63D8257 SWAP2 SWAP1 LOG1 CALLER SWAP4 PUSH1 0x1 PUSH1 0x1 PUSH1 0xA0 SHL SUB DUP2 AND SWAP3 SWAP1 PUSH1 0x0 JUMPDEST DUP6 PUSH1 0x0 MSTORE PUSH1 0x5 PUSH1 0x20 MSTORE PUSH1 0x3 PUSH1 0x40 PUSH1 0x0 KECCAK256 ADD SLOAD DUP2 LT ISZERO PUSH2 0x1E08 JUMPI PUSH1 0x1 SWAP1 DUP7 PUSH1 0x0 MSTORE PUSH1 0x5 PUSH1 0x20 MSTORE PUSH2 0x3B65 DUP2 PUSH1 0x3 PUSH1 0x40 PUSH1 0x0 KECCAK256 ADD PUSH2 0x415F JUMP JUMPDEST SWAP1 SLOAD PUSH1 0x3 SWAP2 DUP3 SHL SHR PUSH1 0x0 DUP2 DUP2 MSTORE PUSH1 0x20 SWAP3 SWAP1 SWAP3 MSTORE PUSH1 0x40 SWAP1 SWAP2 KECCAK256 DUP4 DUP2 ADD DUP1 SLOAD PUSH2 0xFFFF NOT AND PUSH2 0x102 OR SWAP1 SSTORE PUSH1 0xD ADD DUP1 SLOAD PUSH1 0x1 PUSH1 0x1 PUSH1 0xA0 SHL SUB NOT AND DUP11 OR SWAP1 SSTORE PUSH2 0x3BAB DUP3 DUP8 DUP8 PUSH2 0x479C JUMP JUMPDEST PUSH1 0x0 DUP3 DUP2 MSTORE PUSH1 0x3 PUSH1 0x20 MSTORE PUSH1 0x40 SWAP1 KECCAK256 SWAP1 CALLDATALOAD PUSH1 0xE DUP3 ADD SSTORE TIMESTAMP PUSH1 0xF SWAP1 SWAP2 ADD SSTORE PUSH1 0x9 SLOAD PUSH2 0x3BD3 SWAP1 PUSH2 0x4668 JUMP JUMPDEST PUSH1 0x9 DUP2 DUP2 SSTORE PUSH1 0x0 DUP4 DUP2 MSTORE PUSH1 0x3 PUSH1 0x20 DUP2 DUP2 MSTORE PUSH1 0x40 DUP1 DUP5 KECCAK256 PUSH1 0x17 ADD DUP7 SWAP1 SSTORE DUP6 DUP5 MSTORE PUSH1 0xA SWAP1 SWAP2 MSTORE DUP1 DUP4 KECCAK256 SWAP5 DUP6 SSTORE SWAP4 DUP8 ADD DUP1 SLOAD PUSH1 0x1 PUSH1 0x1 PUSH1 0xA0 SHL SUB NOT SWAP1 DUP2 AND DUP14 OR SWAP1 SWAP2 SSTORE DUP4 SLOAD DUP4 MSTORE DUP5 DUP4 KECCAK256 PUSH1 0x2 ADD DUP1 SLOAD SWAP1 SWAP2 AND DUP15 OR SWAP1 SSTORE DUP3 SLOAD DUP3 MSTORE DUP4 DUP3 KECCAK256 ADD DUP5 SWAP1 SSTORE SWAP1 SLOAD DUP2 MSTORE KECCAK256 PUSH1 0x4 ADD DUP9 SWAP1 SSTORE PUSH2 0x3C47 DUP3 DUP8 DUP8 PUSH2 0x479C JUMP JUMPDEST CALLDATALOAD PUSH1 0x9 SLOAD PUSH1 0x0 MSTORE PUSH1 0xA PUSH1 0x20 MSTORE PUSH1 0x5 PUSH1 0x40 PUSH1 0x0 KECCAK256 ADD SSTORE PUSH1 0x9 SLOAD PUSH1 0x0 MSTORE PUSH1 0xA PUSH1 0x20 MSTORE TIMESTAMP PUSH1 0x6 PUSH1 0x40 PUSH1 0x0 KECCAK256 ADD SSTORE CALLER PUSH1 0x0 MSTORE PUSH1 0xC PUSH1 0x20 MSTORE PUSH2 0x3C8B PUSH1 0x40 PUSH1 0x0 KECCAK256 PUSH1 0x9 SLOAD SWAP1 PUSH2 0x4767 JUMP JUMPDEST PUSH1 0x0 DUP1 MLOAD PUSH1 0x20 PUSH2 0x4A90 DUP4 CODECOPY DUP2 MLOAD SWAP2 MSTORE PUSH1 0x20 PUSH1 0x40 MLOAD DUP7 CALLER DUP6 PUSH32 0x405B8E92032184041314DCDDF305E0D97D13B103D3FA162EB2B1C760760BDC0A PUSH1 0x0 DUP1 LOG4 DUP6 DUP2 MSTORE LOG2 ADD PUSH2 0x3B2F JUMP JUMPDEST PUSH1 0x40 MLOAD PUSH3 0x461BCD PUSH1 0xE5 SHL DUP2 MSTORE PUSH1 0x20 PUSH1 0x4 DUP3 ADD MSTORE PUSH1 0xE PUSH1 0x24 DUP3 ADD MSTORE PUSH14 0xA0E4D2C6CA40DAD2E6DAC2E8C6D PUSH1 0x93 SHL PUSH1 0x44 DUP3 ADD MSTORE PUSH1 0x64 SWAP1 REVERT JUMPDEST PUSH1 0x40 MLOAD PUSH3 0x461BCD PUSH1 0xE5 SHL DUP2 MSTORE PUSH1 0x20 PUSH1 0x4 DUP3 ADD MSTORE PUSH1 0x11 PUSH1 0x24 DUP3 ADD MSTORE PUSH17 0x105B1C9958591E481C1D5C98DA185CD959 PUSH1 0x7A SHL PUSH1 0x44 DUP3 ADD MSTORE PUSH1 0x64 SWAP1 REVERT JUMPDEST PUSH1 0x40 MLOAD PUSH3 0x461BCD PUSH1 0xE5 SHL DUP2 MSTORE PUSH1 0x20 PUSH1 0x4 DUP3 ADD MSTORE PUSH1 0x15 PUSH1 0x24 DUP3 ADD MSTORE PUSH21 0x4F6E6C792072657461696C65722063616E20627579 PUSH1 0x58 SHL PUSH1 0x44 DUP3 ADD MSTORE PUSH1 0x64 SWAP1 REVERT JUMPDEST CALLVALUE PUSH2 0x234 JUMPI PUSH1 0x40 CALLDATASIZE PUSH1 0x3 NOT ADD SLT PUSH2 0x234 JUMPI PUSH2 0x3D96 PUSH2 0x4101 JUMP JUMPDEST PUSH1 0x1 PUSH1 0x1 PUSH1 0xA0 SHL SUB AND PUSH1 0x0 SWAP1 DUP2 MSTORE PUSH1 0x6 PUSH1 0x20 MSTORE PUSH1 0x40 SWAP1 KECCAK256 DUP1 SLOAD PUSH1 0x24 CALLDATALOAD SWAP2 SWAP1 DUP3 LT ISZERO PUSH2 0x234 JUMPI PUSH1 0x20 SWAP2 PUSH2 0x2D05 SWAP2 PUSH2 0x415F JUMP JUMPDEST CALLVALUE PUSH2 0x234 JUMPI PUSH1 0x20 CALLDATASIZE PUSH1 0x3 NOT ADD SLT PUSH2 0x234 JUMPI PUSH1 0x0 PUSH1 0xC0 PUSH1 0x40 MLOAD PUSH2 0x3DE8 DUP2 PUSH2 0x4204 JUMP JUMPDEST DUP3 DUP2 MSTORE DUP3 PUSH1 0x20 DUP3 ADD MSTORE DUP3 PUSH1 0x40 DUP3 ADD MSTORE DUP3 PUSH1 0x60 DUP3 ADD MSTORE DUP3 PUSH1 0x80 DUP3 ADD MSTORE DUP3 PUSH1 0xA0 DUP3 ADD MSTORE ADD MSTORE PUSH1 0x4 CALLDATALOAD PUSH1 0x0 MSTORE PUSH1 0xA PUSH1 0x20 MSTORE PUSH1 0xE0 PUSH1 0x40 PUSH1 0x0 KECCAK256 PUSH1 0x40 MLOAD PUSH2 0x3E29 DUP2 PUSH2 0x4204 JUMP JUMPDEST DUP2 SLOAD SWAP2 DUP3 DUP3 MSTORE PUSH1 0x1 DUP1 PUSH1 0xA0 SHL SUB PUSH1 0x1 DUP3 ADD SLOAD AND PUSH1 0x20 DUP4 ADD SWAP1 DUP2 MSTORE PUSH1 0x1 DUP1 PUSH1 0xA0 SHL SUB PUSH1 0x2 DUP4 ADD SLOAD AND PUSH1 0x40 DUP5 ADD SWAP1 DUP2 MSTORE PUSH1 0x3 DUP4 ADD SLOAD SWAP1 PUSH1 0x60 DUP6 ADD SWAP2 DUP3 MSTORE PUSH1 0x4 DUP5 ADD SLOAD SWAP3 PUSH1 0x80 DUP7 ADD SWAP4 DUP5 MSTORE PUSH1 0xC0 PUSH1 0x6 PUSH1 0x5 DUP8 ADD SLOAD SWAP7 PUSH1 0xA0 DUP10 ADD SWAP8 DUP9 MSTORE ADD SLOAD SWAP7 ADD SWAP6 DUP7 MSTORE PUSH1 0x40 MLOAD SWAP7 DUP8 MSTORE PUSH1 0x1 DUP1 PUSH1 0xA0 SHL SUB SWAP1 MLOAD AND PUSH1 0x20 DUP8 ADD MSTORE PUSH1 0x1 DUP1 PUSH1 0xA0 SHL SUB SWAP1 MLOAD AND PUSH1 0x40 DUP7 ADD MSTORE MLOAD PUSH1 0x60 DUP6 ADD MSTORE MLOAD PUSH1 0x80 DUP5 ADD MSTORE MLOAD PUSH1 0xA0 DUP4 ADD MSTORE MLOAD PUSH1 0xC0 DUP3 ADD MSTORE RETURN JUMPDEST CALLVALUE PUSH2 0x234 JUMPI PUSH1 0x40 CALLDATASIZE PUSH1 0x3 NOT ADD SLT PUSH2 0x234 JUMPI PUSH2 0x3EE0 PUSH2 0x4101 JUMP JUMPDEST PUSH1 0x1 PUSH1 0x1 PUSH1 0xA0 SHL SUB AND PUSH1 0x0 SWAP1 DUP2 MSTORE PUSH1 0xC PUSH1 0x20 MSTORE PUSH1 0x40 SWAP1 KECCAK256 DUP1 SLOAD PUSH1 0x24 CALLDATALOAD SWAP2 SWAP1 DUP3 LT ISZERO PUSH2 0x234 JUMPI PUSH1 0x20 SWAP2 PUSH2 0x2D05 SWAP2 PUSH2 0x415F JUMP JUMPDEST CALLVALUE PUSH2 0x234 JUMPI PUSH2 0x3F29 PUSH2 0x3F22 CALLDATASIZE PUSH2 0x4117 JUMP JUMPDEST SWAP2 SWAP1 PUSH2 0x4146 JUMP JUMPDEST SWAP1 PUSH1 0x1 DUP1 PUSH1 0xA0 SHL SUB AND PUSH1 0x0 MSTORE PUSH1 0x20 MSTORE PUSH1 0x20 PUSH1 0x40 PUSH1 0x0 KECCAK256 SLOAD PUSH1 0x40 MLOAD SWAP1 DUP2 MSTORE RETURN JUMPDEST CALLVALUE PUSH2 0x234 JUMPI PUSH1 0x0 CALLDATASIZE PUSH1 0x3 NOT ADD SLT PUSH2 0x234 JUMPI PUSH1 0x4 SLOAD PUSH1 0x0 PUSH1 0x1 JUMPDEST DUP3 DUP2 GT ISZERO PUSH2 0x402E JUMPI POP PUSH2 0x3F73 SWAP1 PUSH2 0x468E JUMP JUMPDEST PUSH1 0x0 SWAP2 PUSH1 0x1 JUMPDEST DUP2 DUP2 GT ISZERO PUSH2 0x3F8F JUMPI PUSH1 0x40 MLOAD DUP1 PUSH2 0x295 DUP6 DUP3 PUSH2 0x40C7 JUMP JUMPDEST DUP1 PUSH1 0x0 MSTORE PUSH1 0x3 PUSH1 0x20 MSTORE PUSH1 0xFF PUSH1 0x1 PUSH1 0x40 PUSH1 0x0 KECCAK256 ADD SLOAD AND PUSH1 0x3 DUP2 LT ISZERO PUSH2 0x95E JUMPI ISZERO DUP1 PUSH2 0x4006 JUMPI JUMPDEST DUP1 PUSH2 0x3FE8 JUMPI JUMPDEST PUSH2 0x3FCD JUMPI JUMPDEST PUSH2 0x3FC8 SWAP1 PUSH2 0x4668 JUMP JUMPDEST PUSH2 0x3F79 JUMP JUMPDEST SWAP3 PUSH2 0x3FE0 DUP2 DUP6 PUSH2 0x2E2 PUSH2 0x3FC8 SWAP5 DUP8 PUSH2 0x46C0 JUMP JUMPDEST SWAP4 SWAP1 POP PUSH2 0x3FBF JUMP JUMPDEST POP DUP1 PUSH1 0x0 MSTORE PUSH1 0x3 PUSH1 0x20 MSTORE PUSH1 0xFF PUSH1 0x1 PUSH1 0x40 PUSH1 0x0 KECCAK256 ADD SLOAD PUSH1 0x18 SHR AND PUSH2 0x3FBA JUMP JUMPDEST POP DUP1 PUSH1 0x0 MSTORE PUSH1 0x3 PUSH1 0x20 MSTORE PUSH1 0xFF PUSH1 0x1 PUSH1 0x40 PUSH1 0x0 KECCAK256 ADD SLOAD PUSH1 0x8 SHR AND PUSH1 0x6 DUP2 LT ISZERO PUSH2 0x95E JUMPI ISZERO PUSH2 0x3FB4 JUMP JUMPDEST DUP1 PUSH1 0x0 MSTORE PUSH1 0x3 PUSH1 0x20 MSTORE PUSH1 0xFF PUSH1 0x1 PUSH1 0x40 PUSH1 0x0 KECCAK256 ADD SLOAD AND PUSH1 0x3 DUP2 LT ISZERO PUSH2 0x95E JUMPI ISZERO DUP1 PUSH2 0x409F JUMPI JUMPDEST DUP1 PUSH2 0x4081 JUMPI JUMPDEST PUSH2 0x406C JUMPI JUMPDEST PUSH2 0x4067 SWAP1 PUSH2 0x4668 JUMP JUMPDEST PUSH2 0x3F61 JUMP JUMPDEST SWAP1 PUSH2 0x4079 PUSH2 0x4067 SWAP2 PUSH2 0x4668 JUMP JUMPDEST SWAP2 SWAP1 POP PUSH2 0x405E JUMP JUMPDEST POP DUP1 PUSH1 0x0 MSTORE PUSH1 0x3 PUSH1 0x20 MSTORE PUSH1 0xFF PUSH1 0x1 PUSH1 0x40 PUSH1 0x0 KECCAK256 ADD SLOAD PUSH1 0x18 SHR AND PUSH2 0x4059 JUMP JUMPDEST POP DUP1 PUSH1 0x0 MSTORE PUSH1 0x3 PUSH1 0x20 MSTORE PUSH1 0xFF PUSH1 0x1 PUSH1 0x40 PUSH1 0x0 KECCAK256 ADD SLOAD PUSH1 0x8 SHR AND PUSH1 0x6 DUP2 LT ISZERO PUSH2 0x95E JUMPI ISZERO PUSH2 0x4053 JUMP JUMPDEST PUSH1 0x20 PUSH1 0x40 DUP2 DUP4 ADD SWAP3 DUP3 DUP2 MSTORE DUP5 MLOAD DUP1 SWAP5 MSTORE ADD SWAP3 ADD SWAP1 PUSH1 0x0 JUMPDEST DUP2 DUP2 LT PUSH2 0x40EB JUMPI POP POP POP SWAP1 JUMP JUMPDEST DUP3 MLOAD DUP5 MSTORE PUSH1 0x20 SWAP4 DUP5 ADD SWAP4 SWAP1 SWAP3 ADD SWAP2 PUSH1 0x1 ADD PUSH2 0x40DE JUMP JUMPDEST PUSH1 0x4 CALLDATALOAD SWAP1 PUSH1 0x1 PUSH1 0x1 PUSH1 0xA0 SHL SUB DUP3 AND DUP3 SUB PUSH2 0x234 JUMPI JUMP JUMPDEST PUSH1 0x40 SWAP1 PUSH1 0x3 NOT ADD SLT PUSH2 0x234 JUMPI PUSH1 0x4 CALLDATALOAD PUSH1 0x5 DUP2 LT ISZERO PUSH2 0x234 JUMPI SWAP1 PUSH1 0x24 CALLDATALOAD PUSH1 0x1 PUSH1 0x1 PUSH1 0xA0 SHL SUB DUP2 AND DUP2 SUB PUSH2 0x234 JUMPI SWAP1 JUMP JUMPDEST PUSH1 0x5 DUP2 LT ISZERO PUSH2 0x95E JUMPI PUSH1 0x0 MSTORE PUSH1 0xD PUSH1 0x20 MSTORE PUSH1 0x40 PUSH1 0x0 KECCAK256 SWAP1 JUMP JUMPDEST DUP1 SLOAD DUP3 LT ISZERO PUSH2 0x4177 JUMPI PUSH1 0x0 MSTORE PUSH1 0x20 PUSH1 0x0 KECCAK256 ADD SWAP1 PUSH1 0x0 SWAP1 JUMP JUMPDEST PUSH4 0x4E487B71 PUSH1 0xE0 SHL PUSH1 0x0 MSTORE PUSH1 0x32 PUSH1 0x4 MSTORE PUSH1 0x24 PUSH1 0x0 REVERT JUMPDEST SWAP1 PUSH1 0x5 DUP3 LT ISZERO PUSH2 0x95E JUMPI MSTORE JUMP JUMPDEST SWAP2 DUP2 PUSH1 0x1F DUP5 ADD SLT ISZERO PUSH2 0x234 JUMPI DUP3 CALLDATALOAD SWAP2 PUSH1 0x1 PUSH1 0x1 PUSH1 0x40 SHL SUB DUP4 GT PUSH2 0x234 JUMPI PUSH1 0x20 DUP1 DUP6 ADD SWAP5 DUP5 PUSH1 0x5 SHL ADD ADD GT PUSH2 0x234 JUMPI JUMP JUMPDEST SWAP1 PUSH1 0x1 DUP3 DUP2 SHR SWAP3 AND DUP1 ISZERO PUSH2 0x41FA JUMPI JUMPDEST PUSH1 0x20 DUP4 LT EQ PUSH2 0x41E4 JUMPI JUMP JUMPDEST PUSH4 0x4E487B71 PUSH1 0xE0 SHL PUSH1 0x0 MSTORE PUSH1 0x22 PUSH1 0x4 MSTORE PUSH1 0x24 PUSH1 0x0 REVERT JUMPDEST SWAP2 PUSH1 0x7F AND SWAP2 PUSH2 0x41D9 JUMP JUMPDEST PUSH1 0xE0 DUP2 ADD SWAP1 DUP2 LT PUSH1 0x1 PUSH1 0x1 PUSH1 0x40 SHL SUB DUP3 GT OR PUSH2 0x834 JUMPI PUSH1 0x40 MSTORE JUMP JUMPDEST PUSH1 0xC0 DUP2 ADD SWAP1 DUP2 LT PUSH1 0x1 PUSH1 0x1 PUSH1 0x40 SHL SUB DUP3 GT OR PUSH2 0x834 JUMPI PUSH1 0x40 MSTORE JUMP JUMPDEST PUSH2 0x1A0 DUP2 ADD SWAP1 DUP2 LT PUSH1 0x1 PUSH1 0x1 PUSH1 0x40 SHL SUB DUP3 GT OR PUSH2 0x834 JUMPI PUSH1 0x40 MSTORE JUMP JUMPDEST PUSH1 0x80 DUP2 ADD SWAP1 DUP2 LT PUSH1 0x1 PUSH1 0x1 PUSH1 0x40 SHL SUB DUP3 GT OR PUSH2 0x834 JUMPI PUSH1 0x40 MSTORE JUMP JUMPDEST SWAP1 PUSH1 0x1F DUP1 NOT SWAP2 ADD AND DUP2 ADD SWAP1 DUP2 LT PUSH1 0x1 PUSH1 0x1 PUSH1 0x40 SHL SUB DUP3 GT OR PUSH2 0x834 JUMPI PUSH1 0x40 MSTORE JUMP JUMPDEST SWAP1 PUSH1 0x40 MLOAD SWAP2 DUP3 PUSH1 0x0 DUP3 SLOAD SWAP3 PUSH2 0x42A6 DUP5 PUSH2 0x41CA JUMP JUMPDEST DUP1 DUP5 MSTORE SWAP4 PUSH1 0x1 DUP2 AND SWAP1 DUP2 ISZERO PUSH2 0x4314 JUMPI POP PUSH1 0x1 EQ PUSH2 0x42CD JUMPI JUMPDEST POP PUSH2 0x42CB SWAP3 POP SUB DUP4 PUSH2 0x4271 JUMP JUMPDEST JUMP JUMPDEST SWAP1 POP PUSH1 0x0 SWAP3 SWAP2 SWAP3 MSTORE PUSH1 0x20 PUSH1 0x0 KECCAK256 SWAP1 PUSH1 0x0 SWAP2 JUMPDEST DUP2 DUP4 LT PUSH2 0x42F8 JUMPI POP POP SWAP1 PUSH1 0x20 PUSH2 0x42CB SWAP3 DUP3 ADD ADD CODESIZE PUSH2 0x42BE JUMP JUMPDEST PUSH1 0x20 SWAP2 SWAP4 POP DUP1 PUSH1 0x1 SWAP2 SLOAD DUP4 DUP6 DUP10 ADD ADD MSTORE ADD SWAP2 ADD SWAP1 SWAP2 DUP5 SWAP3 PUSH2 0x42DF JUMP JUMPDEST SWAP1 POP PUSH1 0x20 SWAP3 POP PUSH2 0x42CB SWAP5 SWAP2 POP PUSH1 0xFF NOT AND DUP3 DUP5 ADD MSTORE ISZERO ISZERO PUSH1 0x5 SHL DUP3 ADD ADD CODESIZE PUSH2 0x42BE JUMP JUMPDEST SWAP2 SWAP1 DUP3 MLOAD SWAP3 DUP4 DUP3 MSTORE PUSH1 0x0 JUMPDEST DUP5 DUP2 LT PUSH2 0x4362 JUMPI POP POP DUP3 PUSH1 0x0 PUSH1 0x20 DUP1 SWAP5 SWAP6 DUP5 ADD ADD MSTORE PUSH1 0x1F DUP1 NOT SWAP2 ADD AND ADD ADD SWAP1 JUMP JUMPDEST DUP1 PUSH1 0x20 DUP1 SWAP3 DUP5 ADD ADD MLOAD DUP3 DUP3 DUP7 ADD ADD MSTORE ADD PUSH2 0x4341 JUMP JUMPDEST SWAP2 DUP2 PUSH1 0x1F DUP5 ADD SLT ISZERO PUSH2 0x234 JUMPI DUP3 CALLDATALOAD SWAP2 PUSH1 0x1 PUSH1 0x1 PUSH1 0x40 SHL SUB DUP4 GT PUSH2 0x234 JUMPI PUSH1 0x20 DUP4 DUP2 DUP7 ADD SWAP6 ADD ADD GT PUSH2 0x234 JUMPI JUMP JUMPDEST SWAP1 PUSH1 0x40 MLOAD PUSH2 0x43B1 DUP2 PUSH2 0x4204 JUMP JUMPDEST PUSH1 0xC0 PUSH1 0x6 DUP3 SWAP5 PUSH2 0x43C0 DUP2 PUSH2 0x4292 JUMP JUMPDEST DUP5 MSTORE PUSH1 0x1 DUP2 ADD SLOAD PUSH1 0x1 PUSH1 0x1 PUSH1 0xA0 SHL SUB AND PUSH1 0x20 DUP6 ADD MSTORE PUSH1 0x2 DUP2 ADD SLOAD PUSH1 0x40 DUP6 ADD MSTORE PUSH1 0x3 DUP2 ADD SLOAD PUSH1 0x60 DUP6 ADD MSTORE PUSH2 0x43F5 PUSH1 0x4 DUP3 ADD PUSH2 0x4292 JUMP JUMPDEST PUSH1 0x80 DUP6 ADD MSTORE PUSH1 0x5 DUP2 ADD SLOAD PUSH1 0xA0 DUP6 ADD MSTORE ADD SLOAD SWAP2 ADD MSTORE JUMP JUMPDEST SWAP1 PUSH1 0x40 MLOAD PUSH2 0x4418 DUP2 PUSH2 0x4256 JUMP JUMPDEST DUP3 SLOAD PUSH1 0x1 PUSH1 0x1 PUSH1 0xA0 SHL SUB AND DUP2 MSTORE PUSH1 0x1 DUP4 ADD SLOAD PUSH1 0x20 DUP3 ADD MSTORE PUSH1 0x2 DUP4 ADD SLOAD PUSH1 0x40 DUP3 ADD MSTORE PUSH1 0x3 SWAP1 SWAP3 ADD SLOAD PUSH1 0x60 DUP4 ADD MSTORE JUMP JUMPDEST SWAP1 PUSH1 0x40 MLOAD PUSH2 0x4453 DUP2 PUSH2 0x421F JUMP JUMPDEST DUP3 SLOAD PUSH1 0x1 PUSH1 0x1 PUSH1 0xA0 SHL SUB SWAP1 DUP2 AND DUP3 MSTORE PUSH1 0x1 DUP5 ADD SLOAD PUSH1 0x20 DUP4 ADD MSTORE PUSH1 0x2 DUP5 ADD SLOAD PUSH1 0x40 DUP4 ADD MSTORE PUSH1 0x3 DUP5 ADD SLOAD PUSH1 0x60 DUP4 ADD MSTORE PUSH1 0x4 DUP5 ADD SLOAD AND PUSH1 0x80 DUP3 ADD MSTORE PUSH1 0x5 SWAP1 SWAP3 ADD SLOAD PUSH1 0xA0 DUP4 ADD MSTORE JUMP JUMPDEST SWAP1 PUSH1 0x3 DUP3 LT ISZERO PUSH2 0x95E JUMPI MSTORE JUMP JUMPDEST SWAP1 PUSH1 0x6 DUP3 LT ISZERO PUSH2 0x95E JUMPI MSTORE JUMP JUMPDEST SWAP1 PUSH1 0x4 DUP3 LT ISZERO PUSH2 0x95E JUMPI MSTORE JUMP JUMPDEST SWAP1 PUSH1 0xC0 DUP1 PUSH2 0x4511 PUSH2 0x44D9 DUP6 MLOAD PUSH1 0xE0 DUP7 MSTORE PUSH1 0xE0 DUP7 ADD SWAP1 PUSH2 0x4336 JUMP JUMPDEST PUSH1 0x1 DUP1 PUSH1 0xA0 SHL SUB PUSH1 0x20 DUP8 ADD MLOAD AND PUSH1 0x20 DUP7 ADD MSTORE PUSH1 0x40 DUP7 ADD MLOAD PUSH1 0x40 DUP7 ADD MSTORE PUSH1 0x60 DUP7 ADD MLOAD PUSH1 0x60 DUP7 ADD MSTORE PUSH1 0x80 DUP7 ADD MLOAD DUP6 DUP3 SUB PUSH1 0x80 DUP8 ADD MSTORE PUSH2 0x4336 JUMP JUMPDEST SWAP4 PUSH1 0xA0 DUP2 ADD MLOAD PUSH1 0xA0 DUP6 ADD MSTORE ADD MLOAD SWAP2 ADD MSTORE SWAP1 JUMP JUMPDEST DUP1 MLOAD PUSH1 0x1 PUSH1 0x1 PUSH1 0xA0 SHL SUB SWAP1 DUP2 AND DUP4 MSTORE PUSH1 0x20 DUP1 DUP4 ADD MLOAD SWAP1 DUP5 ADD MSTORE PUSH1 0x40 DUP1 DUP4 ADD MLOAD SWAP1 DUP5 ADD MSTORE PUSH1 0x60 DUP1 DUP4 ADD MLOAD SWAP1 DUP5 ADD MSTORE PUSH1 0x80 DUP1 DUP4 ADD MLOAD SWAP1 SWAP2 AND SWAP1 DUP4 ADD MSTORE PUSH1 0xA0 SWAP1 DUP2 ADD MLOAD SWAP2 ADD MSTORE JUMP JUMPDEST SWAP5 SWAP2 SWAP3 PUSH2 0x4585 PUSH1 0xA0 SWAP6 SWAP9 SWAP8 SWAP5 PUSH2 0x4596 SWAP4 DUP9 MSTORE PUSH1 0x20 DUP9 ADD SWAP1 PUSH2 0x44B2 JUMP JUMPDEST PUSH1 0xC0 PUSH1 0x40 DUP8 ADD MSTORE PUSH1 0xC0 DUP7 ADD SWAP1 PUSH2 0x4336 JUMP JUMPDEST SWAP6 PUSH1 0x60 DUP6 ADD MSTORE PUSH1 0x80 DUP5 ADD MSTORE PUSH1 0x1 DUP1 DUP4 SHL SUB AND SWAP2 ADD MSTORE JUMP JUMPDEST SWAP1 PUSH1 0xA0 PUSH1 0x3 NOT DUP4 ADD SLT PUSH2 0x234 JUMPI PUSH1 0x4 CALLDATALOAD SWAP2 PUSH1 0x24 CALLDATALOAD SWAP2 PUSH1 0x44 CALLDATALOAD PUSH1 0x1 PUSH1 0x1 PUSH1 0x40 SHL SUB DUP2 GT PUSH2 0x234 JUMPI DUP3 PUSH2 0x45E0 SWAP2 PUSH1 0x4 ADD PUSH2 0x4377 JUMP JUMPDEST SWAP3 SWAP1 SWAP3 SWAP2 PUSH1 0x64 CALLDATALOAD SWAP2 PUSH1 0x84 CALLDATALOAD SWAP1 PUSH1 0x1 PUSH1 0x1 PUSH1 0x40 SHL SUB DUP3 GT PUSH2 0x234 JUMPI PUSH2 0x4606 SWAP2 PUSH1 0x4 ADD PUSH2 0x4377 JUMP JUMPDEST SWAP1 SWAP2 JUMP JUMPDEST PUSH1 0x20 DUP2 MSTORE DUP2 MLOAD PUSH1 0x20 DUP3 ADD MSTORE PUSH2 0x4627 PUSH1 0x20 DUP4 ADD MLOAD PUSH1 0x40 DUP4 ADD SWAP1 PUSH2 0x44B2 JUMP JUMPDEST PUSH1 0xC0 PUSH2 0x4641 PUSH1 0x40 DUP5 ADD MLOAD DUP3 PUSH1 0x60 DUP6 ADD MSTORE PUSH1 0xE0 DUP5 ADD SWAP1 PUSH2 0x4336 JUMP JUMPDEST SWAP3 PUSH1 0x60 DUP2 ADD MLOAD PUSH1 0x80 DUP5 ADD MSTORE PUSH1 0x80 DUP2 ADD MLOAD PUSH1 0xA0 DUP5 ADD MSTORE PUSH1 0xA0 PUSH1 0x1 DUP1 DUP3 SHL SUB SWAP2 ADD MLOAD AND SWAP2 ADD MSTORE SWAP1 JUMP JUMPDEST PUSH1 0x0 NOT DUP2 EQ PUSH2 0x1E36 JUMPI PUSH1 0x1 ADD SWAP1 JUMP JUMPDEST PUSH1 0x1 PUSH1 0x1 PUSH1 0x40 SHL SUB DUP2 GT PUSH2 0x834 JUMPI PUSH1 0x5 SHL PUSH1 0x20 ADD SWAP1 JUMP JUMPDEST SWAP1 PUSH2 0x4698 DUP3 PUSH2 0x4677 JUMP JUMPDEST PUSH2 0x46A5 PUSH1 0x40 MLOAD SWAP2 DUP3 PUSH2 0x4271 JUMP JUMPDEST DUP3 DUP2 MSTORE DUP1 SWAP3 PUSH2 0x46B6 PUSH1 0x1F NOT SWAP2 PUSH2 0x4677 JUMP JUMPDEST ADD SWAP1 PUSH1 0x20 CALLDATASIZE SWAP2 ADD CALLDATACOPY JUMP JUMPDEST DUP1 MLOAD DUP3 LT ISZERO PUSH2 0x4177 JUMPI PUSH1 0x20 SWAP2 PUSH1 0x5 SHL ADD ADD SWAP1 JUMP JUMPDEST SWAP1 DUP2 PUSH1 0x20 SWAP2 SUB SLT PUSH2 0x234 JUMPI MLOAD DUP1 ISZERO ISZERO DUP2 SUB PUSH2 0x234 JUMPI SWAP1 JUMP JUMPDEST ISZERO PUSH2 0x46F3 JUMPI JUMP JUMPDEST PUSH1 0x40 MLOAD PUSH3 0x461BCD PUSH1 0xE5 SHL DUP2 MSTORE PUSH1 0x20 PUSH1 0x4 DUP3 ADD MSTORE PUSH1 0xD PUSH1 0x24 DUP3 ADD MSTORE PUSH13 0x14DE5CDD195B481C185D5CD959 PUSH1 0x9A SHL PUSH1 0x44 DUP3 ADD MSTORE PUSH1 0x64 SWAP1 REVERT JUMPDEST ISZERO PUSH2 0x472F JUMPI JUMP JUMPDEST PUSH1 0x40 MLOAD PUSH3 0x461BCD PUSH1 0xE5 SHL DUP2 MSTORE PUSH1 0x20 PUSH1 0x4 DUP3 ADD MSTORE PUSH1 0x10 PUSH1 0x24 DUP3 ADD MSTORE PUSH16 0x155CD95C88189B1858DADB1A5CDD1959 PUSH1 0x82 SHL PUSH1 0x44 DUP3 ADD MSTORE PUSH1 0x64 SWAP1 REVERT JUMPDEST DUP1 SLOAD PUSH1 0x1 PUSH1 0x40 SHL DUP2 LT ISZERO PUSH2 0x834 JUMPI PUSH2 0x4784 SWAP2 PUSH1 0x1 DUP3 ADD DUP2 SSTORE PUSH2 0x415F JUMP JUMPDEST DUP2 SWAP3 SWAP2 SLOAD SWAP1 PUSH1 0x3 SHL SWAP2 DUP3 SHL SWAP2 PUSH1 0x0 NOT SWAP1 SHL NOT AND OR SWAP1 SSTORE JUMP JUMPDEST SWAP2 SWAP1 DUP2 LT ISZERO PUSH2 0x4177 JUMPI PUSH1 0x5 SHL ADD SWAP1 JUMP JUMPDEST SWAP1 PUSH1 0x5 DUP2 LT ISZERO PUSH2 0x95E JUMPI PUSH1 0xFF DUP1 NOT DUP4 SLOAD AND SWAP2 AND OR SWAP1 SSTORE JUMP JUMPDEST ISZERO PUSH2 0x47CB JUMPI JUMP JUMPDEST PUSH1 0x40 MLOAD PUSH3 0x461BCD PUSH1 0xE5 SHL DUP2 MSTORE PUSH1 0x20 PUSH1 0x4 DUP3 ADD MSTORE PUSH1 0x10 PUSH1 0x24 DUP3 ADD MSTORE PUSH16 0x125B9858DD1A5D99481C1C9BD91D58DD PUSH1 0x82 SHL PUSH1 0x44 DUP3 ADD MSTORE PUSH1 0x64 SWAP1 REVERT JUMPDEST DUP2 DUP2 LT PUSH2 0x480E JUMPI POP POP JUMP JUMPDEST PUSH1 0x0 DUP2 SSTORE PUSH1 0x1 ADD PUSH2 0x4803 JUMP JUMPDEST ISZERO PUSH2 0x4821 JUMPI JUMP JUMPDEST PUSH1 0x40 MLOAD PUSH3 0x461BCD PUSH1 0xE5 SHL DUP2 MSTORE PUSH1 0x20 PUSH1 0x4 DUP3 ADD MSTORE PUSH1 0x10 PUSH1 0x24 DUP3 ADD MSTORE PUSH16 0x27B7363C903234B9BA3934B13ABA37B9 PUSH1 0x81 SHL PUSH1 0x44 DUP3 ADD MSTORE PUSH1 0x64 SWAP1 REVERT JUMPDEST ISZERO PUSH2 0x4860 JUMPI JUMP JUMPDEST PUSH1 0x40 MLOAD PUSH3 0x461BCD PUSH1 0xE5 SHL DUP2 MSTORE PUSH1 0x20 PUSH1 0x4 DUP3 ADD MSTORE PUSH1 0xD PUSH1 0x24 DUP3 ADD MSTORE PUSH13 0x496E76616C69642073636F7265 PUSH1 0x98 SHL PUSH1 0x44 DUP3 ADD MSTORE PUSH1 0x64 SWAP1 REVERT JUMPDEST SWAP1 PUSH1 0x4 DUP2 LT ISZERO PUSH2 0x95E JUMPI PUSH1 0xFF DUP1 NOT DUP4 SLOAD AND SWAP2 AND OR SWAP1 SSTORE JUMP JUMPDEST SWAP1 PUSH1 0x4 DUP2 LT ISZERO PUSH2 0x95E JUMPI PUSH3 0xFF0000 DUP3 SLOAD SWAP2 PUSH1 0x10 SHL AND SWAP1 PUSH3 0xFF0000 NOT AND OR SWAP1 SSTORE JUMP JUMPDEST ISZERO PUSH2 0x48D5 JUMPI JUMP JUMPDEST PUSH1 0x40 MLOAD PUSH3 0x461BCD PUSH1 0xE5 SHL DUP2 MSTORE PUSH1 0x20 PUSH1 0x4 DUP3 ADD MSTORE PUSH1 0xD PUSH1 0x24 DUP3 ADD MSTORE PUSH13 0x27B7363C903932BA30B4B632B9 PUSH1 0x99 SHL PUSH1 0x44 DUP3 ADD MSTORE PUSH1 0x64 SWAP1 REVERT JUMPDEST PUSH1 0x40 MLOAD SWAP1 PUSH2 0x4917 DUP3 PUSH2 0x421F JUMP JUMPDEST PUSH1 0x0 PUSH1 0xA0 DUP4 DUP3 DUP2 MSTORE DUP3 PUSH1 0x20 DUP3 ADD MSTORE PUSH1 0x60 PUSH1 0x40 DUP3 ADD MSTORE DUP3 PUSH1 0x60 DUP3 ADD MSTORE DUP3 PUSH1 0x80 DUP3 ADD MSTORE ADD MSTORE JUMP JUMPDEST PUSH1 0x4 DUP3 LT ISZERO PUSH2 0x95E JUMPI MSTORE JUMP JUMPDEST PUSH1 0x55 DUP2 LT ISZERO PUSH2 0x4972 JUMPI PUSH1 0x46 DUP2 LT ISZERO PUSH2 0x496C JUMPI PUSH1 0x37 GT ISZERO PUSH2 0x4967 JUMPI PUSH1 0x3 SWAP1 JUMP JUMPDEST PUSH1 0x2 SWAP1 JUMP JUMPDEST POP PUSH1 0x1 SWAP1 JUMP JUMPDEST POP PUSH1 0x0 SWAP1 JUMP JUMPDEST PUSH2 0x4982 PUSH1 0x1 PUSH2 0x4146 JUMP JUMPDEST PUSH1 0x1 DUP1 PUSH1 0xA0 SHL SUB DUP3 AND PUSH1 0x0 MSTORE PUSH1 0x20 MSTORE PUSH1 0x40 PUSH1 0x0 KECCAK256 SLOAD SWAP1 DUP2 PUSH2 0x49A1 JUMPI POP POP JUMP JUMPDEST PUSH1 0x1 NOT DUP3 ADD SWAP2 DUP3 GT PUSH2 0x1E36 JUMPI PUSH2 0x49B7 PUSH1 0x1 PUSH2 0x4146 JUMP JUMPDEST SWAP1 PUSH1 0x1 DUP1 PUSH1 0xA0 SHL SUB AND PUSH1 0x0 MSTORE PUSH1 0x20 MSTORE PUSH1 0x40 PUSH1 0x0 KECCAK256 SSTORE JUMP JUMPDEST PUSH2 0x49D8 PUSH1 0x2 PUSH2 0x4146 JUMP JUMPDEST PUSH1 0x1 DUP1 PUSH1 0xA0 SHL SUB DUP3 AND PUSH1 0x0 MSTORE PUSH1 0x20 MSTORE PUSH1 0x40 PUSH1 0x0 KECCAK256 SLOAD SWAP1 DUP2 PUSH2 0x49F7 JUMPI POP POP JUMP JUMPDEST PUSH1 0x1 NOT DUP3 ADD SWAP2 DUP3 GT PUSH2 0x1E36 JUMPI PUSH2 0x49B7 PUSH1 0x2 PUSH2 0x4146 JUMP JUMPDEST PUSH2 0x4A17 PUSH1 0x1 PUSH2 0x4146 JUMP JUMPDEST PUSH1 0x1 DUP1 PUSH1 0xA0 SHL SUB DUP3 AND PUSH1 0x0 MSTORE PUSH1 0x20 MSTORE PUSH1 0x40 PUSH1 0x0 KECCAK256 SLOAD SWAP1 PUSH1 0x64 DUP3 LT PUSH2 0x4A39 JUMPI POP POP JUMP JUMPDEST PUSH1 0x2 DUP3 ADD DUP1 SWAP3 GT PUSH2 0x1E36 JUMPI PUSH2 0x49B7 PUSH1 0x1 PUSH2 0x4146 JUMP JUMPDEST PUSH2 0x4A58 PUSH1 0x2 PUSH2 0x4146 JUMP JUMPDEST PUSH1 0x1 DUP1 PUSH1 0xA0 SHL SUB DUP3 AND PUSH1 0x0 MSTORE PUSH1 0x20 MSTORE PUSH1 0x40 PUSH1 0x0 KECCAK256 SLOAD SWAP1 PUSH1 0x64 DUP3 LT PUSH2 0x4A7A JUMPI POP POP JUMP JUMPDEST PUSH1 0x2 DUP3 ADD DUP1 SWAP3 GT PUSH2 0x1E36 JUMPI PUSH2 0x49B7 PUSH1 0x2 PUSH2 0x4146 JUMP INVALID 0xDF PUSH31 0xFC9F6F5BCE44CBF5DB3D8362387F6D02E0566C37FB4ED10CD3D05B35ECADA2 PUSH5 0x6970667358 0x22 SLT KECCAK256 SWAP7 0x4D SWAP6 0x1F PUSH5 0xB5A736A779 PUSH12 0x6B6C1F3926F0C538E44762BF MUL 0xE2 0x4F 0xA5 0x4C 0xBF SLT CODECOPY PUSH8 0x64736F6C63430008 SHR STOP CALLER PUSH1 0x80 CALLVALUE PUSH1 0x70 JUMPI PUSH1 0x1F PUSH2 0x3C0 CODESIZE DUP2 SWAP1 SUB SWAP2 DUP3 ADD PUSH1 0x1F NOT AND DUP4 ADD SWAP2 PUSH1 0x1 PUSH1 0x1 PUSH1 0x40 SHL SUB DUP4 GT DUP5 DUP5 LT OR PUSH1 0x75 JUMPI DUP1 DUP5 SWAP3 PUSH1 0x20 SWAP5 PUSH1 0x40 MSTORE DUP4 CODECOPY DUP2 ADD SUB SLT PUSH1 0x70 JUMPI MLOAD PUSH1 0x1 PUSH1 0x1 PUSH1 0xA0 SHL SUB DUP2 AND SWAP1 DUP2 SWAP1 SUB PUSH1 0x70 JUMPI PUSH1 0x0 DUP1 SLOAD PUSH1 0x1 PUSH1 0x1 PUSH1 0xA8 SHL SUB NOT AND SWAP2 SWAP1 SWAP2 OR SWAP1 SSTORE PUSH1 0x40 MLOAD PUSH2 0x334 SWAP1 DUP2 PUSH2 0x8C DUP3 CODECOPY RETURN JUMPDEST PUSH1 0x0 DUP1 REVERT JUMPDEST PUSH4 0x4E487B71 PUSH1 0xE0 SHL PUSH1 0x0 MSTORE PUSH1 0x41 PUSH1 0x4 MSTORE PUSH1 0x24 PUSH1 0x0 REVERT INVALID PUSH1 0x80 PUSH1 0x40 MSTORE PUSH1 0x4 CALLDATASIZE LT ISZERO PUSH2 0x12 JUMPI PUSH1 0x0 DUP1 REVERT JUMPDEST PUSH1 0x0 CALLDATALOAD PUSH1 0xE0 SHR DUP1 PUSH4 0x3F4BA83A EQ PUSH2 0x26B JUMPI DUP1 PUSH4 0x5C975ABB EQ PUSH2 0x16B JUMPI DUP1 PUSH4 0x75E3661E EQ PUSH2 0x1F3 JUMPI DUP1 PUSH4 0x8456CB59 EQ PUSH2 0x191 JUMPI DUP1 PUSH4 0xB187BD26 EQ PUSH2 0x16B JUMPI DUP1 PUSH4 0xDBAC26E9 EQ PUSH2 0x7F JUMPI DUP1 PUSH4 0xF851A440 EQ PUSH2 0x142 JUMPI DUP1 PUSH4 0xF9F92BE4 EQ PUSH2 0xC7 JUMPI PUSH4 0xFE575A87 EQ PUSH2 0x7F JUMPI PUSH1 0x0 DUP1 REVERT JUMPDEST CALLVALUE PUSH2 0xC2 JUMPI PUSH1 0x20 CALLDATASIZE PUSH1 0x3 NOT ADD SLT PUSH2 0xC2 JUMPI PUSH1 0x4 CALLDATALOAD PUSH1 0x1 PUSH1 0x1 PUSH1 0xA0 SHL SUB DUP2 AND SWAP1 DUP2 SWAP1 SUB PUSH2 0xC2 JUMPI PUSH1 0x0 MSTORE PUSH1 0x1 PUSH1 0x20 MSTORE PUSH1 0x20 PUSH1 0xFF PUSH1 0x40 PUSH1 0x0 KECCAK256 SLOAD AND PUSH1 0x40 MLOAD SWAP1 ISZERO ISZERO DUP2 MSTORE RETURN JUMPDEST PUSH1 0x0 DUP1 REVERT JUMPDEST CALLVALUE PUSH2 0xC2 JUMPI PUSH1 0x20 CALLDATASIZE PUSH1 0x3 NOT ADD SLT PUSH2 0xC2 JUMPI PUSH1 0x4 CALLDATALOAD PUSH1 0x1 PUSH1 0x1 PUSH1 0xA0 SHL SUB DUP2 AND SWAP1 DUP2 SWAP1 SUB PUSH2 0xC2 JUMPI PUSH2 0x102 PUSH1 0x1 DUP1 PUSH1 0xA0 SHL SUB PUSH1 0x0 SLOAD AND CALLER EQ PUSH2 0x2C5 JUMP JUMPDEST DUP1 PUSH1 0x0 MSTORE PUSH1 0x1 PUSH1 0x20 MSTORE PUSH1 0x40 PUSH1 0x0 KECCAK256 PUSH1 0x1 PUSH1 0xFF NOT DUP3 SLOAD AND OR SWAP1 SSTORE PUSH32 0xFFA4E6181777692565CF28528FC88FD1516EA86B56DA075235FA575AF6A4B855 PUSH1 0x0 DUP1 LOG2 STOP JUMPDEST CALLVALUE PUSH2 0xC2 JUMPI PUSH1 0x0 CALLDATASIZE PUSH1 0x3 NOT ADD SLT PUSH2 0xC2 JUMPI PUSH1 0x0 SLOAD PUSH1 0x40 MLOAD PUSH1 0x1 PUSH1 0x1 PUSH1 0xA0 SHL SUB SWAP1 SWAP2 AND DUP2 MSTORE PUSH1 0x20 SWAP1 RETURN JUMPDEST CALLVALUE PUSH2 0xC2 JUMPI PUSH1 0x0 CALLDATASIZE PUSH1 0x3 NOT ADD SLT PUSH2 0xC2 JUMPI PUSH1 0x20 PUSH1 0xFF PUSH1 0x0 SLOAD PUSH1 0xA0 SHR AND PUSH1 0x40 MLOAD SWAP1 ISZERO ISZERO DUP2 MSTORE RETURN JUMPDEST CALLVALUE PUSH2 0xC2 JUMPI PUSH1 0x0 CALLDATASIZE PUSH1 0x3 NOT ADD SLT PUSH2 0xC2 JUMPI PUSH1 0x0 SLOAD PUSH2 0x1B9 CALLER PUSH1 0x1 PUSH1 0x1 PUSH1 0xA0 SHL SUB DUP4 AND EQ PUSH2 0x2C5 JUMP JUMPDEST PUSH1 0xFF PUSH1 0xA0 SHL NOT AND PUSH1 0x1 PUSH1 0xA0 SHL OR PUSH1 0x0 SWAP1 DUP2 SSTORE CALLER SWAP1 PUSH32 0x62E78CEA01BEE320CD4E420270B5EA74000D11B0C9F74754EBDBFC544B05A258 SWAP1 DUP1 LOG2 STOP JUMPDEST CALLVALUE PUSH2 0xC2 JUMPI PUSH1 0x20 CALLDATASIZE PUSH1 0x3 NOT ADD SLT PUSH2 0xC2 JUMPI PUSH1 0x4 CALLDATALOAD PUSH1 0x1 PUSH1 0x1 PUSH1 0xA0 SHL SUB DUP2 AND SWAP1 DUP2 SWAP1 SUB PUSH2 0xC2 JUMPI PUSH2 0x22E PUSH1 0x1 DUP1 PUSH1 0xA0 SHL SUB PUSH1 0x0 SLOAD AND CALLER EQ PUSH2 0x2C5 JUMP JUMPDEST DUP1 PUSH1 0x0 MSTORE PUSH1 0x1 PUSH1 0x20 MSTORE PUSH1 0x40 PUSH1 0x0 KECCAK256 PUSH1 0xFF NOT DUP2 SLOAD AND SWAP1 SSTORE PUSH32 0x7534C63860313C46C473E4E98328F37017E9674E2162FAF1A3AD7A96236C3B7B PUSH1 0x0 DUP1 LOG2 STOP JUMPDEST CALLVALUE PUSH2 0xC2 JUMPI PUSH1 0x0 CALLDATASIZE PUSH1 0x3 NOT ADD SLT PUSH2 0xC2 JUMPI PUSH1 0x0 SLOAD PUSH2 0x293 CALLER PUSH1 0x1 PUSH1 0x1 PUSH1 0xA0 SHL SUB DUP4 AND EQ PUSH2 0x2C5 JUMP JUMPDEST PUSH1 0xFF PUSH1 0xA0 SHL NOT AND PUSH1 0x0 SSTORE CALLER PUSH32 0x5DB9EE0A495BF2E6FF9C91A7834C1BA4FDD244A5E8AA4E537BD38AEAE4B073AA PUSH1 0x0 DUP1 LOG2 STOP JUMPDEST ISZERO PUSH2 0x2CC JUMPI JUMP JUMPDEST PUSH1 0x40 MLOAD PUSH3 0x461BCD PUSH1 0xE5 SHL DUP2 MSTORE PUSH1 0x20 PUSH1 0x4 DUP3 ADD MSTORE PUSH1 0xA PUSH1 0x24 DUP3 ADD MSTORE PUSH10 0x27B7363C9030B236B4B7 PUSH1 0xB1 SHL PUSH1 0x44 DUP3 ADD MSTORE PUSH1 0x64 SWAP1 REVERT INVALID LOG2 PUSH5 0x6970667358 0x22 SLT KECCAK256 CODESIZE 0xEE 0xC1 AND SWAP15 0xB1 CHAINID TLOAD SWAP14 0xCF RETURNDATACOPY SIGNEXTEND PUSH10 0x92C745452555D78C4809 0xF8 0xE0 0xE0 SELFDESTRUCT 0xC0 0xC3 0xA6 CREATE2 OR PUSH5 0x736F6C6343 STOP ADDMOD SHR STOP CALLER "},"methodIdentifiers":{"MIN_TEMP()":"638a348c","admin()":"f851a440","assignRole(address,uint8)":"630a195b","batches(uint256)":"b32c4d8d","createBatch(uint256[])":"c6376a5a","createProduct(string,uint256,string,uint256,uint256)":"dd003ace","distributorBatches(address,uint256)":"49616685","distributorQuality(uint256)":"989ee4ea","distributorTxIds(address,uint256)":"5bdb6f71","emergency()":"caa6fea4","farmerSoldProducts(address,uint256)":"6c0245d0","getAvailableBatchesForRetailer()":"66b9f622","getAvailableProductsForDistributor()":"1290831d","getBatchDetails(uint256)":"9d47dcc0","getDistributorQuality(uint256)":"8c301fbb","getFullTrace(uint256)":"d3838ab1","getProduct(uint256)":"b9db15b4","getProductsByDistributor(address)":"f6fa3b92","getProductsByFarmer(address)":"ec90a7b0","getProductsByRetailer(address)":"d6669147","getReputation(uint8,address)":"1b9cf329","getRetailerQuality(uint256)":"c86dc0a6","getRole(address)":"44276733","getTotalProducts()":"570aea8a","getTransaction(uint256)":"33ea3dc8","getUserDetails(address)":"cc3d967b","listProductForConsumer(uint256)":"7d0c49a8","markProductAsBuyed(uint256,address,uint256)":"65ebd136","nextBatchId()":"8462a7f8","nextProductId()":"4de91a63","nextTxId()":"8aff87b2","products(uint256)":"7acc0b20","purchaseBatchFromDistributor(uint256,uint256[])":"4a0f5da6","purchaseFromFarmer(uint256,uint256)":"6ba37e10","registerUser(uint8,string)":"d29bcc5c","reputationScores(uint8,address)":"22e377ff","retailerBatches(address,uint256)":"4ccc0c0d","retailerQuality(uint256)":"7d07dc82","retailerTxIds(address,uint256)":"2423bb0b","roles(address)":"99374642","storeDistributorQuality(uint256,uint256,string,uint256,string)":"7d0ba4ef","storeFarmDataHash(uint256,string)":"7882e082","storeRetailerQuality(uint256,uint256,string,uint256,string)":"8f3e1755","transactions(uint256)":"9ace38c2","userDataHash(address)":"6357e48b"}}}}}