{"contracts/TemperatureOracle.sol":{"TemperatureOracle":{"abi":[{"inputs":[{"internalType":"address","name":"_agriTraceCore","type":"address"}],"stateMutability":"nonpayable","type":"constructor"},{"anonymous":false,"inputs":[{"indexed":true,"internalType":"bytes32","name":"id","type":"bytes32"}],"name":"ChainlinkCancelled","type":"event"},{"anonymous":false,"inputs":[{"indexed":true,"internalType":"bytes32","name":"id","type":"bytes32"}],"name":"ChainlinkFulfilled","type":"event"},{"anonymous":false,"inputs":[{"indexed":true,"internalType":"bytes32","name":"id","type":"bytes32"}],"name":"ChainlinkRequested","type":"event"},{"anonymous":false,"inputs":[{"indexed":true,"internalType":"address","name":"from","type":"address"},{"indexed":true,"internalType":"address","name":"to","type":"address"}],"name":"OwnershipTransferRequested","type":"event"},{"anonymous":false,"inputs":[{"indexed":true,"internalType":"address","name":"from","type":"address"},{"indexed":true,"internalType":"address","name":"to","type":"address"}],"name":"OwnershipTransferred","type":"event"},{"anonymous":false,"inputs":[{"indexed":true,"internalType":"bytes32","name":"requestId","type":"bytes32"},{"indexed":false,"internalType":"uint256","name":"productId","type":"uint256"}],"name":"RequestTemperature","type":"event"},{"anonymous":false,"inputs":[{"indexed":true,"internalType":"bytes32","name":"requestId","type":"bytes32"},{"indexed":false,"internalType":"uint256","name":"temperature","type":"uint256"},{"indexed":false,"internalType":"uint256","name":"productId","type":"uint256"}],"name":"TemperatureReceived","type":"event"},{"inputs":[],"name":"acceptOwnership","outputs":[],"stateMutability":"nonpayable","type":"function"},{"inputs":[],"name":"agriTraceCore","outputs":[{"internalType":"contract AgriTraceCore","name":"","type":"address"}],"stateMutability":"view","type":"function"},{"inputs":[{"internalType":"bytes32","name":"_requestId","type":"bytes32"},{"internalType":"uint256","name":"_temperature","type":"uint256"}],"name":"fulfill","outputs":[],"stateMutability":"nonpayable","type":"function"},{"inputs":[],"name":"getLatestTemperature","outputs":[{"internalType":"string","name":"","type":"string"}],"stateMutability":"view","type":"function"},{"inputs":[],"name":"owner","outputs":[{"internalType":"address","name":"","type":"address"}],"stateMutability":"view","type":"function"},{"inputs":[{"internalType":"uint256","name":"productId","type":"uint256"}],"name":"requestTemperatureForProduct","outputs":[{"internalType":"bytes32","name":"requestId","type":"bytes32"}],"stateMutability":"nonpayable","type":"function"},{"inputs":[{"internalType":"bytes32","name":"","type":"bytes32"}],"name":"requestToProductId","outputs":[{"internalType":"uint256","name":"","type":"uint256"}],"stateMutability":"view","type":"function"},{"inputs":[{"internalType":"bytes32","name":"","type":"bytes32"}],"name":"requestToRequester","outputs":[{"internalType":"address","name":"","type":"address"}],"stateMutability":"view","type":"function"},{"inputs":[],"name":"temperature","outputs":[{"internalType":"string","name":"","type":"string"}],"stateMutability":"view","type":"function"},{"inputs":[{"internalType":"address","name":"to","type":"address"}],"name":"transferOwnership","outputs":[],"stateMutability":"nonpayable","type":"function"},{"inputs":[],"name":"withdrawLink","outputs":[],"stateMutability":"nonpayable","type":"function"}],"evm":{"bytecode":{"linkReferences":{},"object":"60803461013e57601f6112f038819003918201601f19168301916001600160401b038311848410176101435780849260209460405283398101031261013e57516001600160a01b0381169081900361013e57600160045533156100f957600680546001600160a01b0319908116331790915560028054821673779877a7b0d9e8603169ddbd7836e478b4624789179055600380548216736090149792daaee9d1d568c9f9a6f6b46aa29efd1790557f636139383336366363373331343935376238633031326337326630356165656260095567016345785d8a0000600a55600b8054909116919091179055604051611196908161015a8239f35b60405162461bcd60e51b815260206004820152601860248201527f43616e6e6f7420736574206f776e657220746f207a65726f00000000000000006044820152606490fd5b600080fd5b634e487b7160e01b600052604160045260246000fdfe6080604052600436101561001257600080fd5b60003560e01c80631085a271146100c25780631b5409d91461009a5780633f66286a146100bd5780634357855e146100b857806371cba0c7146100b357806379ba5097146100ae5780638da5cb5b146100a95780638dc654a2146100a4578063a4f500731461009f578063adccea121461009a5763f2fde38b1461009557600080fd5b6106c9565b610134565b6104ac565b610392565b610369565b6102a8565b61027f565b61019c565b610168565b346100ee5760203660031901126100ee57600435600052600c6020526020604060002054604051908152f35b600080fd5b919082519283825260005b84811061011f575050826000602080949584010152601f8019910116010190565b806020809284010151828286010152016100fe565b346100ee5760003660031901126100ee576101646101506105ee565b6040519182916020835260208301906100f3565b0390f35b346100ee5760203660031901126100ee57600435600052600d602052602060018060a01b0360406000205416604051908152f35b346100ee5760403660031901126100ee576004356024356000828152600560205260409020546001600160a01b0316330361022957816101fc6101ec610227946000526005602052604060002090565b80546001600160a01b0319169055565b807f7cc135e0cebb02c3480ae5d74d377283180a2601f8f644edf7987b009316c63a600080a261079e565b005b60405162461bcd60e51b815260206004820152602860248201527f536f75726365206d75737420626520746865206f7261636c65206f6620746865604482015267081c995c5d595cdd60c21b6064820152608490fd5b346100ee5760003660031901126100ee57600b546040516001600160a01b039091168152602090f35b346100ee5760003660031901126100ee576007546001600160a01b0316330361032b576006546001600160a01b0316600680546001600160a01b03191633179055600780546001600160a01b031916905533906001600160a01b03167f8be0079c531659141344cd1fd0a4f28419497f9722a3daafe3b4186f6b6457e0600080a3005b60405162461bcd60e51b815260206004820152601660248201527526bab9ba10313290383937b837b9b2b21037bbb732b960511b6044820152606490fd5b346100ee5760003660031901126100ee576006546040516001600160a01b039091168152602090f35b346100ee5760003660031901126100ee576103ab610949565b6002546103d0906103c49081906001600160a01b031681565b6001600160a01b031690565b6040516370a0823160e01b8152306004820152602081602481855afa90811561047a5760009260209261042f92859161047f575b5060405163a9059cbb60e01b8152336004820152602481019190915293849283919082906044820190565b03925af1801561047a576102279160009161044b575b5061083e565b61046d915060203d602011610473575b61046581836105c7565b810190610826565b38610445565b503d61045b565b61081a565b61049f9150843d86116104a5575b61049781836105c7565b81019061080b565b38610404565b503d61048d565b346100ee5760203660031901126100ee5761016461059e6004357fe78d462e5b267f45854758f0687f24365bbc54861f62fa130714b75dcb2416ad61053e6104f76009543090610a0d565b61051161050261087f565b61050a6108a0565b9083610a57565b61052461051c6108db565b61050a6108fd565b61053561052f610926565b82610a70565b600a5490610a9a565b9282849361055685600052600c602052604060002090565b5561058e3361056f86600052600d602052604060002090565b80546001600160a01b0319166001600160a01b03909216919091179055565b6040519081529081906020820190565b0390a26040519081529081906020820190565b634e487b7160e01b600052604160045260246000fd5b90601f8019910116810190811067ffffffffffffffff8211176105e957604052565b6105b1565b604051906000600854908160011c91600181169081156106bf575b6020841082146106ab5783865285929160208401918115610692575060011461063c575b5061063a925003836105c7565b565b6008600090815291507ff3f7a9fe364faab93b216da50a3214154f22a0a2b415b23a84c8169e8b636ee35b84831061067b575061063a9350013861062d565b805482840152869350602090920191600101610667565b60ff191682525061063a93151560051b0190503861062d565b634e487b7160e01b83526022600452602483fd5b92607f1692610609565b346100ee5760203660031901126100ee576004356001600160a01b038116908190036100ee576106f7610949565b33811461074357600780546001600160a01b031916821790556006546001600160a01b03167fed8889f560326eb138920d842192f0eb3dd22b4f139c87a2c57538e05bae1278600080a3005b60405162461bcd60e51b815260206004820152601760248201527f43616e6e6f74207472616e7366657220746f2073656c660000000000000000006044820152606490fd5b634e487b7160e01b600052601160045260246000fd5b807fb32d3a5a3a3a89d5b466a9493eb564cb9be8b49311653acb63dc7c645fa59aaa60406101ec9483600052600c602052816000205484600052600d60205260648351920482526020820152a280600052600c60205260006040812055600052600d602052604060002090565b908160209103126100ee575190565b6040513d6000823e3d90fd5b908160209103126100ee575180151581036100ee5790565b1561084557565b60405162461bcd60e51b81526020600482015260126024820152712ab730b13632903a37903a3930b739b332b960711b6044820152606490fd5b6040519061088e6040836105c7565b600382526219d95d60ea1b6020830152565b604051906108af6040836105c7565b601c82527f687474703a2f2f3132372e302e302e313a353030302f73656e736f72000000006020830152565b604051906108ea6040836105c7565b60048252630e0c2e8d60e31b6020830152565b6040519061090c6040836105c7565b600b82526a74656d706572617475726560a81b6020830152565b604051906109356040836105c7565b600582526474696d657360d81b6020830152565b6006546001600160a01b0316330361095d57565b60405162461bcd60e51b815260206004820152601660248201527527b7363c9031b0b63630b1363290313c9037bbb732b960511b6044820152606490fd5b604051906040820182811067ffffffffffffffff8211176105e9576040526000602083606081520152565b6040519060a0820182811067ffffffffffffffff8211176105e95760405281600081526000602082015260006040820152600060608201526080610a0861099b565b910152565b90610a166109c6565b50610a1f6109c6565b91610a286109c6565b50610a366080840151610c31565b5082526001600160a01b031660208201526321abc2af60e11b604082015290565b608001805161063a9392610a6a91610b46565b51610b46565b610a9791610a85608060649301918251610b46565b51610a91601882610ee3565b506110b1565b50565b6003546004546001810193916001600160a01b0316848211610b4157610b3e94600455610b398451610b2b608063ffffffff60e01b604089015116970151516040519788936320214ca360e11b60208601526000602486015260006044860152606485015230608485015260a48401528560c4840152600160e48401526101006101048401526101248301906100f3565b03601f1981018652856105c7565b610df5565b90565b610788565b8151610a9792919067ffffffffffffffff1660178111610b7d57610b7790610b719060601760ff1690565b82610ee3565b50610c9f565b60ff8111610b9f57610b7790610b98601860605b1784610ee3565b50826110b1565b61ffff8111610bbf57610b7790610bb860196060610b91565b508261103f565b63ffffffff8111610be157610b7790610bda601a6060610b91565b5082610fcb565b610b7790610bf1601b6060610b91565b5082610f4f565b9060208201809211610b4157565b91908201809211610b4157565b601f19810191908211610b4157565b600019810191908211610b4157565b610c3961099b565b506101006020820152610120604051808352600081520160405290565b90610c5f61099b565b50601f811680610c85575b50806020830152604051808352600081520160200160405290565b60200360208111610b41578101809111610b415738610c6a565b90610ca861099b565b5081515190805190610cb861099b565b50610cc68151831115611122565b610cd08284610c06565b6020850151809111610d4e575b5060209084518051908386820101958501918211610d46575b505001905b6020811015610d2057600019906020036101000a019081199051169082511617905290565b9091610d3b610d35610d419285518152610bf8565b93610bf8565b91610c13565b610cfb565b523880610cf6565b610d6d610d68610d7392610d628787610c06565b9061113f565b611129565b8561114f565b38610cdd565b610b3e939260609260018060a01b03168252602082015281604082015201906100f3565b15610da457565b60405162461bcd60e51b815260206004820152602360248201527f756e61626c6520746f207472616e73666572416e6443616c6c20746f206f7261604482015262636c6560e81b6064820152608490fd5b6040516bffffffffffffffffffffffff193060601b1660208083019182526034808401959095529382529394610ea894909291610e336054826105c7565b51902094610e4f8261056f886000526005602052604060002090565b60006040518096819582948a7fb5e6e01e79f91267dc17b4e6314d5d4d03593d2ceee0fbb452b750bd70ea5af98680a2600254610e94906001600160a01b03166103c4565b630200057560e51b85529660048501610d79565b03925af1801561047a57610b3e91600091610ec4575b50610d9d565b610edd915060203d6020116104735761046581836105c7565b38610ebe565b90610eec61099b565b50815151610ef861099b565b50602083015180821015610f29575b5082519182519182916020828601015314610f2157505090565b600101905290565b610f35610f4891611129565b610f4185519186610c56565b5084610c9f565b5038610f07565b90610f5861099b565b5081515190610f6561099b565b508160080180600811610b415760208401518111610fb8575b50610f9168010000000000000000610c22565b8351916008848401019119825116179052600881519201918211610fb457505090565b5290565b610f35610fc491611129565b5038610f7e565b90610fd461099b565b5081515190610fe161099b565b508160040180600411610b41576020840151811161102c575b50611009640100000000610c22565b8351916004848401019119825116179052600481519201918211610fb457505090565b610f3561103891611129565b5038610ffa565b9061104861099b565b508151519061105561099b565b508160020180600211610b41576020840151811161109e575b5061107b62010000610c22565b8351916002848401019119825116179052600281519201918211610fb457505090565b610f356110aa91611129565b503861106e565b906110ba61099b565b50815151906110c761099b565b508160010180600111610b41576020840151811161110f575b506110ec610100610c22565b8351916001848401019119825116179052600181519201918211610fb457505090565b610f3561111b91611129565b50386110e0565b156100ee57565b908160011b9180830460021490151715610b4157565b81811161114a575090565b905090565b90610a9791610b7781519282610c5656fea2646970667358221220b02aaa2056837f311952d4984e6b2a9079282a99d3faa7bfdffafa94ec168e0e64736f6c634300081c0033","opcodes":"PUSH1 0x80 CALLVALUE PUSH2 0x13E JUMPI PUSH1 0x1F PUSH2 0x12F0 CODESIZE DUP2 SWAP1 SUB SWAP2 DUP3 ADD PUSH1 0x1F NOT AND DUP4 ADD SWAP2 PUSH1 0x1 PUSH1 0x1 PUSH1 0x40 SHL SUB DUP4 GT DUP5 DUP5 LT OR PUSH2 0x143 JUMPI DUP1 DUP5 SWAP3 PUSH1 0x20 SWAP5 PUSH1 0x40 MSTORE DUP4 CODECOPY DUP2 ADD SUB SLT PUSH2 0x13E JUMPI MLOAD PUSH1 0x1 PUSH1 0x1 PUSH1 0xA0 SHL SUB DUP2 AND SWAP1 DUP2 SWAP1 SUB PUSH2 0x13E JUMPI PUSH1 0x1 PUSH1 0x4 SSTORE CALLER ISZERO PUSH2 0xF9 JUMPI PUSH1 0x6 DUP1 SLOAD PUSH1 0x1 PUSH1 0x1 PUSH1 0xA0 SHL SUB NOT SWAP1 DUP2 AND CALLER OR SWAP1 SWAP2 SSTORE PUSH1 0x2 DUP1 SLOAD DUP3 AND PUSH20 0x779877A7B0D9E8603169DDBD7836E478B4624789 OR SWAP1 SSTORE PUSH1 0x3 DUP1 SLOAD DUP3 AND PUSH20 0x6090149792DAAEE9D1D568C9F9A6F6B46AA29EFD OR SWAP1 SSTORE PUSH32 0x6361393833363663633733313439353762386330313263373266303561656562 PUSH1 0x9 SSTORE PUSH8 0x16345785D8A0000 PUSH1 0xA SSTORE PUSH1 0xB DUP1 SLOAD SWAP1 SWAP2 AND SWAP2 SWAP1 SWAP2 OR SWAP1 SSTORE PUSH1 0x40 MLOAD PUSH2 0x1196 SWAP1 DUP2 PUSH2 0x15A DUP3 CODECOPY RETURN JUMPDEST PUSH1 0x40 MLOAD PUSH3 0x461BCD PUSH1 0xE5 SHL DUP2 MSTORE PUSH1 0x20 PUSH1 0x4 DUP3 ADD MSTORE PUSH1 0x18 PUSH1 0x24 DUP3 ADD MSTORE PUSH32 0x43616E6E6F7420736574206F776E657220746F207A65726F0000000000000000 PUSH1 0x44 DUP3 ADD MSTORE PUSH1 0x64 SWAP1 REVERT JUMPDEST PUSH1 0x0 DUP1 REVERT JUMPDEST PUSH4 0x4E487B71 PUSH1 0xE0 SHL PUSH1 0x0 MSTORE PUSH1 0x41 PUSH1 0x4 MSTORE PUSH1 0x24 PUSH1 0x0 REVERT INVALID PUSH1 0x80 PUSH1 0x40 MSTORE PUSH1 0x4 CALLDATASIZE LT ISZERO PUSH2 0x12 JUMPI PUSH1 0x0 DUP1 REVERT JUMPDEST PUSH1 0x0 CALLDATALOAD PUSH1 0xE0 SHR DUP1 PUSH4 0x1085A271 EQ PUSH2 0xC2 JUMPI DUP1 PUSH4 0x1B5409D9 EQ PUSH2 0x9A JUMPI DUP1 PUSH4 0x3F66286A EQ PUSH2 0xBD JUMPI DUP1 PUSH4 0x4357855E EQ PUSH2 0xB8 JUMPI DUP1 PUSH4 0x71CBA0C7 EQ PUSH2 0xB3 JUMPI DUP1 PUSH4 0x79BA5097 EQ PUSH2 0xAE JUMPI DUP1 PUSH4 0x8DA5CB5B EQ PUSH2 0xA9 JUMPI DUP1 PUSH4 0x8DC654A2 EQ PUSH2 0xA4 JUMPI DUP1 PUSH4 0xA4F50073 EQ PUSH2 0x9F JUMPI DUP1 PUSH4 0xADCCEA12 EQ PUSH2 0x9A JUMPI PUSH4 0xF2FDE38B EQ PUSH2 0x95 JUMPI PUSH1 0x0 DUP1 REVERT JUMPDEST PUSH2 0x6C9 JUMP JUMPDEST PUSH2 0x134 JUMP JUMPDEST PUSH2 0x4AC JUMP JUMPDEST PUSH2 0x392 JUMP JUMPDEST PUSH2 0x369 JUMP JUMPDEST PUSH2 0x2A8 JUMP JUMPDEST PUSH2 0x27F JUMP JUMPDEST PUSH2 0x19C JUMP JUMPDEST PUSH2 0x168 JUMP JUMPDEST CALLVALUE PUSH2 0xEE JUMPI PUSH1 0x20 CALLDATASIZE PUSH1 0x3 NOT ADD SLT PUSH2 0xEE JUMPI PUSH1 0x4 CALLDATALOAD PUSH1 0x0 MSTORE PUSH1 0xC PUSH1 0x20 MSTORE PUSH1 0x20 PUSH1 0x40 PUSH1 0x0 KECCAK256 SLOAD PUSH1 0x40 MLOAD SWAP1 DUP2 MSTORE RETURN JUMPDEST PUSH1 0x0 DUP1 REVERT JUMPDEST SWAP2 SWAP1 DUP3 MLOAD SWAP3 DUP4 DUP3 MSTORE PUSH1 0x0 JUMPDEST DUP5 DUP2 LT PUSH2 0x11F JUMPI POP POP DUP3 PUSH1 0x0 PUSH1 0x20 DUP1 SWAP5 SWAP6 DUP5 ADD ADD MSTORE PUSH1 0x1F DUP1 NOT SWAP2 ADD AND ADD ADD SWAP1 JUMP JUMPDEST DUP1 PUSH1 0x20 DUP1 SWAP3 DUP5 ADD ADD MLOAD DUP3 DUP3 DUP7 ADD ADD MSTORE ADD PUSH2 0xFE JUMP JUMPDEST CALLVALUE PUSH2 0xEE JUMPI PUSH1 0x0 CALLDATASIZE PUSH1 0x3 NOT ADD SLT PUSH2 0xEE JUMPI PUSH2 0x164 PUSH2 0x150 PUSH2 0x5EE JUMP JUMPDEST PUSH1 0x40 MLOAD SWAP2 DUP3 SWAP2 PUSH1 0x20 DUP4 MSTORE PUSH1 0x20 DUP4 ADD SWAP1 PUSH2 0xF3 JUMP JUMPDEST SUB SWAP1 RETURN JUMPDEST CALLVALUE PUSH2 0xEE JUMPI PUSH1 0x20 CALLDATASIZE PUSH1 0x3 NOT ADD SLT PUSH2 0xEE JUMPI PUSH1 0x4 CALLDATALOAD PUSH1 0x0 MSTORE PUSH1 0xD PUSH1 0x20 MSTORE PUSH1 0x20 PUSH1 0x1 DUP1 PUSH1 0xA0 SHL SUB PUSH1 0x40 PUSH1 0x0 KECCAK256 SLOAD AND PUSH1 0x40 MLOAD SWAP1 DUP2 MSTORE RETURN JUMPDEST CALLVALUE PUSH2 0xEE JUMPI PUSH1 0x40 CALLDATASIZE PUSH1 0x3 NOT ADD SLT PUSH2 0xEE JUMPI PUSH1 0x4 CALLDATALOAD PUSH1 0x24 CALLDATALOAD PUSH1 0x0 DUP3 DUP2 MSTORE PUSH1 0x5 PUSH1 0x20 MSTORE PUSH1 0x40 SWAP1 KECCAK256 SLOAD PUSH1 0x1 PUSH1 0x1 PUSH1 0xA0 SHL SUB AND CALLER SUB PUSH2 0x229 JUMPI DUP2 PUSH2 0x1FC PUSH2 0x1EC PUSH2 0x227 SWAP5 PUSH1 0x0 MSTORE PUSH1 0x5 PUSH1 0x20 MSTORE PUSH1 0x40 PUSH1 0x0 KECCAK256 SWAP1 JUMP JUMPDEST DUP1 SLOAD PUSH1 0x1 PUSH1 0x1 PUSH1 0xA0 SHL SUB NOT AND SWAP1 SSTORE JUMP JUMPDEST DUP1 PUSH32 0x7CC135E0CEBB02C3480AE5D74D377283180A2601F8F644EDF7987B009316C63A PUSH1 0x0 DUP1 LOG2 PUSH2 0x79E JUMP JUMPDEST STOP JUMPDEST PUSH1 0x40 MLOAD PUSH3 0x461BCD PUSH1 0xE5 SHL DUP2 MSTORE PUSH1 0x20 PUSH1 0x4 DUP3 ADD MSTORE PUSH1 0x28 PUSH1 0x24 DUP3 ADD MSTORE PUSH32 0x536F75726365206D75737420626520746865206F7261636C65206F6620746865 PUSH1 0x44 DUP3 ADD MSTORE PUSH8 0x81C995C5D595CDD PUSH1 0xC2 SHL PUSH1 0x64 DUP3 ADD MSTORE PUSH1 0x84 SWAP1 REVERT JUMPDEST CALLVALUE PUSH2 0xEE JUMPI PUSH1 0x0 CALLDATASIZE PUSH1 0x3 NOT ADD SLT PUSH2 0xEE JUMPI PUSH1 0xB SLOAD PUSH1 0x40 MLOAD PUSH1 0x1 PUSH1 0x1 PUSH1 0xA0 SHL SUB SWAP1 SWAP2 AND DUP2 MSTORE PUSH1 0x20 SWAP1 RETURN JUMPDEST CALLVALUE PUSH2 0xEE JUMPI PUSH1 0x0 CALLDATASIZE PUSH1 0x3 NOT ADD SLT PUSH2 0xEE JUMPI PUSH1 0x7 SLOAD PUSH1 0x1 PUSH1 0x1 PUSH1 0xA0 SHL SUB AND CALLER SUB PUSH2 0x32B JUMPI PUSH1 0x6 SLOAD PUSH1 0x1 PUSH1 0x1 PUSH1 0xA0 SHL SUB AND PUSH1 0x6 DUP1 SLOAD PUSH1 0x1 PUSH1 0x1 PUSH1 0xA0 SHL SUB NOT AND CALLER OR SWAP1 SSTORE PUSH1 0x7 DUP1 SLOAD PUSH1 0x1 PUSH1 0x1 PUSH1 0xA0 SHL SUB NOT AND SWAP1 SSTORE CALLER SWAP1 PUSH1 0x1 PUSH1 0x1 PUSH1 0xA0 SHL SUB AND PUSH32 0x8BE0079C531659141344CD1FD0A4F28419497F9722A3DAAFE3B4186F6B6457E0 PUSH1 0x0 DUP1 LOG3 STOP JUMPDEST PUSH1 0x40 MLOAD PUSH3 0x461BCD PUSH1 0xE5 SHL DUP2 MSTORE PUSH1 0x20 PUSH1 0x4 DUP3 ADD MSTORE PUSH1 0x16 PUSH1 0x24 DUP3 ADD MSTORE PUSH22 0x26BAB9BA10313290383937B837B9B2B21037BBB732B9 PUSH1 0x51 SHL PUSH1 0x44 DUP3 ADD MSTORE PUSH1 0x64 SWAP1 REVERT JUMPDEST CALLVALUE PUSH2 0xEE JUMPI PUSH1 0x0 CALLDATASIZE PUSH1 0x3 NOT ADD SLT PUSH2 0xEE JUMPI PUSH1 0x6 SLOAD PUSH1 0x40 MLOAD PUSH1 0x1 PUSH1 0x1 PUSH1 0xA0 SHL SUB SWAP1 SWAP2 AND DUP2 MSTORE PUSH1 0x20 SWAP1 RETURN JUMPDEST CALLVALUE PUSH2 0xEE JUMPI PUSH1 0x0 CALLDATASIZE PUSH1 0x3 NOT ADD SLT PUSH2 0xEE JUMPI PUSH2 0x3AB PUSH2 0x949 JUMP JUMPDEST PUSH1 0x2 SLOAD PUSH2 0x3D0 SWAP1 PUSH2 0x3C4 SWAP1 DUP2 SWAP1 PUSH1 0x1 PUSH1 0x1 PUSH1 0xA0 SHL SUB AND DUP2 JUMP JUMPDEST PUSH1 0x1 PUSH1 0x1 PUSH1 0xA0 SHL SUB AND SWAP1 JUMP JUMPDEST PUSH1 0x40 MLOAD PUSH4 0x70A08231 PUSH1 0xE0 SHL DUP2 MSTORE ADDRESS PUSH1 0x4 DUP3 ADD MSTORE PUSH1 0x20 DUP2 PUSH1 0x24 DUP2 DUP6 GAS STATICCALL SWAP1 DUP2 ISZERO PUSH2 0x47A JUMPI PUSH1 0x0 SWAP3 PUSH1 0x20 SWAP3 PUSH2 0x42F SWAP3 DUP6 SWAP2 PUSH2 0x47F JUMPI JUMPDEST POP PUSH1 0x40 MLOAD PUSH4 0xA9059CBB PUSH1 0xE0 SHL DUP2 MSTORE CALLER PUSH1 0x4 DUP3 ADD MSTORE PUSH1 0x24 DUP2 ADD SWAP2 SWAP1 SWAP2 MSTORE SWAP4 DUP5 SWAP3 DUP4 SWAP2 SWAP1 DUP3 SWAP1 PUSH1 0x44 DUP3 ADD SWAP1 JUMP JUMPDEST SUB SWAP3 GAS CALL DUP1 ISZERO PUSH2 0x47A JUMPI PUSH2 0x227 SWAP2 PUSH1 0x0 SWAP2 PUSH2 0x44B JUMPI JUMPDEST POP PUSH2 0x83E JUMP JUMPDEST PUSH2 0x46D SWAP2 POP PUSH1 0x20 RETURNDATASIZE PUSH1 0x20 GT PUSH2 0x473 JUMPI JUMPDEST PUSH2 0x465 DUP2 DUP4 PUSH2 0x5C7 JUMP JUMPDEST DUP2 ADD SWAP1 PUSH2 0x826 JUMP JUMPDEST CODESIZE PUSH2 0x445 JUMP JUMPDEST POP RETURNDATASIZE PUSH2 0x45B JUMP JUMPDEST PUSH2 0x81A JUMP JUMPDEST PUSH2 0x49F SWAP2 POP DUP5 RETURNDATASIZE DUP7 GT PUSH2 0x4A5 JUMPI JUMPDEST PUSH2 0x497 DUP2 DUP4 PUSH2 0x5C7 JUMP JUMPDEST DUP2 ADD SWAP1 PUSH2 0x80B JUMP JUMPDEST CODESIZE PUSH2 0x404 JUMP JUMPDEST POP RETURNDATASIZE PUSH2 0x48D JUMP JUMPDEST CALLVALUE PUSH2 0xEE JUMPI PUSH1 0x20 CALLDATASIZE PUSH1 0x3 NOT ADD SLT PUSH2 0xEE JUMPI PUSH2 0x164 PUSH2 0x59E PUSH1 0x4 CALLDATALOAD PUSH32 0xE78D462E5B267F45854758F0687F24365BBC54861F62FA130714B75DCB2416AD PUSH2 0x53E PUSH2 0x4F7 PUSH1 0x9 SLOAD ADDRESS SWAP1 PUSH2 0xA0D JUMP JUMPDEST PUSH2 0x511 PUSH2 0x502 PUSH2 0x87F JUMP JUMPDEST PUSH2 0x50A PUSH2 0x8A0 JUMP JUMPDEST SWAP1 DUP4 PUSH2 0xA57 JUMP JUMPDEST PUSH2 0x524 PUSH2 0x51C PUSH2 0x8DB JUMP JUMPDEST PUSH2 0x50A PUSH2 0x8FD JUMP JUMPDEST PUSH2 0x535 PUSH2 0x52F PUSH2 0x926 JUMP JUMPDEST DUP3 PUSH2 0xA70 JUMP JUMPDEST PUSH1 0xA SLOAD SWAP1 PUSH2 0xA9A JUMP JUMPDEST SWAP3 DUP3 DUP5 SWAP4 PUSH2 0x556 DUP6 PUSH1 0x0 MSTORE PUSH1 0xC PUSH1 0x20 MSTORE PUSH1 0x40 PUSH1 0x0 KECCAK256 SWAP1 JUMP JUMPDEST SSTORE PUSH2 0x58E CALLER PUSH2 0x56F DUP7 PUSH1 0x0 MSTORE PUSH1 0xD PUSH1 0x20 MSTORE PUSH1 0x40 PUSH1 0x0 KECCAK256 SWAP1 JUMP JUMPDEST DUP1 SLOAD PUSH1 0x1 PUSH1 0x1 PUSH1 0xA0 SHL SUB NOT AND PUSH1 0x1 PUSH1 0x1 PUSH1 0xA0 SHL SUB SWAP1 SWAP3 AND SWAP2 SWAP1 SWAP2 OR SWAP1 SSTORE JUMP JUMPDEST PUSH1 0x40 MLOAD SWAP1 DUP2 MSTORE SWAP1 DUP2 SWAP1 PUSH1 0x20 DUP3 ADD SWAP1 JUMP JUMPDEST SUB SWAP1 LOG2 PUSH1 0x40 MLOAD SWAP1 DUP2 MSTORE SWAP1 DUP2 SWAP1 PUSH1 0x20 DUP3 ADD SWAP1 JUMP JUMPDEST PUSH4 0x4E487B71 PUSH1 0xE0 SHL PUSH1 0x0 MSTORE PUSH1 0x41 PUSH1 0x4 MSTORE PUSH1 0x24 PUSH1 0x0 REVERT JUMPDEST SWAP1 PUSH1 0x1F DUP1 NOT SWAP2 ADD AND DUP2 ADD SWAP1 DUP2 LT PUSH8 0xFFFFFFFFFFFFFFFF DUP3 GT OR PUSH2 0x5E9 JUMPI PUSH1 0x40 MSTORE JUMP JUMPDEST PUSH2 0x5B1 JUMP JUMPDEST PUSH1 0x40 MLOAD SWAP1 PUSH1 0x0 PUSH1 0x8 SLOAD SWAP1 DUP2 PUSH1 0x1 SHR SWAP2 PUSH1 0x1 DUP2 AND SWAP1 DUP2 ISZERO PUSH2 0x6BF JUMPI JUMPDEST PUSH1 0x20 DUP5 LT DUP3 EQ PUSH2 0x6AB JUMPI DUP4 DUP7 MSTORE DUP6 SWAP3 SWAP2 PUSH1 0x20 DUP5 ADD SWAP2 DUP2 ISZERO PUSH2 0x692 JUMPI POP PUSH1 0x1 EQ PUSH2 0x63C JUMPI JUMPDEST POP PUSH2 0x63A SWAP3 POP SUB DUP4 PUSH2 0x5C7 JUMP JUMPDEST JUMP JUMPDEST PUSH1 0x8 PUSH1 0x0 SWAP1 DUP2 MSTORE SWAP2 POP PUSH32 0xF3F7A9FE364FAAB93B216DA50A3214154F22A0A2B415B23A84C8169E8B636EE3 JUMPDEST DUP5 DUP4 LT PUSH2 0x67B JUMPI POP PUSH2 0x63A SWAP4 POP ADD CODESIZE PUSH2 0x62D JUMP JUMPDEST DUP1 SLOAD DUP3 DUP5 ADD MSTORE DUP7 SWAP4 POP PUSH1 0x20 SWAP1 SWAP3 ADD SWAP2 PUSH1 0x1 ADD PUSH2 0x667 JUMP JUMPDEST PUSH1 0xFF NOT AND DUP3 MSTORE POP PUSH2 0x63A SWAP4 ISZERO ISZERO PUSH1 0x5 SHL ADD SWAP1 POP CODESIZE PUSH2 0x62D JUMP JUMPDEST PUSH4 0x4E487B71 PUSH1 0xE0 SHL DUP4 MSTORE PUSH1 0x22 PUSH1 0x4 MSTORE PUSH1 0x24 DUP4 REVERT JUMPDEST SWAP3 PUSH1 0x7F AND SWAP3 PUSH2 0x609 JUMP JUMPDEST CALLVALUE PUSH2 0xEE JUMPI PUSH1 0x20 CALLDATASIZE PUSH1 0x3 NOT ADD SLT PUSH2 0xEE JUMPI PUSH1 0x4 CALLDATALOAD PUSH1 0x1 PUSH1 0x1 PUSH1 0xA0 SHL SUB DUP2 AND SWAP1 DUP2 SWAP1 SUB PUSH2 0xEE JUMPI PUSH2 0x6F7 PUSH2 0x949 JUMP JUMPDEST CALLER DUP2 EQ PUSH2 0x743 JUMPI PUSH1 0x7 DUP1 SLOAD PUSH1 0x1 PUSH1 0x1 PUSH1 0xA0 SHL SUB NOT AND DUP3 OR SWAP1 SSTORE PUSH1 0x6 SLOAD PUSH1 0x1 PUSH1 0x1 PUSH1 0xA0 SHL SUB AND PUSH32 0xED8889F560326EB138920D842192F0EB3DD22B4F139C87A2C57538E05BAE1278 PUSH1 0x0 DUP1 LOG3 STOP JUMPDEST PUSH1 0x40 MLOAD PUSH3 0x461BCD PUSH1 0xE5 SHL DUP2 MSTORE PUSH1 0x20 PUSH1 0x4 DUP3 ADD MSTORE PUSH1 0x17 PUSH1 0x24 DUP3 ADD MSTORE PUSH32 0x43616E6E6F74207472616E7366657220746F2073656C66000000000000000000 PUSH1 0x44 DUP3 ADD MSTORE PUSH1 0x64 SWAP1 REVERT JUMPDEST PUSH4 0x4E487B71 PUSH1 0xE0 SHL PUSH1 0x0 MSTORE PUSH1 0x11 PUSH1 0x4 MSTORE PUSH1 0x24 PUSH1 0x0 REVERT JUMPDEST DUP1 PUSH32 0xB32D3A5A3A3A89D5B466A9493EB564CB9BE8B49311653ACB63DC7C645FA59AAA PUSH1 0x40 PUSH2 0x1EC SWAP5 DUP4 PUSH1 0x0 MSTORE PUSH1 0xC PUSH1 0x20 MSTORE DUP2 PUSH1 0x0 KECCAK256 SLOAD DUP5 PUSH1 0x0 MSTORE PUSH1 0xD PUSH1 0x20 MSTORE PUSH1 0x64 DUP4 MLOAD SWAP3 DIV DUP3 MSTORE PUSH1 0x20 DUP3 ADD MSTORE LOG2 DUP1 PUSH1 0x0 MSTORE PUSH1 0xC PUSH1 0x20 MSTORE PUSH1 0x0 PUSH1 0x40 DUP2 KECCAK256 SSTORE PUSH1 0x0 MSTORE PUSH1 0xD PUSH1 0x20 MSTORE PUSH1 0x40 PUSH1 0x0 KECCAK256 SWAP1 JUMP JUMPDEST SWAP1 DUP2 PUSH1 0x20 SWAP2 SUB SLT PUSH2 0xEE JUMPI MLOAD SWAP1 JUMP JUMPDEST PUSH1 0x40 MLOAD RETURNDATASIZE PUSH1 0x0 DUP3 RETURNDATACOPY RETURNDATASIZE SWAP1 REVERT JUMPDEST SWAP1 DUP2 PUSH1 0x20 SWAP2 SUB SLT PUSH2 0xEE JUMPI MLOAD DUP1 ISZERO ISZERO DUP2 SUB PUSH2 0xEE JUMPI SWAP1 JUMP JUMPDEST ISZERO PUSH2 0x845 JUMPI JUMP JUMPDEST PUSH1 0x40 MLOAD PUSH3 0x461BCD PUSH1 0xE5 SHL DUP2 MSTORE PUSH1 0x20 PUSH1 0x4 DUP3 ADD MSTORE PUSH1 0x12 PUSH1 0x24 DUP3 ADD MSTORE PUSH18 0x2AB730B13632903A37903A3930B739B332B9 PUSH1 0x71 SHL PUSH1 0x44 DUP3 ADD MSTORE PUSH1 0x64 SWAP1 REVERT JUMPDEST PUSH1 0x40 MLOAD SWAP1 PUSH2 0x88E PUSH1 0x40 DUP4 PUSH2 0x5C7 JUMP JUMPDEST PUSH1 0x3 DUP3 MSTORE PUSH3 0x19D95D PUSH1 0xEA SHL PUSH1 0x20 DUP4 ADD MSTORE JUMP JUMPDEST PUSH1 0x40 MLOAD SWAP1 PUSH2 0x8AF PUSH1 0x40 DUP4 PUSH2 0x5C7 JUMP JUMPDEST PUSH1 0x1C DUP3 MSTORE PUSH32 0x687474703A2F2F3132372E302E302E313A353030302F73656E736F7200000000 PUSH1 0x20 DUP4 ADD MSTORE JUMP JUMPDEST PUSH1 0x40 MLOAD SWAP1 PUSH2 0x8EA PUSH1 0x40 DUP4 PUSH2 0x5C7 JUMP JUMPDEST PUSH1 0x4 DUP3 MSTORE PUSH4 0xE0C2E8D PUSH1 0xE3 SHL PUSH1 0x20 DUP4 ADD MSTORE JUMP JUMPDEST PUSH1 0x40 MLOAD SWAP1 PUSH2 0x90C PUSH1 0x40 DUP4 PUSH2 0x5C7 JUMP JUMPDEST PUSH1 0xB DUP3 MSTORE PUSH11 0x74656D7065726174757265 PUSH1 0xA8 SHL PUSH1 0x20 DUP4 ADD MSTORE JUMP JUMPDEST PUSH1 0x40 MLOAD SWAP1 PUSH2 0x935 PUSH1 0x40 DUP4 PUSH2 0x5C7 JUMP JUMPDEST PUSH1 0x5 DUP3 MSTORE PUSH5 0x74696D6573 PUSH1 0xD8 SHL PUSH1 0x20 DUP4 ADD MSTORE JUMP JUMPDEST PUSH1 0x6 SLOAD PUSH1 0x1 PUSH1 0x1 PUSH1 0xA0 SHL SUB AND CALLER SUB PUSH2 0x95D JUMPI JUMP JUMPDEST PUSH1 0x40 MLOAD PUSH3 0x461BCD PUSH1 0xE5 SHL DUP2 MSTORE PUSH1 0x20 PUSH1 0x4 DUP3 ADD MSTORE PUSH1 0x16 PUSH1 0x24 DUP3 ADD MSTORE PUSH22 0x27B7363C9031B0B63630B1363290313C9037BBB732B9 PUSH1 0x51 SHL PUSH1 0x44 DUP3 ADD MSTORE PUSH1 0x64 SWAP1 REVERT JUMPDEST PUSH1 0x40 MLOAD SWAP1 PUSH1 0x40 DUP3 ADD DUP3 DUP2 LT PUSH8 0xFFFFFFFFFFFFFFFF DUP3 GT OR PUSH2 0x5E9 JUMPI PUSH1 0x40 MSTORE PUSH1 0x0 PUSH1 0x20 DUP4 PUSH1 0x60 DUP2 MSTORE ADD MSTORE JUMP JUMPDEST PUSH1 0x40 MLOAD SWAP1 PUSH1 0xA0 DUP3 ADD DUP3 DUP2 LT PUSH8 0xFFFFFFFFFFFFFFFF DUP3 GT OR PUSH2 0x5E9 JUMPI PUSH1 0x40 MSTORE DUP2 PUSH1 0x0 DUP2 MSTORE PUSH1 0x0 PUSH1 0x20 DUP3 ADD MSTORE PUSH1 0x0 PUSH1 0x40 DUP3 ADD MSTORE PUSH1 0x0 PUSH1 0x60 DUP3 ADD MSTORE PUSH1 0x80 PUSH2 0xA08 PUSH2 0x99B JUMP JUMPDEST SWAP2 ADD MSTORE JUMP JUMPDEST SWAP1 PUSH2 0xA16 PUSH2 0x9C6 JUMP JUMPDEST POP PUSH2 0xA1F PUSH2 0x9C6 JUMP JUMPDEST SWAP2 PUSH2 0xA28 PUSH2 0x9C6 JUMP JUMPDEST POP PUSH2 0xA36 PUSH1 0x80 DUP5 ADD MLOAD PUSH2 0xC31 JUMP JUMPDEST POP DUP3 MSTORE PUSH1 0x1 PUSH1 0x1 PUSH1 0xA0 SHL SUB AND PUSH1 0x20 DUP3 ADD MSTORE PUSH4 0x21ABC2AF PUSH1 0xE1 SHL PUSH1 0x40 DUP3 ADD MSTORE SWAP1 JUMP JUMPDEST PUSH1 0x80 ADD DUP1 MLOAD PUSH2 0x63A SWAP4 SWAP3 PUSH2 0xA6A SWAP2 PUSH2 0xB46 JUMP JUMPDEST MLOAD PUSH2 0xB46 JUMP JUMPDEST PUSH2 0xA97 SWAP2 PUSH2 0xA85 PUSH1 0x80 PUSH1 0x64 SWAP4 ADD SWAP2 DUP3 MLOAD PUSH2 0xB46 JUMP JUMPDEST MLOAD PUSH2 0xA91 PUSH1 0x18 DUP3 PUSH2 0xEE3 JUMP JUMPDEST POP PUSH2 0x10B1 JUMP JUMPDEST POP JUMP JUMPDEST PUSH1 0x3 SLOAD PUSH1 0x4 SLOAD PUSH1 0x1 DUP2 ADD SWAP4 SWAP2 PUSH1 0x1 PUSH1 0x1 PUSH1 0xA0 SHL SUB AND DUP5 DUP3 GT PUSH2 0xB41 JUMPI PUSH2 0xB3E SWAP5 PUSH1 0x4 SSTORE PUSH2 0xB39 DUP5 MLOAD PUSH2 0xB2B PUSH1 0x80 PUSH4 0xFFFFFFFF PUSH1 0xE0 SHL PUSH1 0x40 DUP10 ADD MLOAD AND SWAP8 ADD MLOAD MLOAD PUSH1 0x40 MLOAD SWAP8 DUP9 SWAP4 PUSH4 0x20214CA3 PUSH1 0xE1 SHL PUSH1 0x20 DUP7 ADD MSTORE PUSH1 0x0 PUSH1 0x24 DUP7 ADD MSTORE PUSH1 0x0 PUSH1 0x44 DUP7 ADD MSTORE PUSH1 0x64 DUP6 ADD MSTORE ADDRESS PUSH1 0x84 DUP6 ADD MSTORE PUSH1 0xA4 DUP5 ADD MSTORE DUP6 PUSH1 0xC4 DUP5 ADD MSTORE PUSH1 0x1 PUSH1 0xE4 DUP5 ADD MSTORE PUSH2 0x100 PUSH2 0x104 DUP5 ADD MSTORE PUSH2 0x124 DUP4 ADD SWAP1 PUSH2 0xF3 JUMP JUMPDEST SUB PUSH1 0x1F NOT DUP2 ADD DUP7 MSTORE DUP6 PUSH2 0x5C7 JUMP JUMPDEST PUSH2 0xDF5 JUMP JUMPDEST SWAP1 JUMP JUMPDEST PUSH2 0x788 JUMP JUMPDEST DUP2 MLOAD PUSH2 0xA97 SWAP3 SWAP2 SWAP1 PUSH8 0xFFFFFFFFFFFFFFFF AND PUSH1 0x17 DUP2 GT PUSH2 0xB7D JUMPI PUSH2 0xB77 SWAP1 PUSH2 0xB71 SWAP1 PUSH1 0x60 OR PUSH1 0xFF AND SWAP1 JUMP JUMPDEST DUP3 PUSH2 0xEE3 JUMP JUMPDEST POP PUSH2 0xC9F JUMP JUMPDEST PUSH1 0xFF DUP2 GT PUSH2 0xB9F JUMPI PUSH2 0xB77 SWAP1 PUSH2 0xB98 PUSH1 0x18 PUSH1 0x60 JUMPDEST OR DUP5 PUSH2 0xEE3 JUMP JUMPDEST POP DUP3 PUSH2 0x10B1 JUMP JUMPDEST PUSH2 0xFFFF DUP2 GT PUSH2 0xBBF JUMPI PUSH2 0xB77 SWAP1 PUSH2 0xBB8 PUSH1 0x19 PUSH1 0x60 PUSH2 0xB91 JUMP JUMPDEST POP DUP3 PUSH2 0x103F JUMP JUMPDEST PUSH4 0xFFFFFFFF DUP2 GT PUSH2 0xBE1 JUMPI PUSH2 0xB77 SWAP1 PUSH2 0xBDA PUSH1 0x1A PUSH1 0x60 PUSH2 0xB91 JUMP JUMPDEST POP DUP3 PUSH2 0xFCB JUMP JUMPDEST PUSH2 0xB77 SWAP1 PUSH2 0xBF1 PUSH1 0x1B PUSH1 0x60 PUSH2 0xB91 JUMP JUMPDEST POP DUP3 PUSH2 0xF4F JUMP JUMPDEST SWAP1 PUSH1 0x20 DUP3 ADD DUP1 SWAP3 GT PUSH2 0xB41 JUMPI JUMP JUMPDEST SWAP2 SWAP1 DUP3 ADD DUP1 SWAP3 GT PUSH2 0xB41 JUMPI JUMP JUMPDEST PUSH1 0x1F NOT DUP2 ADD SWAP2 SWAP1 DUP3 GT PUSH2 0xB41 JUMPI JUMP JUMPDEST PUSH1 0x0 NOT DUP2 ADD SWAP2 SWAP1 DUP3 GT PUSH2 0xB41 JUMPI JUMP JUMPDEST PUSH2 0xC39 PUSH2 0x99B JUMP JUMPDEST POP PUSH2 0x100 PUSH1 0x20 DUP3 ADD MSTORE PUSH2 0x120 PUSH1 0x40 MLOAD DUP1 DUP4 MSTORE PUSH1 0x0 DUP2 MSTORE ADD PUSH1 0x40 MSTORE SWAP1 JUMP JUMPDEST SWAP1 PUSH2 0xC5F PUSH2 0x99B JUMP JUMPDEST POP PUSH1 0x1F DUP2 AND DUP1 PUSH2 0xC85 JUMPI JUMPDEST POP DUP1 PUSH1 0x20 DUP4 ADD MSTORE PUSH1 0x40 MLOAD DUP1 DUP4 MSTORE PUSH1 0x0 DUP2 MSTORE ADD PUSH1 0x20 ADD PUSH1 0x40 MSTORE SWAP1 JUMP JUMPDEST PUSH1 0x20 SUB PUSH1 0x20 DUP2 GT PUSH2 0xB41 JUMPI DUP2 ADD DUP1 SWAP2 GT PUSH2 0xB41 JUMPI CODESIZE PUSH2 0xC6A JUMP JUMPDEST SWAP1 PUSH2 0xCA8 PUSH2 0x99B JUMP JUMPDEST POP DUP2 MLOAD MLOAD SWAP1 DUP1 MLOAD SWAP1 PUSH2 0xCB8 PUSH2 0x99B JUMP JUMPDEST POP PUSH2 0xCC6 DUP2 MLOAD DUP4 GT ISZERO PUSH2 0x1122 JUMP JUMPDEST PUSH2 0xCD0 DUP3 DUP5 PUSH2 0xC06 JUMP JUMPDEST PUSH1 0x20 DUP6 ADD MLOAD DUP1 SWAP2 GT PUSH2 0xD4E JUMPI JUMPDEST POP PUSH1 0x20 SWAP1 DUP5 MLOAD DUP1 MLOAD SWAP1 DUP4 DUP7 DUP3 ADD ADD SWAP6 DUP6 ADD SWAP2 DUP3 GT PUSH2 0xD46 JUMPI JUMPDEST POP POP ADD SWAP1 JUMPDEST PUSH1 0x20 DUP2 LT ISZERO PUSH2 0xD20 JUMPI PUSH1 0x0 NOT SWAP1 PUSH1 0x20 SUB PUSH2 0x100 EXP ADD SWAP1 DUP2 NOT SWAP1 MLOAD AND SWAP1 DUP3 MLOAD AND OR SWAP1 MSTORE SWAP1 JUMP JUMPDEST SWAP1 SWAP2 PUSH2 0xD3B PUSH2 0xD35 PUSH2 0xD41 SWAP3 DUP6 MLOAD DUP2 MSTORE PUSH2 0xBF8 JUMP JUMPDEST SWAP4 PUSH2 0xBF8 JUMP JUMPDEST SWAP2 PUSH2 0xC13 JUMP JUMPDEST PUSH2 0xCFB JUMP JUMPDEST MSTORE CODESIZE DUP1 PUSH2 0xCF6 JUMP JUMPDEST PUSH2 0xD6D PUSH2 0xD68 PUSH2 0xD73 SWAP3 PUSH2 0xD62 DUP8 DUP8 PUSH2 0xC06 JUMP JUMPDEST SWAP1 PUSH2 0x113F JUMP JUMPDEST PUSH2 0x1129 JUMP JUMPDEST DUP6 PUSH2 0x114F JUMP JUMPDEST CODESIZE PUSH2 0xCDD JUMP JUMPDEST PUSH2 0xB3E SWAP4 SWAP3 PUSH1 0x60 SWAP3 PUSH1 0x1 DUP1 PUSH1 0xA0 SHL SUB AND DUP3 MSTORE PUSH1 0x20 DUP3 ADD MSTORE DUP2 PUSH1 0x40 DUP3 ADD MSTORE ADD SWAP1 PUSH2 0xF3 JUMP JUMPDEST ISZERO PUSH2 0xDA4 JUMPI JUMP JUMPDEST PUSH1 0x40 MLOAD PUSH3 0x461BCD PUSH1 0xE5 SHL DUP2 MSTORE PUSH1 0x20 PUSH1 0x4 DUP3 ADD MSTORE PUSH1 0x23 PUSH1 0x24 DUP3 ADD MSTORE PUSH32 0x756E61626C6520746F207472616E73666572416E6443616C6C20746F206F7261 PUSH1 0x44 DUP3 ADD MSTORE PUSH3 0x636C65 PUSH1 0xE8 SHL PUSH1 0x64 DUP3 ADD MSTORE PUSH1 0x84 SWAP1 REVERT JUMPDEST PUSH1 0x40 MLOAD PUSH12 0xFFFFFFFFFFFFFFFFFFFFFFFF NOT ADDRESS PUSH1 0x60 SHL AND PUSH1 0x20 DUP1 DUP4 ADD SWAP2 DUP3 MSTORE PUSH1 0x34 DUP1 DUP5 ADD SWAP6 SWAP1 SWAP6 MSTORE SWAP4 DUP3 MSTORE SWAP4 SWAP5 PUSH2 0xEA8 SWAP5 SWAP1 SWAP3 SWAP2 PUSH2 0xE33 PUSH1 0x54 DUP3 PUSH2 0x5C7 JUMP JUMPDEST MLOAD SWAP1 KECCAK256 SWAP5 PUSH2 0xE4F DUP3 PUSH2 0x56F DUP9 PUSH1 0x0 MSTORE PUSH1 0x5 PUSH1 0x20 MSTORE PUSH1 0x40 PUSH1 0x0 KECCAK256 SWAP1 JUMP JUMPDEST PUSH1 0x0 PUSH1 0x40 MLOAD DUP1 SWAP7 DUP2 SWAP6 DUP3 SWAP5 DUP11 PUSH32 0xB5E6E01E79F91267DC17B4E6314D5D4D03593D2CEEE0FBB452B750BD70EA5AF9 DUP7 DUP1 LOG2 PUSH1 0x2 SLOAD PUSH2 0xE94 SWAP1 PUSH1 0x1 PUSH1 0x1 PUSH1 0xA0 SHL SUB AND PUSH2 0x3C4 JUMP JUMPDEST PUSH4 0x2000575 PUSH1 0xE5 SHL DUP6 MSTORE SWAP7 PUSH1 0x4 DUP6 ADD PUSH2 0xD79 JUMP JUMPDEST SUB SWAP3 GAS CALL DUP1 ISZERO PUSH2 0x47A JUMPI PUSH2 0xB3E SWAP2 PUSH1 0x0 SWAP2 PUSH2 0xEC4 JUMPI JUMPDEST POP PUSH2 0xD9D JUMP JUMPDEST PUSH2 0xEDD SWAP2 POP PUSH1 0x20 RETURNDATASIZE PUSH1 0x20 GT PUSH2 0x473 JUMPI PUSH2 0x465 DUP2 DUP4 PUSH2 0x5C7 JUMP JUMPDEST CODESIZE PUSH2 0xEBE JUMP JUMPDEST SWAP1 PUSH2 0xEEC PUSH2 0x99B JUMP JUMPDEST POP DUP2 MLOAD MLOAD PUSH2 0xEF8 PUSH2 0x99B JUMP JUMPDEST POP PUSH1 0x20 DUP4 ADD MLOAD DUP1 DUP3 LT ISZERO PUSH2 0xF29 JUMPI JUMPDEST POP DUP3 MLOAD SWAP2 DUP3 MLOAD SWAP2 DUP3 SWAP2 PUSH1 0x20 DUP3 DUP7 ADD ADD MSTORE8 EQ PUSH2 0xF21 JUMPI POP POP SWAP1 JUMP JUMPDEST PUSH1 0x1 ADD SWAP1 MSTORE SWAP1 JUMP JUMPDEST PUSH2 0xF35 PUSH2 0xF48 SWAP2 PUSH2 0x1129 JUMP JUMPDEST PUSH2 0xF41 DUP6 MLOAD SWAP2 DUP7 PUSH2 0xC56 JUMP JUMPDEST POP DUP5 PUSH2 0xC9F JUMP JUMPDEST POP CODESIZE PUSH2 0xF07 JUMP JUMPDEST SWAP1 PUSH2 0xF58 PUSH2 0x99B JUMP JUMPDEST POP DUP2 MLOAD MLOAD SWAP1 PUSH2 0xF65 PUSH2 0x99B JUMP JUMPDEST POP DUP2 PUSH1 0x8 ADD DUP1 PUSH1 0x8 GT PUSH2 0xB41 JUMPI PUSH1 0x20 DUP5 ADD MLOAD DUP2 GT PUSH2 0xFB8 JUMPI JUMPDEST POP PUSH2 0xF91 PUSH9 0x10000000000000000 PUSH2 0xC22 JUMP JUMPDEST DUP4 MLOAD SWAP2 PUSH1 0x8 DUP5 DUP5 ADD ADD SWAP2 NOT DUP3 MLOAD AND OR SWAP1 MSTORE PUSH1 0x8 DUP2 MLOAD SWAP3 ADD SWAP2 DUP3 GT PUSH2 0xFB4 JUMPI POP POP SWAP1 JUMP JUMPDEST MSTORE SWAP1 JUMP JUMPDEST PUSH2 0xF35 PUSH2 0xFC4 SWAP2 PUSH2 0x1129 JUMP JUMPDEST POP CODESIZE PUSH2 0xF7E JUMP JUMPDEST SWAP1 PUSH2 0xFD4 PUSH2 0x99B JUMP JUMPDEST POP DUP2 MLOAD MLOAD SWAP1 PUSH2 0xFE1 PUSH2 0x99B JUMP JUMPDEST POP DUP2 PUSH1 0x4 ADD DUP1 PUSH1 0x4 GT PUSH2 0xB41 JUMPI PUSH1 0x20 DUP5 ADD MLOAD DUP2 GT PUSH2 0x102C JUMPI JUMPDEST POP PUSH2 0x1009 PUSH5 0x100000000 PUSH2 0xC22 JUMP JUMPDEST DUP4 MLOAD SWAP2 PUSH1 0x4 DUP5 DUP5 ADD ADD SWAP2 NOT DUP3 MLOAD AND OR SWAP1 MSTORE PUSH1 0x4 DUP2 MLOAD SWAP3 ADD SWAP2 DUP3 GT PUSH2 0xFB4 JUMPI POP POP SWAP1 JUMP JUMPDEST PUSH2 0xF35 PUSH2 0x1038 SWAP2 PUSH2 0x1129 JUMP JUMPDEST POP CODESIZE PUSH2 0xFFA JUMP JUMPDEST SWAP1 PUSH2 0x1048 PUSH2 0x99B JUMP JUMPDEST POP DUP2 MLOAD MLOAD SWAP1 PUSH2 0x1055 PUSH2 0x99B JUMP JUMPDEST POP DUP2 PUSH1 0x2 ADD DUP1 PUSH1 0x2 GT PUSH2 0xB41 JUMPI PUSH1 0x20 DUP5 ADD MLOAD DUP2 GT PUSH2 0x109E JUMPI JUMPDEST POP PUSH2 0x107B PUSH3 0x10000 PUSH2 0xC22 JUMP JUMPDEST DUP4 MLOAD SWAP2 PUSH1 0x2 DUP5 DUP5 ADD ADD SWAP2 NOT DUP3 MLOAD AND OR SWAP1 MSTORE PUSH1 0x2 DUP2 MLOAD SWAP3 ADD SWAP2 DUP3 GT PUSH2 0xFB4 JUMPI POP POP SWAP1 JUMP JUMPDEST PUSH2 0xF35 PUSH2 0x10AA SWAP2 PUSH2 0x1129 JUMP JUMPDEST POP CODESIZE PUSH2 0x106E JUMP JUMPDEST SWAP1 PUSH2 0x10BA PUSH2 0x99B JUMP JUMPDEST POP DUP2 MLOAD MLOAD SWAP1 PUSH2 0x10C7 PUSH2 0x99B JUMP JUMPDEST POP DUP2 PUSH1 0x1 ADD DUP1 PUSH1 0x1 GT PUSH2 0xB41 JUMPI PUSH1 0x20 DUP5 ADD MLOAD DUP2 GT PUSH2 0x110F JUMPI JUMPDEST POP PUSH2 0x10EC PUSH2 0x100 PUSH2 0xC22 JUMP JUMPDEST DUP4 MLOAD SWAP2 PUSH1 0x1 DUP5 DUP5 ADD ADD SWAP2 NOT DUP3 MLOAD AND OR SWAP1 MSTORE PUSH1 0x1 DUP2 MLOAD SWAP3 ADD SWAP2 DUP3 GT PUSH2 0xFB4 JUMPI POP POP SWAP1 JUMP JUMPDEST PUSH2 0xF35 PUSH2 0x111B SWAP2 PUSH2 0x1129 JUMP JUMPDEST POP CODESIZE PUSH2 0x10E0 JUMP JUMPDEST ISZERO PUSH2 0xEE JUMPI JUMP JUMPDEST SWAP1 DUP2 PUSH1 0x1 SHL SWAP2 DUP1 DUP4 DIV PUSH1 0x2 EQ SWAP1 ISZERO OR ISZERO PUSH2 0xB41 JUMPI JUMP JUMPDEST DUP2 DUP2 GT PUSH2 0x114A JUMPI POP SWAP1 JUMP JUMPDEST SWAP1 POP SWAP1 JUMP JUMPDEST SWAP1 PUSH2 0xA97 SWAP2 PUSH2 0xB77 DUP2 MLOAD SWAP3 DUP3 PUSH2 0xC56 JUMP INVALID LOG2 PUSH5 0x6970667358 0x22 SLT KECCAK256 0xB0 0x2A 0xAA KECCAK256 JUMP DUP4 PUSH32 0x311952D4984E6B2A9079282A99D3FAA7BFDFFAFA94EC168E0E64736F6C634300 ADDMOD SHR STOP CALLER "},"methodIdentifiers":{"acceptOwnership()":"79ba5097","agriTraceCore()":"71cba0c7","fulfill(bytes32,uint256)":"4357855e","getLatestTemperature()":"1b5409d9","owner()":"8da5cb5b","requestTemperatureForProduct(uint256)":"a4f50073","requestToProductId(bytes32)":"1085a271","requestToRequester(bytes32)":"3f66286a","temperature()":"adccea12","transferOwnership(address)":"f2fde38b","withdrawLink()":"8dc654a2"}}}}}