{"contracts/QualityOracle.sol":{"QualityOracle":{"abi":[{"inputs":[],"stateMutability":"nonpayable","type":"constructor"},{"anonymous":false,"inputs":[{"indexed":true,"internalType":"uint256","name":"productId","type":"uint256"},{"indexed":false,"internalType":"uint256","name":"score","type":"uint256"},{"indexed":false,"internalType":"enum AgriTraceLib.Grade","name":"grade","type":"uint8"},{"indexed":false,"internalType":"address","name":"assessor","type":"address"},{"indexed":false,"internalType":"string","name":"ipfsHash","type":"string"},{"indexed":false,"internalType":"uint256","name":"temperature","type":"uint256"}],"name":"QualityAssessed","type":"event"},{"inputs":[{"internalType":"uint256","name":"productId","type":"uint256"},{"internalType":"uint256","name":"score","type":"uint256"},{"internalType":"string","name":"damageLevel","type":"string"},{"internalType":"string","name":"ipfsHash","type":"string"},{"internalType":"uint256","name":"temperature","type":"uint256"}],"name":"assessQuality","outputs":[],"stateMutability":"nonpayable","type":"function"},{"inputs":[],"name":"core","outputs":[{"internalType":"address","name":"","type":"address"}],"stateMutability":"view","type":"function"},{"inputs":[{"internalType":"uint256","name":"productId","type":"uint256"}],"name":"getQualityHistory","outputs":[{"components":[{"internalType":"uint256","name":"score","type":"uint256"},{"internalType":"enum AgriTraceLib.Grade","name":"grade","type":"uint8"},{"internalType":"string","name":"damageLevel","type":"string"},{"internalType":"uint256","name":"temperature","type":"uint256"},{"internalType":"uint256","name":"timestamp","type":"uint256"},{"internalType":"address","name":"assessor","type":"address"}],"internalType":"struct AgriTraceLib.Quality[]","name":"","type":"tuple[]"}],"stateMutability":"view","type":"function"},{"inputs":[{"internalType":"uint256","name":"","type":"uint256"},{"internalType":"uint256","name":"","type":"uint256"}],"name":"qualityHistory","outputs":[{"internalType":"uint256","name":"score","type":"uint256"},{"internalType":"enum AgriTraceLib.Grade","name":"grade","type":"uint8"},{"internalType":"string","name":"damageLevel","type":"string"},{"internalType":"uint256","name":"temperature","type":"uint256"},{"internalType":"uint256","name":"timestamp","type":"uint256"},{"internalType":"address","name":"assessor","type":"address"}],"stateMutability":"view","type":"function"}],"evm":{"bytecode":{"linkReferences":{},"object":"60808060405234602757600080546001600160a01b03191633179055610870908161002d8239f35b600080fdfe608080604052600436101561001357600080fd5b60003560e01c90816342675ada146102b6575080636babbf1614610210578063f2f4eb26146101e75763f7ba0af11461004b57600080fd5b346101e25760203660031901126101e2576004356000526001602052604060002080549067ffffffffffffffff82116101cc576040519161009260208260051b01846106ea565b80835260208301809260005260206000206000915b83831061015f57848660405191829160208301906020845251809152604083019060408160051b85010192916000905b8282106100e657505050500390f35b919360019193955060208091603f198982030185528751908151815261011283830151848301906107b0565b60a061012d604084015160c0604085015260c08401906107bd565b926060810151606084015260808101516080840152818780821b039101511691015296019201920185949391926100d7565b60066020600192604051610172816106ce565b8554815261018860ff86880154168483016107fe565b6101946002870161070c565b60408201526003860154606082015260048601546080820152848060a01b0360058701541660a08201528152019201920191906100a7565b634e487b7160e01b600052604160045260246000fd5b600080fd5b346101e25760003660031901126101e2576000546040516001600160a01b039091168152602090f35b346101e25760403660031901126101e257602435600435600052600160205260406000209081548110156101e25761024791610662565b50805460ff6001830154169161025f6002820161070c565b6003820154916102a2600482015491600560018060a01b039101541692610291604051978897885260208801906107b0565b60c0604087015260c08601906107bd565b926060850152608084015260a08301520390f35b346101e25760a03660031901126101e25760443567ffffffffffffffff81116101e2576102e7903690600401610634565b919060643567ffffffffffffffff81116101e257610309903690600401610634565b92906084359061031a60243561080a565b92610324816106ce565b6024358152602081019661033885896107fe565b67ffffffffffffffff81116101cc576040519561035f601f8301601f1916602001886106ea565b81875236828201116101e25781600092602092838a013787010152604081019485528260608201524260808201523260a0820152600435600052600160205260406000208054680100000000000000008110156101cc576103c591600182018155610662565b95909561061e57815186556001860197519760048910156106085760009860ff80198354169116179055519485519567ffffffffffffffff87116105f45790879392916104156002830154610694565b601f811161059b575b50602090601f891160011461050a579780600593927f435841eda5b2426a90d5a1877d323898df1e5668cda157e75b2b07172f1641939a8d926104ff575b50508160011b916000199060031b1c19161760028201555b606083015160038201556080830151600482015560a090920151910180546001600160a01b0319166001600160a01b039290921691821790556040516024358152946104c49060208701906107b0565b604085015260a060608501528160a085015260c08401378460c08584010152608082015260c08160043594601f80199101168101030190a280f35b015190508c8061045c565b600283018b52818b20989190601f1983168c5b8181106105805750996001928492600596957f435841eda5b2426a90d5a1877d323898df1e5668cda157e75b2b07172f1641939d10610567575b505050811b016002820155610474565b015160001960f88460031b161c191690558c8080610557565b838301518c556001909b019a8c98506020938401930161051d565b909192939450600283018a5260208a20601f890160051c81019160208a106105ea575b90601f8b9796959493920160051c01905b8181106105dc575061041e565b8b81558a96506001016105cf565b90915081906105be565b634e487b7160e01b89526041600452602489fd5b634e487b7160e01b600052602160045260246000fd5b634e487b7160e01b600052600060045260246000fd5b9181601f840112156101e25782359167ffffffffffffffff83116101e257602083818601950101116101e257565b805482101561067e576000526006602060002091020190600090565b634e487b7160e01b600052603260045260246000fd5b90600182811c921680156106c4575b60208310146106ae57565b634e487b7160e01b600052602260045260246000fd5b91607f16916106a3565b60c0810190811067ffffffffffffffff8211176101cc57604052565b90601f8019910116810190811067ffffffffffffffff8211176101cc57604052565b906040519182600082549261072084610694565b808452936001811690811561078e5750600114610747575b50610745925003836106ea565b565b90506000929192526020600020906000915b8183106107725750509060206107459282010138610738565b6020919350806001915483858901015201910190918492610759565b90506020925061074594915060ff191682840152151560051b82010138610738565b9060048210156106085752565b919082519283825260005b8481106107e9575050826000602080949584010152601f8019910116010190565b806020809284010151828286010152016107c8565b60048210156106085752565b605581101561083457604681101561082e576037111561082957600390565b600290565b50600190565b5060009056fea2646970667358221220f38c0b0f975e08663186e2e8bbd1839d78eec481726fb2d131b0f74c75388c2c64736f6c634300081c0033","opcodes":"PUSH1 0x80 DUP1 PUSH1 0x40 MSTORE CALLVALUE PUSH1 0x27 JUMPI PUSH1 0x0 DUP1 SLOAD PUSH1 0x1 PUSH1 0x1 PUSH1 0xA0 SHL SUB NOT AND CALLER OR SWAP1 SSTORE PUSH2 0x870 SWAP1 DUP2 PUSH2 0x2D DUP3 CODECOPY RETURN JUMPDEST PUSH1 0x0 DUP1 REVERT INVALID PUSH1 0x80 DUP1 PUSH1 0x40 MSTORE PUSH1 0x4 CALLDATASIZE LT ISZERO PUSH2 0x13 JUMPI PUSH1 0x0 DUP1 REVERT JUMPDEST PUSH1 0x0 CALLDATALOAD PUSH1 0xE0 SHR SWAP1 DUP2 PUSH4 0x42675ADA EQ PUSH2 0x2B6 JUMPI POP DUP1 PUSH4 0x6BABBF16 EQ PUSH2 0x210 JUMPI DUP1 PUSH4 0xF2F4EB26 EQ PUSH2 0x1E7 JUMPI PUSH4 0xF7BA0AF1 EQ PUSH2 0x4B JUMPI PUSH1 0x0 DUP1 REVERT JUMPDEST CALLVALUE PUSH2 0x1E2 JUMPI PUSH1 0x20 CALLDATASIZE PUSH1 0x3 NOT ADD SLT PUSH2 0x1E2 JUMPI PUSH1 0x4 CALLDATALOAD PUSH1 0x0 MSTORE PUSH1 0x1 PUSH1 0x20 MSTORE PUSH1 0x40 PUSH1 0x0 KECCAK256 DUP1 SLOAD SWAP1 PUSH8 0xFFFFFFFFFFFFFFFF DUP3 GT PUSH2 0x1CC JUMPI PUSH1 0x40 MLOAD SWAP2 PUSH2 0x92 PUSH1 0x20 DUP3 PUSH1 0x5 SHL ADD DUP5 PUSH2 0x6EA JUMP JUMPDEST DUP1 DUP4 MSTORE PUSH1 0x20 DUP4 ADD DUP1 SWAP3 PUSH1 0x0 MSTORE PUSH1 0x20 PUSH1 0x0 KECCAK256 PUSH1 0x0 SWAP2 JUMPDEST DUP4 DUP4 LT PUSH2 0x15F JUMPI DUP5 DUP7 PUSH1 0x40 MLOAD SWAP2 DUP3 SWAP2 PUSH1 0x20 DUP4 ADD SWAP1 PUSH1 0x20 DUP5 MSTORE MLOAD DUP1 SWAP2 MSTORE PUSH1 0x40 DUP4 ADD SWAP1 PUSH1 0x40 DUP2 PUSH1 0x5 SHL DUP6 ADD ADD SWAP3 SWAP2 PUSH1 0x0 SWAP1 JUMPDEST DUP3 DUP3 LT PUSH2 0xE6 JUMPI POP POP POP POP SUB SWAP1 RETURN JUMPDEST SWAP2 SWAP4 PUSH1 0x1 SWAP2 SWAP4 SWAP6 POP PUSH1 0x20 DUP1 SWAP2 PUSH1 0x3F NOT DUP10 DUP3 SUB ADD DUP6 MSTORE DUP8 MLOAD SWAP1 DUP2 MLOAD DUP2 MSTORE PUSH2 0x112 DUP4 DUP4 ADD MLOAD DUP5 DUP4 ADD SWAP1 PUSH2 0x7B0 JUMP JUMPDEST PUSH1 0xA0 PUSH2 0x12D PUSH1 0x40 DUP5 ADD MLOAD PUSH1 0xC0 PUSH1 0x40 DUP6 ADD MSTORE PUSH1 0xC0 DUP5 ADD SWAP1 PUSH2 0x7BD JUMP JUMPDEST SWAP3 PUSH1 0x60 DUP2 ADD MLOAD PUSH1 0x60 DUP5 ADD MSTORE PUSH1 0x80 DUP2 ADD MLOAD PUSH1 0x80 DUP5 ADD MSTORE DUP2 DUP8 DUP1 DUP3 SHL SUB SWAP2 ADD MLOAD AND SWAP2 ADD MSTORE SWAP7 ADD SWAP3 ADD SWAP3 ADD DUP6 SWAP5 SWAP4 SWAP2 SWAP3 PUSH2 0xD7 JUMP JUMPDEST PUSH1 0x6 PUSH1 0x20 PUSH1 0x1 SWAP3 PUSH1 0x40 MLOAD PUSH2 0x172 DUP2 PUSH2 0x6CE JUMP JUMPDEST DUP6 SLOAD DUP2 MSTORE PUSH2 0x188 PUSH1 0xFF DUP7 DUP9 ADD SLOAD AND DUP5 DUP4 ADD PUSH2 0x7FE JUMP JUMPDEST PUSH2 0x194 PUSH1 0x2 DUP8 ADD PUSH2 0x70C JUMP JUMPDEST PUSH1 0x40 DUP3 ADD MSTORE PUSH1 0x3 DUP7 ADD SLOAD PUSH1 0x60 DUP3 ADD MSTORE PUSH1 0x4 DUP7 ADD SLOAD PUSH1 0x80 DUP3 ADD MSTORE DUP5 DUP1 PUSH1 0xA0 SHL SUB PUSH1 0x5 DUP8 ADD SLOAD AND PUSH1 0xA0 DUP3 ADD MSTORE DUP2 MSTORE ADD SWAP3 ADD SWAP3 ADD SWAP2 SWAP1 PUSH2 0xA7 JUMP JUMPDEST PUSH4 0x4E487B71 PUSH1 0xE0 SHL PUSH1 0x0 MSTORE PUSH1 0x41 PUSH1 0x4 MSTORE PUSH1 0x24 PUSH1 0x0 REVERT JUMPDEST PUSH1 0x0 DUP1 REVERT JUMPDEST CALLVALUE PUSH2 0x1E2 JUMPI PUSH1 0x0 CALLDATASIZE PUSH1 0x3 NOT ADD SLT PUSH2 0x1E2 JUMPI PUSH1 0x0 SLOAD PUSH1 0x40 MLOAD PUSH1 0x1 PUSH1 0x1 PUSH1 0xA0 SHL SUB SWAP1 SWAP2 AND DUP2 MSTORE PUSH1 0x20 SWAP1 RETURN JUMPDEST CALLVALUE PUSH2 0x1E2 JUMPI PUSH1 0x40 CALLDATASIZE PUSH1 0x3 NOT ADD SLT PUSH2 0x1E2 JUMPI PUSH1 0x24 CALLDATALOAD PUSH1 0x4 CALLDATALOAD PUSH1 0x0 MSTORE PUSH1 0x1 PUSH1 0x20 MSTORE PUSH1 0x40 PUSH1 0x0 KECCAK256 SWAP1 DUP2 SLOAD DUP2 LT ISZERO PUSH2 0x1E2 JUMPI PUSH2 0x247 SWAP2 PUSH2 0x662 JUMP JUMPDEST POP DUP1 SLOAD PUSH1 0xFF PUSH1 0x1 DUP4 ADD SLOAD AND SWAP2 PUSH2 0x25F PUSH1 0x2 DUP3 ADD PUSH2 0x70C JUMP JUMPDEST PUSH1 0x3 DUP3 ADD SLOAD SWAP2 PUSH2 0x2A2 PUSH1 0x4 DUP3 ADD SLOAD SWAP2 PUSH1 0x5 PUSH1 0x1 DUP1 PUSH1 0xA0 SHL SUB SWAP2 ADD SLOAD AND SWAP3 PUSH2 0x291 PUSH1 0x40 MLOAD SWAP8 DUP9 SWAP8 DUP9 MSTORE PUSH1 0x20 DUP9 ADD SWAP1 PUSH2 0x7B0 JUMP JUMPDEST PUSH1 0xC0 PUSH1 0x40 DUP8 ADD MSTORE PUSH1 0xC0 DUP7 ADD SWAP1 PUSH2 0x7BD JUMP JUMPDEST SWAP3 PUSH1 0x60 DUP6 ADD MSTORE PUSH1 0x80 DUP5 ADD MSTORE PUSH1 0xA0 DUP4 ADD MSTORE SUB SWAP1 RETURN JUMPDEST CALLVALUE PUSH2 0x1E2 JUMPI PUSH1 0xA0 CALLDATASIZE PUSH1 0x3 NOT ADD SLT PUSH2 0x1E2 JUMPI PUSH1 0x44 CALLDATALOAD PUSH8 0xFFFFFFFFFFFFFFFF DUP2 GT PUSH2 0x1E2 JUMPI PUSH2 0x2E7 SWAP1 CALLDATASIZE SWAP1 PUSH1 0x4 ADD PUSH2 0x634 JUMP JUMPDEST SWAP2 SWAP1 PUSH1 0x64 CALLDATALOAD PUSH8 0xFFFFFFFFFFFFFFFF DUP2 GT PUSH2 0x1E2 JUMPI PUSH2 0x309 SWAP1 CALLDATASIZE SWAP1 PUSH1 0x4 ADD PUSH2 0x634 JUMP JUMPDEST SWAP3 SWAP1 PUSH1 0x84 CALLDATALOAD SWAP1 PUSH2 0x31A PUSH1 0x24 CALLDATALOAD PUSH2 0x80A JUMP JUMPDEST SWAP3 PUSH2 0x324 DUP2 PUSH2 0x6CE JUMP JUMPDEST PUSH1 0x24 CALLDATALOAD DUP2 MSTORE PUSH1 0x20 DUP2 ADD SWAP7 PUSH2 0x338 DUP6 DUP10 PUSH2 0x7FE JUMP JUMPDEST PUSH8 0xFFFFFFFFFFFFFFFF DUP2 GT PUSH2 0x1CC JUMPI PUSH1 0x40 MLOAD SWAP6 PUSH2 0x35F PUSH1 0x1F DUP4 ADD PUSH1 0x1F NOT AND PUSH1 0x20 ADD DUP9 PUSH2 0x6EA JUMP JUMPDEST DUP2 DUP8 MSTORE CALLDATASIZE DUP3 DUP3 ADD GT PUSH2 0x1E2 JUMPI DUP2 PUSH1 0x0 SWAP3 PUSH1 0x20 SWAP3 DUP4 DUP11 ADD CALLDATACOPY DUP8 ADD ADD MSTORE PUSH1 0x40 DUP2 ADD SWAP5 DUP6 MSTORE DUP3 PUSH1 0x60 DUP3 ADD MSTORE TIMESTAMP PUSH1 0x80 DUP3 ADD MSTORE ORIGIN PUSH1 0xA0 DUP3 ADD MSTORE PUSH1 0x4 CALLDATALOAD PUSH1 0x0 MSTORE PUSH1 0x1 PUSH1 0x20 MSTORE PUSH1 0x40 PUSH1 0x0 KECCAK256 DUP1 SLOAD PUSH9 0x10000000000000000 DUP2 LT ISZERO PUSH2 0x1CC JUMPI PUSH2 0x3C5 SWAP2 PUSH1 0x1 DUP3 ADD DUP2 SSTORE PUSH2 0x662 JUMP JUMPDEST SWAP6 SWAP1 SWAP6 PUSH2 0x61E JUMPI DUP2 MLOAD DUP7 SSTORE PUSH1 0x1 DUP7 ADD SWAP8 MLOAD SWAP8 PUSH1 0x4 DUP10 LT ISZERO PUSH2 0x608 JUMPI PUSH1 0x0 SWAP9 PUSH1 0xFF DUP1 NOT DUP4 SLOAD AND SWAP2 AND OR SWAP1 SSTORE MLOAD SWAP5 DUP6 MLOAD SWAP6 PUSH8 0xFFFFFFFFFFFFFFFF DUP8 GT PUSH2 0x5F4 JUMPI SWAP1 DUP8 SWAP4 SWAP3 SWAP2 PUSH2 0x415 PUSH1 0x2 DUP4 ADD SLOAD PUSH2 0x694 JUMP JUMPDEST PUSH1 0x1F DUP2 GT PUSH2 0x59B JUMPI JUMPDEST POP PUSH1 0x20 SWAP1 PUSH1 0x1F DUP10 GT PUSH1 0x1 EQ PUSH2 0x50A JUMPI SWAP8 DUP1 PUSH1 0x5 SWAP4 SWAP3 PUSH32 0x435841EDA5B2426A90D5A1877D323898DF1E5668CDA157E75B2B07172F164193 SWAP11 DUP14 SWAP3 PUSH2 0x4FF JUMPI JUMPDEST POP POP DUP2 PUSH1 0x1 SHL SWAP2 PUSH1 0x0 NOT SWAP1 PUSH1 0x3 SHL SHR NOT AND OR PUSH1 0x2 DUP3 ADD SSTORE JUMPDEST PUSH1 0x60 DUP4 ADD MLOAD PUSH1 0x3 DUP3 ADD SSTORE PUSH1 0x80 DUP4 ADD MLOAD PUSH1 0x4 DUP3 ADD SSTORE PUSH1 0xA0 SWAP1 SWAP3 ADD MLOAD SWAP2 ADD DUP1 SLOAD PUSH1 0x1 PUSH1 0x1 PUSH1 0xA0 SHL SUB NOT AND PUSH1 0x1 PUSH1 0x1 PUSH1 0xA0 SHL SUB SWAP3 SWAP1 SWAP3 AND SWAP2 DUP3 OR SWAP1 SSTORE PUSH1 0x40 MLOAD PUSH1 0x24 CALLDATALOAD DUP2 MSTORE SWAP5 PUSH2 0x4C4 SWAP1 PUSH1 0x20 DUP8 ADD SWAP1 PUSH2 0x7B0 JUMP JUMPDEST PUSH1 0x40 DUP6 ADD MSTORE PUSH1 0xA0 PUSH1 0x60 DUP6 ADD MSTORE DUP2 PUSH1 0xA0 DUP6 ADD MSTORE PUSH1 0xC0 DUP5 ADD CALLDATACOPY DUP5 PUSH1 0xC0 DUP6 DUP5 ADD ADD MSTORE PUSH1 0x80 DUP3 ADD MSTORE PUSH1 0xC0 DUP2 PUSH1 0x4 CALLDATALOAD SWAP5 PUSH1 0x1F DUP1 NOT SWAP2 ADD AND DUP2 ADD SUB ADD SWAP1 LOG2 DUP1 RETURN JUMPDEST ADD MLOAD SWAP1 POP DUP13 DUP1 PUSH2 0x45C JUMP JUMPDEST PUSH1 0x2 DUP4 ADD DUP12 MSTORE DUP2 DUP12 KECCAK256 SWAP9 SWAP2 SWAP1 PUSH1 0x1F NOT DUP4 AND DUP13 JUMPDEST DUP2 DUP2 LT PUSH2 0x580 JUMPI POP SWAP10 PUSH1 0x1 SWAP3 DUP5 SWAP3 PUSH1 0x5 SWAP7 SWAP6 PUSH32 0x435841EDA5B2426A90D5A1877D323898DF1E5668CDA157E75B2B07172F164193 SWAP14 LT PUSH2 0x567 JUMPI JUMPDEST POP POP POP DUP2 SHL ADD PUSH1 0x2 DUP3 ADD SSTORE PUSH2 0x474 JUMP JUMPDEST ADD MLOAD PUSH1 0x0 NOT PUSH1 0xF8 DUP5 PUSH1 0x3 SHL AND SHR NOT AND SWAP1 SSTORE DUP13 DUP1 DUP1 PUSH2 0x557 JUMP JUMPDEST DUP4 DUP4 ADD MLOAD DUP13 SSTORE PUSH1 0x1 SWAP1 SWAP12 ADD SWAP11 DUP13 SWAP9 POP PUSH1 0x20 SWAP4 DUP5 ADD SWAP4 ADD PUSH2 0x51D JUMP JUMPDEST SWAP1 SWAP2 SWAP3 SWAP4 SWAP5 POP PUSH1 0x2 DUP4 ADD DUP11 MSTORE PUSH1 0x20 DUP11 KECCAK256 PUSH1 0x1F DUP10 ADD PUSH1 0x5 SHR DUP2 ADD SWAP2 PUSH1 0x20 DUP11 LT PUSH2 0x5EA JUMPI JUMPDEST SWAP1 PUSH1 0x1F DUP12 SWAP8 SWAP7 SWAP6 SWAP5 SWAP4 SWAP3 ADD PUSH1 0x5 SHR ADD SWAP1 JUMPDEST DUP2 DUP2 LT PUSH2 0x5DC JUMPI POP PUSH2 0x41E JUMP JUMPDEST DUP12 DUP2 SSTORE DUP11 SWAP7 POP PUSH1 0x1 ADD PUSH2 0x5CF JUMP JUMPDEST SWAP1 SWAP2 POP DUP2 SWAP1 PUSH2 0x5BE JUMP JUMPDEST PUSH4 0x4E487B71 PUSH1 0xE0 SHL DUP10 MSTORE PUSH1 0x41 PUSH1 0x4 MSTORE PUSH1 0x24 DUP10 REVERT JUMPDEST PUSH4 0x4E487B71 PUSH1 0xE0 SHL PUSH1 0x0 MSTORE PUSH1 0x21 PUSH1 0x4 MSTORE PUSH1 0x24 PUSH1 0x0 REVERT JUMPDEST PUSH4 0x4E487B71 PUSH1 0xE0 SHL PUSH1 0x0 MSTORE PUSH1 0x0 PUSH1 0x4 MSTORE PUSH1 0x24 PUSH1 0x0 REVERT JUMPDEST SWAP2 DUP2 PUSH1 0x1F DUP5 ADD SLT ISZERO PUSH2 0x1E2 JUMPI DUP3 CALLDATALOAD SWAP2 PUSH8 0xFFFFFFFFFFFFFFFF DUP4 GT PUSH2 0x1E2 JUMPI PUSH1 0x20 DUP4 DUP2 DUP7 ADD SWAP6 ADD ADD GT PUSH2 0x1E2 JUMPI JUMP JUMPDEST DUP1 SLOAD DUP3 LT ISZERO PUSH2 0x67E JUMPI PUSH1 0x0 MSTORE PUSH1 0x6 PUSH1 0x20 PUSH1 0x0 KECCAK256 SWAP2 MUL ADD SWAP1 PUSH1 0x0 SWAP1 JUMP JUMPDEST PUSH4 0x4E487B71 PUSH1 0xE0 SHL PUSH1 0x0 MSTORE PUSH1 0x32 PUSH1 0x4 MSTORE PUSH1 0x24 PUSH1 0x0 REVERT JUMPDEST SWAP1 PUSH1 0x1 DUP3 DUP2 SHR SWAP3 AND DUP1 ISZERO PUSH2 0x6C4 JUMPI JUMPDEST PUSH1 0x20 DUP4 LT EQ PUSH2 0x6AE JUMPI JUMP JUMPDEST PUSH4 0x4E487B71 PUSH1 0xE0 SHL PUSH1 0x0 MSTORE PUSH1 0x22 PUSH1 0x4 MSTORE PUSH1 0x24 PUSH1 0x0 REVERT JUMPDEST SWAP2 PUSH1 0x7F AND SWAP2 PUSH2 0x6A3 JUMP JUMPDEST PUSH1 0xC0 DUP2 ADD SWAP1 DUP2 LT PUSH8 0xFFFFFFFFFFFFFFFF DUP3 GT OR PUSH2 0x1CC JUMPI PUSH1 0x40 MSTORE JUMP JUMPDEST SWAP1 PUSH1 0x1F DUP1 NOT SWAP2 ADD AND DUP2 ADD SWAP1 DUP2 LT PUSH8 0xFFFFFFFFFFFFFFFF DUP3 GT OR PUSH2 0x1CC JUMPI PUSH1 0x40 MSTORE JUMP JUMPDEST SWAP1 PUSH1 0x40 MLOAD SWAP2 DUP3 PUSH1 0x0 DUP3 SLOAD SWAP3 PUSH2 0x720 DUP5 PUSH2 0x694 JUMP JUMPDEST DUP1 DUP5 MSTORE SWAP4 PUSH1 0x1 DUP2 AND SWAP1 DUP2 ISZERO PUSH2 0x78E JUMPI POP PUSH1 0x1 EQ PUSH2 0x747 JUMPI JUMPDEST POP PUSH2 0x745 SWAP3 POP SUB DUP4 PUSH2 0x6EA JUMP JUMPDEST JUMP JUMPDEST SWAP1 POP PUSH1 0x0 SWAP3 SWAP2 SWAP3 MSTORE PUSH1 0x20 PUSH1 0x0 KECCAK256 SWAP1 PUSH1 0x0 SWAP2 JUMPDEST DUP2 DUP4 LT PUSH2 0x772 JUMPI POP POP SWAP1 PUSH1 0x20 PUSH2 0x745 SWAP3 DUP3 ADD ADD CODESIZE PUSH2 0x738 JUMP JUMPDEST PUSH1 0x20 SWAP2 SWAP4 POP DUP1 PUSH1 0x1 SWAP2 SLOAD DUP4 DUP6 DUP10 ADD ADD MSTORE ADD SWAP2 ADD SWAP1 SWAP2 DUP5 SWAP3 PUSH2 0x759 JUMP JUMPDEST SWAP1 POP PUSH1 0x20 SWAP3 POP PUSH2 0x745 SWAP5 SWAP2 POP PUSH1 0xFF NOT AND DUP3 DUP5 ADD MSTORE ISZERO ISZERO PUSH1 0x5 SHL DUP3 ADD ADD CODESIZE PUSH2 0x738 JUMP JUMPDEST SWAP1 PUSH1 0x4 DUP3 LT ISZERO PUSH2 0x608 JUMPI MSTORE JUMP JUMPDEST SWAP2 SWAP1 DUP3 MLOAD SWAP3 DUP4 DUP3 MSTORE PUSH1 0x0 JUMPDEST DUP5 DUP2 LT PUSH2 0x7E9 JUMPI POP POP DUP3 PUSH1 0x0 PUSH1 0x20 DUP1 SWAP5 SWAP6 DUP5 ADD ADD MSTORE PUSH1 0x1F DUP1 NOT SWAP2 ADD AND ADD ADD SWAP1 JUMP JUMPDEST DUP1 PUSH1 0x20 DUP1 SWAP3 DUP5 ADD ADD MLOAD DUP3 DUP3 DUP7 ADD ADD MSTORE ADD PUSH2 0x7C8 JUMP JUMPDEST PUSH1 0x4 DUP3 LT ISZERO PUSH2 0x608 JUMPI MSTORE JUMP JUMPDEST PUSH1 0x55 DUP2 LT ISZERO PUSH2 0x834 JUMPI PUSH1 0x46 DUP2 LT ISZERO PUSH2 0x82E JUMPI PUSH1 0x37 GT ISZERO PUSH2 0x829 JUMPI PUSH1 0x3 SWAP1 JUMP JUMPDEST PUSH1 0x2 SWAP1 JUMP JUMPDEST POP PUSH1 0x1 SWAP1 JUMP JUMPDEST POP PUSH1 0x0 SWAP1 JUMP INVALID LOG2 PUSH5 0x6970667358 0x22 SLT KECCAK256 RETURN DUP13 SIGNEXTEND 0xF SWAP8 MCOPY ADDMOD PUSH7 0x3186E2E8BBD183 SWAP14 PUSH25 0xEEC481726FB2D131B0F74C75388C2C64736F6C634300081C00 CALLER "},"methodIdentifiers":{"assessQuality(uint256,uint256,string,string,uint256)":"42675ada","core()":"f2f4eb26","getQualityHistory(uint256)":"f7ba0af1","qualityHistory(uint256,uint256)":"6babbf16"}}}}}