{
  "_format": "hh-sol-artifact-1",
  "contractName": "TemperatureOracle",
  "sourceName": "contracts/TemperatureOracle.sol",
  "abi": [
    {
      "inputs": [
        {
          "internalType": "address",
          "name": "_agriTraceCore",
          "type": "address"
        }
      ],
      "stateMutability": "nonpayable",
      "type": "constructor"
    },
    {
      "anonymous": false,
      "inputs": [
        {
          "indexed": true,
          "internalType": "bytes32",
          "name": "id",
          "type": "bytes32"
        }
      ],
      "name": "ChainlinkCancelled",
      "type": "event"
    },
    {
      "anonymous": false,
      "inputs": [
        {
          "indexed": true,
          "internalType": "bytes32",
          "name": "id",
          "type": "bytes32"
        }
      ],
      "name": "ChainlinkFulfilled",
      "type": "event"
    },
    {
      "anonymous": false,
      "inputs": [
        {
          "indexed": true,
          "internalType": "bytes32",
          "name": "id",
          "type": "bytes32"
        }
      ],
      "name": "ChainlinkRequested",
      "type": "event"
    },
    {
      "anonymous": false,
      "inputs": [
        {
          "indexed": true,
          "internalType": "uint256",
          "name": "productId",
          "type": "uint256"
        },
        {
          "indexed": false,
          "internalType": "uint256",
          "name": "temperature",
          "type": "uint256"
        }
      ],
      "name": "CriticalTemperatureDetected",
      "type": "event"
    },
    {
      "anonymous": false,
      "inputs": [
        {
          "indexed": true,
          "internalType": "address",
          "name": "from",
          "type": "address"
        },
        {
          "indexed": true,
          "internalType": "address",
          "name": "to",
          "type": "address"
        }
      ],
      "name": "OwnershipTransferRequested",
      "type": "event"
    },
    {
      "anonymous": false,
      "inputs": [
        {
          "indexed": true,
          "internalType": "address",
          "name": "from",
          "type": "address"
        },
        {
          "indexed": true,
          "internalType": "address",
          "name": "to",
          "type": "address"
        }
      ],
      "name": "OwnershipTransferred",
      "type": "event"
    },
    {
      "anonymous": false,
      "inputs": [
        {
          "indexed": true,
          "internalType": "bytes32",
          "name": "requestId",
          "type": "bytes32"
        },
        {
          "indexed": false,
          "internalType": "uint256",
          "name": "productId",
          "type": "uint256"
        }
      ],
      "name": "RequestTemperature",
      "type": "event"
    },
    {
      "anonymous": false,
      "inputs": [
        {
          "indexed": true,
          "internalType": "bytes32",
          "name": "requestId",
          "type": "bytes32"
        },
        {
          "indexed": false,
          "internalType": "uint256",
          "name": "temperature",
          "type": "uint256"
        },
        {
          "indexed": false,
          "internalType": "uint256",
          "name": "productId",
          "type": "uint256"
        }
      ],
      "name": "TemperatureReceived",
      "type": "event"
    },
    {
      "inputs": [],
      "name": "acceptOwnership",
      "outputs": [],
      "stateMutability": "nonpayable",
      "type": "function"
    },
    {
      "inputs": [],
      "name": "agriTraceCore",
      "outputs": [
        {
          "internalType": "contract AgriTraceCore",
          "name": "",
          "type": "address"
        }
      ],
      "stateMutability": "view",
      "type": "function"
    },
    {
      "inputs": [
        {
          "internalType": "bytes32",
          "name": "_requestId",
          "type": "bytes32"
        },
        {
          "internalType": "uint256",
          "name": "_temperature",
          "type": "uint256"
        }
      ],
      "name": "fulfill",
      "outputs": [],
      "stateMutability": "nonpayable",
      "type": "function"
    },
    {
      "inputs": [
        {
          "internalType": "uint256",
          "name": "productId",
          "type": "uint256"
        }
      ],
      "name": "getCurrentTemperature",
      "outputs": [
        {
          "internalType": "uint256",
          "name": "",
          "type": "uint256"
        }
      ],
      "stateMutability": "view",
      "type": "function"
    },
    {
      "inputs": [
        {
          "internalType": "uint256",
          "name": "productId",
          "type": "uint256"
        }
      ],
      "name": "getLatestTemperatureForProduct",
      "outputs": [
        {
          "internalType": "uint256",
          "name": "",
          "type": "uint256"
        }
      ],
      "stateMutability": "view",
      "type": "function"
    },
    {
      "inputs": [
        {
          "internalType": "uint256",
          "name": "",
          "type": "uint256"
        }
      ],
      "name": "latestTemperatureByProduct",
      "outputs": [
        {
          "internalType": "uint256",
          "name": "",
          "type": "uint256"
        }
      ],
      "stateMutability": "view",
      "type": "function"
    },
    {
      "inputs": [],
      "name": "owner",
      "outputs": [
        {
          "internalType": "address",
          "name": "",
          "type": "address"
        }
      ],
      "stateMutability": "view",
      "type": "function"
    },
    {
      "inputs": [
        {
          "internalType": "uint256",
          "name": "productId",
          "type": "uint256"
        }
      ],
      "name": "requestTemperatureForProduct",
      "outputs": [
        {
          "internalType": "bytes32",
          "name": "requestId",
          "type": "bytes32"
        }
      ],
      "stateMutability": "nonpayable",
      "type": "function"
    },
    {
      "inputs": [
        {
          "internalType": "bytes32",
          "name": "",
          "type": "bytes32"
        }
      ],
      "name": "requestToProductId",
      "outputs": [
        {
          "internalType": "uint256",
          "name": "",
          "type": "uint256"
        }
      ],
      "stateMutability": "view",
      "type": "function"
    },
    {
      "inputs": [
        {
          "internalType": "bytes32",
          "name": "",
          "type": "bytes32"
        }
      ],
      "name": "requestToRequester",
      "outputs": [
        {
          "internalType": "address",
          "name": "",
          "type": "address"
        }
      ],
      "stateMutability": "view",
      "type": "function"
    },
    {
      "inputs": [
        {
          "internalType": "address",
          "name": "to",
          "type": "address"
        }
      ],
      "name": "transferOwnership",
      "outputs": [],
      "stateMutability": "nonpayable",
      "type": "function"
    },
    {
      "inputs": [],
      "name": "withdrawLink",
      "outputs": [],
      "stateMutability": "nonpayable",
      "type": "function"
    }
  ],
  "bytecode": "0x60803461013e57601f6112f038819003918201601f19168301916001600160401b038311848410176101435780849260209460405283398101031261013e57516001600160a01b0381169081900361013e57600160045533156100f957600680546001600160a01b0319908116331790915560028054821673779877a7b0d9e8603169ddbd7836e478b4624789179055600380548216736090149792daaee9d1d568c9f9a6f6b46aa29efd1790557f636139383336366363373331343935376238633031326337326630356165656260085567016345785d8a0000600955600a8054909116919091179055604051611196908161015a8239f35b60405162461bcd60e51b815260206004820152601860248201527f43616e6e6f7420736574206f776e657220746f207a65726f00000000000000006044820152606490fd5b600080fd5b634e487b7160e01b600052604160045260246000fdfe6080604052600436101561001257600080fd5b60003560e01c80631085a271146100cd5780633f66286a146100c85780634357855e146100c357806356100913146100a55780635ded83d0146100a557806371cba0c7146100be57806379ba5097146100b95780638da5cb5b146100b45780638dc654a2146100af578063a4f50073146100aa578063b6ec7709146100a55763f2fde38b146100a057600080fd5b610577565b610215565b61046e565b610354565b61032b565b61026a565b610241565b610132565b6100fe565b346100f95760203660031901126100f957600435600052600b6020526020604060002054604051908152f35b600080fd5b346100f95760203660031901126100f957600435600052600c602052602060018060a01b0360406000205416604051908152f35b346100f95760403660031901126100f9576004356024356000828152600560205260409020546001600160a01b031633036101bf57816101926101826101bd946000526005602052604060002090565b80546001600160a01b0319169055565b807f7cc135e0cebb02c3480ae5d74d377283180a2601f8f644edf7987b009316c63a600080a26106a4565b005b60405162461bcd60e51b815260206004820152602860248201527f536f75726365206d75737420626520746865206f7261636c65206f6620746865604482015267081c995c5d595cdd60c21b6064820152608490fd5b346100f95760203660031901126100f957600435600052600d6020526020604060002054604051908152f35b346100f95760003660031901126100f957600a546040516001600160a01b039091168152602090f35b346100f95760003660031901126100f9576007546001600160a01b031633036102ed576006546001600160a01b0316600680546001600160a01b03191633179055600780546001600160a01b031916905533906001600160a01b03167f8be0079c531659141344cd1fd0a4f28419497f9722a3daafe3b4186f6b6457e0600080a3005b60405162461bcd60e51b815260206004820152601660248201527526bab9ba10313290383937b837b9b2b21037bbb732b960511b6044820152606490fd5b346100f95760003660031901126100f9576006546040516001600160a01b039091168152602090f35b346100f95760003660031901126100f95761036d610908565b600254610392906103869081906001600160a01b031681565b6001600160a01b031690565b6040516370a0823160e01b8152306004820152602081602481855afa90811561043c576000926020926103f1928591610441575b5060405163a9059cbb60e01b8152336004820152602481019190915293849283919082906044820190565b03925af1801561043c576101bd9160009161040d575b506107fd565b61042f915060203d602011610435575b6104278183610662565b8101906107e5565b38610407565b503d61041d565b610698565b6104619150843d8611610467575b6104598183610662565b810190610689565b386103c6565b503d61044f565b346100f95760203660031901126100f9576105736105606004357fe78d462e5b267f45854758f0687f24365bbc54861f62fa130714b75dcb2416ad6105006104b960085430906109cc565b6104d36104c461083e565b6104cc61085f565b9083610a16565b6104e66104de61089a565b6104cc6108bc565b6104f76104f16108e5565b82610a2f565b60095490610a59565b9282849361051885600052600b602052604060002090565b556105503361053186600052600c602052604060002090565b80546001600160a01b0319166001600160a01b03909216919091179055565b6040519081529081906020820190565b0390a26040519081529081906020820190565b0390f35b346100f95760203660031901126100f9576004356001600160a01b038116908190036100f9576105a5610908565b3381146105f157600780546001600160a01b031916821790556006546001600160a01b03167fed8889f560326eb138920d842192f0eb3dd22b4f139c87a2c57538e05bae1278600080a3005b60405162461bcd60e51b815260206004820152601760248201527f43616e6e6f74207472616e7366657220746f2073656c660000000000000000006044820152606490fd5b634e487b7160e01b600052601160045260246000fd5b634e487b7160e01b600052604160045260246000fd5b90601f8019910116810190811067ffffffffffffffff82111761068457604052565b61064c565b908160209103126100f9575190565b6040513d6000823e3d90fd5b6106d96106bb82600052600b602052604060002090565b54926106d183600052600c602052604060002090565b506064900490565b90816106ef84600052600d602052604060002090565b55600a5460049060209061070b906001600160a01b0316610386565b6040516318e28d2360e21b815292839182905afa90811561043c57610791946101829484937fb32d3a5a3a3a89d5b466a9493eb564cb9be8b49311653acb63dc7c645fa59aaa936000916107c6575b508110610793575b604080519182526020820192909252a26000818152600b6020526040812055600052600c602052604060002090565b565b60405181815282907f0241c53f9292112c296487599ac90a45b728aed613e321f89cfd796bc75cf99590602090a2610762565b6107df915060203d602011610467576104598183610662565b3861075a565b908160209103126100f9575180151581036100f95790565b1561080457565b60405162461bcd60e51b81526020600482015260126024820152712ab730b13632903a37903a3930b739b332b960711b6044820152606490fd5b6040519061084d604083610662565b600382526219d95d60ea1b6020830152565b6040519061086e604083610662565b601c82527f687474703a2f2f3132372e302e302e313a353030302f73656e736f72000000006020830152565b604051906108a9604083610662565b60048252630e0c2e8d60e31b6020830152565b604051906108cb604083610662565b600b82526a74656d706572617475726560a81b6020830152565b604051906108f4604083610662565b600582526474696d657360d81b6020830152565b6006546001600160a01b0316330361091c57565b60405162461bcd60e51b815260206004820152601660248201527527b7363c9031b0b63630b1363290313c9037bbb732b960511b6044820152606490fd5b604051906040820182811067ffffffffffffffff821117610684576040526000602083606081520152565b6040519060a0820182811067ffffffffffffffff82111761068457604052816000815260006020820152600060408201526000606082015260806109c761095a565b910152565b906109d5610985565b506109de610985565b916109e7610985565b506109f56080840151610c31565b5082526001600160a01b031660208201526321abc2af60e11b604082015290565b60800180516107919392610a2991610b05565b51610b05565b610a5691610a44608060649301918251610b05565b51610a50601882610ee3565b506110b1565b50565b6003546004546001810193916001600160a01b0316848211610b0057610afd94600455610af88451610aea608063ffffffff60e01b604089015116970151516040519788936320214ca360e11b60208601526000602486015260006044860152606485015230608485015260a48401528560c4840152600160e4840152610100610104840152610124830190610bd2565b03601f198101865285610662565b610df5565b90565b610636565b8151610a5692919067ffffffffffffffff1660178111610b3c57610b3690610b309060601760ff1690565b82610ee3565b50610c9f565b60ff8111610b5e57610b3690610b57601860605b1784610ee3565b50826110b1565b61ffff8111610b7e57610b3690610b7760196060610b50565b508261103f565b63ffffffff8111610ba057610b3690610b99601a6060610b50565b5082610fcb565b610b3690610bb0601b6060610b50565b5082610f4f565b9060208201809211610b0057565b91908201809211610b0057565b919082519283825260005b848110610bfe575050826000602080949584010152601f8019910116010190565b80602080928401015182828601015201610bdd565b601f19810191908211610b0057565b600019810191908211610b0057565b610c3961095a565b506101006020820152610120604051808352600081520160405290565b90610c5f61095a565b50601f811680610c85575b50806020830152604051808352600081520160200160405290565b60200360208111610b00578101809111610b005738610c6a565b90610ca861095a565b5081515190805190610cb861095a565b50610cc68151831115611122565b610cd08284610bc5565b6020850151809111610d4e575b5060209084518051908386820101958501918211610d46575b505001905b6020811015610d2057600019906020036101000a019081199051169082511617905290565b9091610d3b610d35610d419285518152610bb7565b93610bb7565b91610c13565b610cfb565b523880610cf6565b610d6d610d68610d7392610d628787610bc5565b9061113f565b611129565b8561114f565b38610cdd565b610afd939260609260018060a01b0316825260208201528160408201520190610bd2565b15610da457565b60405162461bcd60e51b815260206004820152602360248201527f756e61626c6520746f207472616e73666572416e6443616c6c20746f206f7261604482015262636c6560e81b6064820152608490fd5b6040516bffffffffffffffffffffffff193060601b1660208083019182526034808401959095529382529394610ea894909291610e33605482610662565b51902094610e4f82610531886000526005602052604060002090565b60006040518096819582948a7fb5e6e01e79f91267dc17b4e6314d5d4d03593d2ceee0fbb452b750bd70ea5af98680a2600254610e94906001600160a01b0316610386565b630200057560e51b85529660048501610d79565b03925af1801561043c57610afd91600091610ec4575b50610d9d565b610edd915060203d602011610435576104278183610662565b38610ebe565b90610eec61095a565b50815151610ef861095a565b50602083015180821015610f29575b5082519182519182916020828601015314610f2157505090565b600101905290565b610f35610f4891611129565b610f4185519186610c56565b5084610c9f565b5038610f07565b90610f5861095a565b5081515190610f6561095a565b508160080180600811610b005760208401518111610fb8575b50610f9168010000000000000000610c22565b8351916008848401019119825116179052600881519201918211610fb457505090565b5290565b610f35610fc491611129565b5038610f7e565b90610fd461095a565b5081515190610fe161095a565b508160040180600411610b00576020840151811161102c575b50611009640100000000610c22565b8351916004848401019119825116179052600481519201918211610fb457505090565b610f3561103891611129565b5038610ffa565b9061104861095a565b508151519061105561095a565b508160020180600211610b00576020840151811161109e575b5061107b62010000610c22565b8351916002848401019119825116179052600281519201918211610fb457505090565b610f356110aa91611129565b503861106e565b906110ba61095a565b50815151906110c761095a565b508160010180600111610b00576020840151811161110f575b506110ec610100610c22565b8351916001848401019119825116179052600181519201918211610fb457505090565b610f3561111b91611129565b50386110e0565b156100f957565b908160011b9180830460021490151715610b0057565b81811161114a575090565b905090565b90610a5691610b3681519282610c5656fea264697066735822122086ed17989a23ba1525b7a7b53ea0e72d2ebbb49ad6f50ab29e66c63792a1759564736f6c634300081c0033",
  "linkReferences": {},
  "deployedLinkReferences": {}
}