{
  "_format": "hh-sol-artifact-1",
  "contractName": "QualityOracle",
  "sourceName": "contracts/QualityOracle.sol",
  "abi": [
    {
      "inputs": [],
      "stateMutability": "nonpayable",
      "type": "constructor"
    },
    {
      "anonymous": false,
      "inputs": [
        {
          "indexed": true,
          "internalType": "uint256",
          "name": "productId",
          "type": "uint256"
        },
        {
          "indexed": false,
          "internalType": "uint256",
          "name": "score",
          "type": "uint256"
        },
        {
          "indexed": false,
          "internalType": "enum AgriTraceLib.Grade",
          "name": "grade",
          "type": "uint8"
        },
        {
          "indexed": false,
          "internalType": "address",
          "name": "assessor",
          "type": "address"
        },
        {
          "indexed": false,
          "internalType": "string",
          "name": "ipfsHash",
          "type": "string"
        },
        {
          "indexed": false,
          "internalType": "uint256",
          "name": "temperature",
          "type": "uint256"
        }
      ],
      "name": "QualityAssessed",
      "type": "event"
    },
    {
      "inputs": [
        {
          "internalType": "uint256",
          "name": "productId",
          "type": "uint256"
        },
        {
          "internalType": "uint256",
          "name": "score",
          "type": "uint256"
        },
        {
          "internalType": "string",
          "name": "damageLevel",
          "type": "string"
        },
        {
          "internalType": "string",
          "name": "ipfsHash",
          "type": "string"
        },
        {
          "internalType": "uint256",
          "name": "temperature",
          "type": "uint256"
        }
      ],
      "name": "assessQuality",
      "outputs": [],
      "stateMutability": "nonpayable",
      "type": "function"
    },
    {
      "inputs": [],
      "name": "core",
      "outputs": [
        {
          "internalType": "address",
          "name": "",
          "type": "address"
        }
      ],
      "stateMutability": "view",
      "type": "function"
    },
    {
      "inputs": [
        {
          "internalType": "uint256",
          "name": "productId",
          "type": "uint256"
        }
      ],
      "name": "getQualityHistory",
      "outputs": [
        {
          "components": [
            {
              "internalType": "uint256",
              "name": "score",
              "type": "uint256"
            },
            {
              "internalType": "enum AgriTraceLib.Grade",
              "name": "grade",
              "type": "uint8"
            },
            {
              "internalType": "string",
              "name": "damageLevel",
              "type": "string"
            },
            {
              "internalType": "uint256",
              "name": "temperature",
              "type": "uint256"
            },
            {
              "internalType": "uint256",
              "name": "timestamp",
              "type": "uint256"
            },
            {
              "internalType": "address",
              "name": "assessor",
              "type": "address"
            }
          ],
          "internalType": "struct AgriTraceLib.Quality[]",
          "name": "",
          "type": "tuple[]"
        }
      ],
      "stateMutability": "view",
      "type": "function"
    },
    {
      "inputs": [
        {
          "internalType": "uint256",
          "name": "",
          "type": "uint256"
        },
        {
          "internalType": "uint256",
          "name": "",
          "type": "uint256"
        }
      ],
      "name": "qualityHistory",
      "outputs": [
        {
          "internalType": "uint256",
          "name": "score",
          "type": "uint256"
        },
        {
          "internalType": "enum AgriTraceLib.Grade",
          "name": "grade",
          "type": "uint8"
        },
        {
          "internalType": "string",
          "name": "damageLevel",
          "type": "string"
        },
        {
          "internalType": "uint256",
          "name": "temperature",
          "type": "uint256"
        },
        {
          "internalType": "uint256",
          "name": "timestamp",
          "type": "uint256"
        },
        {
          "internalType": "address",
          "name": "assessor",
          "type": "address"
        }
      ],
      "stateMutability": "view",
      "type": "function"
    }
  ],
  "bytecode": "0x60808060405234602757600080546001600160a01b03191633179055610870908161002d8239f35b600080fdfe608080604052600436101561001357600080fd5b60003560e01c90816342675ada146102b6575080636babbf1614610210578063f2f4eb26146101e75763f7ba0af11461004b57600080fd5b346101e25760203660031901126101e2576004356000526001602052604060002080549067ffffffffffffffff82116101cc576040519161009260208260051b01846106ea565b80835260208301809260005260206000206000915b83831061015f57848660405191829160208301906020845251809152604083019060408160051b85010192916000905b8282106100e657505050500390f35b919360019193955060208091603f198982030185528751908151815261011283830151848301906107b0565b60a061012d604084015160c0604085015260c08401906107bd565b926060810151606084015260808101516080840152818780821b039101511691015296019201920185949391926100d7565b60066020600192604051610172816106ce565b8554815261018860ff86880154168483016107fe565b6101946002870161070c565b60408201526003860154606082015260048601546080820152848060a01b0360058701541660a08201528152019201920191906100a7565b634e487b7160e01b600052604160045260246000fd5b600080fd5b346101e25760003660031901126101e2576000546040516001600160a01b039091168152602090f35b346101e25760403660031901126101e257602435600435600052600160205260406000209081548110156101e25761024791610662565b50805460ff6001830154169161025f6002820161070c565b6003820154916102a2600482015491600560018060a01b039101541692610291604051978897885260208801906107b0565b60c0604087015260c08601906107bd565b926060850152608084015260a08301520390f35b346101e25760a03660031901126101e25760443567ffffffffffffffff81116101e2576102e7903690600401610634565b919060643567ffffffffffffffff81116101e257610309903690600401610634565b92906084359061031a60243561080a565b92610324816106ce565b6024358152602081019661033885896107fe565b67ffffffffffffffff81116101cc576040519561035f601f8301601f1916602001886106ea565b81875236828201116101e25781600092602092838a013787010152604081019485528260608201524260808201523260a0820152600435600052600160205260406000208054680100000000000000008110156101cc576103c591600182018155610662565b95909561061e57815186556001860197519760048910156106085760009860ff80198354169116179055519485519567ffffffffffffffff87116105f45790879392916104156002830154610694565b601f811161059b575b50602090601f891160011461050a579780600593927f435841eda5b2426a90d5a1877d323898df1e5668cda157e75b2b07172f1641939a8d926104ff575b50508160011b916000199060031b1c19161760028201555b606083015160038201556080830151600482015560a090920151910180546001600160a01b0319166001600160a01b039290921691821790556040516024358152946104c49060208701906107b0565b604085015260a060608501528160a085015260c08401378460c08584010152608082015260c08160043594601f80199101168101030190a280f35b015190508c8061045c565b600283018b52818b20989190601f1983168c5b8181106105805750996001928492600596957f435841eda5b2426a90d5a1877d323898df1e5668cda157e75b2b07172f1641939d10610567575b505050811b016002820155610474565b015160001960f88460031b161c191690558c8080610557565b838301518c556001909b019a8c98506020938401930161051d565b909192939450600283018a5260208a20601f890160051c81019160208a106105ea575b90601f8b9796959493920160051c01905b8181106105dc575061041e565b8b81558a96506001016105cf565b90915081906105be565b634e487b7160e01b89526041600452602489fd5b634e487b7160e01b600052602160045260246000fd5b634e487b7160e01b600052600060045260246000fd5b9181601f840112156101e25782359167ffffffffffffffff83116101e257602083818601950101116101e257565b805482101561067e576000526006602060002091020190600090565b634e487b7160e01b600052603260045260246000fd5b90600182811c921680156106c4575b60208310146106ae57565b634e487b7160e01b600052602260045260246000fd5b91607f16916106a3565b60c0810190811067ffffffffffffffff8211176101cc57604052565b90601f8019910116810190811067ffffffffffffffff8211176101cc57604052565b906040519182600082549261072084610694565b808452936001811690811561078e5750600114610747575b50610745925003836106ea565b565b90506000929192526020600020906000915b8183106107725750509060206107459282010138610738565b6020919350806001915483858901015201910190918492610759565b90506020925061074594915060ff191682840152151560051b82010138610738565b9060048210156106085752565b919082519283825260005b8481106107e9575050826000602080949584010152601f8019910116010190565b806020809284010151828286010152016107c8565b60048210156106085752565b605581101561083457604681101561082e576037111561082957600390565b600290565b50600190565b5060009056fea2646970667358221220f38c0b0f975e08663186e2e8bbd1839d78eec481726fb2d131b0f74c75388c2c64736f6c634300081c0033",
  "linkReferences": {},
  "deployedLinkReferences": {}
}